:020000022000DC
:1060000000000420756302005D6302005F6302000C
:106010006163020063630200656302000000000028
:1060200000000000000000000000000067630200A4
:1060300069630200000000006B6302006D630200F0
:10604000698502006F630200218A02006F6302000B
:106050006F6302006F630200758802006F630200C5
:106060006F6302006F6302006F6302006F630200E0
:106070006F6302006F6302006F6302006F630200D0
:106080006F630200017102006F6302006F63020020
:106090009D7102006F63020075B502006F6302001C
:1060A0006F6302006F6302006F6302006F630200A0
:1060B0006F6302006F630200000000000000000038
:1060C0006F6302006F6302006F6302006F63020080
:1060D0006F6302006F6302006F6302006F63020070
:1060E0006F6302006F6302006F6302000000000034
:1060F000000000006F630200000000006F630200F8
:10610000000000000000000000000000000000008F
:10611000000000000000000000000000000000007F
:10612000000000000000000000000000000000006F
:10613000000000000000000000000000000000005F
:10614000000000000000000000000000000000004F
:10615000000000000000000000000000000000003F
:10616000000000000000000000000000000000002F
:10617000000000000000000000000000000000001F
:10618000000000000000000000000000000000000F
:1061900000000000000000000000000000000000FF
:1061A00000000000000000000000000000000000EF
:1061B00000000000000000000000000000000000DF
:1061C00000000000000000000000000000000000CF
:1061D00000000000000000000000000000000000BF
:1061E00000000000000000000000000000000000AF
:1061F000000000000000000000000000000000009F
:10620000354936480A1A02D0072291438D4634494F
:1062100034480A1A06D00722914381F309880222E2
:1062200082F3148830483149314A00F044F831484B
:106230003149324A00F03FF831483249324A00F0E1
:106240003AF832483249334A00F035F83248334997
:10625000334A00F030F833483349344A00F02BF821
:1062600033483449344A00F026F83448344900228F
:1062700000F02CF833483449002200F027F8334866
:106280003349091A082902DB002202604160314AC1
:1062900090471F481F49884205D00268043003B464
:1062A000904703BCF7E700208646EC46002000211B
:1062B000294A9047FEE7884207D0521A05D0037852
:1062C00001300B700131013AF9D17047884202D098
:1062D00002700130FAE770470000042000E003205C
:1062E00000000420000004207CD10200982A002035
:1062F000F82A0020D4630200D463020044C20200E2
:106300007CD10200982A0020982A002038C302007D
:1063100038C3020038C3020038C3020038C3020089
:1063200038C3020038C3020038C302007BD1020028
:10633000DCD10200F82A0020F82A0020F82A0020E8
:10634000C43C0020C43C0020C43C0020C43C0020CD
:10635000C45C00209D6302004D9C0200FEE7FEE746
:10636000FEE7FEE7FEE7FEE7FEE7FEE7FEE7FEE705
:10637000704700BF1048804710484FF0070188431E
:1063800085460F4880470F48016841F4700101605D
:10639000BFF34F8FBFF36F8FFFF732BF0A480B4930
:1063A0000B4A884207D0521A05D0037801300B708F
:1063B0000131013AF9D170477163020000000420F5
:1063C000E17F020088ED00E038C30200982A002037
:0463D000982A0020E7
:1063D4007047000007B5044B0093044A402300F0C3
:1063E40032F803B05DF804FBF5630200F92A0020DB
:1063F4002DE9F84388461446B2B10F4B0F4E0325DE
:10640400002743F00109224608EB0701002003F0AE
:10641400AFFD0744241A48B933782BB14FF47A40BE
:10642400C847013D02D13570BDE8F88301233370BC
:10643400002CE8D1F8E700BF40C30200F82A00208E
:10644400704703F0C9BDF0B595B01D461646084621
:106454000C4601F0FDFC1A9B0D93CDE9086500255F
:106464002B46082205A920460A958DF82C500C9538
:1064740001F00BFD079B0293069B03939DF81430D8
:106484008DF8115003F00302012A1DD1BDF8142028
:10649400059DC3F3C203C2F383168DF81030B20016
:1064A40008230EA9204601F0F0FCC5F3952508AB9E
:1064B4000093324602AB0EA9284600F055FB204655
:1064C40001F0CAFC15B0F0BD022AF8D1BDF816508F
:1064D400C3F3C203C5F389158DF810300827082DBE
:1064E4002E4628BF08263B4632460EA9204601F018
:1064F400CCFCAD1B08AB02AA31460EA8374400F011
:1065040097FB002DEBD1DAE708B5FFF79AFF0448B3
:10651400042100F091FA034B01225A7108BD00BF17
:1065240028C30200982A0020037813F0040216D02E
:1065340003F00303012B03D0022B09D00120704781
:106544000A6800880232C0F3831002440A60F5E747
:106554000B684288023303EB92130B60EEE710469C
:10656400704700002DE9F04F87B000230446861CD5
:106574000DF107000F4615468DF8073001F00EF9AE
:10658400454801683960D0E90132134401335B1A8C
:10659400824600F21C4700F5836900F21448B342B6
:1065A4001CD30020002D73D004F00F039B0143F093
:1065B400050363F30F00DAF80020DAF8083013401B
:1065C400033316444AF823009DF80700CAF8006014
:1065D40001F008F9012007B0BDE8F08F0121384629
:1065E40001F061F9484601F076F9404601F073F98B
:1065F400DAF80400DAF808B0029000EA0B0003307D
:106604000AEB800002A9FFF78FFF029B50BB0BEA45
:1066140003020AEB820203F1020CD26803920133F3
:1066240003EA0B0B0AEB8B0B02F00302012ADBF8E3
:106634000C10CDF808C023D0022A16D08346404659
:1066440001F04CF910B1029BCAF80430594638469F
:1066540001F029F9DAE901231344DAF800200133BF
:106664009B1A9CE70BEA0300C9E7BDF80E30C3F39D
:10667400891303334FEA114B0CEB93030293DEE7C8
:10668400BDF80C30C3F383134FEA114B6344F5E7B1
:10669400A40544F006008EE70C2C00200B4B0C489C
:1066A400FF2210B59A600022C3F81824C3E900221F
:1066B400C3F8142483F8202401F083FB044610B9A2
:1066C400044801F02BFC204610BD00BF0C2C002018
:1066D400ACC202007CC3020030B50A4C71B10A4A54
:1066E4000A49121BD20800239A4201D1002030BD6E
:1066F40031F82350854202D00133F5E7034654F8BC
:106704003300F4E7C0C2020028C30200982A002024
:10671400094B013903EBC000032909D8DFE801F074
:106724000A020406042070470079704740797047D4
:106734000020704702207047C0C20200034BD3E917
:106744000030C31A58425841704700BF0C2C002037
:106754002DE9F04387B0FFF7F1FF0646002840F02B
:10676400F9807D4DC5F81804BFF34F8F6B68AC6892
:1067740002932340033305EB830002A9FFF7D4FE01
:10678400029B18B1D5F81824002A5FD004EA03024A
:10679400991C013305EB8202234005EB8303D26885
:1067A400DB68049302F00303022B0392029160D18D
:1067B400BDF80E306948C3F38917502FB84628BF77
:1067C4004FF0500868F38F1308F10801ADF80E304C
:1067D40001F00FFB0646002800F0A78001F038FB0B
:1067E4000023082203A9304601F045FB029924EA5C
:1067F40001020132B8EB820F4FEA820332D95FFA09
:1068040088F85BB32140DCB2A8EB040803315FFADB
:1068140088F9A046524C05EB8101082342463046D4
:1068240001F029FB34B108F108034A4621463046F9
:1068340001F021FB029B033703EB97070297D5F87E
:106844001834002B49D1D5F8104459E02A689A42EB
:106854008FD86A60304607B0BDE8F08340491C46D3
:106864009946DAE70C40E11C0823424605EB810116
:10687400DDE7012B59D1BDF80C303848C3F383113F
:10688400062928BF062161F3891302318900ADF876
:106894000C3001F0AEFA0646002846D001F0D8FAD2
:1068A4000023082203A9304601F0E5FA0027BDF8C9
:1068B4000C20C2F38312BB00974203F10803BED23B
:1068C40002994A1C21400331029205EB8101042202
:1068D400304601F0D0FA0137E9E7304601F0BCFA5E
:1068E400FFF72CFF80F00100C6B2B3E7E3685B79E1
:1068F40023B1236831461B6820469847E3681C6827
:10690400002CF3D1304601F0A7FA0DF107008DF801
:10691400074000F043FFD5F818340BB9029B6B60B5
:106924009DF8070000F05EFFDAE7D5F8104454B98B
:106934000C4B0D480D49C01AC008000440F0020079
:1069440000F062F8CCE7236820469B689847E36828
:106954001C68ECE700267DE70C2C0020ACC202008A
:10696400182C0020C0C20200E8C2020064C3020066
:106974002DE9F74F224D04460F46924601A9012204
:106984001846D5F808909B46FFF7ECFD20B3019E0E
:106994004FF00008B21CD84508EB020126D1194873
:1069A400002100F051FF80F31000000440EA14407D
:1069B400E400731C04F0380403EA090306EA090638
:1069C40044F0010405EB8303033644EA881444EAE3
:1069D4008724D86045F8264095F820341BB1FFF78A
:1069E400B7FE0028FBD103B0BDE8F08F09EA01012E
:1069F40005EB81015AF82830CB6008F10108CAE799
:106A04000C2C00202830002000231A46FFF7B0BFCA
:106A140007B50123019201AAFFF7AAFF03B05DF8AD
:106A240004FB07B5CDE9002302236A46FFF7A0FF64
:106A340003B05DF804FB000030B50F49D1F8102411
:106A440003460020144634B9DC6820714AB9C1F801
:106A54001034226030BDE4682579854206D024686C
:106A6400F1E7D268116821601360F3E701300A2866
:106A7400E8D14FF0FF30EDE70C2C0020094A38B57F
:106A84000123D2F8104482F820341D4604B938BDDD
:106A9400E3685D71236820465B689847E3681C6877
:106AA400F4E700BF0C2C002007B503460846197A0A
:106AB400052911D05B7A2BB1094A0A49019000F0EB
:106AC40070FF01980849019000F06BFF019803B032
:106AD4005DF804EB00F05ABF002AF8D0F2E700BFDB
:106AE40088C302008DC3020085CA020030B5C38882
:106AF40085B004460D4633B1144A00921449154A30
:106B0400284600F04EFF217A05291DD0637A4BB147
:106B1400A088FFF7FDFD104B104953F820202846AC
:106B240000F03FFF227A0E4BA08853F822200392F4
:106B34000021FFF7D1FD039A0A490346284605B010
:106B4400BDE8304000F02DBF05B030BD88C3020061
:106B540098C3020090C3020014C402008DC3020053
:106B640038C40200B0C302002DE9F04385B01F46CB
:106B74000C9D002395F80C902B7306460C4690460A
:106B840029463846FFF7B2FFB8F1060F09D8DFE807
:106B940008F00412181F283340003146284600F03C
:106BA40000FF002229463846FFF77EFF85F80C9047
:106BB40005B0BDE8F08322683146284600F0F1FEB6
:106BC400EFE7D4E900233146284600F0EAFEE8E77F
:106BD400A36800933146D4E90023284600F0E1FE7F
:106BE400DFE7E3680193A36800933146D4E9002307
:106BF400284600F0D6FED4E723690293E3680193A4
:106C0400A36800933146D4E90023284600F0C9FE66
:106C1400C7E76369039323690293E3680193A36855
:106C240000933146D4E90023284600F0BAFEB8E7C1
:106C340008292DE9F74F80460E4617461C463CD8D6
:106C4400002593F80C901D7319461046FFF74EFF6C
:106C5400DFF888A0DFF888B0AE4231D918F80520F3
:106C64005946204600F09DFE0135082DF4D11949FE
:106C7400194DDFF870A0204600F093FE4FF0000B92
:106C84005E4522D918F80B207E2A05D810460192B9
:106C940004F0D4FE019A00B92E225146204600F099
:106CA40080FE0BF1010BBBF1080FE9D10122214653
:106CB4003846FFF7F9FE84F80C9003B0BDE8F08F76
:106CC4005146204600F06DFECEE72946204600F0EE
:106CD40068FEE6E7C4C30200C2C30200C0C30200E8
:106CE400BAC30200C6C302002DE9F04F364E87B086
:106CF4004FF00009354B1B785FFA89F5AB4202D897
:106D040007B0BDE8F08F324BD3F800A01AF8350075
:106D14000124D6E9001EA0F12002C0F1200304FAE8
:106D240002F224FA03F3134304FA00FC059301EA84
:106D34000C030093059B0EEA03030193DDE9002392
:106D440013430AEBC50B3BD0059B21EA0C012EEA49
:106D54000303C6E9001301F07DFD01461AF835006E
:106D64001C4DA0F12002C0F1200304FA02F224FA1F
:106D740003F31343D5E900C28440134004EA0C042E
:106D84000393A0F12002C0F1200321FA03F302943B
:106D940001FA02F848EA0308DDE9023401FA00F7CF
:106DA400444508BFBB420BD1DBF8043043B19BF828
:106DB4000120541E62426241551A69426941984752
:106DC40009F1010996E700BFF8300020C83000201F
:106DD40000310020F0300020F8B506461E4800F0CF
:106DE400C3FBC0BB0125A6F12004C6F1200325FA8C
:106DF40003F305FA04F41C43184BD3E900C2B5406D
:106E04000CEA050002EA040101431F461DD1304685
:106E140001F020FD124BD3E9001288B1294322432B
:106E2400C3E90012D7E900231C430E4B0A48196832
:106E34001543C7E900540022BDE8F84000F04CBBFC
:106E440021EA050122EA0402EAE72CEA050522EA1E
:106E54000404C3E90054F8BDD0300020F830002009
:106E6400F0300020CC300020042A2DE9F3410546FF
:106E74000C46164639D901F01DFCD8B11C4B1D49EE
:106E84001D601D4BDFF884801C701C4B00221E60AB
:106E94000023C1E900231A49C1E90023013CE4B2FB
:106EA40000260327FF2C0CD1164A1748002100F0B6
:106EB40001FB03E001F0C6FB0028DFD002B0BDE80F
:106EC400F08105EBC40315F834009B788DF8066057
:106ED400424601A98DF804708DF8053001F0F4FBE9
:106EE400013CE4B20028DDD0E8E70720E6E700BF74
:106EF40000310020F0300020C8300020CC300020C9
:106F0400F8300020ED6C02004CC40200DD6D02007C
:106F140070B5084D084E00242B789C4201D3002004
:106F240070BD3368012113F8340001F049FC0134C9
:106F3400F2E700BFC8300020003100201FB5002157
:106F4400039001AA44F20100CDE9011100F004F814
:106F540005B05DF804FB000010B572B6FFF78EFDB6
:106F6400FFF7F6FB0028FBD1104B114C1149E41A32
:106F7400E408240444F00100FFF746FD0E4B1B68AF
:106F8400DB0700D500BE0D4944F00200FFF73CFDCD
:106F9400BFF34F8F0A490B4BCA6802F4E0621343F4
:106FA400CB60BFF34F8F00BFFDE700BFC0C202003C
:106FB400E8C2020050C40200F0ED00E05CC402002C
:106FC40000ED00E00400FA0549B152B1531E1A4025
:106FD40007D1826001608380C260104670470E2032
:106FE40070470920704710B58468C2688388121BF3
:106FF400934208D3C26813400268D154C368013372
:10700400C360002010BD0420FCE78268C3689A4274
:107014000AD08268838813400268D35C0B7083684B
:10702400013383600020704705207047094A537874
:1070340091780133DBB2994208BF00231178994259
:107044001FBF03705078182303FB002014BF0430C3
:10705400002070470431002073B5054600240DF16B
:1070640007000E468DF8074000F098FB0DF106006E
:10707400FFF7DCFF90B10670094B9DF806204560D0
:107084005A709DF8070000F0ADFB24B9054B4FF48E
:107094008012C3F80021204602B070BD0424F0E73A
:1070A4000431002000E100E0024B4FF43C6043F067
:1070B4000103184770C4020038B50C4B0C4C4FF454
:1070C4000032C3F8802001254FF48033C4F84833DC
:1070D400C4F808336560FFF7E7FF064BA56000249A
:1070E4001C60FFF7E1FF044B1C7038BD00E100E0B9
:1070F400001001402032002011320020F8B51F4B4F
:107104001F491B680025C1F84051C1F84451C1F81A
:107114004851C1F84C51C1F80051C1F804514BB366
:10712400D1F8044517490968641A24F07F442F46AE
:107134001A68A24209D8A41A15441A7CDE691AB145
:10714400D3E905201F749047AEB90F4A0F4B11784D
:107154001B788B4205D10133DBB2022B08BF00231D
:10716400137012780A4B43F822500A4B4FF48012E2
:10717400C3F80021F8BD3346DAE700BF243200200B
:1071840000100140203200201D3200201C3200205B
:107194001432002000E100E02DE9F04FA24AA34997
:1071A40013780978A24D994285B03CD00133DBB203
:1071B400022B08BF002313709E4912789E4B0F6860
:1071C40053F822003B1823F07F4300220B602B6806
:1071D40016461446944613B942B12B6006E019686A
:1071E40081420ED902B12B60091A196001272B685C
:1071F400DFF84CA201934FF00008BEB9DFF848B2A3
:1072040062E0401A0C44D968D3F81CE0C3F800C00B
:1072140031B13A1922F07F42C3E90121DE611E46F1
:1072240073460122D7E700263746E0E73446F6697D
:10723400804A63681268DFF814C2A068991A21F0C2
:107244007F41614500F2A88001442160012222743B
:107254002A680023C4E90133E361002A40F0A580D1
:107264002C60CAE79BF802105A1CD2B291428BF8E8
:10727400002004BF00228BF80020182202FB03B375
:107284002A6819799C68022977D0032900F0818043
:10729400012919D1207CB8B9D3E90312A2605A6933
:1072A400E2609A69654BA2611B78002B0CBF0B4608
:1072B40003466360BCE78C4200F094808946C96948
:1072C4000029F8D1002323749BF800309BF8012097
:1072D4009A42C7D12B68B8F1000F04D1019A9A429F
:1072E40001D1002F43D0002B79D0D3F800A0544D06
:1072F400504BD5F804751C68DFF854813E1B98F890
:10730400003026F07F4603369BB94FF48033C5F82E
:107314004433C5F804334B4B4FF400324FF00109AA
:10732400C3F880211A60C5F80090FFF7BDFE88F805
:107334000090B2452CBF5444A41924F07F44C5F8EE
:107344004045D5F80435DB1B23F07F43E41B0333AE
:1073540024F07F44A3420AD9D5F80435C5F8403552
:10736400FFF7A2FE374B4FF40032C3F80021334B32
:1073740000221A7005B0BDE8F08F114691469FE7D0
:107384001174D2690123002AFAD1002B9CD02A60FF
:107394009AE700231946F6E7D31A23F07F43834282
:1073A40034BFC31A0023236050E72168136899424D
:1073B40013D8591A1160E26152E7091AD8691A46BA
:1073C40038B1034618688842F7D3401A1860184643
:1073D40013462160E061DC610FE71346F2E7FFF733
:1073E4006BFEC4E74C4511D1D3692B6073B9DFF848
:1073F40044E00120CDE90212CAF80800CEF80030BA
:107404000E4B1870FFF750FEDDE902120B68C969D4
:10741400C9F81C1011B1086803440B602B6893422F
:1074240018BF4FF001084DE71C3200201D32002028
:107434002432002020320020143200201032002098
:107444000010014000E100E004310020FEFF7F0055
:107454001132002008B5FFF72FFE104B00200B223D
:1074640018809A700E4B18600E4B18700E4B1870E3
:107474000E4B4FF48012C021C3F8802183F81413FB
:107484001A6002F18042A2F56F22C2F8080583F85F
:107494001113074BD2F804251A6008BD04310020EB
:1074A400243200201C3200201D32002000E100E0C4
:1074B40020320020074B9B784BB132B128B10368CE
:1074C400187C20B959745A61704707207047082006
:1074D400704700BF043100202DE9F743DFF88480B2
:1074E40098F8023005460E461746ABB3A0B30429FC
:1074F40030D9436983B3437C0024012B0DF1070089
:107504000CBF8946A1468DF8074000F047F90DF1FC
:107514000600FFF78BFDD8B1012303700F4B4560C4
:10752400D3F80435C0E90497C0E902369DF8063063
:1075340088F801309DF8070000F054F924B9084B8D
:107544004FF48012C3F80021204603B0BDE8F08355
:107554000424EFE70724F7E70824F5E700100140C7
:1075640000E100E004310020064A92783AB130B1DB
:10757400426922B1002202740221FFF76DBD082086
:10758400704700BF043100200648074A03780749C2
:10759400D35C012213B1043001F0A8BE0C3001F019
:1075A40077BC00BFA02A0020943200205032002073
:1075B4000648074A03780749D35C012213B1043013
:1075C40001F046BE0C3001F011BC00BFA02A00201F
:1075D400943200205132002037B50578012D0BD0AC
:1075E400022D2CD0F5B91D491D48FFF70EFD0028CA
:1075F40030D1FFF7DDFF15E043681A4C19782046B7
:10760400FFF7F1FC80B18DF800500190164B6846ED
:107614001B689847A168E368A2885B1A9A420AD358
:10762400FFF7B2FF03B030BDA268E3689A42F1D01D
:107634008DF80000EAE70D4B01221A70F2E7C368E7
:107644008DF800500193FFF79FFF074B68461B68B6
:107654009847E7E703238DF80030F6E7513200201E
:10766400403200202C320020283200203C320020FE
:10767400F0B51F46234B89B004461A600D46002915
:107684003DD08A8820480968FFF79EFC002834D141
:10769400AA89A9681D48FFF797FC00282DD11C4E24
:1076A4000FCE6D460FC596E80F0085E80F0063699D
:1076B4000693237C174A18488DF81C70003B18BFAA
:1076C40001238DF81430637C002B14BF0E23002398
:1076D4008DF81530E3680293A3680393236801933C
:1076E40069466368009300F0D5FE30B90B4B1870FF
:1076F4002368013301D0FFF747FF09B0F0BD07202D
:10770400FBE700BF283200202C320020403200204A
:1077140078C40200DD750200A02A00203C3200205B
:1077240070B5084D014608482E78FFF76EFC0446F4
:1077340036B100232B70FFF727FF08B1FFF7FEFBDC
:10774400204670BD3C3200202C32002010B501468A
:107754000E48FFF748FC0446A8B90D480D4A0378C3
:10776400D35C63B1043001F0B5FD60B90A49074840
:10777400FFF74BFC38B9BDE81040FFF719BF0C30D8
:1077840001F07AFBF1E7204610BD00BF4032002033
:10779400A02A0020943200205132002070B5EFF36B
:1077A400108672B60C4A946801239CB993600B4B03
:1077B4000B4DD3F8801029401160C3F88050D3F8E2
:1077C400841051604FF0FF32C3F88420047006B96E
:1077D40062B670BD0370FAE75432002000E100E0A5
:1077E400FC06FFBD084B9A6810B55AB150B9EFF3C7
:1077F400108172B6054A1C6814605C685460986015
:1078040001B962B610BD00BF5432002000E100E0AF
:1078140001F01F024B090121914000EB830000F0AD
:107824001EB801F01F0301229A404B0900EB8300AC
:10783400D14300F02CB84B0901F01F0150F823008C
:10784400C84000F00100704710B5034653E8000F2C
:107854000A4643E8002494F0000FF7D110BD10B598
:10786400034653E8002F42EA010043E8000494F081
:10787400000FF6D110BD10B5034653E8000F00EA1F
:10788400010243E8002494F0000FF6D110BD10B5B6
:10789400034653E8002F02EA010043E8000494F091
:1078A400000FF6D110BD10B5034653E8002F02EBCC
:1078B400010043E8000494F0000FF6D110BD10B5A8
:1078C400034653E8002FA2EB010043E8000494F0C0
:1078D400000FF6D110BD0121FFF7C1BF0021FFF752
:1078E400CABF10B590B1D0E9012301689B1ADBB27D
:1078F4000A60013BDBB2FF2B026802D10020107149
:1079040010BD11684C1C14600B70F2E70E20F7E7F1
:1079140037B5054600240DF107008DF80740FFF741
:107924003DFF2A686B68116899420ED9481E1060A1
:1079340011F8014CEB68298A01FB0434AB68117916
:107944001B1ADBB2994238BF13719DF80700FFF789
:1079540049FF204603B030BD37B5054600230DF17D
:1079640007000C468DF80730FFF718FF2A681368E4
:10797400591C1160E968641A298AB4FBF1F41C707B
:107984009DF80700FFF72EFF03B030BD826810B5E5
:1079940004462AB143690168006998470023A3603B
:1079A40010BD0EB403B5039921B104AB01AA019330
:1079B40000F076F802B05DF804EB03B070470A29D2
:1079C40038B504460D4602D10D21FFF7F8FFA36830
:1079D4002268591CA160D554D4E901329A4204D3D7
:1079E4002046BDE83840FFF7D1BF38BD2DE9F84F38
:1079F4009846DDE90A43154682460F460A464FF08B
:107A04000109AA420FD2C14538BFC14613F0010B88
:107A140001D16CB900240126B8F1010F1BD908F17A
:107A2400FF386E43F8E709F10109B2FBF5F2E8E724
:107A34009B070ED5B8F1000F0CBF30262026A145B8
:107A4400E9D2013C31465046FFF7B9FF002CF6D18C
:107A5400E0E72026F3E7B7FBF6F39D42E1D9DFF830
:107A64003C80B7FBF6F3504618F8031006FB137777
:107A7400FFF7A5FF3346AB42B6FBF5F6F1D2BBF1F7
:107A8400000F02D00CB1A14501D3BDE8F88F20212D
:107A94005046013CFFF793FFF4E700BF98C402008F
:107AA4002DE9F74F054617468846002900F0428124
:107AB40018F8011B49B92B7B002B00F03B812846A9
:107AC40003B0BDE8F04FFFF761BF252940F0B78050
:107AD400002698F800302D2B424608F1010823D0E7
:107AE400302B24D02B2B25D000242A2B02F101018A
:107AF40023D13B681A1D1B683A601C440A4613785C
:107B04002E2B26D101324FF0000A104610F8011B2B
:107B1400A1F1300CBCF1090F1DD80A2303FB0A1391
:107B2400A3F1300A0246F0E746F00106D1E746F039
:107B34000206CEE746F00406CBE711F8013CA3F1B8
:107B440030000928DBD80A2202FB0434303C0A4600
:107B5400CBE74FF0000A12F8011B01F0FB00682884
:107B64009046F8D0782909D86F290CD8632962D0B7
:107B740022D8252963D0582900F0888098F800304D
:107B8400002B95D197E770390829F7D801A353F84A
:107B940021F000BF137D0200817B0200817B020083
:107BA400A17C0200817B02007F7C0200817B0200B9
:107BB400817B0200917C0200642901D06929DDD116
:107BC4003A68D2F80090111D89EAE9723960A2EB93
:107BD400E9724FF0010B092A35DCD34538BFD3468F
:107BE4002CB1B9F1000F01DB720700D5013CB307DA
:107BF40002D5BAF1000F03D0F00701D44CBB002426
:107C0400B9F1000F2DDAC9F100092D212846FFF73B
:107C1400D6FE06F00302022A04D1BAF1000F01D104
:107C24001CBB0024CDE9004653460A224946284697
:107C3400FFF7DCFEA2E73B681A1D19783A60284674
:107C4400FFF7BDFE9AE70A230BF1010BB2FBF3F237
:107C5400C1E7A345D4D220212846013CFFF7AFFE5B
:107C6400CCE77107D5D52B21D0E7A345DAD2302153
:107C74002846013CFFF7A3FED2E73968CDE9004668
:107C84000A1D3A6053460A220968D0E739680A1D7A
:107C94003A60CDE9004653461022F5E73B681A1DC9
:107CA4003A6016F00106D3F8009028D1B9F1000F1C
:107CB40003D0484603F077FF0646B44200D904BB1C
:107CC40009F1FF3919F8011F00293FF457AF28467D
:107CD400FFF775FEF6E728460136FFF770FE19F840
:107CE40006100029F7D1A642BFF448AF002C3FF498
:107CF40045AF20212846013CFFF761FEF3E700264B
:107D0400EDE720212846013CFFF759FED5E73B6803
:107D14001A1D3A60302128461C68FFF750FE78216E
:107D24002846FFF74CFE00220823CDE90032214605
:107D340010227CE703B0BDE8F08F00BF2DE9F84FB7
:107D4400B0F806A04579D2F800B09DF828900AFB57
:107D540005F5043D88460BEB0301A94203F1040435
:107D640088BFA5EB030BB4FBFAF607460AFB1644DF
:107D7400C2F800B04EB9AAEB04055D4528BF5D46C4
:107D8400BBF1000F04D1BDE8F88F3F68013EF1E775
:107D9400043408EB06003C442A46B9F1000F0DD028
:107DA4002146ABEB050B03F080FEDA452E443F6819
:107DB40055464FF0000428BF5D46E1E701462046E2
:107DC400EFE7FFF78EBDF8B546790146721E05460A
:107DD400002393422D6803D30024A64202D8F8BDA1
:107DE4000133F6E70F682846FFF7B6FD013439463C
:107DF400F3E72DE9F843068ACD1C0746FFF788FD13
:107E0400043E35440446B5FBF6F5F0B14FF48073F7
:107E1400EDB28380C680013D076081464FF00008C3
:107E2400A84512D23846FFF773FD064648B1637978
:107E34000133637108F10108C9F800000760814645
:107E4400EEE72046FFF7BFFF34462046BDE8F8833F
:107E540001210430FFF727BD10B501210446043089
:107E6400FFF72DFD10F0FF0F04D12046BDE81040B0
:107E7400FFF7A9BF10BD1FB503920022009203AA09
:107E8400FFF75CFF05B05DF804FB1FB50392012208
:107E9400009203AAFFF752FF05B05DF804FB41DF2F
:107EA40070470000064B10B500241C70054B1C6085
:107EB400BFF35F8F0449054800F039F8204610BD30
:107EC400683200206C320020B4C40200603200200A
:107ED40007B500230DF107008DF80730FFF75EFCAE
:107EE400F1EE103A23F09F03E1EE103ABFF35F8FF7
:107EF400094B4022C3F884219DF80700FFF772FC68
:107F040003F01CFB20B1FFF7CAFF03B05DF804FBCC
:107F140020BF40BF20BFF8E700E100E083680022F3
:107F24005A60C3E904229A60DA601A6070470B68E9
:107F34004A684360934208BF0023016008BF43605E
:107F44007047436843B10268916852680B44934296
:107F5400436004BF002343607047000010B50D491F
:107F6400A1F59472914201D800200FE08C1AE30F1E
:107F740003EBE4035B1002EBC30452F83330834297
:107F840005D802D204F10802ECE7606810BD21466E
:107F9400E8E700BFB8C9020008B5FFF7DFFF024BEE
:107FA400002808BF184608BD7AC8020010B5044668
:107FB400C0B2FFF7CBFB204610BD0000054B1B6889
:107FC400082B01BF044B1868B0FA80F0400918BFB1
:107FD40000207047300100103401001008B54FF044
:107FE40080430022C3F80C21C3F81021C3F83825BC
:107FF4004FF0805203F54043D2F80414C3F820151F
:10800400D2F80814C3F82415D2F80C14C3F82815B0
:10801400D2F81014C3F82C15D2F81414C3F8301580
:10802400D2F81814C3F83415D2F81C14C3F8401548
:10803400D2F82014C3F84415D2F82414C3F8481510
:10804400D2F82814C3F84C15D2F82C14C3F85015E0
:10805400D2F83014C3F85415D2F83414C3F86015A8
:10806400D2F83814C3F86415D2F83C14C3F8681570
:10807400D2F84014C3F86C15D2F84424C3F8702520
:10808400FFF79CFF10B1384B384A1A60FFF796FF90
:1080940018B1374BFB22C3F81825FFF78FFF48B1FF
:1080A4003449354B0A681B6822F00F0203F00F03B2
:1080B40013430B60FFF782FF18B1304B4FF400728B
:1080C4001A604FF08043D3F80024D20744BF6FF006
:1080D4000102C3F800242A4AD2F8883043F470031A
:1080E400C2F88830BFF34F8FBFF36F8F4FF0102368
:1080F400D3F80022002A03DBD3F80432002B2FDA52
:10810400204B0122C3F80425D3F80024002AFBD015
:108114004FF010221221C2F80012D3F80024002AD2
:10812400FBD04FF010231222C3F80422154B1A4639
:10813400D3F800140029FBD00021C3F80415D2F8A9
:108144000034002BFBD0BFF34F8F0D490E4BCA6890
:1081540002F4E0621343CB60BFF34F8F00BFFDE72F
:108164000A4B0B4A1A6008BD8C5600404881030034
:1081740000F00040E40E0040580200104096024017
:1081840000ED00E000E001400400FA05B42A0020FC
:108194000090D003074B1B5C1F2B8ABF064A4FF08D
:1081A400A04203F01F03D2F80405D840C04300F0F6
:1081B40001007047BCC9020000030050074B1B5C60
:1081C4001F2B86BF064903F01F034FF0A041012275
:1081D40002FA03F3C1F80C35704700BFBCC90200B2
:1081E40000030050074B1B5C1F2B86BF064903F09E
:1081F4001F034FF0A041012202FA03F3C1F808352E
:10820400704700BFBCC902000003005008B500203D
:10821400FFF7E8FF0120FFF7E5FF0220FFF7E2FF89
:10822400BDE808400320FFF7DDBF08B50020FFF7D5
:10823400C5FF0120FFF7C2FF0220FFF7BFFFBDE823
:1082440008400320FFF7BABF0A4B185C1F288ABFF7
:10825400094B4FF0A04300F01F00D3F8042501217F
:10826400814021EA02000A40C3F80805C3F80C253E
:10827400704700BFBCC9020000030050074B1B5CE1
:108284001F2B8ABF064A4FF0A04203F01F03D2F807
:108294001005D840C04300F001007047B8C902007F
:1082A400000300500B2809D00C2809D0182809D045
:1082B40019280CBF03204FF0FF307047002070478F
:1082C4000120704702207047014B185C704700BFC3
:1082D400B8C90200C20710B504460CD54FF0A0433C
:1082E4000322C3F83427C3F83827C3F83C27C3F85C
:1082F4004027FFF78BFFA3070AD54FF0A0430C22BA
:10830400C3F82C27C3F83027C3F86027C3F86427C1
:1083140010BD000038B5074C051E04F1080318BF52
:108324001C4623682BB11A6822605B68284698476C
:10833400F7E738BD7832002020B9054B01225A7086
:10834400FFF7E8BF012802D1014A9070F8E77047AF
:108354007032002020B9034B01225A70FFF7DABFB4
:10836400704700BF7032002038B50B4C237883B9B6
:108374000A486360A3602361E36000F0C9F805461E
:1083840003F0DCF808B900F0CFF801232370284685
:1083940038BD8525FBE700BF703200203D83020015
:1083A40037B50B4C00230DF107008DF80730FFF7AC
:1083B400F5F9E368013BE360E56815B900F0C6F838
:1083C400A5709DF80700FFF70DFA03B030BD00BF9C
:1083D40070320020012813B508D003281CD018B926
:1083E400104B0122C3F8802002B010BD0E4C0023B4
:1083F4000DF107008DF80730FFF7D0F923780BB99A
:10840400FFF7B2FFE3689DF807000133E36001233F
:10841400A370FFF7E7F9E7E700F086F8FFF7C0FF7E
:10842400E2E700BF00E100E0703200201FB50378EE
:108434008DF800304368019383688DF80830C36871
:10844400054A0393054B684653F8213052F821102E
:10845400984705B05DF804FB843200208C3200207C
:108464001FB503788DF800304368019383688DF855
:108474000830C368054A0393054B684653F8213016
:1084840052F82110984705B05DF804FB84320020AF
:108494008C320020F0B5194B90F800C0DFF86CE086
:1084A40043F82C20164B16460A6943F82C204B7FC0
:1084B4000EF80C300C4607460FCC89B06D460FC53C
:1084C40094E80F0085E80F001EF80C30CDF810C0BA
:1084D4004BB1002E0B4A694608BF3246381D00F0E6
:1084E400D9FD09B0F0BD002E074A694608BF3246DF
:1084F40007F10C0000F0A4FBF3E700BF8C3200206E
:108504008432002031840200658402009432002009
:10851400044A137923B901211060918018467047E9
:108524008520704798320020074B1A68D2075FBF36
:10853400C02283F8002301221A604FF080430122F5
:10854400C3F81825704700BF00E100E0044B012286
:108554001A604FF08042D2F81834DB03FBD4704722
:108564000C000040154B07B51A687AB100221A6056
:108574001B680093009B4FF080430122C3F808233B
:108584000F4B587910B95A711B6898470D4B1A68EC
:1085940082B100221A601B680193019B4FF0804353
:1085A4000222C3F80823064B1B68012003B05DF8C0
:1085B40004EB184703B05DF804FB00BF0001004062
:1085C400983200200401004000F1804000F5C040D2
:1085D400002382B0036003680193019B02B07047DB
:1085E40003681F2B83BF03F01F03036001484FF090
:1085F400A04070470003005007B5019001A8FFF7A1
:10860400EFFF019B00EB8300D0F8003723F44033E5
:10861400C0F80037D0F8003743EA0141C0F800172A
:1086240003B05DF804FB0000054B4FF0FF32072850
:1086340043F8202084BFC01880F85820704700BF3A
:10864400A032002010B5174C94F86A3043BB04F1F3
:1086540030033021FF22013911F0FF0103F8012B0F
:10866400F9D1C8B2FFF7E0FF01310C29F9D1062294
:1086740000210D4803F042FA0C4BC02283F8062374
:1086840040221A604FF4BE70FFF79EFF084B4FF074
:108694000042C3F80423012384F86A30002010BD8B
:1086A4000820FCE7A03200200433002000E100E0B1
:1086B40000600040034B93F86A00003818BF0120A3
:1086C400704700BFA0320020F7B53B4E3318054673
:1086D40093F93030002B6CDA8B78C3F34003002B12
:1086E4000BBF082400240C200820844202D104205B
:1086F40003B0F0BD56F82470013743D1701946F821
:10870400242080F8304013B9331983F858508B78FB
:108714005A0717D4D80737D501A80195FFF760FF8A
:10872400019B00EB8300D0F8003723F00203C0F86C
:1087340000372248EA0805F007070123BB40875C9D
:108744003B4383548B780A7813F0020328D0A400A7
:1087540004F1804404F5C0442D02D4F8103523F408
:108764004F3323F44073C4F810351204D4F8103591
:1087740005F47C5502F4403215431D43C4F81055EA
:108784000020B5E70134B0E701A84A780195FFF766
:1087940027FF019B03F5E073920040F82320C8E70C
:1087A400083C344494F8605045EA821284F860200E
:1087B400E6E708209CE700BFA03200200433002035
:1087C40073B5224C2618054696F93020072A1ADD7F
:1087D400224492F858309B09032B0FD1019001A831
:1087E400FFF7FEFE019BD0F81015D94001F00101FE
:1087F40002312846FFF700FF02B070BD012B0CBF09
:1088040002210321F5E7D3B2072BF5D8930003F136
:10881400804303F5C043D3F8100540F00100C3F8CA
:10882400100502F14000800080B2FFF7CDFE002960
:10883400E2D096F9303054F82330002BDCD00123F9
:1088440003FA02F2024BC3F80423D5E7A032002056
:108854000060004007B5019001A8FFF7C1FE019B2D
:10886400D0F81005D84000F0010003B05DF804FB17
:108874002DE9F04F002489B0CDE90244624D4FF454
:108884008072012102F1804303F5C04390B21B685A
:10889400012B06D1D5F804330B4202D0FFF794FE26
:1088A4000C430432B2F5907F4FEA4101EAD1574BB1
:1088B4001B68012B0ED14FF4BE70FFF785FE4FF0FD
:1088C400A04344F00044D3F810350293504BD3F83E
:1088D4001035039314F0FF0F1AD04E4F00250126D4
:1088E400344210D0AB0003F1804303F5C043D3F806
:1088F4001005D3F8101557F8253023B1C1F3014101
:10890400C0F3052098470135082D4FEA4606E7D104
:10891400002C75DA04AF002304937B604FF0FF331F
:10892400CDE90633DFF8EC90DFF8EC80002635461D
:1089340018F9012B531C4AD0C2F3C2000123D4B24C
:1089440002F03F0B02F0070203FA02F208AB191817
:1089540011F8083C13423AD009EB0B03A40993F92C
:10896400303059F823A0BAF1000F08D1032C2ED1CE
:1089740017F800C04CEA020C07F800C001E0032C11
:10898400F6D001A8CDF804B0FFF72AFE019B11F838
:10899400181C03F5E07C114250F82C00C0F3014090
:1089A40005D0022813D1032C0BD1214604E003285F
:1089B4000DD1032C05D102215846FFF71DFE0135C8
:1089C400EDB2BAF1000F02D021465846D047013625
:1089D400042EADD1A5B14FF0A0430299D3F81025D0
:1089E40003F540739142D3F8103502D103999942AB
:1089F40006D002920393049A059B0692079393E789
:108A040009B0BDE8F08F00BF006000407C61004009
:108A140000030050A032002000330020014B1B68EB
:108A2400184700BF0C3300200E4B984237B50C4654
:108A340002D0002003B030BD00230DF107008DF8F3
:108A44000730FEF7ABFE084B1D7915B901221C60F7
:108A54001A719DF80700FEF7C5FE002DE9D011201C
:108A6400E8E700BF002000400C33002000234350FF
:108A740082B043580193019B02B070470A4610B577
:108A84004FF48E71FFF7F2FF136A9168C95C136AA1
:108A940001331362C0F81C1510BD024608B5006806
:108AA4004FF49271FFF7E2FF4FF484711068FFF7FF
:108AB400DDFF136801221A6008BD8B690A4610B5F0
:108AC4004FF4847123B9FFF7D1FFD0F8183510BDE6
:108AD400FFF7CCFF536AD168D0F81805C854536A1D
:108AE40001335362F3E700001FB501238DF8003012
:108AF400044BCDE90110D3E900126846904705B054
:108B04005DF804FB1433002030B54B48D0F804332F
:108B140013F4007F85B005464DD0D0F82431002BE6
:108B240049D04FF49271FFF7A1FF4FF40173C0F8DD
:108B34000833424B93F829200AB9012242603E4986
:108B440002228DF80020D1F88024C1F880240392F9
:108B54009A690292DA6801920022C3E90622684601
:108B6400D3E9001290473448D0F81C315BB1334943
:108B74000A6A4B699A420A464AD291F82830002B75
:108B840046D1FFF77BFF2C48D0F844318BB14FF42A
:108B9400A271FFF76BFF294B93F829200AB1012238
:108BA40002609A692AB10022586AD9689A61FFF76B
:108BB4009BFF05B030BDD5F804335B07D3D5D5F89A
:108BC4000831002BCFD01D4C1B482146FFF775FF01
:108BD400636AA2699A422346C5D1E269E1684AB14F
:108BE4002369E3600023606AA261E3616362FFF7C3
:108BF4007BFFB8E794F829200AB901226A600E4A7B
:108C04004FF40170C2F808030022586A9A61EEE733
:108C14004FF48E710848FFF729FF51690029B2D03B
:108C24000023029191688DF80030019153616846E8
:108C3400D2E900139847A6E700200040143300202F
:108C44002DE9F843634B057991462C2202FB05324A
:108C5400064692F82A200C469846002A40F0B68030
:108C64005D490068FFF7E0FE0746002840F0B08049
:108C740021684A1C10D01F2987BF584A01F01F03DE
:108C84000B464FF0A0420120984003F5E073C2F870
:108C94000805032042F823006068431C0DD01F28F8
:108CA4008BBF00F01F0303464C4A4FF0A04203F56C
:108CB400E0734FF0000C42F823C03368A269C3F894
:108CC400242594F814C0627DBCF1010F4CEA020221
:108CD400C3F86C25C3F81405C3F80C152BD1A1688F
:108CE400481C0DD01F298BBF01F01F020A463B48C8
:108CF4004FF0A04002F5E0724FF0000C40F822C0A3
:108D0400E068421C13D01F2887BF344A00F01F0CB0
:108D140084464FF0A0424FF0010E0EFA0CFE0CF503
:108D2400E07CC2F808E54FF0030E42F82CE0C3F8EB
:108D34000805C3F810152C236B4308EB0302C2F893
:108D44000490226948F80320B9F1000F2BD0306851
:108D5400247F4FF48E71FFF789FE30684FF4A271BF
:108D6400FFF784FE32681E4BC2F80433110B42F342
:108D74000732002AA8BF02F160404FEA4413BABF89
:108D8400184801F00F0400F56140DBB2B4BF03558D
:108D940080F8003301F01F01012303FA01F15209A5
:108DA400114B43F8221033680422C3F800252C2306
:108DB40003FB05830022C3E9062283F829205A61B4
:108DC400012283F82A203846BDE8F8830827FAE709
:108DD4001127F8E7143300200D8B02000003005024
:108DE4008000020014ED00E000E100E02DE9F8430A
:108DF400204B07794FF02C0909FB073405466669B7
:108E04009846002E33D100686261A16026624FF457
:108E14008E7184F82860FFF729FE28680123836097
:108E24002146FFF72BFE6368A14683B92868226AAE
:108E340063699A4211D32B68D3F81C21002AFBD012
:108E44000122DA602C2303FB078300225A61304697
:108E5400BDE8F88394F828303BB9D0F81C31002BD6
:108E6400F8D04946FFF70AFEE1E70F26EAE71126A4
:108E7400EDE700BF143300200379044A2C2101FBE1
:108E840003235869003818BF0120704714330020A9
:108E94002DE9F843394F05792C2303FB0573064666
:108EA4005C6824B103684FF40170C3F808032C23F1
:108EB40003FB0573986950B1D86900283ED024B1EA
:108EC40033684FF40172C3F80423112433E09A6128
:108ED400D9605862D8612C2303FB057393F82930B9
:108EE4001BB910B93046FFF7D8FD4FF02C0909FB28
:108EF40005783068D8F80430002B34D14FF4A271CF
:108F0400C146FFF7B3FD3068D0F82431D0F808210A
:108F1400D0F84441B2B90CB9002BF4D02C2202FB96
:108F240005750022AA6123BB2CBB95F82910336870
:108F34000122B1B11A602046BDE8F8831961DA61F3
:108F44000120C8E7002BE9D1002CE7D14946FFF7FF
:108F5400B4FDD8F82430D8F818209A42D3D8234640
:108F6400DCE75A60E7E74FF40173C0F804330024E8
:108F7400E1E70324DFE70F24DDE700BF143300201B
:108F84000023435082B043580193019B02B07047C1
:108F94001FB501238DF80030044BCDE90110D3E94E
:108FA40000126846904705B05DF804FB403300208A
:108FB4007FB5364AD2F82461002E46D010464FF4CD
:108FC4009271FFF7DDFF02238DF80030D2F8803470
:108FD400C2F880340393D2F83C3502932C4BDA6800
:108FE40001920022C3E906226846D3E900129047A1
:108FF4002648D0F8443173B14FF4A271FFF7C0FF93
:10900400234B9A693AB10022C3E90622D968D0F801
:109014003C05FFF7BDFF1D48D0F820319BB14FF44C
:109024009071FFF7ADFF1A4B5A6962B1D0F84C1535
:109034000291002299688DF8002001915A616846D6
:10904400D3E90012904704B070BDD2F81031002B60
:10905400CED04FF488711046FFF792FF0C4BD2F834
:109064003C0599698842C3D1DC69D96864B1D2F8F6
:10907400005225F02005C2F800521A699C61DA609A
:10908400DE61FFF785FFB3E79C61FAE7002000404B
:10909400403300202DE9F843674B0679914624229A
:1090A40002FB0632044692F820200D469846002A18
:1090B40040F0BE8061490068FFF7B6FC074600280F
:1090C40040F0B8802868421C10D01F2887BF5C4A33
:1090D40000F01F0303464FF0A0420121994003F51D
:1090E400E073C2F80815032142F8231069684B1C89
:1090F4000DD01F298BBF01F01F030B46504A4FF0C0
:10910400A04203F5E0734FF0000C42F823C023683B
:10911400AA69C3F8242595F814C06A7DBCF1010F2F
:109124004CEA0202C3F86C25C3F80C05C3F8141505
:109134002BD1A968481C0DD01F298BBF01F01F0239
:109144000A463F484FF0A04002F5E0724FF0000C91
:1091540040F822C0E868421C13D01F2887BF384A51
:1091640000F01F0C84464FF0A0424FF0010E0EFA9F
:109174000CFE0CF5E07CC2F808E54FF0030E42F853
:109184002CE0C3F80805C3F810152423734308EB37
:109194000302C2F804902A6948F80320B9F1000FC9
:1091A40035D020682A7F4FF48871FFF7E9FE2068E4
:1091B4004FF49071FFF7E4FE20684FF49271FFF7CB
:1091C400DFFE20684FF4A271FFF7DAFE23681D4921
:1091D400C3F80413190B43F30733002BAEBF03F199
:1091E400604001F00F0518484FEA4212A8BF00F58D
:1091F4006140D2B2B4BF425580F8002301F01F0190
:10920400012202FA01F15B09104A42F82310236893
:109214000822C3F80025242303FB06830022C3E9A4
:1092240006225A61012283F820203846BDE8F883DB
:109234000827FAE71127F8E740330020B58F02002A
:10924400000300501003020014ED00E000E100E010
:1092540001F06043B3F1005F2DE9F041064632D1DD
:109264001B4B0779242505FB073598466C6964BBBD
:109274006A610068A9604FF49071FFF781FE4FF4B2
:10928400AC713068FFF77CFE33686A69A968C3F87B
:109294004415C3F8482501229A606A6862B9D3F874
:1092A4002021D3F8584152B9002CF8D00F2424239C
:1092B40003FB078700237B612046BDE8F081002C77
:1092C40018BF0F24F3E71024F6E71124F4E700BFD6
:1092D400403300200379044A242101FB0323586905
:1092E400003818BF0120704740330020F8B501F062
:1092F4006043B3F1005F04460F465ED10379304DFD
:10930400242101FB0351496821B100684FF404761C
:10931400C0F80863242000FB03539E6956B1D86942
:10932400002839D021B123684FF40472C3F8042310
:10933400112030E09A61DF60DE6120684FF48871AB
:10934400FFF71EFE20684FF4A271FFF719FE236891
:10935400C3F83475C3F8382516BB01221A60217985
:10936400242202FB015252680ABBD3F81041D3F8FD
:109374004421D3F82401144302D10028F5D0224615
:10938400242303FB01550023984218BF03209A426B
:10939400AB6118BF0F20F8BD1F61DA610126CCE76D
:1093A400D3F8002242F02002C3F80022D7E74FF49A
:1093B4000472C3F804230020EDE71020EBE700BF9C
:1093C400403300200220FEF73FBF00002DE9F047A4
:1093D40080460D46FEF766FF0328044610D8012D8B
:1093E40010D0022D30D05DB91A48FEF7BDF81A4BE3
:1093F40004EB440213449E78184B1B5DB34219D00E
:10940400BDE8F087144D00EB4002A918AE5C4A7821
:10941400470052B1DFF84C900E484A464FF40041E1
:10942400FEF75AF808B989F800803B192B449A785A
:109434000A4B1A55002EE3D0094B1B68002BDFD0D2
:109444003046BDE8F047184700EB400402480444A6
:109454006678EFE788330020C8330020E13300202A
:10946400DC3300206433002000780221FFF7AEBF14
:1094740008B5094B1B7853B10020FEF7B3FE012059
:10948400FEF7B0FEBDE808400320FEF7ABBEBDE822
:109494000840FEF7BBBE00BF65330020F8B57B4C27
:1094A400237805461BB100232370FFF7E1FF172D36
:1094B40000F28880DFE805F00C17174354657680C6
:1094C400888D888D959A9A9A9A9AC4C9D1D9E4E4D8
:1094D400FFF7CEFF6E48FEF747F86E4B00220446B6
:1094E4001A702046F8BD0020FEF754FEF8B10020A3
:1094F400FEF778FE022D0CBF4FF4E1614FF47A6160
:10950400644B1D704FF400404FF4FA740025E0FBE7
:1095140001454FF47A7200232046294602F09AF955
:1095240000220146BDE8F8405948FDF7D5BFFEF7D3
:1095340045FE022D0CBFC8214FF4C871E0E700209E
:10954400FEF728FE40B10020FEF74CFE4FF44871B0
:10955400504B03221A70D5E7FEF730FEC821F7E717
:109564000020FEF717FE38B10020FEF73BFE4FF453
:109574007A61484B0422EDE7FEF720FE4FF4C871F0
:10958400F7E70020FEF706FE48B10020FEF72AFEAA
:10959400404B05221A7041F69A110022C2E7FEF7E9
:1095A4000DFEF5E70020FEF74FFE3A4B06221A7037
:1095B400002240F6CD41B5E70020FEF7FFFD354B14
:1095C40007221A7000248CE701202070FEF73CFE6D
:1095D400EEE701202070FEF737FE00224FF48041B1
:1095E400A0E7FEF722FE2B4B0C22EAE72A482B4E7B
:1095F400FDF7BAFFD5F1110504461CD0D8B9012DE9
:1096040013D0C8235D434FF400474FF4FA70002190
:109614004FF47A720023C7FB050102F01BF92246BE
:1096240001461D48FDF758FF04460220FEF7C6FD1B
:109634000123337055E70220FEF7D4FD0023F8E739
:10964400FFF716FF134B1222BBE7FFF711FF0020B1
:10965400FEF7B4FD0F4B1322B3E7FFF709FF012018
:10966400FEF7ACFD0B4B1422ABE7FFF701FF002024
:10967400FEF7A4FD0120FEF7A1FD064B1522A0E78D
:10968400FEF7D3FD034B1D709CE700BFD8330020C9
:10969400A8330020E0330020683300206533002025
:1096A400044B1B68DB0703D5034B1878FFF7F6BEA2
:1096B400704700BFD4330020E0330020002910B5E8
:1096C40014BF03240024FEF7FFFD1F288ABF0A4BA2
:1096D4004FF0A04300F01F0003EB8000D0F80027F8
:1096E40022F44032C0F80027D0F8003743EA04439C
:1096F400C0F80037002010BD00030050032801D833
:10970400FEF7BCBD00207047044B1B6813F0010337
:1097140001D0FFF7C3BE1846704700BFD433002002
:1097240038B51C4B18601C4B10F002040546196038
:109734001AD01A4B1A480E221A700F22DA7010220D
:109744009A7111225A72042140F26662FDF78CFB71
:10975400044648B9FDF7DCFB044628B90146114A22
:109764001148FDF7A7FE0446EB0711D50120FEF7CB
:10977400B1FD6CB921460D4A0D48FDF79BFE044628
:1097840030B9BDE838400B4A0B480121FDF792BEC1
:10979400204638BDD4330020DC330020C8330020F9
:1097A400E0C902006D94020004CA0200A5960200FA
:1097B40008CA0200C993020000CA0200032811D893
:1097C400012A0AD101290FD100F10E02D2B20D4BA8
:1097D40000EB40001A54002070470129F7D00229F9
:1097E40004D049B1072070470022F8E7054B00EB8D
:1097F400400018444270EEE7024B00EB400018446E
:109804008270E8E7C8330020032802D80121FFF75B
:1098140055BF0620704708B5012202210020FFF73A
:10982400CDFF08B1072810D1072202210120FFF73C
:10983400C5FF08B1072808D100210A220846FFF70E
:10984400BDFF10B1072808BF002008BD0388102BF6
:1098540010B502D0112B1ED010BD1A4C2168B1B91D
:1098640001220846FFF7AAFF08B1072824D10722DE
:1098740002210120FFF7A2FF08B107281CD104220E
:1098840002210020FFF79AFF08B1072814D12368AA
:1098940001332360E0E70B4A1368013B1360002B9C
:1098A400DAD1FFF7B8FF0028D6D0074B1B68002B8E
:1098B400D2D0BDE810401847034B1B68002BE6D0FC
:1098C4009847E4E7EC330020E833002008B5002093
:1098D400FFF79AFF08B1062806D10120FFF794FF8D
:1098E40010B1062808BF002008BD00000D4B10B5BC
:1098F40018600C4629B10120FFF700FF40B1022394
:109904002370094B1B6853B9BDE81040FFF783BFB0
:10991400FFF7F4FE08B10B23F2E72070F1E7002013
:1099240010BD00BFE8330020EC33002076DF704721
:109934007ADF70477CDF70477FDF70478FDF7047C7
:10994400B1DF704733DF7047FDF7F8BA08B5002080
:10995400FFF7DAFE08B1FDF7F1FAFFF7B7FF08B138
:10996400FDF7ECFAFFF7EEFF18B1BDE80840FDF78C
:10997400E5BA08BD0388212B13B504463DD007D8AA
:10998400112B2BD0132B40D0102B0CD002B010BDB8
:10999400522B42D0562B01D03B2BF7D1A088132158
:1099A400FFF7C4FF15E0214B21482249C01AC00823
:1099B400000440F00300FDF727F80720FFF7A4FE9A
:1099C40008B1FDF7BBFA1C4BA1881C48198001F0B3
:1099D40083FB0028DAD0FDF7B1FAD7E7134B14481C
:1099E4001749C01AC008000440F00300FDF70CF842
:1099F400114B4FF6FF721A80C8E7002301A9808833
:109A0400ADF80430FFF79AFFE3E70B4800231A464A
:109A140085210088FFF790FFDBE7074800231A46FB
:109A240019460088FFF78CFFD3E700BFC0C20200CD
:109A3400E8C202000CCA0200BE2A002058370020E7
:109A440016CA02000D4B4A881B889A4214D10A8810
:109A540040F677239A420FD18B88094A09480A496C
:109A6400033B9BB21380094A801AC00800041A46BB
:109A740040F00300FCF7D5BF704700BFBE2A0020AA
:109A8400BC2A0020E8C2020023CA0200C0C20200AD
:109A940008B503784BB9054B3B211888FFF746FFFF
:109AA40018B1BDE80840FDF749BA08BDBE2A002038
:109AB400072808B513D00A280DD0042819D10D4B56
:109AC40013211888FFF732FF30F0080311D0BDE8E6
:109AD4000840FDF733BABDE80840FFF737BF054B30
:109AE4001A884FF6FF739A4203D1034800F0C2FE6E
:109AF400EAE708BDBE2A0020E834002008B548B1D2
:109B040003280BD10220FFF7FFFD38B1BDE8084060
:109B1400FDF714BABDE80840FFF718BF08BD000000
:109B2400F7B50378012B33D0022B31D073BB1A4C19
:109B34001A4D20782844FDF7F3FD23780133DBB276
:109B44001D44237015F8012C0A2A05D00D2A03D0D0
:109B5400134A12889A4219D8012B15D9114D0F4E68
:109B6400114F2378ADF806300DF106022B883146EB
:109B7400384601F027FC082806D01328F1D0052820
:109B840002D008B1FDF7DAF90023237003B0F0BD69
:109B94004068FDF7D3F9F9E7E4340020F0330020FE
:109BA400BC2A0020BE2A0020C02A00202DE9F04152
:109BB4000578064645BB154C154BDFF85880E41A6A
:109BC400E408240444F00104B28A95420AD33369B8
:109BD400134413F8013C0D2B16D10A20FDF7B6FDF2
:109BE4001128F9E73369585DFDF7B0FD074648B120
:109BF4001128F7D0024641462046FCF709FF3846B3
:109C0400FDF79CF90135DFE7BDE8F081E8C2020009
:109C1400C0C202003FCA0200FDF790B908B5084966
:109C2400084801F045F908B1FDF788F90548F7211E
:109C340001F052F918B1BDE80840FDF77FB908BD3D
:109C4400499A02004037002000B5734D0FCDB1B0E2
:109C540005AC0FC495E80300704B714A01934FF4AF
:109C6400807384E80300CDE9032302936D4A07233C
:109C740001A905A8FDF7FCFC08B1FDF75FF94FF455
:109C840000410020FCF70AFD08B1FDF757F9FCF785
:109C94003BFCFDF7DFFB08B1FDF750F962490320F7
:109CA400FFF73EFD08B1FDF749F905A90020FFF7CC
:109CB4001DFE08B1FDF742F9FEF7F4F808B1FDF70F
:109CC4003DF901F0FDFB08B1FDF738F9002305A9C2
:109CD4000120059301F082FC08B1FDF72FF905A8D6
:109CE40001F04CFD08B1FDF729F911234F488DF817
:109CF400043001F058FF4D4982B201A8FFF71AFE63
:109D040008B1FDF71BF90021082205A801F0F6FEB1
:109D140047494FF0C87305A8CDE90513FFF708FEBE
:109D240008B1FDF70BF9FFF779FF424B4248059361
:109D340005A901F0BFF908B1FDF700F904220021DB
:109D44000DEB020001F0DAFE3C4B3D48019301A902
:109D540001F0BEFA08B1FDF7F1F8AC22002105A824
:109D640001F0CCFE02238DF814304FF4A063354A81
:109D7400ADF816300123ADF8603019928DF89030AB
:109D8400402244F25063CDE927232F482F4B2E93D2
:109D940005A900F0B2FB08B1FDF7D0F82A4801216B
:109DA40000F0A8FB1C22002105A801F0A7FE002357
:109DB4004FF42032CDE90532ADF822304FF4702251
:109DC4008DF82430224B07920A930322214B8DF8FD
:109DD400202005A80B9300F069FE08B1FDF7AEF84A
:109DE4001D4801F031FE1D4B1D481E49C01AC00814
:109DF400000440F00300FCF707FE1348032100F0C1
:109E0400F3FB08B1FDF79AF8FCF7A2FC0028FBD19C
:109E1400FEF75EF8F8E700BFB4CA0200643700201A
:109E240064380020259B0200B59A02006ACA020029
:109E340010003C004D99020058370020B19B0200ED
:109E4400C02A0020B82A0020E8340020019B020028
:109E5400959A02001D9C020076CA0200C0C202004C
:109E6400E8C2020088CA02000369C1688B429DBF30
:109E74008268D21802F1FF3203F1FF3394BF501A03
:109E8400581A70472DE9F843D0E902940546A9EB26
:109E940004084068904520440F46144404D901F056
:109EA40004FEEC60BDE8F8834246A4EB090401F02B
:109EB400FCFD6868224607EB0801F0E72DE9F8434A
:109EC400C5680646894617464FF000083469B368EA
:109ED4007068A54228BFE418013C621B5C1BBC42AD
:109EE40028BF3C46944228BF14464946284422468B
:109EF40001F0DBFDB3682544AB4208BF00253F1BDE
:109F0400A044A144F560E1D14046BDE8F8830000D7
:109F140010B5114C114AA2610223C4E90433104B59
:109F2400E361A2644FF400730E4A0F492362E264B2
:109F340000231022E01DA3626362E362A3656365EC
:109F4400E365226501F00DFE0849204601F009FE93
:109F54002023A37110BD00BF64390020CCCA0200C5
:109F6400EC390020DC390020D5CA0200D9CA02002D
:109F7400F8B5184C182300FB033503FB00402544B7
:109F8400C46A012C0F4616460FD0022C1AD0F4B91D
:109F94002846FFF769FF864205D8324639462846E7
:109FA400FFF770FF34462046F8BD2846FFF75CFFF4
:109FB4008642344628BF0446224639462846FFF7DF
:109FC40061FFF0E72846BDE8F840FFF777BF0024BB
:109FD400E9E700BF64390020FFF79ABF6DDF7047DF
:109FE40079DF70477DDF704764DF70472DE9F04FFC
:109FF40085B000250E9CBDF83CB0B4F800A00191DA
:10A00400074690461E46A9463A884A450DDC45B1A6
:10A014002388013BA3EB0A039BB2FF2B3AD806F833
:10A024000A30002005B0BDE8F08F7A6852F82900A4
:10A03400039000220DF10B0103A8FFF7D5FF0028C0
:10A04400F0D19DF80B20424521D12288002D14BF68
:10A054000020022002EB0801014459451ADC3DB9F5
:10A06400013292B2019B2280B354228801322280B1
:10A0740022880DF10B01324403A8FFF7B5FF002835
:10A08400D0D121889DF80B200A442280012509F1B2
:10A094000109B9E70C20C5E72DE9F341089FBDF894
:10A0A40024801546CDE90078022204461E46FFF7B7
:10A0B4009DFF50B93346102229462046CDE9087841
:10A0C40002B0BDE8F041FFF791BF02B0BDE8F081F6
:10A0D4002DE9F04F00231788138090F82D3085B0B8
:10A0E40006460D46144653B3082F01D80C2027E129
:10A0F40002A8FFF773FF002840F02281238808227A
:10A10400EA54238801339BB21B222380EA5420881B
:10A11400013080B2208006220DF10901284401F0AB
:10A12400C4FC23889DF8082006339BB212F0FE027B
:10A1340018BF01222380EA54238801332380B37893
:10A14400FBB123880433BB42D0D802A8FFF748FFF1
:10A15400002840F0F58023880322EA542388013341
:10A164009BB219222380EA542388BDF808200133C6
:10A174009BB2E9182380EA54120A4A7023880233F6
:10A184002380F2789AB12388D91CB942AED802212F
:10A19400E954238801339BB201212380E9542388A5
:10A1A4000B449BB22380EA5423880B4423807268B7
:10A1B400AAB12388D91CB94298D8022192F9002067
:10A1C400E954238801339BB20A212380E95423886C
:10A1D40001339BB22380EA542388013323803389DB
:10A1E400002B40F0A180338A5BB1CDE900472B46B8
:10A1F4000722032106F11000FFF74EFF002840F06C
:10A204009F80338B5BB1CDE900472B461522142187
:10A2140006F11800FFF740FF002840F09180326AF1
:10A22400002A40F09080D6F82480B8F1000F30D096
:10A23400B8F804302188981C8A1C0244BA423FF6BC
:10A2440055AFFE283FF652AF03336B5423880133D6
:10A254009BB2FF222380EA54238801339BB22380DC
:10A26400B8F80020EA54E918120A4A70208802302B
:10A2740080B22080B8F804205AB1D8F80810002918
:10A284006BD0284401F011FC2388B8F8042013444F
:10A29400238096F82C30002B40F09A8030780028E8
:10A2A4004ED03388012B58D0228802F1020CBC45D1
:10A2B4003FF61CAF012805D17378023313449F4243
:10A2C400FFF414AF023FBF1ABFB202A905EB0C00A2
:10A2D400ADF80870FFF786FE90BB3178BDF8083002
:10A2E400022900F0BA8072789A4202D3BB4240F24B
:10A2F400B280012940F0B380974293B2C0F0AF809E
:10A30400ADF808300821BDF80830FE2B3FF6EEAE5C
:10A3140022880133AB542288013292B22280A9549C
:10A324002288134423800BE0CDE900472B46062204
:10A33400022106F10800FFF7AFFE00283FF453AFF7
:10A3440005B0BDE8F08FB4F800C00CF10603BB42C1
:10A354003FF6CCAE1188052901D80720F0E76FF449
:10A36400486E01EB0E039BB24FF27D3E7345F4D968
:10A374005388052BF1D96FF44860181880B27045E2
:10A38400EBD94FF6FF70814203D0834201D099424A
:10A39400E3D8052305F80C30238801339BB212213E
:10A3A4002380E954238801339BB223801188E95424
:10A3B400E818090A4170238802339BB2238052882B
:10A3C400EA54E918120A4A702388023323802AE7E0
:10A3D400B36A002BC1D04FF000094FF00C0A4FF0C4
:10A3E400160B96F82C305FFA89F293427FF656AF3B
:10A3F400B16A0AFB02F201EB0208B8F80430981CB7
:10A40400FE283FF673AE208803332B542388013390
:10A414009BB2238005F803B0238801339BB22380C9
:10A424008A5AEA54E918120A4A702088023080B223
:10A434002080B8F804205AB1D8F8081000298CD02C
:10A44400284401F032FB2388B8F804201344238005
:10A4540009F10109C5E7092155E7BB42FBD9ADF86C
:10A4640008704FE770B5C0B14AB116880024B442F1
:10A4740003D305196D789D4208D0A14201D800206C
:10A484000BE0055D01352C44A4B2F0E7A142F6D9F6
:10A49400A31C1380005D013880B270BD13B5134650
:10A4A4000022ADF806200DF106020446FFF7DAFF9C
:10A4B40010B1BDF80630E01802B010BD72DF70476D
:10A4C40073DF704774DF704738B5012204460D46C8
:10A4D400B0F83812D0F83402FFF7E0FF00B105708D
:10A4E40004F13C0204F50D7104F15400BDE8384058
:10A4F400FFF7E4BF80F830107047F8B504460F4604
:10A5040000296DD000286BD091F87A301BB191F8F6
:10A514009830002B66D14FF0000C84F802C007F18C
:10A5240078060FCE251D0FC50FCE0FC596E8070080
:10A5340085E8070084F830C0D7F8A4306363D7F8FF
:10A54400A830A3634FF6FF7504F50D73C4F84432C5
:10A55400A4F848520722614604F24A2001F0CEFAD8
:10A5640023780BB984F8545094F82430002B14BF8A
:10A57400EE231F2304F15501C4F83412A4F8383231
:10A5840004F50E723846FFF7A3FD40BB94F824305F
:10A59400002B14BFEE231F2304F24311C4F83C1212
:10A5A400A4F8403204F5107207F13C00FFF790FD67
:10A5B400A8B9A369A4F848304FF480730125A4F81E
:10A5C400503063692064014684F83C50636404F1AC
:10A5D4003C0204F15400FFF771FF00B92570F8BD87
:10A5E4000E20FCE70720FAE7F8B5077804460D4685
:10A5F400002F00F0078100F24A2681700722002113
:10A60400304601F07BFAE38813B1A378012B04D020
:10A61400E3794BB1A378022B06D1636B9BB1012282
:10A6240084F8512208209847324604F5147112F830
:10A63400013F5BB99142FAD16A1E032A52D8DFE87E
:10A6440002F0070D111484F85132EDE73B46F3E7AD
:10A65400A2791AB194F8242002B95BB9E2790AB15B
:10A66400002B41D1237A002B40D1637A002B0CBFFD
:10A6740000250425636BA570002B39D0033D012D03
:10A6840036D86279A2B394F852228ABB84F8542251
:10A69400012284F853220720984704F13C0518222C
:10A6A4000021284601F02AFAE26A0123511E994248
:10A6B40084F83C3001D9042A1ED1D3B294F8242062
:10A6C40084F851301AB1CFB1A36A84F85230A1781A
:10A6D400002384F8503004291FD8DFE801F07B11EF
:10A6E40026395D000025C5E70225C3E70325C1E738
:10A6F400002384F85332D0E70027DFE70123E4E79F
:10A70400C4E91063C4F844320223012284F83C30C3
:10A71400802384F83120A4F84830A378002B5CD13E
:10A72400636B002B6AD1002067E00223002A84F8BF
:10A73400313014BF0723032384F83C302369A4F881
:10A7440048300023C4F84432E36826646364E4E7D1
:10A7540063696364A369A4F8483012B1062384F8DA
:10A764003C306379B3B194F852329BB994F85432C3
:10A7740083B1022384F8503004212046FFF7A4FE5D
:10A784000028CAD1052384F8313004F50D73C4F8C8
:10A794004432C2E70323F6E7E3696364236AA4F857
:10A7A400483012B1062384F83C30637983B194F8BD
:10A7B40052326BB994F8543253B1022384F85030B6
:10A7C40004212046FFF780FE0028A6D10623DAE7FD
:10A7D4000423D8E784F831309FE7D4F844122A469A
:10A7E40004F15400FFF76AFE38B994F8301094F875
:10A7F4005400FFF765FE002892D0F8BD94F83100AC
:10A80400984790E70820F8E70388112B10B50C4609
:10A814000AD0262B1FD0102B05D1C37B012B02D1CC
:10A824008388A1F8483210BD0022838881F852221F
:10A83400B1F848229A42F6D10B79002BF3D10121C9
:10A844002046FFF7D1FE0028EDD0A36B002BEAD001
:10A85400BDE810401847037A013B012BE3D88978FF
:10A8640005230131B1FBF3F303EB8303C91AC9B226
:10A87400E6E7704738B5044690F85400FFF722FE27
:10A88400012384F85232002384F8543284F850307F
:10A8940006212046FFF718FE054638B9A178204660
:10A8A400FFF7A2FE10B1A36B03B19847284638BD49
:10A8B40075DF704776DF70477ADF70477BDF70475C
:10A8C400034B1A8882420CBF18460020704700BF11
:10A8D400083C0020024B9B6903B11847704700BF36
:10A8E400EC3B002073B585B22846FFF7E9FF044628
:10A8F40070B1164E027A337B9A420BD200F10A01F0
:10A904002846FFF7D5FFE8B1112801D0FFF7E2FF91
:10A9140002B070BD00230372337C43B13B2128464F
:10A92400FFF7C8FF30F0080301D0FFF7D3FF7369C6
:10A93400002BEDD000228DF80420ADF8065001A8BC
:10A944009847E5E7237A01332372E1E7EC3B0020E3
:10A9540037B50B46497A0F4A71B9D2E901141D7A09
:10A964000246002D18BF21465868FCF7B5FD08B112
:10A97400FFF7B0FF03B030BD002119725369002BFB
:10A98400F8D00122ADF806008DF8042001A89847FC
:10A99400F0E700BFEC3B00204B8802889A4213D8B2
:10A9A40042889A4210D380888A8840F2F3139842EE
:10A9B40094BF031AC31A934206D800F2F3109042CC
:10A9C40034BF002001207047002070470388122BF9
:10A9D40070B5014659D004D8102B1ED0112B44D089
:10A9E40070BD502BFCD12F4BC288DB899A42F7D122
:10A9F400038A022BF4D186883046FFF761FF0546AF
:10AA04000028EDD001F1120000F05DF938BB686850
:10AA1400FCF7AAFD0028E3D009E0C37B012BDFD1BA
:10AA24004FF6FF70FFF74CFF054620B90420BDE840
:10AA34007040FFF74FBF1C4A8E88068000230372C4
:10AA44001368C0F80A305368C0F80E3010310A3069
:10AA5400FFF7A2FF134B6872DB89002BC0D1294694
:10AA64003046BDE87040FFF773BF8088FFF728FFCA
:10AA740004460028B4D04068FCF776FD08B1FFF71F
:10AA840029FF4FF6FF732380AAE786883046FFF735
:10AA940017FF05460028A3D008310A30FFF77CFFD2
:10AAA4006872DCE7EC3B00201C3C0020F8B506464D
:10AAB40048B305460FCD154F3C460FC495E8070033
:10AAC40084E807003068124C3C60B0B1FFF7F4FE34
:10AAD400C0B9326813682360536863600D480E4A36
:10AAE4004FF6FF7303800D4B40F8043F0021FCF741
:10AAF400E1FC002818BF032004E02046FFF7DEFE37
:10AB04000028EBD0F8BD0E20FCE700BFEC3B002092
:10AB14001C3C0020083C0020E9A80200243C002042
:10AB240073B50191019C06466CB100252C4629465B
:10AB340001A8FCF780FE18B106EB440301349D80A4
:10AB44000135142DF3D13046346002B070BD0000DD
:10AB54002DE9F04703888488112B8CB005463CD03E
:10AB64001A2B3FD0102B17D1284EB368DB43009328
:10AB740071686846FCF78BFE009901A8FFF7D0FFC7
:10AB84000DF108094FF00008019B984507D3132CD9
:10AB940013D90420FCF7D2F90CB0BDE8F08739F8DA
:10ABA40002AB00270137514606EB8700FCF739FE5C
:10ABB4001D2FF7D108F10108E6E715482146FCF7F7
:10ABC40027FE14482146FCF723FEEB7B012BE3D040
:10ABD40011482146FCF71CFEDEE70D482146FCF730
:10ABE40020FED9E7037A0D481F2B4FEA131521469F
:10ABF40006D9FCF70DFE022D09482146EAD1EEE7FD
:10AC0400FCF70FFE06482146E9E700BF443C00205C
:10AC14004C3C0020483C0020503C0020543C002088
:10AC2400583C00201328014602D80248FCF703BE12
:10AC340000207047483C002010B50446FFF7F2FF9F
:10AC4400002814BF2046142010BD70B505461646D2
:10AC540008460AB90E2070BD00231360002DF9D0F8
:10AC64002B68002BF6D0EB8813F003040ED1FFF70A
:10AC7400E3FFC0B214280BD02B7983420AD9EB88A6
:10AC84002A6800FB032030602046E4E70720E2E75F
:10AC94000520E0E70420DEE7AADF7047002301383F
:10ACA4000B70042806D8DFE800F00306080A0C003D
:10ACB40011230B7070472123FBE73123F9E712239B
:10ACC400F7E72223F5E7007800F001007047F0B5BC
:10ACD4008B7891B0012B0C4638BF01238DF80E30D0
:10ACE40005460B88ADF80C30002116466846032251
:10ACF40000F004FF607C6946FFF7D0FFA07C0DF1F3
:10AD04000101FFF7CBFFE27B237B217D43EAC203F2
:10AD1400227C43EA02139DF80220002922F0190242
:10AD240003F0190314BF02210121134361F3420309
:10AD34001C22002109A88DF8023000F0DFFE637B9D
:10AD440013F0300F15D002AF03220021384600F073
:10AD5400D5FEE07C0DF10901FFF7A0FF11238DF86A
:10AD640008309DF80A300E97012262F342038DF8F1
:10AD74000A30637B8DF824301422A37B8DF82530B0
:10AD8400002104A800F0BAFE03AB0493A388ADF835
:10AD94001C30A368CDF814D01BB1E288ADF818209C
:10ADA4000893A369002B31D001AF03220021384658
:10ADB40000F0A4FEA3691A88ADF82C205A88ADF8D7
:10ADC4002E205A680D97187B0A923946FFF766FFC2
:10ADD400A3690DF10501587BFFF760FFA269917A21
:10ADE400137A43EAC103D17A927B43EA01139DF8B3
:10ADF4000610002A03F0190321F0190114BF0222DE
:10AE040001220B4362F342038DF80630E36903B178
:10AE14000C93334604AA09A92846FFF73DFF11B055
:10AE2400F0BD90DF7047A5DF7047B5DF70470000C5
:10AE34007FB50023ADF80810ADF80A106A4602A9E0
:10AE4400064603930093ADF80430FFF7EAFF054686
:10AE540000B3124B124CE41AE408FDF79DF82404E5
:10AE640044F0010403460F4932462046FBF7D9FD5E
:10AE7400BDF80020BDF8023052EA030103D00A49AC
:10AE84002046FBF7CEFDBDF804201AB10749204641
:10AE9400FBF7BEFD284604B070BD00BFC0C202006F
:10AEA40000C30200E0CA02002ACB020069CB020000
:10AEB40080B14FF0F7130360FB230371F723C380C2
:10AEC4001723038141F6FB32002301614381828110
:10AED400184670470E20704730B1A1F11703E02BDC
:10AEE40004D80180002070470E2070470720704767
:10AEF40013B5034680880C46B8B91A88242A00F092
:10AF0400968014D8112A71D0232A00F09E80102A2A
:10AF14003BD0A37A4BB1E1880020FFF784FF0028DF
:10AF240040F099804FF48073638102B010BD3A2AD7
:10AF340065D0552AEDD1DB88C988A072172B38BF9C
:10AF440017238B4228BF0B462381FFF76EFF60B1A6
:10AF5400FDF722F8484B4949024649481B1ADB08C9
:10AF64001B0443F00100FBF753FDE37A002BD0D11F
:10AF74002369002BCDD040F6772200922289ADF8C8
:10AF84000420694620469847C3E7DB7B0A790A73A5
:10AF9400012B13D0022B14D0E18823898B4205D2D4
:10AFA4000020FFF740FF70B90123E372217B637B2C
:10AFB4008B42AED20020FFF73BFFAAE70B88E38069
:10AFC400EAE74B88FBE7112802D10123A372EDE7DE
:10AFD400FCF7E2FF284B2B49024629481B1ADB08E1
:10AFE4001B0443F00100FBF713FDDFE7F723CB80DD
:10AFF40017230B8141F6FB3348818B8189E75B89F9
:10B00400CA88934228BF1346172B0A6938BF1723EF
:10B014000B814AB1C97A39B140F677210091ADF874
:10B0240004306946204690470023638171E71A7A09
:10B034000B694A73002B3FF46CAF4DF67A218DF8FF
:10B04400050000918DF804209BE7197A237B99422F
:10B0540028BF1946AFE711283FF467AFFCF79CFF00
:10B06400054B0849024606481B1ADB081B0443F03B
:10B074000100FBF7CDFC58E700C30200F0CB02004F
:10B08400C0C20200BFCB0200B0DF704766DF70476A
:10B0940010B5002104464088FFF7F8FF034608B9BD
:10B0A400237210BD112801D10123F9E76368BDE8BB
:10B0B4001040184760B159B10378DE2B0AD00B68F1
:10B0C4004360DE2303704FF6FF7343800020704714
:10B0D4000E2070470820704728B10378DE2B04D176
:10B0E4004180002070470E20704708207047F0B55B
:10B0F400054685B00C46F1B1E8B10B78DE2B1AD1C8
:10B1040082884B889A4204D10B7A13B10846FFF720
:10B11400BFFF2B88112B32D0512B0ED0012B0AD11B
:10B124002B7A012B07D1A9886288914203D123721B
:10B134002046FFF7ADFF05B0F0BDAE886388B3428B
:10B14400F9D1AF79022FF6D1AD7B2B1F022BF2D8A8
:10B1540000211022684600F0D1FC052D14BF4FF4E5
:10B16400C0730023694630468DF80070ADF8043092
:10B17400FFF78AFF0028DED063689847DBE763881F
:10B18400AA889A4204BF4FF6FF736380D3E7A8DF0F
:10B194007047ADDF7047AEDF704762DF704770B550
:10B1A40005468AB00C46002962D0002860D0038886
:10B1B400502B37D0572B72D0102B59D1818860690E
:10B1C400002601AA0196FFF740FD082231460DEB47
:10B1D400020000F093FC0223218AA888CDF80CD049
:10B1E40002AA0293FFF7D5FF002841D1A369002BDF
:10B1F4003ED00398FFF767FD002839D0019B0BB1BF
:10B2040001221A701822002104A800F077FC0223FE
:10B214008DF81030AB88ADF81830019B0594079376
:10B22400A36923E08188606902AAFFF70EFD182252
:10B23400002104A800F062FCAB882189ADF8183025
:10B24400EB88029A05949942079218D12E8A022E0D
:10B2540015D16AB105F11200FFF735FD029B48B123
:10B2640001221A708DF81060A3690BB104A89847E5
:10B274000AB070BD187003238DF81030F4E7A2896A
:10B284009A42F5D1A369002BF2D000228DF8102048
:10B2940005F1120208922A8AADF82420E6E7818893
:10B2A400606902AAFFF7D1FC01460028E0D1029BA5
:10B2B4001B78002BDCD0182204A800F01FFC01230B
:10B2C4008DF81030AB88ADF818300594029BA6E7D2
:10B2D400F0B53A4B8FB002AD04460A4603F1100CA8
:10B2E4002F46186859682E4603C608336345354609
:10B2F400F7D1002C5FD0002A5DD01368A3612146EA
:10B304003846FFF74AFF002853D12246012512F898
:10B31400023B8DF8063001A92846ADF80450FFF72A
:10B3240036FF002845D10146202206A800F0E6FB9E
:10B3340022460223ADF8183012F80C3B8DF81A306F
:10B34400BDF824301E4E6088079623F44F6323F023
:10B354000F0343F440632B4306A9ADF824308DF862
:10B3640029508DF82A50FFF7B2FC10BB0146202269
:10B3740006A800F0C3FB22460323ADF8183012F8E8
:10B38400043B8DF81A30BDF824306088079623F406
:10B39400875323F01F0343F480532B43ADF8243029
:10B3A40006A940F201138DF82950ADF82A30FFF7B1
:10B3B4008EFC0FB0F0BD0E20FBE700BF34CC0200C2
:10B3C400F4000100F0B50F4687B016461C4605464A
:10B3D40018B3406901AA1946FFF737FCD8B94FF6EC
:10B3E400FF739C421BD0019BCBB11B78CBB133883C
:10B3F400F42B18D80146102202A800F07FFBAB887A
:10B40400ADF8083002A901232046CDE904678DF880
:10B414000A30FFF7C0FE07B0F0BD0E20FBE70520A1
:10B42400F9E70820F7E70720F5E710DF7047000089
:10B4340013B5044609496846FCF779FD019808B933
:10B4440002B010BDD0E900212046904718B16846EB
:10B45400FCF777FDF2E71120F2E700BF50CC0200C1
:10B4640013B5044607496846FCF761FD019B0BB917
:10B4740002B010BD2046D3E9002190476846FCF78E
:10B4840060FDF3E768CC02000B4991F816335A09C2
:10B49400EC231341DB0706D5084B9A683AB94FF4FD
:10B4A40080030B60704742F20200FBF747BD1A6845
:10B4B40042F480021A60704700E100E05432002038
:10B4C400F7B5194F3C7864BB184E012520463570FA
:10B4D400FFF7AEFF112821D02046FFF7C1FF144B20
:10B4E4008DF80340186801900DF10300FCF756F93C
:10B4F400104901A8FFF799FF0446B0FA80F040090B
:10B5040038709DF80300FCF76DF93CB90A4B3470B0
:10B514001C70FFF7B9FF2846FFF7A2FF204603B0CF
:10B52400F0BD0824FAE700BFBD3C0020BC3C00206D
:10B534004CCC02005D6F0200BE3C0020014B187829
:10B54400704700BFBD3C002007B508496846FCF7BA
:10B55400EEFC019B13B903B05DF804FBD3E90020B2
:10B5640090476846FCF7EDFCF3E700BF5CCC0200B3
:10B57400FFF7EABF60DF704769DF704761DF70473C
:10B5840030B5114DADF5017D4FF4FA740DF10201A2
:10B5940003A8ADF80240FFF7F1FF70B9294601A8EE
:10B5A400FCF7C5FC029B002BF0D003A8D3E90021D3
:10B5B400904701A8FCF7C5FCF4E7052801D0FBF788
:10B5C400BDFC0DF5017D30BDF0CE0200024B1B78B1
:10B5D4000BB1FFF7D5BF7047BF3C002030B505461F
:10B5E40085B00C46002900F0B5805B4B0B600C2243
:10B5F400002101A800F082FA01238DF806302268A8
:10B604008DF80450062301A92020ADF80830FFF777
:10B61400B3FF60B1FCF7C0FC504B5149024651489E
:10B624001B1ADB081B0443F00100FBF7F1F90C22A1
:10B63400002101A800F062FA01238DF80530226888
:10B64400002301A94020ADF80630FFF795FF60B153
:10B65400FCF7A2FC414B4449024642481B1ADB0852
:10B664001B0443F00100FBF7D3F90C22002101A8CD
:10B6740000F044FAF72322688DF8045001A923202E
:10B68400ADF80630FFF778FF60B1FCF785FC334B6B
:10B694003649024633481B1ADB081B0443F00100F9
:10B6A400FBF7B6F90C22002101A800F027FA0120CB
:10B6B40022688DF8040001A9FFF75EFF60B1FCF772
:10B6C4006BFC264B2A49024626481B1ADB081B043E
:10B6D40043F00100FBF79CF90C22002101A800F0C3
:10B6E4000DFA4FF4B0632268019301A9A120FFF77A
:10B6F40043FF60B1FCF750FC184B1E490246194841
:10B704001B1ADB081B0443F00100FBF781F90C2230
:10B71400002101A800F0F2F99DF8043022686FF3CB
:10B72400000301A9A0208DF80430FFF725FF03468C
:10B7340068B1FCF731FC094B0F49024609481B1A52
:10B74400DB081B0443F00100FBF762F900231846F1
:10B7540005B030BD0E23FAE7982A002010C302007A
:10B7640074CC0200C0C20200BACC020006CD0200B2
:10B774004DCD020099CD0200EACD020073B5054615
:10B784000668FFF7F7FE2B68B34204461DD91A4832
:10B794001A4B1B491B1ADB081B0443F002000190DF
:10B7A400FBF732F92B68174901983246FBF739F950
:10B7B4004FF080532A68D3F80C31134901989B0247
:10B7C40003F100539A1AFBF723F92CB90F4B01220A
:10B7D4001A70204602B070BD2046FCF7DDFB074B13
:10B7E4000B49024604481B1ADB081B0443F0010002
:10B7F400FBF70EF9EDE700BFC0C2020010C3020060
:10B804003DCE02006CCE02009DCE0200BF3C002063
:10B81400C7CE02004BDF70471FB50D4C01A8FFF7E0
:10B82400F9FF70B9214602A8FCF781FB039B002BAA
:10B83400F4D00198D3E90021904702A8FCF781FBDA
:10B84400F4E7052801D0FBF779FB04B010BD00BF75
:10B8540008CF020053EA020C61D02DE9F04BB3FA91
:10B8640083F51E0007BFB2FA82F502FA05F403FA63
:10B8740005F41646C5F120051EBF22FA05F73C4320
:10B88400203556EA044C4FEA144418BF0134A34649
:10B894004FF00009C846904271EB030C39D30942BA
:10B8A40007BFB0FA80F700FA07F6B1FA81F701FA98
:10B8B40007F6C7F120071EBF20FA07FC46EA0C066C
:10B8C4002037B6FBFBFC7F1B103F07F01F04C4F1BD
:10B8D40020060CFA04F42CFA06F644BF344600267B
:10B8E400202FA4BF2646002454EA060C08BF0124D6
:10B8F40018EB040849EB0609A4FB027CC01B06FBF9
:10B9040002CC04FB03CC71EB0C01904271EB030CF1
:10B91400C5D20B46024649464046BDE8F08BB2FB11
:10B92400F3F200007F2805D8034B185C034B5B5CE3
:10B93400184070470020704720CF0200A0CF0200BB
:10B94400A0F16103192B98BF20387047A0F141037F
:10B95400192B98BF203070477F2805D8034B185CFB
:10B96400034B5B5C184070470020704720CF0200F7
:10B97400A0CF0200A0F16103192B98BF20387047B3
:10B98400A0F14103192B98BF203070477F299ABF3B
:10B99400017001206FF02E0070475AB10A787F2A97
:10B9A4000AD800B10260002119605960501A18BF0A
:10B9B40001207047002070476FF02E00704738B5A3
:10B9C40004460846A26842B1236861685D1C8D4242
:10B9D40008BF00208B4208D2D054E3682BB1216801
:10B9E4006268914201D2214698472368013323605B
:10B9F40038BD70B54C1E09D41646C5B2294630462A
:10BA0400FFF7DDFF013CB4F1FF3FF7D170BD10F04B
:10BA1400100F08D108B510F4007F14BF3020202087
:10BA2400FFF7E7FF08BD704708B5034B5B689B68E9
:10BA34001B68984708BD00BFE42A002008B5092107
:10BA4400FFF7F2FF08BD00000FB410B586B008ABD5
:10BA540053F8044B0593002303936FF000430293C0
:10BA6400084B049300F0CFF8059A214601A800F092
:10BA7400CDF8044600F0C8F8204606B0BDE81040F2
:10BA840004B07047B17F0200037853B159B1014447
:10BA9400034613F8012F12B18B42FAD10B46181A40
:10BAA40070470346FBE70346F9E7844640EA01038F
:10BAB40013F0030F18D18446202A0BD32DE9F00785
:10BAC400B1E8F807A0E8F807A2F12002202AF7D28B
