:020000021000EC
:1090000000600020759301005D9301005F930100F3
:10901000619301006393010065930100000000006B
:109020000000000000000000000000006793010045
:1090300069930100000000006B9301006D93010033
:1090400039C301006F93010075C701006F930100E0
:109050006F93010000000000F1C501006F93010053
:109060006F9301006F9301006F9301006F930100F4
:109070006F9301006F9301006F9301006F930100E4
:109080006F930100ADA101006F9301006F93010088
:1090900049A201006F9301004D1002006F9301007F
:1090A0006F9301006F9301000000000000000000BA
:1090B0006F9301006F9301000000000000000000AA
:1090C00000000000000000000000000000000000A0
:1090D0000000000000000000000000000000000090
:1090E0000000000000000000000000000000000080
:1090F0000000000000000000000000000000000070
:10910000000000000000000000000000000000005F
:10911000000000000000000000000000000000004F
:10912000000000000000000000000000000000003F
:10913000000000000000000000000000000000002F
:10914000000000000000000000000000000000001F
:10915000000000000000000000000000000000000F
:1091600000000000000000000000000000000000FF
:1091700000000000000000000000000000000000EF
:1091800000000000000000000000000000000000DF
:1091900000000000000000000000000000000000CF
:1091A00000000000000000000000000000000000BF
:1091B00000000000000000000000000000000000AF
:1091C000000000000000000000000000000000009F
:1091D000000000000000000000000000000000008F
:1091E000000000000000000000000000000000007F
:1091F000000000000000000000000000000000006F
:10920000354936480A1A02D0072291438D4634491F
:1092100034480A1A06D00722914381F309880222B2
:1092200082F3148830483149314A00F044F831481B
:109230003149324A00F03FF831483249324A00F0B1
:109240003AF832483249334A00F035F83248334967
:10925000334A00F030F833483349344A00F02BF8F1
:1092600033483449344A00F026F83448344900225F
:1092700000F02CF833483449002200F027F8334836
:109280003349091A082902DB002202604160314A91
:1092900090471F481F49884205D00268043003B434
:1092A000904703BCF7E700208646EC4600200021EB
:1092B000294A9047FEE7884207D0521A05D0037822
:1092C00001300B700131013AF9D17047884202D068
:1092D00002700130FAE7704700600020005800205B
:1092E00000600020006000208C3302005C1D002024
:1092F000A81D0020C0930100C09301002C1602009D
:109300008C3302005C1D00205C1D0020A4170200AD
:10931000A4170200A4170200A4170200A417020059
:10932000A4170200A4170200A41702008A33020047
:10933000D8330200A81D0020A81D0020A81D002071
:109340005C2D00205C2D00205C2D00205C2D002079
:109350005C3500208B93010021D70100FEE7FEE77A
:10936000FEE7FEE7FEE7FEE7FEE7FEE7FEE7FEE7D5
:10937000704700BF0C4880470C484FF007018843F6
:1093800085460B488047FFF73BBF0A480A490B4A0E
:10939000884207D0521A05D0037801300B70013192
:1093A000013AF9D17047000071930100006000207C
:1093B0000DBE010090170200481D00205C1D00201A
:1093C0007047000007B5044B0093044A402300F0A7
:1093D00032F803B05DF804FBE1930100A91D002001
:1093E0002DE9F84388461446B2B10F4B0F4E0325C2
:1093F000002743F00109224608EB0701002004F092
:1094000035FB0744241A48B933782BB14FF47A401E
:10941000C847013D02D13570BDE8F88301233370A0
:10942000002CE8D1F8E700BFB0170200A81D00200B
:10943000704704F04FBBF0B595B01D461646084680
:109440000C4602F04FFC1A9B0D93CDE908650025F0
:109450002B46082205A920460A958DF82C500C951C
:1094600002F05DFC079B0293069B03939DF814306A
:109470008DF8115003F00302012A1DD1BDF814200C
:10948000059DC3F3C203C2F383168DF81030B200FA
:1094900008230EA9204602F042FCC5F3952508AB2F
:1094A0000093324602AB0EA9284600F0E7FB2046A7
:1094B00002F01CFC15B0F0BD022AF8D1BDF8165020
:1094C000C3F3C203C5F389158DF810300827082DA2
:1094D0002E4628BF08263B4632460EA9204602F0FB
:1094E0001EFCAD1B08AB02AA31460EA8374400F0A3
:1094F00029FC002DEBD1DAE7014B01221A707047ED
:109500002A1E00207047000070B5124D06460FCD90
:1095100088B06C460FC495E80F00002E84E80F0059
:109520004FF0FF334FF00602CDE90023CDE90233BF
:10953000094A0A484FF0EB7308BF002269460693B8
:1095400002F092FE08B100F083FD054B1E7008B0DA
:1095500070BD00BFC4170200F99401005C1D00201B
:10956000E91D002007B5044B0093044A4023FFF790
:1095700062FF03B05DF804FB81950100EA1D002045
:1095800038B50D4B0D4D002018700D4804782D5D39
:10959000D2B21C4665B1043003F00EFD08B100F0F4
:1095A00057FD084B1A7812B12378002BFBD038BD39
:1095B0000C3003F00BFBF1E72A1E00200C260020E4
:1095C0005C1D0020E91D002008B50848084A037802
:1095D000D35C3BB1043003F08DFCBDE808400020B3
:1095E000FFF792BF0C3003F08FFAF6E75C1D002006
:1095F0000C2600200120FFF787BF000038B50A4D78
:10960000FFF717FF0421284600F0A6FA074B0124B4
:109610005C71FFF7EFFF042105F1100000F09CFAE8
:10962000034B5C7138BD00BF70170200701D002035
:10963000781D00200378024613F0040006D003F0E2
:109640000300012803D0022809D0012070470B68CD
:1096500012880233C2F3831213440B6070470B6805
:109660005288023303EB92130B60EEE72DE9F04FC3
:1096700087B000230446861C0DF107000F461546EF
:109680008DF8073000F0D8FF454801683960D0E90F
:109690000132134401335B1A824600F21C4700F585
:1096A000836900F21448B3421CD30020002D73D00C
:1096B00004F00F039B0143F0050363F30F00DAF896
:1096C0000020DAF808301340033316444AF8230028
:1096D0009DF80700CAF8006000F0D2FF012007B033
:1096E000BDE8F08F0121384601F03AFE484601F00E
:1096F0004FFE404601F04CFEDAF80400DAF808B0FC
:10970000029000EA0B0003300AEB800002A9FFF789
:1097100091FF029B50BB0BEA03020AEB820203F1AA
:10972000020CD2680392013303EA0B0B0AEB8B0B9A
:1097300002F00302012ADBF80C10CDF808C023D098
:10974000022A16D08346404601F025FE10B1029B46
:10975000CAF804305946384601F002FEDAE901231E
:109760001344DAF8002001339B1A9CE70BEA03004C
:10977000C9E7BDF80E30C3F3891303334FEA114B29
:109780000CEB93030293DEE7BDF80C30C3F38313B5
:109790004FEA114B6344F5E7A40544F006008EE759
:1097A000FC1E00200B4B0C48FF2210B59A600022D3
:1097B000C3F81824C3E90022C3F8142483F8202432
:1097C00002F049FA044610B9044802F0D7FA2046DC
:1097D00010BD00BFFC1E0020AC16020028180200BD
:1097E00030B50A4C71B10A4A0A49121BD20800234B
:1097F0009A4201D1002030BD31F82350854202D079
:109800000133F5E7034654F83300F4E7C0160200CD
:10981000701702005C1D0020094B013903EBC000EA
:10982000032909D8DFE801F00A0204060420704782
:1098300000797047407970470020704702207047D8
:10984000C0160200034BD3E90030C31A58425841F6
:10985000704700BFFC1E00202DE9F04387B0FFF7E2
:10986000F1FF0646002840F0F9807D4DC5F8180448
:10987000BFF34F8F6B68AC6802932340033305EB53
:10988000830002A9FFF7D6FE029B18B1D5F8182471
:10989000002A5FD004EA0302991C013305EB82021F
:1098A000234005EB8303D268DB68049302F00303D3
:1098B000022B0392029160D1BDF80E306948C3F3C8
:1098C0008917502FB84628BF4FF0500868F38F1300
:1098D00008F10801ADF80E3002F0D5F9064600286F
:1098E00000F0A78002F0FEF90023082203A9304609
:1098F00002F00BFA029924EA01020132B8EB820F5E
:109900004FEA820332D95FFA88F85BB32140DCB2B8
:10991000A8EB040803315FFA88F9A046524C05EB26
:10992000810108234246304602F0EFF934B108F1D4
:1099300008034A462146304602F0E7F9029B033706
:1099400003EB97070297D5F81834002B49D1D5F8C7
:10995000104459E02A689A428FD86A60304607B0AE
:10996000BDE8F08340491C469946DAE70C40E11C0B
:109970000823424605EB8101DDE7012B59D1BDF8F3
:109980000C303848C3F38311062928BF062161F340
:10999000891302318900ADF80C3002F074F90646E3
:1099A000002846D002F09EF90023082203A9304681
:1099B00002F0ABF90027BDF80C20C2F38312BB0004
:1099C000974203F10803BED202994A1C2140033199
:1099D000029205EB81010422304602F096F901372C
:1099E000E9E7304602F082F9FFF72CFF80F001062C
:1099F000F6B2B3E7E3685B7923B1236831461B68AD
:109A000020469847E3681C68002CF3D1304602F0EA
:109A10006DF90DF107008DF8074000F00DFED5F847
:109A200018340BB9029B6B609DF8070000F028FE0C
:109A3000DAE7D5F8104454B90C4B0D480D49C01A5B
:109A4000C008000440F0020000F062F8CCE7236890
:109A500020469B689847E3681C68ECE700267DE792
:109A6000FC1E0020AC160200081F0020C0160200D9
:109A7000E8160200111802002DE9F74F224D0446A6
:109A80000F46924601A901221846D5F808909B4638
:109A9000FFF7ECFD20B3019E4FF00008B21CD84543
:109AA00008EB020126D11948002101F012FC80F3D5
:109AB0001000000440EA1440E400731C04F0380471
:109AC00003EA090306EA090644F0010405EB8303EF
:109AD000033644EA881444EA8724D86045F82640CF
:109AE00095F820341BB1FFF7B7FE0028FBD103B077
:109AF000BDE8F08F09EA010105EB81015AF8283031
:109B0000CB6008F10108CAE7FC1E002018230020E2
:109B100000231A46FFF7B0BF07B50123019201AA3F
:109B2000FFF7AAFF03B05DF804FB07B5CDE90023FA
:109B300002236A46FFF7A0FF03B05DF804FB1FB5E0
:109B4000CDE90123069B039301AA0323FFF794FFAA
:109B500005B05DF804FB000030B50F49D1F81024C2
:109B600003460020144634B9DC6820714AB9C1F8B4
:109B70001034226030BDE4682579854206D024681F
:109B8000F1E7D268116821601360F3E701300A2819
:109B9000E8D14FF0FF30EDE7FC1E0020094A38B550
:109BA0000123D2F8104482F820341D4604B938BD90
:109BB000E3685D71236820465B689847E3681C682A
:109BC000F4E700BFFC1E002010B5037A052B0C46FD
:109BD0000FD0437A23B1084A0849204601F03EFCE1
:109BE0000749204601F03AFC2046BDE8104001F04C
:109BF0002ABC002AF8D0F3E7341802003918020012
:109C000059180200C38873B504460D4633B1144A8F
:109C100000921449144A284601F020FC217A0529B3
:109C20001CD0637A4BB1A088FFF7F6FD0F4B1049AB
:109C300053F82020284601F011FC227A0D4BA08811
:109C400053F822600021FFF7CBFD0B490346324653
:109C5000284602B0BDE8704001F000BC02B070BD03
:109C600034180200441802003C180200C018020018
:109C700039180200E41802005C1802002DE9F043D4
:109C800085B01F460C9D002395F80C902B7306465B
:109C90000C46904629463846FFF7B4FFB8F1060F48
:109CA00009D8DFE808F00412181F283340003146B5
:109CB000284601F0D3FB002229463846FFF784FFEF
:109CC00085F80C9005B0BDE8F0832268314628463F
:109CD00001F0C4FBEFE7D4E900233146284601F048
:109CE000BDFBE8E7A36800933146D4E9002328468A
:109CF00001F0B4FBDFE7E3680193A368009331460A
:109D0000D4E90023284601F0A9FBD4E72369029394
:109D1000E3680193A36800933146D4E90023284601
:109D200001F09CFBC7E76369039323690293E3682F
:109D30000193A36800933146D4E90023284601F03B
:109D40008DFBB8E708292DE9F74F80460E461746E8
:109D50001C463CD800251B7B2573214610460193E9
:109D6000FFF750FFDFF884A0DFF884B0AE4231D9AE
:109D700018F805205946204601F070FB0135082DE2
:109D8000F4D11949DFF86CA0DFF86CB0204601F07F
:109D900065FB4FF000094E4521D918F809507E2D7A
:109DA00003D8284607F05CFB00B92E252A46594601
:109DB000204601F053FB09F10109B9F1080FEAD17E
:109DC000012221463846FFF7FFFE019B237303B0B3
:109DD000BDE8F08F5146204601F040FBCEE75146EA
:109DE000204601F03BFBE6E7701802006C18020009
:109DF000661802006E180200721802002DE9F04F7A
:109E0000364E87B04FF00009354B1B785FFA89F565
:109E1000AB4202D807B0BDE8F08F324BD3F800A0B8
:109E20001AF835000124D6E9001EA0F12002C0F185
:109E3000200304FA02F224FA03F3134304FA00FCA9
:109E4000059301EA0C030093059B0EEA03030193BB
:109E5000DDE9002313430AEBC50B3BD0059B21EA48
:109E60000C012EEA0303C6E9001302F0B7FB034618
:109E70001AF835001C4DA0F12001C0F1200204FAAF
:109E800001F124FA02F20A43D5E900C184400A40F4
:109E90000392A0F1200104EA0C04C0F1200203FAAD
:109EA00001F823FA02F2029448EA0208DDE90212FC
:109EB00003FA00F7424508BFB9420BD1DBF8042092
:109EC00042B19BF801104C1E61426141CD1A6942BA
:109ED0006941904709F1010996E700BFE823002096
:109EE000B8230020F0230020E0230020F8B5064628
:109EF0001E4800F091FBC0BB0125A6F12004C6F16D
:109F0000200325FA03F305FA04F41C43184BD3E9A4
:109F100000C2B5400CEA050002EA040101431F46F5
:109F20001DD1304602F05AFB124BD3E9001288B122
:109F300029432243C3E90012D7E900231C430E4BF7
:109F40000A4819681543C7E900540022BDE8F840E3
:109F500000F01ABB21EA050122EA0402EAE72CEA32
:109F6000050522EA0404C3E90054F8BDC02300201B
:109F7000E8230020E0230020BC230020042A2DE950
:109F8000F34105460C46164639D902F065FAD8B1B8
:109F90001C4B1D491D601D4BDFF884801C701C4B41
:109FA00000221E600023C1E900231A49C1E90023F1
:109FB000013CE4B200260327FF2C0CD1164A1748B7
:109FC000002100F0CFFA03E002F00EFA0028DFD003
:109FD00002B0BDE8F08105EBC40315F834009B78AE
:109FE0008DF80660424601A98DF804708DF80530A1
:109FF00002F03CFA013CE4B20028DDD0E8E707209B
:10A00000E6E700BFF0230020E0230020B823002073
:10A01000BC230020E8230020FD9D0100F818020069
:10A02000ED9E010070B5084D084E00242B789C422F
:10A0300001D3002070BD3368012113F8340002F011
:10A0400089FA0134F2E700BFB8230020F023002092
:10A050001FB50021039001AA44F20100CDE90111CE
:10A0600000F004F805B05DF804FB000010B572B60E
:10A07000FFF794FDFFF7F0FB0028FBD1104B114CCC
:10A080001149E41AE408240444F00100FFF740FDFC
:10A090000E4B1B68DB0700D500BE0D4944F00200E3
:10A0A000FFF736FDBFF34F8F0A490B4BCA6802F426
:10A0B000E0621343CB60BFF34F8F00BFFDE700BFEB
:10A0C000C0160200E8160200FC180200F0ED00E0E5
:10A0D0000819020000ED00E00400FA05094A53786F
:10A0E00091780133DBB2994208BF0023117899427D
:10A0F0001FBF03705078182303FB002014BF0430E7
:10A1000000207047F423002073B5054600240DF1AC
:10A1100007000E468DF8074000F08EFA0DF106009C
:10A12000FFF7DCFF90B10670094B9DF806204560F3
:10A130005A709DF8070000F0A3FA24B9054B4FF4BC
:10A140008012C3F80021204602B070BD0424F0E75D
:10A15000F423002000E100E0024B4FF43C6043F0A8
:10A16000010318472019020038B50C4B0C4C4FF472
:10A170000032C3F8802001254FF48033C4F84833FF
:10A18000C4F808336560FFF7E7FF064BA5600024BD
:10A190001C60FFF7E1FF044B1C7038BD00E100E0DC
:10A1A000001001401025002001250020F8B51F4BAC
:10A1B0001F491B680025C1F84051C1F84451C1F83E
:10A1C0004851C1F84C51C1F80051C1F804514BB38A
:10A1D000D1F8044517490968641A24F07F442F46D2
:10A1E0001A68A24209D8A41A15441A7CDE691AB169
:10A1F000D3E905201F749047AEB90F4A0F4B117871
:10A200001B788B4205D10133DBB2022B08BF002340
:10A21000137012780A4B43F822500A4B4FF4801205
:10A22000C3F80021F8BD3346DAE700BF142500204B
:10A2300000100140102500200D2500200C250020D5
:10A240000425002000E100E02DE9F04FA24AA349D7
:10A2500013780978A24D994285B03CD00133DBB226
:10A26000022B08BF002313709E4912789E4B0F6883
:10A2700053F822003B1823F07F4300220B602B6829
:10A2800016461446944613B942B12B6006E019688D
:10A2900081420ED902B12B60091A196001272B687F
:10A2A000DFF84CA201934FF00008BEB9DFF848B2C6
:10A2B00062E0401A0C44D968D3F81CE0C3F800C02F
:10A2C00031B13A1922F07F42C3E90121DE611E4615
:10A2D00073460122D7E700263746E0E73446F669A1
:10A2E000804A63681268DFF814C2A068991A21F0E6
:10A2F0007F41614500F2A88001442160012222745F
:10A300002A680023C4E90133E361002A40F0A580F4
:10A310002C60CAE79BF802105A1CD2B291428BF80B
:10A32000002004BF00228BF80020182202FB03B398
:10A330002A6819799C68022977D0032900F0818066
:10A34000012919D1207CB8B9D3E90312A2605A6956
:10A35000E2609A69654BA2611B78002B0CBF0B462B
:10A3600003466360BCE78C4200F094808946C9696B
:10A370000029F8D1002323749BF800309BF80120BA
:10A380009A42C7D12B68B8F1000F04D1019A9A42C2
:10A3900001D1002F43D0002B79D0D3F800A0544D29
:10A3A000504BD5F804751C68DFF854813E1B98F8B3
:10A3B000003026F07F4603369BB94FF48033C5F852
:10A3C0004433C5F804334B4B4FF400324FF00109CE
:10A3D000C3F880211A60C5F80090FFF7BDFE88F829
:10A3E0000090B2452CBF5444A41924F07F44C5F812
:10A3F0004045D5F80435DB1B23F07F43E41B0333D2
:10A4000024F07F44A3420AD9D5F80435C5F8403575
:10A41000FFF7A2FE374B4FF40032C3F80021334B55
:10A4200000221A7005B0BDE8F08F114691469FE7F3
:10A430001174D2690123002AFAD1002B9CD02A6022
:10A440009AE700231946F6E7D31A23F07F438342A5
:10A4500034BFC31A0023236050E721681368994270
:10A4600013D8591A1160E26152E7091AD8691A46DD
:10A4700038B1034618688842F7D3401A1860184666
:10A4800013462160E061DC610FE71346F2E7FFF756
:10A490006BFEC4E74C4511D1D3692B6073B9DFF86B
:10A4A00044E00120CDE90212CAF80800CEF80030DD
:10A4B0000E4B1870FFF750FEDDE902120B68C969F8
:10A4C000C9F81C1011B1086803440B602B68934253
:10A4D00018BF4FF001084DE70C2500200D25002086
:10A4E0001425002010250020042500200025002030
:10A4F0000010014000E100E0F4230020FEFF7F0097
:10A500000125002008B5FFF72FFE104B00200B227D
:10A5100018809A700E4B18600E4B18700E4B187006
:10A520000E4B4FF48012C021C3F8802183F814131E
:10A530001A6002F18042A2F56F22C2F8080583F882
:10A540001113074BD2F804251A6008BDF42300202C
:10A55000142500200C2500200D25002000E100E03E
:10A5600010250020074B9B784BB132B128B103680E
:10A57000187C20B959745A61704707207047082029
:10A58000704700BFF42300202DE9F743DFF88480F3
:10A5900098F8023005460E461746ABB3A0B304291F
:10A5A00030D9436983B3437C0024012B0DF10700AC
:10A5B0000CBF8946A1468DF8074000F03DF80DF12B
:10A5C0000600FFF78BFDD8B1012303700F4B4560E8
:10A5D000D3F80435C0E90497C0E902369DF8063087
:10A5E00088F801309DF8070000F04AF824B9084BBC
:10A5F0004FF48012C3F80021204603B0BDE8F08379
:10A600000424EFE70724F7E70824F5E700100140EA
:10A6100000E100E0F4230020064A92783AB130B11C
:10A62000426922B1002202740221FFF76DBD0820A9
:10A63000704700BFF423002070B5EFF3108672B6A8
:10A640000C4A946801239CB993600B4B0B4DD3F8D3
:10A65000801029401160C3F88050D3F884105160F5
:10A660004FF0FF32C3F88420047006B962B670BDA3
:10A670000370FAE71825002000E100E0FC06FFBDAA
:10A68000084B9A6810B55AB150B9EFF3108172B601
:10A69000054A1C6814605C685460986001B962B631
:10A6A00010BD00BF1825002000E100E070B5064E87
:10A6B0000546002456F8043B0BB128469847013460
:10A6C000042CF7D170BD00BF30250020033080B2CC
:10A6D00040F2FD33984230B51FD8124B1A783AB980
:10A6E0001C895D892C440444A4B2B4F5806F0AD35C
:10A6F0001A7DA2B99A8BDC8B2244024492B2B2F545
:10A70000806F0CD201220A801446142202FB04330B
:10A710005A8910445881002030BD0920FCE70720E9
:10A72000FAE700BF642500200B4A0C4B5188142027
:10A7300000FB0131CB6833B9042049681070012255
:10A74000074801F0EFB807490523137002238B80F7
:10A75000012209680023F3E7482500206425002032
:10A76000481D0020A025002007B5002305490093BF
:10A77000054A09680548082301F03EF803B05DF872
:10A7800004FB00BFA025002034190200481D002052
:10A7900007B5002301460093034A0448082301F04B
:10A7A0002BF803B05DF804FB2C190200481D0020B3
:10A7B00013B500230C4600930146084A08480423B9
:10A7C00001F01AF838B90749142303FB04140123D4
:10A7D000237402B010BD0E20FBE700BF2819020051
:10A7E000481D00206425002037B50A480A4B4268FE
:10A7F0009C88196853880325033305709BB2002099
:10A8000000909B0001EB8401044800F0F5FF03B0C9
:10A8100030BD00BF48250020A0250020481D002095
:10A8200010B50146044800F088FC1C2204460021B3
:10A8300006F077FE204610BD8C25002043880333A8
:10A8400000EB8303994209D382884FF6FF739A4243
:10A8500006D00088B0FA80F04009704702207047A7
:10A860000120704738B5144B14220D4602FB00300E
:10A870002B68446804F58051A3B15C88033403EB72
:10A8800084048C4215D22368013312D02046FFF78E
:10A89000D5FF012808D002280BD00028F1D12C6068
:10A8A000012038BD0834ECE76388033304EB8304EC
:10A8B000E7E70020F5E700BF64250020426873B594
:10A8C00004460D4662B3234BD9688A4228D31B69DC
:10A8D0009A4225D812F0030322D11F490089098921
:10A8E00088421DD120689168884219D11B49486867
:10A8F000824203D900F5805082420DD389698A4291
:10A900000CD901F580518A4208D201222A80B3FA7B
:10A9100083F0400902B070BD1A46F7E70A23F6E754
:10A9200000232B801E460196288801A9FFF79AFF75
:10A9300030B92B8801339BB2012B2B80F3D9E9E787
:10A94000019B226899689142EED16360024B1B899A
:10A950002381DFE7481D00204825002064250020D2
:10A960002DE9F8431C461C4B1B7806460F4615463E
:10A970006BB372B36CB3DFF868804FF01409A3882F
:10A98000012B01D90A2020E009FB03F318F803305A
:10A990002BB9A0882146FFF765FF20B92060A38866
:10A9A0000133A380EBE723681EB199883288914276
:10A9B000EFD11FB119883A889142EAD19A68C5E966
:10A9C0000023064B1B892B810020BDE8F883022061
:10A9D000FBE70520F9E700BF4025002048250020BF
:10A9E0006425002008B5074B5888191DFFF73AFF6A
:10A9F00018B1BDE80840FFF7F7BEBDE80840FFF713
:10AA000093BE00BF482500202DE9F04FA14FDFF88D
:10AA1000A89289B00646B8463B6823B99E48494685
:10AA200000F0C5FB3860D8F8005029784B1E052B84
:10AA300007D8DFE813F02100790079000901090146
:10AA400060010F241422002103A806F06AFD41F6DC
:10AA50001D539C4208BF0024D8F8003004941A7893
:10AA6000013A052A00F2F181DFE812F0DD01E1018F
:10AA7000010211021D02270226B1884B00225A60F2
:10AA80000124DFE72B79032B1DD8DFE803F0150243
:10AA90002A3583490B78022B084619D00B7D022BEF
:10AAA0004FF0010316D114225343C2180020C8549A
:10AAB0005068FFF76DFE03E001232B71FFF754FE92
:10AAC000002800F0BC80754B00225A600E24B9E7C4
:10AAD0000023E8E7714A13700023536041F61D54C8
:10AAE000B0E770497048002302222B718A80096800
:10AAF000012200F017FFE3E76A4C00262E71206860
:10AB0000674DFFF745FE694BD4F800C05A881423FF
:10AB10005343EA18EE5451682160A188C2F804C07A
:10AB200011810222A280CBE7B5F814A0AA7DDFF83C
:10AB300070B1AEB1022AEB8806D9142101FB0AB12B
:10AB4000DA1C088902440A81142202FB0ABAC3F5FE
:10AB50007F43BAF80A20FD331344AAF80A308FE77E
:10AB6000142303FB0AB318895C6804EB8004062AEB
:10AB700068D8DFE802F0274D35431D59040041F63F
:10AB80001D54AA7DEB88022A06D9142101FB0AB1C3
:10AB9000DA1C088902440A81142202FB0ABAC3F5AE
:10ABA0007F43BAF80A20FD331344AAF80A3049E774
:10ABB0003F48404900234360AB690360FFF77EFED6
:10ABC000002859D00223AB75002300930423EA1810
:10ABD0002146354800F010FE002830D00E24D0E782
:10ABE0002B69002B14BF03230123AB7500230093B3
:10ABF00005F10C02042304F10801EAE70123AB7517
:10AC00000022EB8800922A699B0004F10C01E0E726
:10AC100003290CBF05230623AB75002300930423EF
:10AC200005F10802E118D4E70623AB75214B19881A
:10AC30001F4B5868FFF7BCFD04460028A1D109B09E
:10AC4000BDE8F08F0F249CE7002E7FF419AF2B791D
:10AC5000012B33D0022B3FF441AF002B7FF4F1AE38
:10AC600002232B710DF10A01EB68039303A8CDE9D0
:10AC70000466FFF723FE08B90A24E3E60498BDF84A
:10AC80000A108388EB8003882B81FFF791FD04462F
:10AC900027E000BF602500208C25002040250020F3
:10ACA00064250020A0250020481D00204825002004
:10ACB00024250020A825002058250020DFF814A214
:10ACC00003AA53463146A81DFFF74AFE044660B961
:10ACD000BAF804100498FFF76BFD04460A2C3FF401
:10ACE000FDAE002C7FF4AEAEA9E7082231465046F7
:10ACF00006F017FCF2E7002E7FF4C2AE704B1A7B11
:10AD0000B2B11E731A78013A062A3FF69AAE01A133
:10AD100051F822F0BBAD0100E1AD0100FFAD010033
:10AD200005AE010043AA01000BAE01001DAE0100FB
:10AD30001A78072AE6D801A151F822F05DAD01008A
:10AD400005AD010005AD010083AD010097AD010027
:10AD5000B7AD0100B7AD01007FAD01001A895949B7
:10AD600001321A8100225A801A730A78B2FA82F2EA
:10AD700052099A720A7DB2FA82F25209DA720122FB
:10AD800007E0514958688A884088033202448A8023
:10AD900002221A70B6E74B4C5A884B49142505FB22
:10ADA00002420868546850608888108102228A80B4
:10ADB0000C600622EDE70722EBE79A7A32B9DA7ADD
:10ADC0008AB900221A705A805A6087E63D490022EB
:10ADD0009A72CA68002AF2D1097C0029EFD05A8001
:10ADE000FFF700FE53E70022DA72364A116A0029A3
:10ADF000E7D192F82420002AE3D00122EFE7FFF701
:10AE0000F3FC44E7FFF790FC41E72E4A5B881421EE
:10AE100001FB03235868FFF7BBFC38E700225A60A8
:10AE2000FFF7A2FC33E700238DF80C300DE0012280
:10AE30008DF80C201A89ADF818209A88DB680593E4
:10AE4000ADF81A2000238DF81C3003A8FFF72EFC64
:10AE5000002649461D48C8F8006000F0D3F91C4898
:10AE6000012100F089FA00287FF4D6ADE7E602223E
:10AE70008DF80C201A89ADF818209A88ADF81A20A0
:10AE8000DA689B7D05929A1F53425341DBE7032208
:10AE90008DF80C20DA88ADF818201A89DB68ADF837
:10AEA0001A200593D1E704228DF80C20DB88ADF839
:10AEB00018300023ADF81A30F3E70523B4E700BFDC
:10AEC0004825002064250020A02500208C25002096
:10AED0009C250020AC2500204068FFF795BD0000B0
:10AEE00008B50548012100F02FFA18B9BDE808405F
:10AEF000FFF78ABD08BD00BF9C2500202DE9F34166
:10AF00009846354B1B7806460D46002B5BD0002932
:10AF10005BD009884FF6FF73994258D06B88002B9D
:10AF200055D06B689B0754D14AB92F890DF10201A6
:10AF30003846FFF7CBFB30B102B0BDE8F081138893
:10AF40005788ADF8023001A8FFF76AFC044658B9EB
:10AF5000BDF80230214A142101FB0323588903382C
:10AF6000C01B58810820E7E780F800800023837524
:10AF7000BDF8023083826B6803610121184800F03C
:10AF8000EFF92B882381B8F1030F6B88A38004BFEE
:10AF90000423A3754FF0000508BF3368E06008BFC5
:10AFA000A3611048E780658101A900F0F0F836B18F
:10AFB000E36833600C4B75601B89B5723381FFF712
:10AFC0008FFF0020B8E70220B6E70520B4E7042091
:10AFD000B2E70320B0E700BF402500206425002031
:10AFE0005C2500208C2500204825002073B50D46E7
:10AFF0000446C8B1C1B10DF10601FFF75FFCA8B16D
:10B000000B4BBDF806006668142202FB00300121DC
:10B010000C3000F0A5F963682E600C336B600123DF
:10B02000A372002002B070BD0520FBE70A20F9E7FB
:10B030006425002013B50446A8B10DF10601FFF701
:10B040003DFC90B10B4ABDF80630142101FB0323EF
:10B05000DA6862B1A27A52B1DA680020013ADA60A5
:10B06000A07202B010BD0520FBE70A20F9E7062018
:10B07000F7E700BF6425002002230022FFF73EBF50
:10B0800018B103230022FFF739BF052070470000E5
:10B09000104B1B7813B50446ABB14FF6FF739842C3
:10B0A00013D001A8FFF7BCFB88B10523037001236F
:10B0B0000371C48001A9084800F069F8FFF710FF88
:10B0C000002002B010BD0220FBE70420F9E70820B1
:10B0D000F7E700BF402500208C25002007B5ADF81C
:10B0E0000600ADF804100DF1060001A9FFF738FCC9
:10B0F00003B05DF804FB07B51346ADF806000A4639
:10B1000000200DF10601FFF72BFC03B05DF804FBF6
:10B1100007B51346ADF806000A460DF106000021FA
:10B12000FFF71EFC03B05DF804FB20B119B1036802
:10B130000B60002070470520704737B550E8013F8D
:10B140009DB2C48925448489A54228BF2D1B04894A
:10B15000A54202BFBFF32F8F002207E0C5EA030517
:10B1600040E80154002CE9D14FF001028DF8032092
:10B170000193019B9DF803200B6002F0FF0322B1B5
:10B180000B880068184403B030BD1846FBE70A88F6
:10B190004B889A4209D150E8012FC2EA024240E8A6
:10B1A0000123002BF7D1012070470020704737B5ED
:10B1B00050E8023F1FFAA3F5C488A54202BFBFF3BF
:10B1C0002F8F00220DE0C48925448489A54228BF21
:10B1D0002D1BC3EA054540E80254002CE8D14FF08E
:10B1E00001028DF803200193019B9DF803200B6061
:10B1F00002F0FF0322B14B880068184403B030BD51
:10B200001846FBE70A884B889A4209D150E8022F7A
:10B21000C2EA224240E80223002BF7D10120704706
:10B220000020704701F01F024B090121914000EB03
:10B23000830000F065B84B0910B501F01F0401212F
:10B24000A14000EB830000F04FF8E04000F0010067
:10B2500010BD01F01F0301229A404B0900EB83004F
:10B26000D14300F065B84B0901F01F0150F82300ED
:10B27000C84000F0010070472DE9F0474F1E7F09DC
:10B2800080460E460137002558F8254008EB850911
:10B29000E44394FAA4F4B4FA84F44FEA451A202C57
:10B2A00006D10135AF42EFD834462046BDE8F087DD
:10B2B0005444A642F5D921464046FFF7BCFF00287A
:10B2C000F3D0D9F80040E44394FAA4F4B4FA84F437
:10B2D000E5E710B5034653E8000F0A4643E80024AB
:10B2E00094F0000FF7D110BD10B5034653E8000FDE
:10B2F00040EA010243E8002494F0000FF6D110BDAB
:10B3000010B5034653E8002F42EA010043E8000469
:10B3100094F0000FF6D110BD10B5034653E8000FAE
:10B3200000EA010243E8002494F0000FF6D110BDBA
:10B3300010B5034653E8002F02EA010043E8000479
:10B3400094F0000FF6D110BD10B5034653E8000F7E
:10B3500000EB010243E8002494F0000FF6D110BD89
:10B3600010B5034653E8002F02EB010043E8000448
:10B3700094F0000FF6D110BD10B5034653E8002F2E
:10B38000A2EB010043E8000494F0000FF6D110BDD9
:10B390000121FFF7B5BF0021FFF7BEBF10B590B187
:10B3A000D0E9012301689B1ADBB20A60013BDBB2E2
:10B3B000FF2B026802D10020107110BD11684C1CD7
:10B3C00014600B70F2E70E20F7E737B5054600244E
:10B3D0000DF107008DF80740FFF72EF92A686B681A
:10B3E000116899420ED9481E106011F8014CEB68A3
:10B3F000298A01FB0434AB6811791B1ADBB299422C
:10B4000038BF13719DF80700FFF73AF9204603B0E3
:10B4100030BD37B5054600230DF107000C468DF809
:10B420000730FFF709F92A681368591C1160E968A9
:10B43000641A298AB4FBF1F41C709DF80700FFF729
:10B440001FF903B030BD826810B504462AB14369C4
:10B450000168006998470023A36010BD0EB403B5CE
:10B46000039921B104AB01AA019300F077F802B06F
:10B470005DF804EB03B070470A2938B504460D4661
:10B4800002D10D21FFF7F8FFA3682268591CA160C3
:10B49000D554D4E901329A4204D32046BDE838405D
:10B4A000FFF7D1BF38BD00002DE9F84F9846DDE920
:10B4B0000A43154682460F460A464FF00109AA4242
:10B4C0000FD2C14538BFC14613F0010B01D16CB991
:10B4D00000240126B8F1010F1BD908F1FF386E4393
:10B4E000F8E709F10109B2FBF5F2E8E79B070ED591
:10B4F000B8F1000F0CBF30262026A145E9D2013C4F
:10B5000031465046FFF7B8FF002CF6D1E0E7202681
:10B51000F3E7B7FBF6F39D42E1D9DFF83C80B7FBD8
:10B52000F6F3504618F8031006FB1377FFF7A4FF55
:10B530003346AB42B6FBF5F6F1D2BBF1000F02D0B9
:10B540000CB1A14501D3BDE8F88F20215046013C44
:10B55000FFF792FFF4E700BF3C1902002DE9F74F17
:10B56000054617468846002900F0428118F8011B5D
:10B5700049B92B7B002B00F03B81284603B0BDE886
:10B58000F04FFFF760BF252940F0B780002698F8FC
:10B5900000302D2B424608F1010823D0302B24D057
:10B5A0002B2B25D000242A2B02F1010123D13B684B
:10B5B0001A1D1B683A601C440A4613782E2B26D1AC
:10B5C00001324FF0000A104610F8011BA1F1300CB7
:10B5D000BCF1090F1DD80A2303FB0A13A3F1300A9B
:10B5E0000246F0E746F00106D1E746F00206CEE754
:10B5F00046F00406CBE711F8013CA3F1300009281E
:10B60000DBD80A2202FB0434303C0A46CBE74FF079
:10B61000000A12F8011B01F0FB0068289046F8D0E0
:10B62000782909D86F290CD8632962D022D8252916
:10B6300063D0582900F0888098F80030002B95D10D
:10B6400097E770390829F7D801A353F821F000BF14
:10B65000CBB7010039B6010039B6010059B7010076
:10B6600039B6010037B7010039B6010039B601001B
:10B6700049B70100642901D06929DDD13A68D2F8BF
:10B680000090111D89EAE9723960A2EBE9724FF06E
:10B69000010B092A35DCD34538BFD3462CB1B9F1AB
:10B6A000000F01DB720700D5013CB30702D5BAF1E8
:10B6B000000F03D0F00701D44CBB0024B9F1000FF8
:10B6C0002DDAC9F100092D212846FFF7D5FE06F035
:10B6D0000302022A04D1BAF1000F01D11CBB0024DD
:10B6E000CDE9004653460A2249462846FFF7DCFECC
:10B6F000A2E73B681A1D19783A602846FFF7BCFE9E
:10B700009AE70A230BF1010BB2FBF3F2C1E7A34561
:10B71000D4D220212846013CFFF7AEFECCE77107CA
:10B72000D5D52B21D0E7A345DAD230212846013CDC
:10B73000FFF7A2FED2E73968CDE900460A1D3A605C
:10B7400053460A220968D0E739680A1D3A60CDE9F4
:10B75000004653461022F5E73B681A1D3A6016F082
:10B760000106D3F8009028D1B9F1000F03D0484664
:10B7700005F02CFF0646B44200D904BB09F1FF399D
:10B7800019F8011F00293FF457AF2846FFF774FE50
:10B79000F6E728460136FFF76FFE19F80610002974
:10B7A000F7D1A642BFF448AF002C3FF445AF2021AB
:10B7B0002846013CFFF760FEF3E70026EDE7202175
:10B7C0002846013CFFF758FED5E73B681A1D3A6052
:10B7D000302128461C68FFF74FFE78212846FFF7E6
:10B7E0004BFE00220823CDE90032214610227CE7DF
:10B7F00003B0BDE8F08F00BF2DE9F34188B93D4BA0
:10B800003D483E4AC01AC0080E243D4B0094000437
:10B810003C4940F00100FEF792F9204602B0BDE835
:10B82000F0814AB9334B3448374AC01AC0080E2455
:10B83000334B00940004EBE7D0F800E0BEF1000FBA
:10B8400009D12C4B2C48314AC01AC00808242C4B73
:10B8500000940004DCE74BB9264B27482C4AC01A59
:10B86000C0080924264B00940004D1E74768D7F8A4
:10B870000480B3FBF8F708FB17374FB11D4B1E4888
:10B88000244AC01AC00809241D4B00940004BFE7D5
:10B890008F0709D0174B18481F4AC01AC008102438
:10B8A000174B00940004B3E712F0030F09D0114BBB
:10B8B00011481A4AC01AC0081024114B0094000401
:10B8C000A6E7C768B9420BD305694C1E1C44AC42BD
:10B8D00006D8DEF80C40A44602B0BDE8F04160474F
:10B8E000044B05480E4AC01AC0081024044B0094AB
:10B8F00000048DE7C0160200001702004C19020078
:10B90000E21A020051190200CE1902007A1902004F
:10B910008D190200D4190200FE190200161A020045
:10B92000391A0200F7B580B92A4B2B482B4AC01AA6
:10B93000C0080E242A4B009400042A4940F001005C
:10B94000FEF7FDF8204603B0F0BDD0F800C0BCF112
:10B95000000F09D11F4B2048234AC01AC0080824F1
:10B960001F4B00940004E8E74AB91A4B1A481F4AD3
:10B97000C01AC00809241A4B00940004DDE7476888
:10B98000D7F800E00EF1FF370F4209D0114B1248F3
:10B99000174AC01AC0081024114B00940004CCE7C9
:10B9A000C768B9420CD304694D1E0EFB0255A5426F
:10B9B00006D8DCF81040A44603B0BDE8F04060476C
:10B9C000044B05480B4AC01AC0081024044B0094CD
:10B9D0000004B2E7C0160200001702004C19020072
:10B9E000F51A0200511902007A1902008D1902009D
:10B9F000601A0200861A020029DF704728DF7047AC
:10BA000070B503689E6886B004460D466EB1142278
:10BA10000021684605F085FDA3680593237901950B
:10BA20002BB1012B0DD06846B04706B070BD012385
:10BA30008DF8003023690293E368039363690493EC
:10BA4000F1E702238DF80030E3681B030293F5E76A
:10BA5000034B187A0122B0FA80F05A7440097047FB
:10BA6000C425002070B5244C244E237A25463BB9CA
:10BA700023492448FFF79BFB306008B9606070BD24
:10BA8000022334682B72237973B1012B25D0204611
:10BA90000321FFF7B5FF00232B726B60184919488B
:10BAA000BDE87040FFF7AEBBD4E90523D21AB2F56A
:10BAB000805FD4E9031028BF4FF480529208012A16
:10BAC00038BF012219441844FFF796FF014650B1D0
:10BAD0001128DCD101232B72D1E7D4E903031844E8
:10BAE000FFF78CFFF2E72B7C002BC8D1BDE870403C
:10BAF000022000F009B800BFC4250020DC2500208A
:10BB0000D8250020B425002038B5831E012B45D848
:10BB1000234C237A002B41D0022B09D1032830D0AB
:10BB2000204B00221B68E2601A793AB1012A22D028
:10BB3000637C7BBBBDE83840FFF794BFD3E90512B7
:10BB40008D1AB5F5805F94BF521902F580529A6143
:10BB50009142EDD102284FF0000308BF194623722D
:10BB6000104B18BF0D211868FFF74AFF0E490F4808
:10BB7000FFF748FBDCE71A6901321A615B699A42F8
:10BB8000E7E7E3680133082B01D8E360D0E700233F
:10BB9000E360DFE7BDE8384005F02EBA38BD00BFEE
:10BBA000C4250020DC250020D8250020B425002055
:10BBB00000F0FD03012B08D1044B00225A74421EF1
:10BBC000504250411874FFF74DBF7047C425002004
:10BBD0002DE9F84FB0F806A04579D2F800B09DF8ED
:10BBE00028900AFB05F5043D88460BEB0301A942AA
:10BBF00003F1040488BFA5EB030BB4FBFAF6074678
:10BC00000AFB1644C2F800B04EB9AAEB04055D4524
:10BC100028BF5D46BBF1000F04D1BDE8F88F3F6837
:10BC2000013EF1E7043408EB06003C442A46B9F132
:10BC3000000F0DD02146ABEB050B05F049FCDA45B2
:10BC40002E443F6855464FF0000428BF5D46E1E7AB
:10BC500001462046EFE7FFF7A1BBF8B5467901465C
:10BC6000721E0546002393422D6803D30024A6428A
:10BC700002D8F8BD0133F6E70F682846FFF7C9FB85
:10BC800001343946F3E72DE9F843068ACD1C07460F
:10BC9000FFF79BFB043E35440446B5FBF6F5F0B1D7
:10BCA0004FF48073EDB28380C680013D076081460A
:10BCB0004FF00008A84512D23846FFF786FB06462B
:10BCC00048B163790133637108F10108C9F80000D4
:10BCD00007608146EEE72046FFF7BFFF3446204667
:10BCE000BDE8F88301210430FFF73ABB10B501210C
:10BCF00004460430FFF740FB10F0FF0F04D120464C
:10BD0000BDE81040FFF7A9BF10BD1FB50392002288
:10BD1000009203AAFFF75CFF05B05DF804FB1FB5B6
:10BD200003920122009203AAFFF752FF05B05DF8CB
:10BD300004FB41DF70470000064B10B500241C7067
:10BD4000054B1C60BFF35F8F0449054800F01FF8E6
:10BD5000204610BDE8250020EC250020141B020021
:10BD6000E025002008B505F057F918B1BDE80840F6
:10BD7000FFF7DFBF20BF40BF20BF08BD83680022A0
:10BD80005A60C3E904229A60DA601A6070470B684F
:10BD90004A684360934208BF0023016008BF4360C4
:10BDA0007047436843B10268916852680B449342FC
:10BDB000436004BF002343607047000010B50D4985
:10BDC000A1F59472914201D800200FE08C1AE30F84
:10BDD00003EBE4035B1002EBC30452F833308342FD
:10BDE00005D802D204F10802ECE7606810BD2146D4
:10BDF000E8E700BF1820020008B5FFF7DFFF024B9D
:10BE0000002808BF184608BDDA1E02005C4B5D4AD8
:10BE10001B68C3F3423313604FF080430022C3F822
:10BE20000C21C3F81021C3F838254FF0805203F5D8
:10BE30004043D2F80414C3F82015D2F80814C3F80C
:10BE40002415D2F80C14C3F82815D2F81014C3F82E
:10BE50002C15D2F81414C3F83015D2F81814C3F8FE
:10BE60003415D2F81C14C3F84015D2F82014C3F8C6
:10BE70004415D2F82414C3F84815D2F82814C3F88E
:10BE80004C15D2F82C14C3F85015D2F83014C3F85E
:10BE90005415D2F83414C3F86015D2F83814C3F826
:10BEA0006415D2F83C14C3F86815D2F84014C3F8EE
:10BEB0006C15D2F84424C3F87025334B1B68082B4B
:10BEC00010D1324B1B686BB9314B3249FB22C3F89E
:10BED0001825314B0A681B6822F00F0203F00F038C
:10BEE00013430B602C4B2B4A1B6803F04F0313606A
:10BEF0004FF08043D3F80024D20744BF6FF0010213
:10BF0000C3F800244FF01023D3F80022002A03DBEB
:10BF1000D3F80432002B2FDA204B0122C3F804257A
:10BF2000D3F80024002AFBD04FF010221221C2F8CF
:10BF30000012D3F80024002AFBD04FF01023122265
:10BF4000C3F80422154B1A46D3F800140029FBD07D
:10BF50000021C3F80415D2F80034002BFBD0BFF346
:10BF60004F8F0F490F4BCA6802F4E0621343CB6056
:10BF7000BFF34F8F00BFFDE70B4B0C4A1A607047B1
:10BF8000440200103C050040300100103401001054
:10BF900000F00040E40E00405802001000E00140B4
:10BFA00000ED00E00400FA05801D00200090D003A1
:10BFB000054A4FF0A043105CD3F8043523FA00F093
:10BFC000C04300F0010070471C200200044B1A5CC3
:10BFD000012393404FF0A042C2F80C35704700BFD8
:10BFE0001C200200044B1A5C012393404FF0A04236
:10BFF000C2F80835704700BF1C20020008B50020B9
:10C00000FFF7F0FF0120FFF7EDFF0220FFF7EAFF47
:10C01000BDE808400320FFF7E5BF08B50020FFF7A3
:10C02000D5FF0120FFF7D2FF0220FFF7CFFFBDE8C9
:10C0300008400320FFF7CABF074A4FF0A041105C39
:10C04000D1F804350122824022EA03001340C1F8EE
:10C050000805C1F80C3570471C200200054A4FF056
:10C06000A043105CD3F8103523FA00F0C04300F071
:10C0700001007047182002000B2809D00C2809D0B5
:10C08000182809D019280CBF03204FF0FF30704743
:10C09000002070470120704702207047014B185C58
:10C0A000704700BF18200200C20708B501460CD532
:10C0B0004FF0A0430322C3F83427C3F83827C3F84E
:10C0C0003C27C3F84027FFF799FF8B070AD54FF0AD
:10C0D000A0430C22C3F82C27C3F83027C3F86027ED
:10C0E000C3F8642708BD000038B5074C051E04F1ED
:10C0F000080318BF1C4623682BB11A6822605B68CE
:10C1000028469847F7E738BDF825002020B9054BA9
:10C1100001225A70FFF7E8BF012802D1014A90704E
:10C12000F8E77047F025002020B9034B01225A7030
:10C13000FFF7DABF704700BFF025002038B50B4C81
:10C14000237883B90A486360A3602361E36000F049
:10C15000C9F8054604F060FF08B900F0CFF80123E4
:10C160002370284638BD8525FBE700BFF025002059
:10C170000DC1010037B50B4C00230DF107008DF800
:10C180000730FEF759FAE368013BE360E56815B94B
:10C1900000F0C6F8A5709DF80700FEF771FA03B02D
:10C1A00030BD00BFF0250020012813B508D00328BA
:10C1B0001CD018B9104B0122C3F8802002B010BD6A
:10C1C0000E4C00230DF107008DF80730FEF734FA0E
:10C1D00023780BB9FFF7B2FFE3689DF8070001333E
:10C1E000E3600123A370FEF74BFAE7E700F086F85F
:10C1F000FFF7C0FFE2E700BF00E100E0F02500200C
:10C200001FB503788DF800304368019383688DF87B
:10C210000830C368054A0393054B684653F821303C
:10C2200052F82110984705B05DF804FB0426002061
:10C23000082600201FB503788DF80030436801936D
:10C2400083688DF80830C368054A0393054B684638
:10C2500053F8213052F82110984705B05DF804FBDF
:10C260000426002008260020F0B5194B90F800C0E5
:10C2700091F81DE043F82C20164B16460A6943F846
:10C280002C20154B03F80CE00C4607460FCC89B068
:10C290006D460FC594E80F0085E80F00CDF810C07B
:10C2A000BEF1000F09D0002E0C4A694608BF324685
:10C2B000381D00F05BFD09B0F0BD002E084A69464C
:10C2C00008BF324607F10C0000F062FBF3E700BF45
:10C2D00008260020042600200C26002001C20100B0
:10C2E00035C20100044B0246187918B91A600122C0
:10C2F0001A7170478520704710260020074B1A6876
:10C30000D2075FBFC02283F8002301221A604FF0DA
:10C3100080430122C3F81825704700BF00E100E008
:10C32000044B01221A604FF08042D2F81834DB032C
:10C33000FBD470470C000040134B07B51A6862B17C
:10C34000002018601B680093009B4FF0804301227F
:10C35000C3F808230D4B1B6898470D4B1A6882B130
:10C3600000221A601B680193019B4FF08043022258
:10C37000C3F80823054B1B68012003B05DF804EBEC
:10C38000184703B05DF804FB0001004010260020B0
:10C390000401004000F1804000F5C040002382B05D
:10C3A000036003680193019B02B07047800000F1B5
:10C3B000A040D0F8002722F44032C0F80027D0F87F
:10C3C000003743EA0143C0F800377047054B4FF090
:10C3D000FF32072843F8202084BFC01880F8482087
:10C3E000704700BF1826002010B5174C94F858303D
:10C3F00043BB04F130032021FF22013911F0FF017A
:10C4000003F8012BF9D1C8B2FFF7E0FF01310C2985
:10C41000F9D1042200210D4805F083F80C4BC0220D
:10C4200083F8062340221A604FF4BE70FFF7B2FF74
:10C43000084B4FF00042C3F80423012384F858301E
:10C44000002010BD0820FCE7182600206C260020E4
:10C4500000E100E000600040034B93F85800003812
:10C4600018BF0120704700BF18260020F0B5374ED6
:10C470000546301890F93000002864DA8878C0F357
:10C48000400000280BBF082300230C240824A342EB
:10C4900001D10420F0BD56F8237001373FD1741943
:10C4A00046F8232084F8303010B9F21882F848504A
:10C4B0008A78500713D4D40733D5AA0002F1A042DA
:10C4C000D2F8000720F00200C2F800072048EA086E
:10C4D00005F007070124BC40875C3C4384548A78FC
:10C4E0000C7812F0020025D09B0003F1804303F585
:10C4F000C0432A02D3F8101521F4473121F44071CA
:10C50000C3F810152404D3F8101502F4F85204F4FB
:10C51000403422430A43C3F810250020BAE7013310
:10C52000B5E7487805F5E0724FF0A044800044F884
:10C530002200CBE7083B334493F8502042EA8414AE
:10C5400083F85040A6E70820A4E700BF1826002083
:10C550006C26002038B51F4C251895F93020072A85
:10C5600016DD224492F848309B09032B0BD14FF083
:10C57000A043D3F81015C14001F001010231BDE81C
:10C580003840FFF713BF012B0CBF02210321F6E750
:10C59000D3B2072B1CD8930003F1804303F5C043AB
:10C5A000D3F8100540F00100C3F8100502F1400077
:10C5B000800080B2FFF7EEFE51B195F9303054F8AB
:10C5C00023302BB1012303FA02F2034BC3F80423F7
:10C5D00038BD00BF18260020006000404FF0A04387
:10C5E000D3F8103523FA00F000F001007047000086
:10C5F0002DE9F04F87B000245A4D03944FF4807218
:10C60000012102F1804303F5C04390B21B68012B66
:10C6100006D1D5F804330B4202D0FFF7BBFE0C4322
:10C620000432B2F5907F4FEA4101EAD14E4B1B68CC
:10C63000012B0AD14FF4BE70FFF7ACFE4FF0A043C0
:10C6400044F00044D3F81035039314F0FF0F1AD0D0
:10C65000464F00250126344210D0AB0003F1804341
:10C6600003F5C043D3F81005D3F8101557F825305B
:10C6700023B1C1F30141C0F3042098470135082DCF
:10C680004FEA4606E7D1002C65DA00214FF0FF3370
:10C69000CDE90413354D01274FF0000A344ED14641
:10C6A0004FF0A04816F9013B5A1C45D0C3F3C20114
:10C6B00006AA5018DCB210F8042C03F03F0B03F06C
:10C6C000070307FA03F31A4236D005EB0B02A4095D
:10C6D00092F9302055F8222052B9032C2CD10DF1BB
:10C6E000100E1EF801C04CEA030C0EF801C001E068
:10C6F000032CF4D00BF5E07110F80C0C58F8211055
:10C700001842C1F3014105D0022915D1032C0FD1E4
:10C71000214604E003290FD1032C09D102215846F8
:10C72000019209F10109FFF741FE019A5FFA89F9C7
:10C7300012B12146584690470AF1010ABAF1040F96
:10C74000B0D1B9F1000F06D04FF0A043039AD3F84F
:10C750001035934202D107B0BDE8F08F0393049BDC
:10C76000059399E7006000407C6100401826002096
:10C7700068260020014B1B68184700BF7426002064
:10C780000E4B984237B50C4602D0002003B030BDA6
:10C7900000230DF107008DF80730FDF74DFF084B22
:10C7A0001D7915B901221C601A719DF80700FDF76B
:10C7B00067FF002DE9D01120E8E700BF002000400E
:10C7C00074260020034B984201BF034B00221A60DD
:10C7D0001A71704700200040742600200023435047
:10C7E00082B043580193019B02B070470A4610B5CE
:10C7F0004FF48E71FFF7F2FF136A9168C95C136AF8
:10C8000001331362C0F81C1510BD8B690A4610B5C0
:10C810004FF4847123B9FFF7E1FFD0F8183510BD4C
:10C82000FFF7DCFF536AD168D0F81805C854536A83
:10C8300001335362F3E700001FB501238DF8003088
:10C84000044BCDE90110D3E900126846904705B0CA
:10C850005DF804FB7C26002030B54B48D0F804334B
:10C8600013F4007F85B005464DD0D0F82431002B5D
:10C8700049D04FF49271FFF7B1FF4FF40173C0F844
:10C880000833424B93F829200AB9012242603E49FD
:10C8900002228DF80020D1F88024C1F88024039270
:10C8A0009A690292DA6801920022C3E90622684678
:10C8B000D3E9001290473448D0F81C315BB13349BA
:10C8C0000A6A4B699A420A464AD291F82830002BEC
:10C8D00046D1FFF78BFF2C48D0F844318BB14FF491
:10C8E000A271FFF77BFF294B93F829200AB101229F
:10C8F00002609A692AB10022586AD9689A61FFF7E2
:10C900009BFF05B030BDD5F804335B07D3D5D5F810
:10C910000831002BCFD01D4C1B482146FFF775FF77
:10C92000636AA2699A422346C5D1E269E1684AB1C5
:10C930002369E3600023606AA261E3616362FFF739
:10C940007BFFB8E794F829200AB901226A600E4AF1
:10C950004FF40170C2F808030022586A9A61EEE7AA
:10C960004FF48E710848FFF739FF51690029B2D0A2
:10C970000023029191688DF800300191536168465F
:10C98000D2E900139847A6E7002000407C2600204B
:10C990002DE9F843574B057991462C2202FB0532CD
:10C9A000064692F82A200C469846002A40F09D80C0
:10C9B00051490068FFF7E4FE0746002840F09780E1
:10C9C00021683368481C0BD04FF0A04001228A40F8
:10C9D000C0F8082501F5E0724FF0030C40F822C0C2
:10C9E0006068421C1FBF00F5E0724FF0A04C4FF092
:10C9F000000E4CF822E0A269C3F8242594F814C074
:10CA0000627DBCF1010F4CEA0202C3F86C25C3F849
:10CA10001405C3F80C151DD1A1684A1C1FBF01F5F0
:10CA2000E0724FF0A0404FF0000C40F822C0E268E6
:10CA3000501C0BD04FF0A04C01209040CCF80805C2
:10CA400002F5E0704FF0030E4CF820E0C3F8082523
:10CA5000C3F810152C236B4308EB0302C2F80490B3
:10CA6000226948F80320B9F1000F2BD03068247FE9
:10CA70004FF48E71FFF7B2FE30684FF4A271FFF7EA
:10CA8000ADFE32681D4BC2F80433110B42F307327E
:10CA9000002AA8BF02F160404FEA4413BABF184809
:10CAA00001F00F0400F56140DBB2B4BF035580F81C
:10CAB000003301F01F01012303FA01F15209114B68
:10CAC00043F8221033680422C3F800252C2303FB0B
:10CAD00005830022C3E9062283F829205A61012236
:10CAE00083F82A203846BDE8F8830827FAE711279B
:10CAF000F8E700BF7C26002059C801008000020032
:10CB000014ED00E000E100E0F8B5047900682C4D78
:10CB10000023C0F800352C2303FB04535B686BB182
:10CB2000284BC0F8083340F30733C0F304315B09E6
:10CB300001228A402033244941F82320D0F80C6593
:10CB4000D0F81415D0F80835D0F810254FF0FF377D
:10CB5000BE42C0F8147518BF06F5E076C0F80C7533
:10CB6000C0F80875C0F810751EBF4FF0A0474FF011
:10CB7000020C47F826C04E1C1FBF4FF0A04601F51F
:10CB8000E071022746F82170511C1FBF4FF0A041F1
:10CB900002F5E072022641F822605A1C1FBF03F51D
:10CBA000E0734FF0A042022142F82310FFF70AFE83
:10CBB0002C2303FB0454002384F82A306360F8BD5F
:10CBC0007C2600208402020000E100E02DE9F84309
:10CBD000204B07794FF02C0909FB0734054666699D
:10CBE0009846002E33D100686261A16026624FF43E
:10CBF0008E7184F82860FFF7F1FD286801238360B7
:10CC00002146FFF7F3FD6368A14683B92868226ACD
:10CC100063699A4211D32B68D3F81C21002AFBD0F8
:10CC20000122DA602C2303FB078300225A6130467D
:10CC3000BDE8F88394F828303BB9D0F81C31002BBC
:10CC4000F8D04946FFF7D2FDE1E70F26EAE71126C3
:10CC5000EDE700BF7C2600200023435082B04358FC
:10CC60000193019B02B070471FB501238DF800307E
:10CC7000044BCDE90110D3E900126846904705B096
:10CC80005DF804FBA82600207FB5364AD2F824615F
:10CC9000002E46D010464FF49271FFF7DDFF0223BD
:10CCA0008DF80030D2F88034C2F880340393D2F883
:10CCB0003C3502932C4BDA6801920022C3E906222C
:10CCC0006846D3E9001290472648D0F8443173B142
:10CCD0004FF4A271FFF7C0FF234B9A693AB10022CB
:10CCE000C3E90622D968D0F83C05FFF7BDFF1D480F
:10CCF000D0F820319BB14FF49071FFF7ADFF1A4B84
:10CD00005A6962B1D0F84C150291002299688DF8E9
:10CD1000002001915A616846D3E90012904704B09F
:10CD200070BDD2F81031002BCED04FF48871104670
:10CD3000FFF792FF0C4BD2F83C0599698842C3D1AA
:10CD4000DC69D96864B1D2F8005225F02005C2F838
:10CD500000521A699C61DA60DE61FFF785FFB3E774
:10CD60009C61FAE700200040A82600202DE9F84346
:10CD70005B4B06799146242202FB0632044692F868
:10CD800020200D469846002A40F0A58055490068AD
:10CD9000FFF7F6FC0746002840F09F8029682368CB
:10CDA000481C0BD04FF0A04001228A40C0F8082553
:10CDB00001F5E0724FF0030C40F822C06868421C95
:10CDC0001FBF00F5E0724FF0A04C4FF0000E4CF882
:10CDD00022E0AA69C3F8242595F814C06A7DBCF145
:10CDE000010F4CEA0202C3F86C25C3F80C15C3F816
:10CDF00014051DD1A9684A1C1FBF01F5E0724FF050
:10CE0000A0404FF0000C40F822C0EA68501C0BD044
:10CE10004FF0A04C01209040CCF8080502F5E070DE
:10CE20004FF0030E4CF820E0C3F80825C3F81015A6
:10CE30002423734308EB0302C2F804902A6948F8DC
:10CE40000320B9F1000F35D020682A7F4FF4887194
:10CE5000FFF702FF20684FF49071FFF7FDFE206896
:10CE60004FF49271FFF7F8FE20684FF4A271FFF7BC
:10CE7000F3FE23681C49C3F80413190B43F307336B
:10CE8000002BAEBF03F1604001F00F0517484FEAD9
:10CE90004212A8BF00F56140D2B2B4BF425580F83B
:10CEA000002301F01F01012202FA01F15B09104A7F
:10CEB00042F8231023680822C3F80025242303FB2B
:10CEC00006830022C3E906225A61012283F820204A
:10CED0003846BDE8F8830827FAE71127F8E700BFCE
:10CEE000A826002089CC01001003020014ED00E008
:10CEF00000E100E0F8B5047900682C4D0023C0F88B
:10CF00000035242303FB04535B686BB1284BC0F846
:10CF1000083340F30733C0F304315B0901228A4030
:10CF20002033244941F82320D0F80C65D0F814159B
:10CF3000D0F80835D0F810254FF0FF37BE42C0F8C2
:10CF40000C7518BF06F5E076C0F81475C0F80875C2
:10CF5000C0F810751EBF4FF0A0474FF0020C47F805
:10CF600026C04E1C1FBF4FF0A04601F5E0710227FE
:10CF700046F82170511C1FBF4FF0A04102F5E0722E
:10CF8000022641F822605A1C1FBF03F5E0734FF0E0
:10CF9000A042022142F82310FFF714FC242303FBD4
:10CFA0000454002384F820306360F8BDA8260020D4
:10CFB0001003020000E100E001F06043B3F1005F04
:10CFC0002DE9F041064632D11B4B0779242505FB9C
:10CFD000073598466C6964BB6A610068A9604FF4C4
:10CFE0009071FFF739FE4FF4AC713068FFF734FEF3
:10CFF00033686A69A968C3F84415C3F84825012253
:10D000009A606A6862B9D3F82021D3F8584152B9BE
:10D01000002CF8D00F24242303FB078700237B6117
:10D020002046BDE8F081002C18BF0F24F3E7102440
:10D03000F6E71124F4E700BFA82600200220FEF73F
:10D04000FBBF00002DE9F04780460D46FFF714F8BE
:10D050000328044610D8012D10D0022D30D05DB920
:10D060001A48FDF7D9FA1A4B04EB440213449E7890
:10D07000184B1B5DB34219D0BDE8F087144D00EB8F
:10D080004002A918AE5C4A78470052B1DFF84C90D4
:10D090000E484A464FF40041FDF776FA08B989F880
:10D0A00000803B192B449A780A4B1A55002EE3D086
:10D0B000094B1B68002BDFD03046BDE8F04718470E
:10D0C00000EB4004024804446678EFE7F0260020B5
:10D0D000302700204927002044270020CC260020AC
:10D0E00000780221FFF7AEBF08B5094B1B7853B19A
:10D0F0000020FEF777FF0120FEF774FFBDE808402F
:10D100000320FEF76FBFBDE80840FEF777BF00BF02
:10D11000CD260020F8B57B4C237805461BB10023B3
:10D120002370FFF7E1FF172D00F28880DFE805F09C
:10D130000C17174354657680888D888D959A9A9A36
:10D140009A9AC4C9D1D9E4E4FFF7CEFF6E48FDF73F
:10D1500063FA6E4B002204461A702046F8BD002088
:10D16000FEF726FFF8B10020FEF73CFF022D0CBFB2
:10D170004FF4E1614FF47A61644B1D704FF400404D
:10D180004FF4FA740025E0FB01454FF47A72002356
:10D190002046294604F0A4F800220146BDE8F840E4
:10D1A0005948FDF7F1B9FEF711FF022D0CBFC82158
:10D1B0004FF4C871E0E70020FEF7FAFE40B100200E
:10D1C000FEF710FF4FF44871504B03221A70D5E759
:10D1D000FEF7FCFEC821F7E70020FEF7E9FE38B1B4
:10D1E0000020FEF7FFFE4FF47A61484B0422EDE782
:10D1F000FEF7ECFE4FF4C871F7E70020FEF7D8FE0B
:10D2000048B10020FEF7EEFE404B05221A7041F6B1
:10D210009A110022C2E7FEF7D9FEF5E70020FEF7DB
:10D220000BFF3A4B06221A70002240F6CD41B5E7BB
:10D230000020FEF7CBFE354B07221A7000248CE746
:10D2400001202070FEF7F8FEEEE701202070FEF7C7
:10D25000F3FE00224FF48041A0E7FEF7DEFE2B4BE9
:10D260000C22EAE72A482B4EFDF7D6F9D5F1110535
:10D2700004461CD0D8B9012D13D0C8235D434FF408
:10D2800000474FF4FA7000214FF47A720023C7FB75
:10D29000050104F025F8224601461D48FDF774F902
:10D2A00004460220FEF792FE0123337055E7022068
:10D2B000FEF798FE0023F8E7FFF716FF134B122244
:10D2C000BBE7FFF711FF0020FEF780FE0F4B132294
:10D2D000B3E7FFF709FF0120FEF778FE0B4B14229E
:10D2E000ABE7FFF701FF0020FEF770FE0120FEF71D
:10D2F0006DFE064B1522A0E7FEF78FFE034B1D7057
:10D300009CE700BF4027002010270020482700206E
:10D31000D0260020CD260020044B1B68DB0703D558
:10D32000034B1878FFF7F6BE704700BF3C2700207C
:10D3300048270020032801D8FEF790BE0020704740
:10D34000044B1B6813F0010301D0FFF7E3BE18463E
:10D35000704700BF3C27002038B51C4B18601C4BA1
:10D3600010F00204054619601AD01A4B1A480E2212
:10D370001A700F22DA7010229A7111225A72042147
:10D3800040F26662FCF7FAFD044648B9FCF74AFE33
:10D39000044628B90146114A1148FDF7E3F804464E
:10D3A000EB0711D50120FEF77FFE6CB921460D4A2F
:10D3B0000D48FDF7D7F8044630B9BDE838400B4AB0
:10D3C0000B480121FDF7CEB8204638BD3C27002090
:10D3D000442700203027002044200200E1D0010033
:10D3E0006820020019D301006C2002003DD001002A
:10D3F00064200200032811D8012A0AD101290FD183
:10D4000000F10E02D2B20D4B00EB40001A54002086
:10D4100070470129F7D0022904D049B1072070478D
:10D420000022F8E7054B00EB400018444270EEE79D
:10D43000024B00EB400018448270E8E730270020E0
:10D44000032808B512D8FEF729FE800000F1A0409D
:10D45000D0F8003723F44033C0F80037D0F8003755
:10D4600043F44033C0F80037002008BD0620FCE735
:10D4700008B5012202210020FFF7BCFF08B10728F0
:10D4800010D1072202210120FFF7B4FF08B10728BD
:10D4900008D100210A220846FFF7ACFF10B1072887
:10D4A00008BF002008BD00000388102B10B502D073
:10D4B000112B1ED010BD1A4C2168B1B901220846AB
:10D4C000FFF798FF08B1072824D107220221012085
:10D4D000FFF790FF08B107281CD104220221002089
:10D4E000FFF788FF08B1072814D1236801332360B0
:10D4F000E0E70B4A1368013B1360002BDAD1FFF71A
:10D50000B7FF0028D6D0074B1B68002BD2D0BDE850
:10D5100010401847034B1B68002BE6D09847E4E700
:10D52000542700205027002008B50020FFF788FF6F
:10D5300008B1062806D10120FFF782FF10B10628A6
:10D5400008BF002008BD00000D4B10B518600C4648
:10D5500029B10120FFF7EEFE40B102232370094BF1
:10D560001B6853B9BDE81040FFF782BFFFF7E2FE2A
:10D5700008B10B23F2E72070F1E7002010BD00BFD7
:10D58000502700205427002076DF704778DF70474F
:10D590007ADF70477CDF70478FDF704733DF70477B
:10D5A000FCF756BD08B50020FFF7CAFE08B1FCF72E
:10D5B0004FFDFFF7B9FF08B1FCF74AFDFFF7EEFF9B
:10D5C00018B1BDE80840FCF743BD08BD0388212B16
:10D5D00013B5044635D005D8102B17D0112B0AD01F
:10D5E00002B010BD3B2B01D0562BF9D1A0881321DE
:10D5F000FFF7CAFF20E0174B17481849C01AC008A8
:10D60000000440F00300FCF783FAE9E7114B1248ED
:10D610001349C01AC008000440F00300FCF778FA70
:10D620000720FFF78DFE08B1FCF712FD0D4BA18816
:10D630000D48198002F056F80028D1D0FCF708FDFB
:10D64000CEE7002301A98088ADF80430FFF7A4FFDE
:10D65000F2E700BFC0160200E816020070200200C8
:10D660007E200200881D00202028002008B50378B5
:10D670004BB9054B3B211888FFF786FF18B1BDE871
:10D680000840FCF7E5BC08BD881D0020072808B548
:10D6900013D00A280DD0042819D10D4B1321188856
:10D6A000FFF772FF30F0080311D0BDE80840FCF727
:10D6B000CFBCBDE80840FFF775BF054B1A884FF691
:10D6C000FF739A4203D1034800F03FFEEAE708BD2A
:10D6D000881D00205827002008B598B1032815D1CF
:10D6E0000B4B0C480C49C01AC008000440F0030062
:10D6F000FCF70EFA0220FFF723FE38B1BDE8084020
:10D70000FCF7A6BCBDE80840FFF74CBF08BD00BF52
:10D71000C0160200E816020089200200FCF798BC3F
:10D7200080B54FF40041B8B00020FCF73BF808B1D9
:10D73000FCF78EFCFBF762FFFCF7E4FE08B1FCF798
:10D7400087FC76490320FFF707FE08B1FCF780FC51
:10D750000DA90020FFF7F8FE08B1FCF779FC9DF851
:10D760003450FEF7E9FA08B1FCF772FC03F0D6FB7F
:10D7700008B1FCF76DFC00230DA901200D9303F007
:10D7800095FC08B1FCF764FC0DA803F03FFD08B15F
:10D79000FCF75EFC112362488DF8203003F016FF81
:10D7A00008AE82B25E493046FFF7F4FE08B1FCF7DE
:10D7B0004FFC40F28440FFF7E9FE08B1FCF748FC5B
:10D7C000002108220DA803F0ACFE56494FF0C873A3
:10D7D0000DA8CDE90D13FFF7DBFE08B1FCF738FC0F
:10D7E0005148002101F0AAFE08B1FCF731FCAC223F
:10D7F00000210DA803F095FE4C4BCDF810D0186811
:10D800001B798DF804305923ADF808300523ADF8A5
:10D810000C3002AB1693464B0D930123ADF8443008
:10D82000444B1293444B0090324603F110071868A2
:10D830005968144603C40833BB422246F7D11988FD
:10D840009B78A37059232180ADF814301323ADF8D1
:10D85000183000238DF8703005AB259301238DF827
:10D86000B0304FF4967240F6B833CDE92F233348E9
:10D87000334B07960DA9369300F0BDFB08B1FCF7BA
:10D88000E7FB2E48012100F0B3FB2E4B2E480D93F1
:10D890000DA901F015FF08B1FCF7DAFB1C220021ED
:10D8A0000DA803F03EFE00234FF42032CDE90D32E7
:10D8B000ADF842304FF470228DF84430234B0F9274
:10D8C00012930322224B8DF840200DA8139300F0F1
:10D8D00059FE08B1FCF7BCFB1E481F4C1F49241A17
:10D8E000E408240444F003042046FCF711F9022D57
:10D8F0000FD11B492046FCF70BF902F0B5FB08B12C
:10D90000FCF7A6FBFBF7A8FF0028FBD1FEF72AFADD
:10D91000F8E70321094800F0E0FBF0E78DD60100AD
:10D920009B2002005000A00010280020D4200200FC
:10D9300001060106841D0020D9200200582700207E
:10D94000D9D60100A1D50100202800206DD6010004
:10D950001DD70100C0160200E8160200B120020027
:10D96000C72002000369C1688B429DBF8268D2183C
:10D9700002F1FF3203F1FF3394BF501A581A704777
:10D980002DE9F843D0E902940546A9EB0408406864
:10D99000904520440F46144404D903F099FDEC60EF
:10D9A000BDE8F8834246A4EB090403F091FD6868E2
:10D9B000224607EB0801F0E72DE9F843C568064663
:10D9C000894617464FF000083469B3687068A5426D
:10D9D00028BFE418013C621B5C1BBC4228BF3C46CC
:10D9E000944228BF144649462844224603F070FD5D
:10D9F000B3682544AB4208BF00253F1BA044A144A7
:10DA0000F560E1D14046BDE8F883000010B5114C47
:10DA1000114AA2610223C4E90433104BE361A264FA
:10DA20004FF400730E4A0F492362E2640023102270
:10DA3000E01DA3626362E362A3656365E36522653B
:10DA400003F0A2FD0849204603F09EFD2023A371A8
:10DA500010BD00BF2C280020EC200200B4280020BC
:10DA6000A4280020F5200200F9200200F8B5184C87
:10DA7000182300FB033503FB00402544C46A012C36
:10DA80000F4616460FD0022C1AD0F4B92846FFF7DD
:10DA900069FF864205D8324639462846FFF770FFAF
:10DAA00034462046F8BD2846FFF75CFF86423446E0
:10DAB00028BF0446224639462846FFF761FFF0E7B3
:10DAC0002846BDE8F840FFF777BF0024E9E700BF2C
:10DAD0002C280020FFF79ABF6DDF704779DF704771
:10DAE0007DDF704764DF70472DE9F04F85B000257A
:10DAF0000E9CBDF83CB0B4F800A0019107469046DA
:10DB00001E46A9463A884A450DDC45B12388013BAB
:10DB1000A3EB0A039BB2FF2B3AD806F80A30002089
:10DB200005B0BDE8F08F7A6852F829000390002212
:10DB30000DF10B0103A8FFF7D5FF0028F0D19DF8E8
:10DB40000B20424521D12288002D14BF0020022045
:10DB500002EB0801014459451ADC3DB9013292B289
:10DB6000019B2280B35422880132228022880DF149
:10DB70000B01324403A8FFF7B5FF0028D0D121885C
:10DB80009DF80B200A442280012509F10109B9E71B
:10DB90000C20C5E72DE9F341089FBDF82480154608
:10DBA000CDE90078022204461E46FFF79DFF50B9DA
:10DBB0003346102229462046CDE9087802B0BDE858
:10DBC000F041FFF791BF02B0BDE8F0812DE9F04FC1
:10DBD00000231788138090F82D3085B006460D4637
:10DBE000144653B3082F01D80C2027E102A8FFF7F1
:10DBF00073FF002840F0228123880822EA542388FA
:10DC000001339BB21B222380EA542088013080B26A
:10DC1000208006220DF10901284403F059FC2388D5
:10DC20009DF8082006339BB212F0FE0218BF0122B5
:10DC30002380EA54238801332380B378FBB12388FF
:10DC40000433BB42D0D802A8FFF748FF002840F0B9
:10DC5000F58023880322EA54238801339BB21922DA
:10DC60002380EA542388BDF8082001339BB2E918C9
:10DC70002380EA54120A4A70238802332380F27800
:10DC80009AB12388D91CB942AED80221E95423881D
:10DC900001339BB201212380E95423880B449BB2BA
:10DCA0002380EA5423880B4423807268AAB1238816
:10DCB000D91CB94298D8022192F90020E95423884E
:10DCC00001339BB20A212380E954238801339BB29C
:10DCD0002380EA542388013323803389002B40F0CA
:10DCE000A180338A5BB1CDE900472B46072203218F
:10DCF00006F11000FFF74EFF002840F09F80338BA5
:10DD00005BB1CDE900472B461522142106F118001E
:10DD1000FFF740FF002840F09180326A002A40F06F
:10DD20009080D6F82480B8F1000F30D0B8F80430D5
:10DD30002188981C8A1C0244BA423FF655AFFE283F
:10DD40003FF652AF03336B54238801339BB2FF225B
:10DD50002380EA54238801339BB22380B8F8002043
:10DD6000EA54E918120A4A702088023080B22080F2
:10DD7000B8F804205AB1D8F8081000296BD028440C
:10DD800003F0A6FB2388B8F804201344238096F8F8
:10DD90002C30002B40F09A80307800284ED0338809
:10DDA000012B58D0228802F1020CBC453FF61CAF73
:10DDB000012805D17378023313449F42FFF414AF56
:10DDC000023FBF1ABFB202A905EB0C00ADF8087004
:10DDD000FFF786FE90BB3178BDF80830022900F0CD
:10DDE000BA8072789A4202D3BB4240F2B2800129D3
:10DDF00040F0B380974293B2C0F0AF80ADF80830E6
:10DE00000821BDF80830FE2B3FF6EEAE2288013324
:10DE1000AB542288013292B22280A9542288134442
:10DE200023800BE0CDE900472B460622022106F1B4
:10DE30000800FFF7AFFE00283FF453AF05B0BDE880
:10DE4000F08FB4F800C00CF10603BB423FF6CCAE35
:10DE50001188052901D80720F0E76FF4486E01EB1F
:10DE60000E039BB24FF27D3E7345F4D95388052BC8
:10DE7000F1D96FF44860181880B27045EBD94FF6AD
:10DE8000FF70814203D0834201D09942E3D8052339
:10DE900005F80C30238801339BB212212380E9540A
:10DEA000238801339BB223801188E954E818090ABA
:10DEB0004170238802339BB223805288EA54E918C8
:10DEC000120A4A702388023323802AE7B36A002BA0
:10DED000C1D04FF000094FF00C0A4FF0160B96F826
:10DEE0002C305FFA89F293427FF656AFB16A0AFB93
:10DEF00002F201EB0208B8F80430981CFE283FF645
:10DF000073AE208803332B54238801339BB22380C4
:10DF100005F803B0238801339BB223808A5AEA5460
:10DF2000E918120A4A702088023080B22080B8F8BE
:10DF300004205AB1D8F8081000298CD0284403F0E6
:10DF4000C7FA2388B8F804201344238009F1010993
:10DF5000C5E7092155E7BB42FBD9ADF808704FE78B
:10DF600070B5C0B14AB116880024B44203D3051974
:10DF70006D789D4208D0A14201D800200BE0055DDC
:10DF800001352C44A4B2F0E7A142F6D9A31C1380BA
:10DF9000005D013880B270BD13B513460022ADF8A4
:10DFA00006200DF106020446FFF7DAFF10B1BDF8B6
:10DFB0000600204402B010BD72DF704773DF704767
:10DFC00074DF704738B5012204460D46B0F898104A
:10DFD000D0F89400FFF7E0FF00B1057004F13C02B7
:10DFE00004F1940104F15400BDE83840FFF7E4BFA8
:10DFF00080F830107047F8B504460F46002968D005
:10E00000002866D091F87A301BB191F89830002B37
:10E0100061D1D7F8A030042B5DD0D7F89C30042B09
:10E0200059D04FF0000C84F802C007F178060FCEEB
:10E03000251D0FC50FCE0FC596E8070085E8070020
:10E0400084F830C0D7F8A4306363D7F8A830A3634E
:10E050004FF6FF7504F19403C4F8A430A4F8A85057
:10E060000722614604F1AA0003F05BFA23780BB99A
:10E0700084F85450224604F155011F25C4F8941029
:10E08000384622F8985FFFF7A1FD08BB224604F14D
:10E090007401C4F89C1007F13C0022F8A05FFFF760
:10E0A00095FDA8B9A369A4F848304FF48073012501
:10E0B000A4F8503063692064014684F83C506364DE
:10E0C00004F13C0204F15400FFF776FF00B925701B
:10E0D000F8BD0E20FCE70720FAE7F8B507780446FC
:10E0E0000D46002F00F0F98000F1AA06817007228A
:10E0F0000021304603F015FAE38813B1A378012B11
:10E1000004D0E3794BB1A378022B06D1636BA3B1A2
:10E11000012284F8B12008209847334604F1B00169
:10E1200013F8012F12B99942FAD117466B1E032B2F
:10E1300052D8DFE803F0050B0F1284F8B130ECE79A
:10E14000A3791BB194F8243003B95FB9E3790BB11B
:10E15000002F43D1237A002B42D1637A002B0CBFCE
:10E1600000250425636BA570002B3BD0033D012DDA
:10E1700038D86279002A35D094F8B22092BB84F85E
:10E18000B420012284F8B3200720984704F13C050D
:10E1900018220021284603F0C4F9E36A591E01221F
:10E1A000022928BF134684F8513094F8243084F8AB
:10E1B0003C2033B1914296BFA36A84F8522084F880
:10E1C0005230A278002384F85030042A1BD8DFE8AC
:10E1D00002F06C0D223252000025C3E70225C1E790
:10E1E0000325BFE7002384F8B330CFE7C4E9106309
:10E1F000C4F8A4300223012284F83C30802384F840
:10E200003120A4F84830A378002B51D1636B002B48
:10E210005FD100205CE0022384F83130032384F8CE
:10E220003C302369A4F848300023C4F8A430E368E4
:10E2300026646364E7E763696364A369A4F848300C
:10E240006379B3B194F8B2309BB994F8B43083B128
:10E25000022384F8503004212046FFF7B3FE002843
:10E26000D1D1052384F8313004F19403C4F8A430EB
:10E27000C9E70323F6E7E3696364236AA4F8483037
:10E28000637983B194F8B2306BB994F8B43053B178
:10E29000022384F8503004212046FFF793FE002823
:10E2A000B1D10623DEE70423DCE784F83130AAE7A6
:10E2B000D4F8A4102A4604F15400FFF77DFE38B9C3
:10E2C00094F8301094F85400FFF778FE00289DD0A1
:10E2D000F8BD94F8310098479BE70820F8E70388D9
:10E2E000112B10B50C460AD0262B1FD0102B05D1B0
:10E2F000C37B012B02D18388A1F8A83010BD002276
:10E30000838881F8B220B1F8A8209A42F6D10B791F
:10E31000002BF3D101212046FFF7DFFE0028EDD0CE
:10E32000A36B002BEAD0BDE810401847037A013BED
:10E33000012BE3D8897805230131B1FBF3F303EB1B
:10E340008303C91AC9B2E6E7704738B5044690F8A6
:10E350005400FFF735FE012384F8B230002384F81F
:10E36000B43084F8503006212046FFF72BFE0546D6
:10E3700038B9A1782046FFF7B0FE10B1A36B03B106
:10E380009847284638BD75DF704776DF70477ADFDB
:10E3900070477BDF70470000034B1A8882420CBF36
:10E3A00018460020704700BFD02A0020024B9B690E
:10E3B00003B11847704700BFB42A002073B585B277
:10E3C0002846FFF7E9FF044670B1164E027A337B08
:10E3D0009A420BD200F10A012846FFF7D4FFE8B1B8
:10E3E000112801D0FFF7E2FF02B070BD00230372D5
:10E3F000337C43B13B212846FFF7C7FF30F00803C9
:10E4000001D0FFF7D3FF7369002BEDD000228DF808
:10E410000420ADF8065001A89847E5E7237A0133B8
:10E420002372E1E7B42A002013B50B46497A02466D
:10E430000E4869B9D0E901101C7A002C18BF0146BA
:10E440005868FCF7A1F808B1FFF7B0FF02B010BDA3
:10E45000002119724369002BF8D001218DF80410B6
:10E46000ADF8062001A89847F0E700BFB42A0020C5
:10E470004B8802889A4213D842889A4210D38088E7
:10E480008A8840F2F313984294BF031AC31A934246
:10E4900006D800F2F310904234BF002001207047EC
:10E4A000002070470388122B70B5014659D004D85C
:10E4B000102B1ED0112B44D070BD502BFCD12F4BF4
:10E4C000C288DB899A42F7D1038A022BF4D186886D
:10E4D0003046FFF761FF05460028EDD001F112003C
:10E4E00000F08EF938BB6868FCF796F80028E3D096
:10E4F00009E0C37B012BDFD14FF6FF70FFF74CFF24
:10E50000054620B90420BDE87040FFF74FBF1C4A04
:10E510008E880680002303721368C0F80A3053689F
:10E52000C0F80E3010310A30FFF7A2FF134B6872AB
:10E53000DB89002BC0D129463046BDE87040FFF78B
:10E5400073BF8088FFF728FF04460028B4D04068D6
:10E55000FCF762F808B1FFF729FF4FF6FF7323803D
:10E56000AAE786883046FFF717FF05460028A3D0A4
:10E5700008310A30FFF77CFF6872DCE7B42A00201C
:10E58000E42A0020F8B5064648B305460FCD154FDE
:10E590003C460FC495E8070084E807003068124C39
:10E5A0003C60B0B1FFF7F3FEC0B932681368236076
:10E5B000536863600D480E4A4FF6FF7303800D4B9E
:10E5C00040F8043F0021FBF7CDFF002818BF0320CF
:10E5D00004E02046FFF7DDFE0028EBD0F8BD0E205A
:10E5E000FCE700BFB42A0020E42A0020D02A002043
:10E5F000BDE30100EC2A0020F7B5174601900E4656
:10E6000091B1019C6CB100252C46294601A8FCF76C
:10E610002AFE18B13946A8B2B04701340135142D8D
:10E62000F3D1204603B0F0BD0C46FAE773B5019173
:10E63000019C06466CB100252C46294601A8FCF732
:10E6400012FE18B106EB440301349D800135142DF0
:10E65000F3D13046346002B070BD00002DE9F047C0
:10E6600003888488112B8CB005463CD01A2B3FD0F0
:10E67000102B17D1284EB368DB43009371686846AE
:10E68000FCF756FE009901A8FFF7D0FF0DF108092D
:10E690004FF00008019B984507D3132C13D9042091
:10E6A000FBF7D6FC0CB0BDE8F08739F802AB0027C9
:10E6B0000137514606EB8700FCF7CBFD1D2FF7D144
:10E6C00008F10108E6E715482146FCF7ABFD1448C0
:10E6D0002146FCF7A7FDEB7B012BE3D01148214637
:10E6E000FCF7A0FDDEE70D482146FCF7B2FDD9E7B7
:10E6F000037A0D481F2B4FEA1315214606D9FCF764
:10E7000091FD022D09482146EAD1EEE7FCF7A1FD73
:10E7100006482146E9E700BF0C2B0020142B0020FF
:10E72000102B0020182B00201C2B0020202B002059
:10E730001328014602D80248FCF795BD0020704717
:10E74000102B0020FFF7F4BF10B50446FFF7F0FFD1
:10E7500028B121460248BDE81040FCF784BD10BD39
:10E760001C2B002070B50A4E054630460C46FCF7BF
:10E770007AFD58B12846FFF7DBFF38B10634294649
:10E7800006EB8400BDE87040FCF76DBD002070BD55
:10E790000C2B0020F8B50D4C054620460E461746BA
:10E7A000FCF761FD80B12846FFF7C2FF60B1B01DE4
:10E7B00004EB800029461FB1BDE8F840FCF732BDEC
:10E7C000BDE8F840FCF745BDF8BD00BF0C2B0020AC
:10E7D000F8B50A4D04460E46014628461746FCF792
:10E7E00042FD48B1043405EB84043A46A068314642
:10E7F000BDE8F840FFF700BFF8BD00BF0C2B0020BC
:10E80000007800F001007047A0DF7047A1DF70477B
:10E81000ADDF7047B3DF704710B50446408800F0A5
:10E8200023FDA0802046BDE8104001F00DBC30B5AE
:10E8300087B005460C4618220021684602F071FE9A
:10E84000072368468DF80030ADF802500294FFF7B8
:10E85000E3FF07B030BD000070B586B00546182252
:10E860000021684602F05DFE4FF6FF739D42ADF851
:10E8700002503FD0284600F0E7FB1128044633D071
:10E8800016D8D8B10B2820D02046FDF7B5FA1A4E7D
:10E890001A4902461A48361AF608360446F00100AC
:10E8A0002B46FBF742F921462846FFF7C0FF03E05D
:10E8B00043F202039842E7D1002216E00E238DF8BE
:10E8C00000306846FFF7A8FFF6E70F238DF8003009
:10E8D00009480B4B0B49C01AC00800042A4640F0F7
:10E8E0000200FBF719F9ECE70122074B28461978DB
:10E8F000FFF750FF06B070BD28170200802102000C
:10E90000C0160200002102008B2B0020FFF7A4BFDD
:10E91000024B034918780022FFF75ABF8D2B0020C5
:10E9200025E901002DE9F047464D88B029780446D5
:10E93000FFF718FFA846064600287CD1204600F0C5
:10E94000E7FB0828054632D016D808B306285BD066
:10E950002846FDF751FA3C4F3C4902463C483F1AD5
:10E96000FF083F0447F001002346FBF7DEF8294685
:10E970002046FFF75CFF09E043F20203984205D00E
:10E9800043F20143984259D01128E1D1012546E0D4
:10E990003146182202A802F0C4FD102302A88DF807
:10E9A0000830ADF80A400126FFF736FFEEE701A870
:10E9B000FFF730FF354601274FF002090DF1060A37
:10E9C000BDF80430BB421FD902AA39462046CDE922
:10E9D000029AFFF71DFFB8B9BDF80630013735B907
:10E9E00042F605255B1B5D425D41BFB2E8E742F69A
:10E9F00002129342F9D10DF1020302AAB9B22046E4
:10EA00000393FFF705FF30B1204600F02DFC00F026
:10EA1000ABFB002503E0BDF80230002BF4D00D4B1A
:10EA20002A4619782046FFF7B5FE98F800103246BE
:10EA30002046FFF7AFFE08B0BDE8F0872046FFF79D
:10EA40000BFFA3E78E2B002028170200D121020024
:10EA5000C01602008D2B002013B5044600F004FC04
:10EA600000236A46092100F015FF052805D1044B53
:10EA7000012219782046FFF78DFE02B010BD00BFBD
:10EA8000892B002008B5084B084918780022FFF7A9
:10EA90009FFE024630B9064B06491878BDE808408B
:10EAA000FFF796BE08BD00BF8C2B002001EB0100D4
:10EAB000892B0020B9EA010037B504460422002161
:10EAC000684602F02EFD42F6A623ADF800300A4B50
:10EAD00018680190012501AA694620468DF8025068
