:1000000000000420750300005D0300005F03000092
:1000100061030000630300006503000000000000AE
:100020000000000000000000000000006703000066
:1000300069030000000000006B0300006D03000076
:100040006F0300006F030000191C00006F03000025
:10005000B51C00006F0300006D1A00006F03000064
:100060006F0300006F0300006F0300006F030000C8
:100070006F0300006F0300006F0300006F030000B8
:100080006F030000490F00006F0300006F030000C2
:10009000E50F00006F0300006F0300006F03000016
:1000A0006F0300006F0300006F0300006F03000088
:1000B0006F0300006F03000000000000000000005C
:1000C0006F0300006F0300006F0300006F03000068
:1000D0006F0300006F0300006F0300006F03000058
:1000E0006F0300006F0300006F03000000000000BA
:1000F000000000006F030000000000006F0300001C
:1001000000000000000000000000000000000000EF
:1001100000000000000000000000000000000000DF
:1001200000000000000000000000000000000000CF
:1001300000000000000000000000000000000000BF
:1001400000000000000000000000000000000000AF
:10015000000000000000000000000000000000009F
:10016000000000000000000000000000000000008F
:10017000000000000000000000000000000000007F
:10018000000000000000000000000000000000006F
:10019000000000000000000000000000000000005F
:1001A000000000000000000000000000000000004F
:1001B000000000000000000000000000000000003F
:1001C000000000000000000000000000000000002F
:1001D000000000000000000000000000000000001F
:1001E000000000000000000000000000000000000F
:1001F00000000000000000000000000000000000FF
:10020000354936480A1A02D0072291438D463449AF
:1002100034480A1A06D00722914381F30988022242
:1002200082F3148830483149314A00F044F83148AB
:100230003149324A00F03FF831483249324A00F041
:100240003AF832483249334A00F035F832483349F7
:10025000334A00F030F833483349344A00F02BF881
:1002600033483449344A00F026F8344834490022EF
:1002700000F02CF833483449002200F027F83348C6
:100280003349091A082902DB002202604160314A21
:1002900090471F481F49884205D00268043003B4C4
:1002A000904703BCF7E700208646EC46002000217B
:1002B000294A9047FEE7884207D0521A05D00378B2
:1002C00001300B700131013AF9D17047884202D0F8
:1002D00002700130FAE770470000042000E00320BC
:1002E00000000420000004207433000000000020FF
:1002F00040000020D4030000D4030000CA2E0000F8
:10030000743300000000002000000020302F0000A7
:10031000302F0000302F0000302F0000302F000061
:10032000302F0000302F0000302F0000723300000B
:10033000B4330000400000204000002040000020B6
:10034000040B0020040B0020040B0020040B0020F1
:10035000042B00209D030000A1280000FEE7FEE71B
:10036000FEE7FEE7FEE7FEE7FEE7FEE7FEE7FEE765
:10037000704700BF1048804710484FF0070188437E
:1003800085460F4880470F48016841F470010160BD
:10039000BFF34F8FBFF36F8FFFF732BF0A480B4990
:1003A0000B4A884207D0521A05D0037801300B70EF
:1003B0000131013AF9D170477103000000000420B7
:1003C000FD2A000088ED00E0302F00000000002032
:0403D0000000002009
:1003D4007047000007B5044B0093044A402300F023
:1003E40032F803B05DF804FBF5030000410000207F
:1003F4002DE9F84388461446B2B10F4B0F4E03253E
:10040400002743F00109224608EB0701002002F00F
:100414002DFB0744241A48B933782BB14FF47A40A2
:10042400C847013D02D13570BDE8F883012333701C
:10043400002CE8D1F8E700BF302F00004000002076
:10044400704702F047BBF0B595B01D461646084606
:100454000C4601F021FA1A9B0D93CDE9086500259D
:100464002B46082205A920460A958DF82C500C9598
:1004740001F02FFA079B0293069B03939DF8143017
:100484008DF8115003F00302012A1DD1BDF8142088
:10049400059DC3F3C203C2F383168DF81030B20076
:1004A40008230EA9204601F014FAC5F3952508ABDC
:1004B4000093324602AB0EA9284600F0D1FB204639
:1004C40001F0EEF915B0F0BD022AF8D1BDF81650CE
:1004D400C3F3C203C5F389158DF810300827082D1E
:1004E4002E4628BF08263B4632460EA9204601F078
:1004F400F0F9AD1B08AB02AA31460EA8374400F050
:1005040013FC002DEBD1DAE7014B01221A7070477E
:10051400C20000207047000070B5124D06460FCD92
:1005240088B06C460FC495E80F00002E84E80F00D5
:100534004FF0FF334FF00602CDE90023CDE902333B
:10054400094A0A484FF0EB7308BF00226946069334
:1005540001F01CFA08B100F085FC054B1E7008B0D0
:1005640070BD00BF442F00000D05000000000020F6
:100574008100002007B5044B0093044A4023FFF791
:1005840062FF03B05DF804FB9505000082000020C3
:1005940038B50D4B0D4D002018700D4804782D5DB5
:1005A400D2B21C4665B1043002F014F908B100F06F
:1005B40059FC084B1A7812B12378002BFBD038BDB4
:1005C4000C3001F0F5FEF1E7C20000209407002092
:1005D400000000208100002008B50848084A03787C
:1005E400D35C3BB1043002F0A1F8BDE80840002020
:1005F400FFF792BF0C3001F087FEF6E70000002001
:10060400940700200120FFF787BF000038B50A4D8A
:10061400FFF717FF0421284600F08AFA074B01244C
:100624005C71FFF7EFFF042105F1100000F080FA80
:10063400034B5C7138BD00BFFC2E00001400002089
:100644001C000020037813F0040216D003F0030307
:10065400012B03D0022B09D0012070470A680088BF
:100664000232C0F3831002440A60F5E70B68428843
:10067400023303EB92130B60EEE710467047000061
:100684002DE9F04F044685B0861C00200F46154620
:1006940000F016FE454801683960D0E90132134480
:1006A40001335B1A824600F21C4700F5836900F2AD
:1006B4001448B3421BD30020002D72D004F00F0362
:1006C4009B0143F0050363F30F00DAF80020DAF826
:1006D40008301340033316444AF823000020CAF8B4
:1006E400006000F0EFFD012005B0BDE8F08F0121AE
:1006F400384600F00CFE484600F021FE404600F06B
:100704001EFEDAF80400DAF808B0009000EA0B00E4
:1007140003300AEB80006946FFF794FF009B50BB4F
:100724000BEA03020AEB820203F1020CD268019283
:10073400013303EA0B0B0AEB8B0B02F00302012AD1
:10074400DBF80C10CDF800C023D0022A16D0834663
:10075400404600F0F7FD10B1009BCAF8043059463A
:10076400384600F0D4FDDAE901231344DAF8002016
:1007740001339B1A9DE70BEA0300C9E7BDF8063075
:10078400C3F3891303334FEA114B0CEB9303009328
:10079400DEE7BDF80430C3F383134FEA114B63441F
:1007A400F5E7A40544F006008FE700BF940100209C
:1007B4000B4B0C48FF2210B59A600022C3F8182492
:1007C400C3E90022C3F8142483F8202401F01DF89F
:1007D400044610B9044801F086F8204610BD00BF55
:1007E400940100201C2F0000A82F000030B50A4CF3
:1007F40071B10A4A0A49121BD20800239A4201D154
:10080400002030BD31F82350854202D00133F5E792
:10081400034654F83300F4E7CC2E0000FC2E00000D
:1008240000000020094B013903EBC000032909D85B
:10083400DFE801F00A0204060420704700797047DB
:10084400407970470020704702207047CC2E00008A
:10085400034BD3E90030C31A58425841704700BFD4
:10086400940100202DE9F04385B0FFF7F1FF06461F
:10087400002840F0F5807B4DC5F81804BFF34F8F76
:100884006B68AC6800932340033305EB830069462F
:10089400FFF7D8FE009B18B1D5F81824002A5FD0C2
:1008A40004EA0302991C013305EB8202234005EBA1
:1008B4008303D268DB68029302F00303022B0192E4
:1008C400009160D1BDF806306748C3F38917502FF3
:1008D400B84628BF4FF0500868F38F1308F1080199
:1008E400ADF8063000F0A9FF0646002800F0A3800A
:1008F40000F0D2FF0023082201A9304600F0DFFFF8
:10090400009924EA01020132B8EB820F4FEA820314
:1009140032D95FFA88F85BB32140DCB2A8EB040853
:1009240003315FFA88F9A046504C05EB8101082396
:100934004246304600F0C3FF34B108F108034A468A
:100944002146304600F0BBFF009B033703EB9707BB
:100954000097D5F81834002B49D1D5F8104459E044
:100964002A689A428FD86A60304605B0BDE8F083A1
:100974003E491C469946DAE70C40E11C08234246EE
:1009840005EB8101DDE7012B55D1BDF80430364874
:10099400C3F38311062928BF062161F389130231A9
:1009A4008900ADF8043000F048FF0646002842D024
:1009B40000F072FF0023082201A9304600F07FFFF7
:1009C4000027BDF80420C2F38312BB00974203F151
:1009D4000803BED200994A1C21400331009205EB62
:1009E40081010422304600F06AFF0137E9E730460E
:1009F40000F056FFFFF72CFF80F00100C6B2B3E70A
:100A0400E3685B7923B1236831461B682046984725
:100A1400E3681C68002CF3D1304600F041FF204607
:100A240000F04EFCD5F818340BB9009B6B60002025
:100A340000F048FCDEE7D5F8104454B90C4B0D48DF
:100A44000D49C01AC008000440F0020000F062F82A
:100A5400D0E7236820469B689847E3681C68ECE766
:100A6400002681E7940100201C2F0000A001002033
:100A7400CC2E0000F42E0000912F00002DE9F74F3A
:100A8400224D04460F46924601A901221846D5F884
:100A940008909B46FFF7F4FD20B3019E4FF0000839
:100AA400B21CD84508EB020126D11948002100F0F8
:100AB4000BFC80F31000000440EA1440E400731CB3
:100AC40004F0380403EA090306EA090644F00104C1
:100AD40005EB8303033644EA881444EA8724D86088
:100AE40045F8264095F820341BB1FFF7BBFE0028DB
:100AF400FBD103B0BDE8F08F09EA010105EB8101E8
:100B04005AF82830CB6008F10108CAE794010020A4
:100B1400B005002000231A46FFF7B0BF07B5012334
:100B2400019201AAFFF7AAFF03B05DF804FB0000DD
:100B340030B50F49D1F8102403460020144634B9C7
:100B4400DC6820714AB9C1F81034226030BDE46811
:100B54002579854206D02468F1E7D26811682160BE
:100B64001360F3E701300A28E8D14FF0FF30EDE7D6
:100B740094010020094A38B50123D2F8104482F8C0
:100B840020341D4604B938BDE3685D7123682046EE
:100B94005B689847E3681C68F4E700BF9401002091
:100BA40007B503460846197A052911D05B7A2BB19B
:100BB400094A0A49019000F01FFC01980849019074
:100BC40000F01AFC019803B05DF804EB00F009BCD6
:100BD400002AF8D0F2E700BFB42F0000F030000084
:100BE400D62F000030B5C38885B004460D4633B116
:100BF400144A00921449154A284600F0FDFB217A54
:100C040005291DD0637A4BB1A088FFF70BFE104B6A
:100C1400104953F82020284600F0EEFB227A0E4BB0
:100C2400A08853F8222003920021FFF7DFFD039AE6
:100C34000A490346284605B0BDE8304000F0DCBB55
:100C440005B030BDB42F0000C12F0000B92F000043
:100C540040300000F030000064300000D92F000064
:100C64002DE9F04385B01F460C9D002395F80C90A8
:100C74002B7306460C46904629463846FFF7B2FFCA
:100C8400B8F1060F09D8DFE808F00412181F28335A
:100C940040003146284600F0AFFB00222946384682
:100CA400FFF77EFF85F80C9005B0BDE8F08322685D
:100CB4003146284600F0A0FBEFE7D4E90023314693
:100CC400284600F099FBE8E7A36800933146D4E98D
:100CD4000023284600F090FBDFE7E3680193A36854
:100CE40000933146D4E90023284600F085FBD4E77D
:100CF40023690293E3680193A36800933146D4E91E
:100D04000023284600F078FBC7E76369039323694F
:100D14000293E3680193A36800933146D4E9002366
:100D2400284600F069FBB8E708292DE9F74F80460B
:100D34000E4617461C463CD8002593F80C901D73AC
:100D440019461046FFF74EFFDFF888A0DFF888B099
:100D5400AE4231D918F805205946204600F04CFB24
:100D64000135082DF4D11949194DDFF870A020463A
:100D740000F042FB4FF0000B5E4522D918F80B201F
:100D84007E2A05D81046019201F0EAFF019A00B9C3
:100D94002E225146204600F02FFB0BF1010BBBF134
:100DA400080FE9D1012221463846FFF7F9FE84F8FD
:100DB4000C9003B0BDE8F08F5146204600F01CFBB8
:100DC400CEE72946204600F017FBE6E7ED2F0000AA
:100DD400EB2F0000E92F0000E32F0000EF2F0000AD
:100DE400074B1B5C1F2B86BF064903F01F034FF004
:100DF400A041012202FA03F3C1F80835704700BF8D
:100E0400783000000003005008B50020FFF7E8FF29
:100E14000120FFF7E5FF0220FFF7E2FFBDE80840ED
:100E24000320FFF7DDBFC20710B504460CD54FF011
:100E3400A0430322C3F83427C3F83827C3F83C2758
:100E4400C3F84027FFF7E0FFA3070AD54FF0A043FC
:100E54000C22C3F82C27C3F83027C3F86027C3F843
:100E6400642710BD1FB50021039001AA44F20100BC
:100E7400CDE9011100F004F805B05DF804FB0000B1
:100E840010B572B6FFF776FEFFF7ECFC0028FBD135
:100E9400104B114C1149E41AE408240444F00100F5
:100EA400FFF738FE0E4B1B68DB0700D500BE0D496B
:100EB40044F00200FFF72EFEBFF34F8F0A490B4B9D
:100EC400CA6802F4E0621343CB60BFF34F8F00BFE4
:100ED400FDE700BFCC2E0000F42E00007C300000A3
:100EE400F0ED00E08830000000ED00E00400FA05B9
:100EF400024B4FF43C6043F001031847A03000005C
:100F040038B50C4B0C4C4FF40032C3F8802001254B
:100F14004FF48033C4F84833C4F808336560FFF7EE
:100F2400E7FF064BA56000241C60FFF7E1FF044BBC
:100F34001C7038BD00E100E0001001406C07002087
:100F44005D070020F8B51F4B1F491B680025C1F839
:100F54004051C1F84451C1F84851C1F84C51C1F84D
:100F64000051C1F804514BB3D1F80445174909683D
:100F7400641A24F07F442F461A68A24209D8A41A9E
:100F840015441A7CDE691AB1D3E905201F74904711
:100F9400AEB90F4A0F4B11781B788B4205D1013340
:100FA400DBB2022B08BF0023137012780A4B43F8FC
:100FB40022500A4B4FF48012C3F80021F8BD334687
:100FC400DAE700BF70070020001001406C07002022
:100FD40069070020680700206007002000E100E0A6
:100FE4002DE9F04FA24AA34913780978A24D9942FA
:100FF40085B03CD00133DBB2022B08BF0023137051
:101004009E4912789E4B0F6853F822003B1823F038
:101014007F4300220B602B6816461446944613B98E
:1010240042B12B6006E0196881420ED902B12B60EF
:10103400091A196001272B68DFF84CA201934FF0BD
:101044000008BEB9DFF848B262E0401A0C44D9681F
:10105400D3F81CE0C3F800C031B13A1922F07F4242
:10106400C3E90121DE611E4673460122D7E700264B
:101074003746E0E73446F669804A63681268DFF869
:1010840014C2A068991A21F07F41614500F2A8803A
:1010940001442160012222742A680023C4E9013337
:1010A400E361002A40F0A5802C60CAE79BF8021097
:1010B4005A1CD2B291428BF8002004BF00228BF854
:1010C4000020182202FB03B32A6819799C680229BC
:1010D40077D0032900F08180012919D1207CB8B987
:1010E400D3E90312A2605A69E2609A69654BA2616E
:1010F4001B78002B0CBF0B4603466360BCE78C4295
:1011040000F094808946C9690029F8D1002323742A
:101114009BF800309BF801209A42C7D12B68B8F1A4
:10112400000F04D1019A9A4201D1002F43D0002B21
:1011340079D0D3F800A0544D504BD5F804751C68F1
:10114400DFF854813E1B98F8003026F07F460336C2
:101154009BB94FF48033C5F84433C5F804334B4B83
:101164004FF400324FF00109C3F880211A60C5F82A
:101174000090FFF7BDFE88F80090B2452CBF5444A0
:10118400A41924F07F44C5F84045D5F80435DB1B89
:1011940023F07F43E41B033324F07F44A3420AD9A2
:1011A400D5F80435C5F84035FFF7A2FE374B4FF4A8
:1011B4000032C3F80021334B00221A7005B0BDE899
:1011C400F08F114691469FE71174D2690123002ADA
:1011D400FAD1002B9CD02A609AE700231946F6E73F
:1011E400D31A23F07F43834234BFC31A00232360FE
:1011F40050E721681368994213D8591A1160E261C3
:1012040052E7091AD8691A4638B103461868884261
:10121400F7D3401A1860184613462160E061DC6178
:101224000FE71346F2E7FFF76BFEC4E74C4511D115
:10123400D3692B6073B9DFF844E00120CDE90212D1
:10124400CAF80800CEF800300E4B1870FFF750FEB5
:10125400DDE902120B68C969C9F81C1011B10868EC
:1012640003440B602B68934218BF4FF001084DE70D
:101274006807002069070020700700206C07002021
:10128400600700205C0700200010014000E100E03E
:1012940050060020FEFF7F005D07002072B6024A60
:1012A400136801331360704774070020034A1368FE
:1012B400013B136003B962B6704700BF7407002096
:1012C400FFF7ECBFFFF7F2BF10B5034653E8000F7A
:1012D4000A4643E8002494F0000FF7D110BD10B57E
:1012E400034653E8002F42EA010043E8000494F067
:1012F400000FF6D110BD10B5034653E8000F00EA05
:10130400010243E8002494F0000FF6D110BD10B59B
:10131400034653E8002F02EB010043E8000494F075
:10132400000FF6D110BD10B5034653E8002FA2EB11
:10133400010043E8000494F0000FF6D110BD012130
:10134400FFF7CDBF0021FFF7D6BF10B590B1D0E9AC
:10135400012301689B1ADBB20A60013BDBB2FF2B5D
:10136400026802D10020107110BD11684C1C146079
:101374000B70F2E70E20F7E738B504460020FFF7BC
:101384009FFF226863681168994213D9481E106050
:1013940011F8015CE368218A01FB0535A368117922
:1013A4001B1ADBB2994200D213710020FFF78AFFA7
:1013B400284638BD0025F8E738B5054600200C4618
:1013C400FFF77EFF2A681368591C1160E968641AE4
:1013D400298AB4FBF1F41C70BDE838400020FFF703
:1013E40071BF826810B504462AB143690168006977
:1013F40098470023A36010BD0EB403B5039921B12F
:1014040004AB01AA019300F06FF802B05DF804EB9D
:1014140003B07047826830B40468551C8560A154D9
:10142400D0E901329A4202D330BCFFF7DABF30BCB4
:10143400704700002DE9F84F9846DDE90A43154648
:1014440082460F460A464FF00109AA420FD2C1450F
:1014540038BFC14613F0010B01D16CB90024012639
:10146400B8F1010F1BD908F1FF386E43F8E709F111
:101474000109B2FBF5F2E8E79B070ED5B8F1000FBE
:101484000CBF30262026A145E9D2013C3146504606
:10149400FFF7C0FF002CF6D1E0E72026F3E7B7FB07
:1014A400F6F39D42E1D9DFF83C80B7FBF6F35046F2
:1014B40018F8031006FB1377FFF7ACFF3346AB4273
:1014C400B6FBF5F6F1D2BBF1000F02D00CB1A14589
:1014D40001D3BDE8F88F20215046013CFFF79AFF65
:1014E400F4E700BFA63000002DE9F74F0546174684
:1014F4008846002900F0428118F8011B49B92B7B6A
:10150400002B00F03B81284603B0BDE8F04FFFF705
:1015140068BF252940F0B780002698F800302D2BAD
:10152400424608F1010823D0302B24D02B2B25D0A0
:1015340000242A2B02F1010123D13B681A1D1B68E8
:101544003A601C440A4613782E2B26D101324FF000
:10155400000A104610F8011BA1F1300CBCF1090F70
:101564001DD80A2303FB0A13A3F1300A0246F0E74D
:1015740046F00106D1E746F00206CEE746F004063F
:10158400CBE711F8013CA3F130000928DBD80A228B
:1015940002FB0434303C0A46CBE74FF0000A12F851
:1015A400011B01F0FB0068289046F8D0782909D87F
:1015B4006F290CD8632962D022D8252963D05829F1
:1015C40000F0888098F80030002B95D197E77039A7
:1015D4000829F7D801A353F821F000BF5B170000D6
:1015E400C9150000C9150000E9160000C91500005E
:1015F400C7160000C9150000C9150000D91600005F
:10160400642901D06929DDD13A68D2F80090111D0E
:1016140089EAE9723960A2EBE9724FF0010B092AF9
:1016240035DCD34538BFD3462CB1B9F1000F01DB0B
:10163400720700D5013CB30702D5BAF1000F03D0FD
:10164400F00701D44CBB0024B9F1000F2DDAC9F125
:1016540000092D212846FFF7DDFE06F00302022AC9
:1016640004D1BAF1000F01D11CBB0024CDE900461E
:1016740053460A2249462846FFF7DCFEA2E73B68A8
:101684001A1D19783A602846FFF7C4FE9AE70A2320
:101694000BF1010BB2FBF3F2C1E7A345D4D2202135
:1016A4002846013CFFF7B6FECCE77107D5D52B21C0
:1016B400D0E7A345DAD230212846013CFFF7AAFE41
:1016C400D2E73968CDE900460A1D3A6053460A223A
:1016D4000968D0E739680A1D3A60CDE900465346E7
:1016E4001022F5E73B681A1D3A6016F00106D3F89C
:1016F400009028D1B9F1000F03D0484601F0B3FBA4
:101704000646B44200D904BB09F1FF3919F8011F98
:1017140000293FF457AF2846FFF77CFEF6E728463A
:101724000136FFF777FE19F806100029F7D1A64213
:10173400BFF448AF002C3FF445AF20212846013CBC
:10174400FFF768FEF3E70026EDE720212846013C79
:10175400FFF760FED5E73B681A1D3A603021284642
:101764001C68FFF757FE78212846FFF753FE002236
:101774000823CDE90032214610227CE703B0BDE8FE
:10178400F08F00BF2DE9F84FB0F806A04579D2F8E4
:1017940000B09DF828900AFB05F5043D88460BEB44
:1017A4000301A94203F1040488BFA5EB030BB4FBB6
:1017B400FAF607460AFB1644C2F800B04EB9AAEB83
:1017C40004055D4528BF5D46BBF1000F04D1BDE8AB
:1017D400F88F3F68013EF1E7043408EB06003C440F
:1017E4002A46B9F1000F0DD02146ABEB050B01F0F1
:1017F400BCFADA452E443F6855464FF0000428BF32
:101804005D46E1E701462046EFE7FFF79EBDF8B5E8
:1018140046790146721E0546002393422D6803D380
:101824000024A64202D8F8BD0133F6E70F68284623
:10183400FFF7C2FD01343946F3E72DE9F843068A80
:10184400CD1C0746FFF798FD043E35440446B5FB1E
:10185400F6F5F0B14FF48073EDB28380C680013D9C
:10186400076081464FF00008A84512D23846FFF7BA
:1018740083FD064648B163790133637108F10108B9
:10188400C9F8000007608146EEE72046FFF7BFFF76
:1018940034462046BDE8F88301210430FFF737BD04
:1018A40010B5012104460430FFF73DFD10F0FF0F91
:1018B40004D12046BDE81040FFF7A9BF10BD1FB5F5
:1018C40003920022009203AAFFF75CFF05B05DF8C3
:1018D40004FB1FB503920122009203AAFFF752FFF3
:1018E40005B05DF804FB836800225A60C3E9042252
:1018F4009A60DA601A607047024B53F8213007C8C7
:10190400184700BF7807002010B4044C037944F84A
:101914002320034A5DF8044B00F00ABA780700203C
:10192400FD1800001FB503788DF80030436801935B
:1019340083688DF80830C368054A0393054B6846ED
:1019440053F8213052F82110984705B05DF804FB94
:10195400840700208C0700201FB503788DF8003021
:101964004368019383688DF80830C368054A03937C
:10197400054B684653F8213052F82110984705B0BA
:101984005DF804FB840700208C070020F0B5194B98
:1019940090F800C0DFF86CE043F82C20164B164694
:1019A4000A6943F82C204B7F0EF80C300C4607468E
:1019B4000FCC89B06D460FC594E80F0085E80F0081
:1019C4001EF80C30CDF810C04BB1002E0B4A6946FE
:1019D40008BF3246381D00F0CBFD09B0F0BD002E23
:1019E400074A694608BF324607F10C0000F0B6FB0F
:1019F400F3E700BF8C0700208407002029190000AA
:101A04005D1900009407002000F1804000F5C040FB
:101A1400002382B0036003680193019B02B0704706
:101A240003681F2B83BF03F01F03036001484FF0BB
:101A3400A04070470003005007B5019001A8FFF7CC
:101A4400EFFF019B00EB8300D0F8003723F4403311
:101A5400C0F80037D0F8003743EA0141C0F8001756
:101A640003B05DF804FB00002DE9F04F002489B0B9
:101A7400CDE90244624D4FF48072012102F18043AA
:101A840003F5C04390B21B68012B06D1D5F804338B
:101A94000B4202D0FFF7B8FF0C430432B2F5907F3B
:101AA4004FEA4101EAD1574B1B68012B0ED14FF489
:101AB400BE70FFF7A9FF4FF0A04344F00044D3F8F1
:101AC40010350293504BD3F81035039314F0FF0FE5
:101AD4001AD04E4F00250126344210D0AB0003F13A
:101AE400804303F5C043D3F81005D3F8101557F815
:101AF400253023B1C1F30141C0F3052098470135D6
:101B0400082D4FEA4606E7D1002C75DA04AF00230E
:101B140004937B604FF0FF33CDE90633DFF8EC909C
:101B2400DFF8EC800026354618F9012B531C4AD007
:101B3400C2F3C2000123D4B202F03F0B02F0070249
:101B440003FA02F208AB191811F8083C13423AD010
:101B540009EB0B03A40993F9303059F823A0BAF127
:101B6400000F08D1032C2ED117F800C04CEA020C48
:101B740007F800C001E0032CF6D001A8CDF804B0AA
:101B8400FFF74EFF019B11F8181C03F5E07C11428E
:101B940050F82C00C0F3014005D0022813D1032CC7
:101BA4000BD1214604E003280DD1032C05D10221D9
:101BB4005846FFF741FF0135EDB2BAF1000F02D0EC
:101BC40021465846D0470136042EADD1A5B14FF079
:101BD400A0430299D3F8102503F540739142D3F83A
:101BE400103502D10399994206D002920393049AC4
:101BF400059B0692079393E709B0BDE8F08F00BFF9
:101C0400006000407C610040000300509807002001
:101C1400F8070020014B1B68184700BF0408002088
:101C240038B50B4B98420C4601D0002038BD00203B
:101C3400FFF746FB074B1D7915B901221C601A7189
:101C44000020FFF73FFB002DEFD01120EEE700BF8F
:101C54000020004004080020034B984201BF034BBE
:101C640000221A601A717047002000400408002006
:101C74001FB54A7D022AD3B207D0032B0FD0012B04
:101C840000D1436205B05DF804FB00238DF80430F5
:101C94000293039301A88B6889699847F2E70123AB
:101CA4008DF80430D0F83C350293D0F84C35F0E789
:101CB40013B54FF04020D0F82831DBB1194B1A4945
:101CC40000221A601B680093009B4B7D012BDAB243
:101CD40010D10B68CC68C0F84445C0F848354B684F
:101CE4000C69C0F83445C0F83835022382624B755C
:101CF400FFF7BEFF4FF04020D0F8043183B10B4B07
:101D0400094900221A601B680193019B4B7D022B39
:101D140006D103234B7502B0BDE81040FFF7A8BFFE
:101D240002B010BD284100400C08002004410040CE
:101D34002DE9F04F85B0067901939046724A1C2331
:101D440003FB062307461B7D0D469146002B40F0FE
:101D5400D5800B7C032B00F2D38004686B492046AA
:101D6400FFF75EFF002840F0CD802B68FF2B00F0CA
:101D7400B9801F2BE97C87BFDFF89CC103F01F02E9
:101D84001A464FF0A04C02F5E07209024CF82210FA
:101D94006968FF2900F0A9801F298BBF01F01F0289
:101DA4000A46DFF874C14FF0A04C02F5E0724FF020
:101DB400000E4CF822E0D5F80CC095F812E0BCF106
:101DC4001F0F8BBF0CF01F026246DFF84CA14FF0CF
:101DD400A04A02F5E0724FEA8E0E4AF822E0D5F8E6
:101DE40008E0BEF11F0F8BBF0EF01F0AF246DFF8AA
:101DF40028B14FF0A04B0AF5E07A00224BF82A20D4
:101E0400C4F808E5C4F81015C4F80C35C4F814C5B2
:101E1400C4F83425C4F83825C4F84425C4F8482542
:101E24006B7C2A7C003B18BF0123022A60D0032A62
:101E340061D0012A01D143F00203C4F854352B7D4B
:101E4400C4F85C356B7DC4F8C0350022C4F80421A5
:101E5400D4F804310393039BC4F82821D4F828311F
:101E64000293029BD4F8003243F00403C4F8003216
:101E74001C2303FB0699019BC9F8183040F2024366
:101E840089F81520C4F804333B68C9F8088043F383
:101E94000731AA7D0029A8BF01F16045C3F30733C8
:101EA4004FEA4212BBBF1A4D03F00F0705F5614517
:101EB400D2B2AABFD2B2EA5585F800234909012259
:101EC400144D03F01F0302FA03F345F821300E4BBF
:101ED4001C2101FB063602233275C4F8003505B017
:101EE400BDE8F08F4FF0FF3352E74FF0FF3162E768
:101EF40043F00403A1E743F006039EE70820EEE75E
:101F04000720ECE71120EAE70C080020B51C0000CC
:101F140014ED00E000E100E000030050F8B504799E
:101F2400069E34BBB6F5803F23D2B2F5803F20D263
:101F340021B101F06044B4F1005F1CD123B103F07E
:101F44006044B4F1005F16D10E4C677D012FFDB2E1
:101F540013D002D9023D012D11D8C4E90313012382
:101F640000682260074966606375FFF781FE002000
:101F7400F8BD0920FCE71020FAE70820F8E7032061
:101F8400F6E700BF0C0800200023435082B04358FA
:101F94000193019B02B070470A4610B54FF48E714D
:101FA400FFF7F2FF136A9168C95C136A0133136285
:101FB400C0F81C1510BD8B690A4610B54FF4847126
:101FC40023B9FFF7E1FFD0F8183510BDFFF7DCFFA8
:101FD400536AD168D0F81805C854536A0133536260
:101FE400F3E700001FB501238DF80030044BCDE961
:101FF4000110D3E900126846904705B05DF804FB70
:102004002808002030B54B48D0F8043313F4007F7F
:1020140085B005464DD0D0F82431002B49D04FF47B
:102024009271FFF7B1FF4FF40173C0F80833424BCC
:1020340093F829200AB9012242603E4902228DF810
:102044000020D1F88024C1F8802403929A69029276
:10205400DA6801920022C3E906226846D3E9001235
:1020640090473448D0F81C315BB133490A6A4B6954
:102074009A420A464AD291F82830002B46D1FFF7FB
:102084008BFF2C48D0F844318BB14FF4A271FFF789
:102094007BFF294B93F829200AB1012202609A6937
:1020A4002AB10022586AD9689A61FFF79BFF05B0EC
:1020B40030BDD5F804335B07D3D5D5F80831002BF0
:1020C400CFD01D4C1B482146FFF775FF636AA269F8
:1020D4009A422346C5D1E269E1684AB12369E360C3
:1020E4000023606AA261E3616362FFF77BFFB8E7E4
:1020F40094F829200AB901226A600E4A4FF401704B
:10210400C2F808030022586A9A61EEE74FF48E7110
:102114000848FFF739FF51690029B2D00023029122
:1021240091688DF80030019153616846D2E900133B
:102134009847A6E700200040280800201F2886BFF3
:1021440000F01F00044B4FF0A04300F5E0700222A2
:1021540043F82020704700BF000300502DE9F843E6
:10216400634B057991462C2202FB0532064692F810
:102174002A200C469846002A40F0B6805D49006843
:10218400FFF74EFD0746002840F0B08021684A1C46
:1021940010D01F2987BF584A01F01F030B464FF088
:1021A400A0420120984003F5E073C2F8080503201B
:1021B40042F823006068431C0DD01F288BBF00F039
:1021C4001F0303464C4A4FF0A04203F5E0734FF05F
:1021D400000C42F823C03368A269C3F8242594F89C
:1021E40014C0627DBCF1010F4CEA0202C3F86C25F5
:1021F400C3F81405C3F80C152BD1A168481C0DD0E5
:102204001F298BBF01F01F020A463B484FF0A04034
:1022140002F5E0724FF0000C40F822C0E068421C66
:1022240013D01F2887BF344A00F01F0C84464FF098
:10223400A0424FF0010E0EFA0CFE0CF5E07CC2F841
:1022440008E54FF0030E42F82CE0C3F80805C3F884
:1022540010152C236B4308EB0302C2F80490226987
:1022640048F80320B9F1000F2BD03068247F4FF4D5
:102274008E71FFF789FE30684FF4A271FFF784FE78
:1022840032681E4BC2F80433110B42F30732002AA2
:10229400A8BF02F160404FEA4413BABF184801F0E6
:1022A4000F0400F56140DBB2B4BF035580F800337E
:1022B40001F01F01012303FA01F15209114B43F804
:1022C400221033680422C3F800252C2303FB058362
:1022D4000022C3E9062283F829205A61012283F8E7
:1022E4002A203846BDE8F8830827FAE71127F8E7DB
:1022F400280800200920000000030050800002008C
:1023040014ED00E000E100E02DE9F04103680479F8
:10231400244D0022C3F800252C2202FB045201465E
:1023240052686AB1204AC3F8082343F30732C3F35F
:10233400043652090120B04020321C4E46F82200D7
:10234400D3F80C05D3F81485D3F80865D3F81075C1
:102354004FF0FF329042C3F81425C3F80C25C3F89C
:102364000825C3F8102501D0FFF7E8FEB8F1FF3FB8
:1023740002D04046FFF7E2FE7A1C02D03846FFF74F
:10238400DDFE731C02D03046FFF7D8FE0868FFF765
:1023940063FC2C2303FB0454002384F82A30636079
:1023A400BDE8F081280800208402020000E100E07A
:1023B4002DE9F843204B07794FF02C0909FB07342A
:1023C400054666699846002E33D100686261A160B3
:1023D40026624FF48E7184F82860FFF7D5FD2868D3
:1023E400012383602146FFF7D7FD6368A14683B9C3
:1023F4002868226A63699A4211D32B68D3F81C2196
:10240400002AFBD00122DA602C2303FB078300227D
:102414005A613046BDE8F88394F828303BB9D0F8C7
:102424001C31002BF8D04946FFF7B6FDE1E70F2633
:10243400EAE71126EDE700BF2808002000234350F7
:1024440082B043580193019B02B070471FB501232A
:102454008DF80030044BCDE90110D3E90012684631
:10246400904705B05DF804FB540800207FB5364A58
:10247400D2F82461002E46D010464FF49271FFF733
:10248400DDFF02238DF80030D2F88034C2F88034A6
:102494000393D2F83C3502932C4BDA680192002264
:1024A400C3E906226846D3E9001290472648D0F8CB
:1024B400443173B14FF4A271FFF7C0FF234B9A6903
:1024C4003AB10022C3E90622D968D0F83C05FFF7E7
:1024D400BDFF1D48D0F820319BB14FF49071FFF738
:1024E400ADFF1A4B5A6962B1D0F84C150291002223
:1024F40099688DF8002001915A616846D3E9001269
:10250400904704B070BDD2F81031002BCED04FF4F8
:1025140088711046FFF792FF0C4BD2F83C0599697D
:102524008842C3D1DC69D96864B1D2F8005225F07D
:102534002005C2F800521A699C61DA60DE61FFF777
:1025440085FFB3E79C61FAE70020004054080020AF
:102554001F2886BF00F01F00044B4FF0A04300F576
:10256400E070022243F82020704700BF00030050AF
:102574002DE9F843674B06799146242202FB063283
:10258400044692F820200D469846002A40F0BE806A
:1025940061490068FFF744FB0746002840F0B88013
:1025A4002868421C10D01F2887BF5C4A00F01F0314
:1025B40003464FF0A0420121994003F5E073C2F8AD
:1025C4000815032142F8231069684B1C0DD01F29FC
:1025D4008BBF01F01F030B46504A4FF0A04203F596
:1025E400E0734FF0000C42F823C02368AA69C3F8D3
:1025F400242595F814C06A7DBCF1010F4CEA02024F
:10260400C3F86C25C3F80C05C3F814152BD1A968BD
:10261400481C0DD01F298BBF01F01F020A463F48FA
:102624004FF0A04002F5E0724FF0000C40F822C0D9
:10263400E868421C13D01F2887BF384A00F01F0CDB
:1026440084464FF0A0424FF0010E0EFA0CFE0CF53A
:10265400E07CC2F808E54FF0030E42F82CE0C3F822
:102664000805C3F810152423734308EB0302C2F8CA
:1026740004902A6948F80320B9F1000F35D0206886
:102684002A7F4FF48871FFF7D9FE20684FF49071C8
:10269400FFF7D4FE20684FF49271FFF7CFFE206855
:1026A4004FF4A271FFF7CAFE23681D49C3F804134F
:1026B400190B43F30733002BAEBF03F1604001F065
:1026C4000F0518484FEA4212A8BF00F56140D2B284
:1026D400B4BF425580F8002301F01F01012202FA21
:1026E40001F15B09104A42F8231023680822C3F859
:1026F4000025242303FB06830022C3E906225A6132
:10270400012283F820203846BDE8F8830827FAE739
:102714001127F8E75408002071240000000300503A
:102724001003020014ED00E000E100E02DE9F041A7
:1027340003680479244D0022C3F80025242202FBF7
:102744000452014652686AB1204AC3F8082343F38D
:102754000732C3F3043652090120B04020321C4E24
:1027640046F82200D3F80C05D3F81485D3F808658D
:10277400D3F810754FF0FF329042C3F80C25C3F81C
:102784001425C3F80825C3F8102501D0FFF7E0FE8F
:10279400B8F1FF3F02D04046FFF7DAFE7A1C02D0C0
:1027A4003846FFF7D5FE731C02D03046FFF7D0FE43
:1027B4000868FFF751FA242303FB0454002384F828
:1027C40020306360BDE8F08154080020100302004B
:1027D40000E100E001F06043B3F1005F2DE9F04156
:1027E400064632D11B4B0779242505FB073598464D
:1027F4006C6964BB6A610068A9604FF49071FFF76B
:102804001DFE4FF4AC713068FFF718FE33686A6937
:10281400A968C3F84415C3F8482501229A606A6878
:1028240062B9D3F82021D3F8584152B9002CF8D01A
:102834000F24242303FB078700237B612046BDE884
:10284400F081002C18BF0F24F3E71024F6E71124BD
:10285400F4E700BF5408002084B004AB03E9070088
:102864009DF80430012B0DD1074A08481370084B1A
:10287400084A0949C01AC008000440F0030004B023
:10288400FEF74CB904B070477B080020F42E00001A
:10289400CC2E000078080020D130000070B54FF035
:1028A4008043012088B09867FEF7BDFA4FF40041D9
:1028B4000020FDF77DFF08B1FEF7D4FAFDF7A6FE70
:1028C4001F4B2048204D2149C01AC008000440F085
:1028D4000300FEF71FF90FCD02AC0FC495E8030007
:1028E4001D2384E8030005931A210423CDE9021370
:1028F400174A1848292302A90493FFF705F808B1D9
:10290400FEF7B0FA144C154D264602220021284643
:1029140000F054FA00230222237011490D4800925A
:102924002B46FFF7FBFA08B1FEF79CFA337823B184
:10293400FDF798FF0028FBD1E7E720BFF6E700BFCB
:10294400CC2E0000F42E000000310000F330000013
:102954005D280000183100007B0800207808002062
:10296400240000200369C1688B429DBF8268D2188D
:1029740002F1FF3203F1FF3394BF501A581A704723
:102984002DE9F843D0E902940546A9EB0408406810
:10299400904520440F46144404D900F0E6F9EC6055
:1029A400BDE8F8834246A4EB090400F0DEF9686848
:1029B400224607EB0801F0E72DE9F843C56806460F
:1029C400894617464FF000083469B3687068A54219
:1029D40028BFE418013C621B5C1BBC4228BF3C4678
:1029E400944228BF144649462844224600F0BDF9C3
:1029F400B3682544AB4208BF00253F1BA044A14453
:102A0400F560E1D14046BDE8F883000010B5114CF3
:102A1400114AA2610223C4E90433104BE361A264A6
:102A24004FF400730E4A0F492362E264002310221C
:102A3400E01DA3626362E362A3656365E3652265E7
:102A440000F0EFF90849204600F0EBF92023A371C8
:102A540010BD00BF7C0800202031000004090020C4
:102A6400F4080020293100002D310000F8B5184C7D
:102A7400182300FB033503FB00402544C46A012CE2
:102A84000F4616460FD0022C1AD0F4B92846FFF789
:102A940069FF864205D8324639462846FFF770FF5B
:102AA40034462046F8BD2846FFF75CFF864234468C
:102AB40028BF0446224639462846FFF761FFF0E75F
:102AC4002846BDE8F840FFF777BF0024E9E700BFD8
:102AD4007C080020FFF79ABF054B1B68082B01BF39
:102AE400044B1868B0FA80F0400918BF0020704702
:102AF400300100103401001008B54FF0804300226B
:102B0400C3F80C21C3F81021C3F838254FF08052C4
:102B140003F54043D2F80414C3F82015D2F808147E
:102B2400C3F82415D2F80C14C3F82815D2F81014DD
:102B3400C3F82C15D2F81414C3F83015D2F81814AD
:102B4400C3F83415D2F81C14C3F84015D2F8201475
:102B5400C3F84415D2F82414C3F84815D2F828143D
:102B6400C3F84C15D2F82C14C3F85015D2F830140D
:102B7400C3F85415D2F83414C3F86015D2F83814D5
:102B8400C3F86415D2F83C14C3F86815D2F840149D
:102B9400C3F86C15D2F84424C3F87025FFF79CFFE2
:102BA40010B1384B384A1A60FFF796FF18B1374B0B
:102BB400FB22C3F81825FFF78FFF48B13449354B82
:102BC4000A681B6822F00F0203F00F0313430B6023
:102BD400FFF782FF18B1304B4FF400721A604FF0C8
:102BE4008043D3F80024D20744BF6FF00102C3F836
:102BF40000242A4AD2F8883043F47003C2F888309B
:102C0400BFF34F8FBFF36F8F4FF01023D3F8002221
:102C1400002A03DBD3F80432002B2FDA204B0122E5
:102C2400C3F80425D3F80024002AFBD04FF0102267
:102C34001221C2F80012D3F80024002AFBD04FF06E
:102C440010231222C3F80422154B1A46D3F8001499
:102C54000029FBD00021C3F80415D2F80034002B5E
:102C6400FBD0BFF34F8F0D490E4BCA6802F4E062EC
:102C74001343CB60BFF34F8F00BFFDE70A4B0B4AF2
:102C84001A6008BD8C5600404881030000F00040E3
:102C9400E40E0040580200104096024000ED00E0AF
:102CA40000E001400400FA05280000200090D00351
:102CB4007F2805D8034B185C034B5B5C18407047B6
:102CC4000020704740310000C0310000A0F16103D2
:102CD400192B98BF20387047A0F14103192B98BFD6
:102CE400203070477F2805D8034B185C034B5B5C8E
:102CF400184070470020704740310000C031000088
:102D0400A0F16103192B98BF20387047A0F141034B
:102D1400192B98BF203070477F299ABF017001207A
:102D24006FF02E0070475AB10A787F2A0AD800B192
:102D34000260002119605960501A18BF01207047C1
:102D4400002070476FF02E007047000008B5034B59
:102D54005B689B681B68984708BD00BF2C00002077
:102D640008B50921FFF7F2FF08BD844640EA0103D4
:102D740013F0030F18D18446202A0BD32DE9F00752
:102D8400B1E8F807A0E8F807A2F12002202AF7D258
:102D9400BDE8F007042A07D351F8043B40F8043B8C
:102DA400A2F10402042AF7D2002A05D011F8013B4B
:102DB40000F8013B013AF9D1604670478446002A85
:102DC4002DD010F0030F04D000F8011B013A26D0D7
:102DD400F7E7C9B241EA012141EA0141202A12D3AD
:102DE400A2F120022DE9F0030B460C460D460E46D7
:102DF4000F4688468946A0E8FA03203AFBD2BDE88C
:102E0400F00320320BD0042A05D340F8041B043A03
:102E140005D0042AF9D200F8011B013AFBD160461F
:102E24007047024610F0030F16D111F0030F13D1AF
:102E34002DE9F0004FF001374FF0803351F8044B87
:102E4400A4EB070525EA04051D4002D142F8044B12
:102E5400F4E7A1F10401F0BC11F8013B02F8013BD5
:102E6400002BF9D1704700F1010110F0030F11D0CC
:102E740010F8012B002A23D010F0030F0AD010F809
:102E8400012B002A1CD010F0030F03D010F8012BE3
:102E9400002A15D02DE970004FF001324FF0803335
:102EA40050F8044BA4EB020525EA04051D4000D1AB
:102EB400F6E7A0F1040070BC10F8012B002AFBD146
:062EC400A0EB01007047C5
:102ECC00B630000000000000BD3000000000000023
:102EDC00C130000000000000C630000000000000FF
:102EEC00CB30000000000000A22F00000000030304
:102EFC00382F000000000000812F0000140000207B
:102F0C00642F000000000000702F00001C00002047
:102F1C00C40000208C01002094010020CC00002073
:042F2C001800000089
:102F30000338FDD870470000D903000045040000A5
:102F4000D5030000FFFFFFFFFFFFFFFFFFFFFFFFB5
:102F5000FFFFFFFF00000000000000000000D6019E
:102F60000601000079050000DD05000019050000DC
:102F7000756172745F6C6F675F6261636B656E64CD
:102F8000007274745F6C6F675F6261636B656E641F
:102F9000004261636B656E647320666C757368656F
:102FA0006400617070000000B80500207F00000020
:102FB000380600201B5B306D001B5B313B33316DED
:102FC0000025734C6F67732064726F7070656420A6
:102FD0002825642925730D0A003C25733E2025739E
:102FE0003A2000202530327800202020007C002567
:102FF00063001B5B313B33306D001B5B313B333275
:103000006D001B5B313B33336D001B5B313B333455
:103010006D001B5B313B33356D001B5B313B333641
:103020006D001B5B313B33376D007761726E696EEB
:103030006700696E666F0064656275670000000076
:10304000B42F0000F22F0000B92F0000FA2F00006B
:10305000023000000A300000123000001A30000078
:103060002230000000000000823000002A30000002
:1030700032300000373000000D0E0F1046617461D1
:103080006C206572726F720053797374656D207273
:10309000657365740000000000000000000000007F
:1030A0000338FDD87047303132333435363738394C
:1030B0004142434445464750494F544500505253BE
:1030C0000053504953005541525400554152544504
:1030D00000205472616E7366657220636F6D706C50
:1030E000657465642E2052656365697665643A206F
:1030F00025730053504953206578616D706C6500ED
:10310000FF000000FF000000FF000000FF000000C3
:1031100000000000FFFF060000400040000000002B
:103120005465726D696E616C00525454005345478A
:103130004745520043000000504F534958000000DB
:103140002020202020202020206828282828202017
:10315000202020202020202020202020202020206F
:103160004810101010101010101010101010101027
:1031700084848484848484848484101010101010C7
:103180001081818181818101010101010101010120
:1031900001010101010101010101011010101010D4
:1031A00010828282828282020202020202020202F1
:1031B0000202020202020202020202101010102099
:1031C0000007032004170201085710408000000088
:1031D00034310000383200004C33000053756E006B
:1031E0004D6F6E0054756500576564005468750036
:1031F0004672690053617400000000004A616E006D
:10320000466562004D617200417072004D61790047
:103210004A756E004A756C00417567005365700011
:103220004F6374004E6F7600446563000000000039
:10323000414D00504D000000703300006C33000021
:103240006C3300006C3300006C3300006C33000002
:103250006C3300006C3300006C3300006C330000F2
:10326000FFFFFFFFFFFFFFFFFFFFFFFFFFFF00006C
:10327000AC320000DC310000E8320000FC3100001C
:103280003032000090320000403300009C320000D9
:10329000256D2F25642F257900000000256120254C
:1032A00062202565202554202559000053756E6441
:1032B0006179004D6F6E6461790054756573646166
:1032C00079005765646E657364617900546875723E
:1032D0007364617900467269646179005361747541
:1032E00072646179000000004A616E756172790054
:1032F0004665627275617279004D61726368004162
:103300007072696C004D6179004A756E65004A758E
:103310006C79004175677573740053657074656DE1
:10332000626572004F63746F626572004E6F7665FE
:103330006D62657200446563656D626572000000D0
:1033400025483A254D3A255300000000B52C0000D1
:10335000D12C0000DD2C0000E92C0000052D000020
:10336000112D00001D2D00002B2D0000000000007D
:023370002E002D
:103374000000000000200040000000000020004089
:103384000000000000000000FF000000000000003A
:10339400FF000000410000000090D003D031000085
:1033A400D0310000D0310000D0310000D031000015
:040000030000037581
:00000001FF
