:1000000000000420750300005D0300005F03000092
:1000100061030000630300006503000000000000AE
:100020000000000000000000000000006703000066
:1000300069030000000000006B0300006D03000076
:100040006F0300006F030000351D0000D11D00008C
:100050006F0300006F030000891B00006F030000A6
:100060006F0300006F0300006F0300006F030000C8
:100070006F0300006F0300006F0300006F030000B8
:100080006F030000F10F00006F0300006F0300001A
:100090008D1000006F0300006F0300006F0300006D
:1000A0006F0300006F0300006F0300006F03000088
:1000B0006F0300006F03000000000000000000005C
:1000C0006F0300006F0300006F0300006F03000068
:1000D0006F0300006F0300006F0300006F03000058
:1000E0006F0300006F0300006F03000000000000BA
:1000F000000000006F030000000000006F0300001C
:1001000000000000000000000000000000000000EF
:1001100000000000000000000000000000000000DF
:1001200000000000000000000000000000000000CF
:1001300000000000000000000000000000000000BF
:1001400000000000000000000000000000000000AF
:10015000000000000000000000000000000000009F
:10016000000000000000000000000000000000008F
:10017000000000000000000000000000000000007F
:10018000000000000000000000000000000000006F
:10019000000000000000000000000000000000005F
:1001A000000000000000000000000000000000004F
:1001B000000000000000000000000000000000003F
:1001C000000000000000000000000000000000002F
:1001D000000000000000000000000000000000001F
:1001E000000000000000000000000000000000000F
:1001F00000000000000000000000000000000000FF
:10020000354936480A1A02D0072291438D463449AF
:1002100034480A1A06D00722914381F30988022242
:1002200082F3148830483149314A00F044F83148AB
:100230003149324A00F03FF831483249324A00F041
:100240003AF832483249334A00F035F832483349F7
:10025000334A00F030F833483349344A00F02BF881
:1002600033483449344A00F026F8344834490022EF
:1002700000F02CF833483449002200F027F83348C6
:100280003349091A082902DB002202604160314A21
:1002900090471F481F49884205D00268043003B4C4
:1002A000904703BCF7E700208646EC46002000217B
:1002B000294A9047FEE7884207D0521A05D00378B2
:1002C00001300B700131013AF9D17047884202D0F8
:1002D00002700130FAE770470000042000E00320BC
:1002E00000000420000004206C3300000000002007
:1002F0003C000020D4030000D4030000A82E00001E
:100300006C33000000000020000000200C2F0000D3
:100310000C2F00000C2F00000C2F00000C2F0000F1
:100320000C2F00000C2F00000C2F00006A3300007F
:10033000A83300003C0000203C0000203C000020CE
:10034000200B0020200B0020200B0020200B002081
:10035000202B00209D0300003D290000FEE7FEE762
:10036000FEE7FEE7FEE7FEE7FEE7FEE7FEE7FEE765
:10037000704700BF1048804710484FF0070188437E
:1003800085460F4880470F48016841F470010160BD
:10039000BFF34F8FBFF36F8FFFF732BF0A480B4990
:1003A0000B4A884207D0521A05D0037801300B70EF
:1003B0000131013AF9D170477103000000000420B7
:1003C000412B000088ED00E00C2F00000000002011
:0403D0000000002009
:1003D4007047000007B5044B0093044A402300F023
:1003E40032F803B05DF804FBF50300003D00002083
:1003F4002DE9F84388461446B2B10F4B0F4E03253E
:10040400002743F00109224608EB0701002002F00F
:100414004FFB0744241A48B933782BB14FF47A4080
:10042400C847013D02D13570BDE8F883012333701C
:10043400002CE8D1F8E700BF102F00003C0000209A
:10044400704702F069BBF0B595B01D4616460846E4
:100454000C4601F075FA1A9B0D93CDE90865002549
:100464002B46082205A920460A958DF82C500C9598
:1004740001F083FA079B0293069B03939DF81430C3
:100484008DF8115003F00302012A1DD1BDF8142088
:10049400059DC3F3C203C2F383168DF81030B20076
:1004A40008230EA9204601F068FAC5F3952508AB88
:1004B4000093324602AB0EA9284600F025FC2046E4
:1004C40001F042FA15B0F0BD022AF8D1BDF8165079
:1004D400C3F3C203C5F389158DF810300827082D1E
:1004E4002E4628BF08263B4632460EA9204601F078
:1004F40044FAAD1B08AB02AA31460EA8374400F0FB
:1005040067FC002DEBD1DAE7014B01221A7070472A
:10051400BE0000207047000070B5124D06460FCD96
:1005240088B06C460FC495E80F00002E84E80F00D5
:100534004FF0FF334FF00602CDE90023CDE902333B
:10054400094A0A484FF0EB7308BF00226946069334
:1005540001F0AAFA08B100F0D9FC054B1E7008B0EE
:1005640070BD00BF242F00000D0500000000002016
:100574007D00002007B5044B0093044A4023FFF795
:1005840062FF03B05DF804FB950500007E000020C7
:1005940038B50D4B0D4D002018700D4804782D5DB5
:1005A400D2B21C4665B1043002F056F908B100F02D
:1005B400ADFC084B1A7812B12378002BFBD038BD60
:1005C4000C3001F037FFF1E7BE000020A407002043
:1005D400000000207D00002008B50848084A037880
:1005E400D35C3BB1043002F0E3F8BDE808400020DE
:1005F400FFF792BF0C3001F0C9FEF6E700000020BF
:10060400A40700200120FFF787BF000038B50A4D7A
:10061400FFF717FF0421284600F0DEFA074B0124F8
:100624005C71FFF7EFFF042105F1100000F0D4FA2C
:10063400034B5C7138BD00BFD82E000014000020AD
:100644001C000020037813F0040216D003F0030307
:10065400012B03D0022B09D0012070470A680088BF
:100664000232C0F3831002440A60F5E70B68428843
:10067400023303EB92130B60EEE710467047000061
:100684002DE9F04F044685B0861C00200F46154620
:1006940000F06AFE454801683960D0E9013213442C
:1006A40001335B1A824600F21C4700F5836900F2AD
:1006B4001448B3421BD30020002D72D004F00F0362
:1006C4009B0143F0050363F30F00DAF80020DAF826
:1006D40008301340033316444AF823000020CAF8B4
:1006E400006000F043FE012005B0BDE8F08F012159
:1006F400384600F060FE484600F075FE404600F0C3
:1007040072FEDAF80400DAF808B0009000EA0B0090
:1007140003300AEB80006946FFF794FF009B50BB4F
:100724000BEA03020AEB820203F1020CD268019283
:10073400013303EA0B0B0AEB8B0B02F00302012AD1
:10074400DBF80C10CDF800C023D0022A16D0834663
:10075400404600F04BFE10B1009BCAF804305946E5
:10076400384600F028FEDAE901231344DAF80020C1
:1007740001339B1A9DE70BEA0300C9E7BDF8063075
:10078400C3F3891303334FEA114B0CEB9303009328
:10079400DEE7BDF80430C3F383134FEA114B63441F
:1007A400F5E7A40544F006008FE700BF90010020A0
:1007B4000B4B0C48FF2210B59A600022C3F8182492
:1007C400C3E90022C3F8142483F8202401F071F84B
:1007D400044610B9044801F0DAF8204610BD00BF01
:1007E40090010020F82E0000882F000030B50A4C3C
:1007F40071B10A4A0A49121BD20800239A4201D154
:10080400002030BD31F82350854202D00133F5E792
:10081400034654F83300F4E7A82E0000D82E000055
:1008240000000020094B013903EBC000032909D85B
:10083400DFE801F00A0204060420704700797047DB
:10084400407970470020704702207047A82E0000AE
:10085400034BD3E90030C31A58425841704700BFD4
:10086400900100202DE9F04385B0FFF7F1FF064623
:10087400002840F0F5807B4DC5F81804BFF34F8F76
:100884006B68AC6800932340033305EB830069462F
:10089400FFF7D8FE009B18B1D5F81824002A5FD0C2
:1008A40004EA0302991C013305EB8202234005EBA1
:1008B4008303D268DB68029302F00303022B0192E4
:1008C400009160D1BDF806306748C3F38917502FF3
:1008D400B84628BF4FF0500868F38F1308F1080199
:1008E400ADF8063000F0FDFF0646002800F0A380B6
:1008F40001F026F80023082201A9304601F033F85C
:10090400009924EA01020132B8EB820F4FEA820314
:1009140032D95FFA88F85BB32140DCB2A8EB040853
:1009240003315FFA88F9A046504C05EB8101082396
:100934004246304601F017F834B108F108034A463C
:100944002146304601F00FF8009B033703EB97076D
:100954000097D5F81834002B49D1D5F8104459E044
:100964002A689A428FD86A60304605B0BDE8F083A1
:100974003E491C469946DAE70C40E11C08234246EE
:1009840005EB8101DDE7012B55D1BDF80430364874
:10099400C3F38311062928BF062161F389130231A9
:1009A4008900ADF8043000F09CFF0646002842D0D0
:1009B40000F0C6FF0023082201A9304600F0D3FF4F
:1009C4000027BDF80420C2F38312BB00974203F151
:1009D4000803BED200994A1C21400331009205EB62
:1009E40081010422304600F0BEFF0137E9E73046BA
:1009F40000F0AAFFFFF72CFF80F00100C6B2B3E7B6
:100A0400E3685B7923B1236831461B682046984725
:100A1400E3681C68002CF3D1304600F095FF2046B3
:100A240000F0A2FCD5F818340BB9009B6B600020D1
:100A340000F09CFCDEE7D5F8104454B90C4B0D488B
:100A44000D49C01AC008000440F0020000F062F82A
:100A5400D0E7236820469B689847E3681C68ECE766
:100A6400002681E790010020F82E00009C01002060
:100A7400A82E0000D02E0000712F00002DE9F74FA2
:100A8400224D04460F46924601A901221846D5F884
:100A940008909B46FFF7F4FD20B3019E4FF0000839
:100AA400B21CD84508EB020126D11948002100F0F8
:100AB4005FFC80F31000000440EA1440E400731C5F
:100AC40004F0380403EA090306EA090644F00104C1
:100AD40005EB8303033644EA881444EA8724D86088
:100AE40045F8264095F820341BB1FFF7BBFE0028DB
:100AF400FBD103B0BDE8F08F09EA010105EB8101E8
:100B04005AF82830CB6008F10108CAE790010020A8
:100B1400AC05002000231A46FFF7B0BF2DE9F347C8
:100B24002B4D0446D01C8946164601A90022800894
:100B3400AF68FFF7A5FDA8B3DDF80480AB6808F142
:100B440002000190013338401B1AB6EB830F00F109
:100B540003004FEA830A05EB80002DD8324649464C
:100B640002F025F91B48002100F002FC80F310007C
:100B740008F101033B4007EA0807220C05EB830355
:100B8400033742EA0040E400D86004F0380455F822
:100B9400273044F0020444EA865203F47C131A43D7
:100BA40045F8272095F820341BB1FFF75BFE002899
:100BB400FBD102B0BDE8F0875246494602F0F7F88F
:100BC400A6EB0A0209EB0A0105F10C00C8E700BF15
:100BD40090010020AC05002030B50F49D1F8102455
:100BE40003460020144634B9DC6820714AB9C1F8C0
:100BF4001034226030BDE4682579854206D024682B
:100C0400F1E7D268116821601360F3E701300A2824
:100C1400E8D14FF0FF30EDE790010020094A38B5E4
:100C24000123D2F8104482F820341D4604B938BD9B
:100C3400E3685D71236820465B689847E3681C6835
:100C4400F4E700BF9001002007B503460846197A6F
:100C5400052911D05B7A2BB1094A0A49019000F0A9
:100C64001FFC01980849019000F01AFC019803B098
:100C74005DF804EB00F009BC002AF8D0F2E700BFED
:100C8400942F0000992F0000B92F000030B5C388BD
:100C940085B004460D4633B1144A00921449154AEE
:100CA400284600F0FDFB217A05291DD0637A4BB15B
:100CB400A088FFF7B7FD104B104953F820202846B1
:100CC40000F0EEFB227A0E4BA08853F82220039208
:100CD4000021FFF78BFD039A0A490346284605B015
:100CE400BDE8304000F0DCBB05B030BD942F0000FF
:100CF400A42F00009C2F000020300000992F00003A
:100D040044300000BC2F00002DE9F04385B01F469D
:100D14000C9D002395F80C902B7306460C469046C8
:100D240029463846FFF7B2FFB8F1060F09D8DFE8C5
:100D340008F00412181F283340003146284600F0FA
:100D4400AFFB002229463846FFF77EFF85F80C905A
:100D540005B0BDE8F08322683146284600F0A0FBC8
:100D6400EFE7D4E900233146284600F099FBE8E791
:100D7400A36800933146D4E90023284600F090FB91
:100D8400DFE7E3680193A36800933146D4E90023C5
:100D9400284600F085FBD4E723690293E3680193B6
:100DA400A36800933146D4E90023284600F078FB79
:100DB400C7E76369039323690293E3680193A36814
:100DC40000933146D4E90023284600F069FBB8E7D4
:100DD40008292DE9F74F80460E4617461C463CD895
:100DE400002593F80C901D7319461046FFF74EFF2B
:100DF400DFF888A0DFF888B0AE4231D918F80520B2
:100E04005946204600F04CFB0135082DF4D1194910
:100E1400194DDFF870A0204600F042FB4FF0000BA4
:100E24005E4522D918F80B207E2A05D81046019277
:100E340001F0B8FF019A00B92E225146204600F075
:100E44002FFB0BF1010BBBF1080FE9D10122214665
:100E54003846FFF7F9FE84F80C9003B0BDE8F08F34
:100E64005146204600F01CFBCEE72946204600F000
:100E740017FBE6E7D02F0000CE2F0000CC2F000098
:100E8400C62F0000D22F0000074B1B5C1F2B86BF10
:100E9400064903F01F034FF0A041012202FA03F3B5
:100EA400C1F80835704700BF5830000000030050F7
:100EB40008B50020FFF7E8FF0120FFF7E5FF022057
:100EC400FFF7E2FFBDE808400320FFF7DDBFC207DC
:100ED40010B504460CD54FF0A0430322C3F83427C1
:100EE400C3F83827C3F83C27C3F84027FFF7E0FFCF
:100EF400A3070AD54FF0A0430C22C3F82C27C3F84C
:100F04003027C3F86027C3F8642710BD1FB500213C
:100F1400039001AA44F20100CDE9011100F004F8A4
:100F240005B05DF804FB000010B572B6FFF776FE5D
:100F3400FFF798FC0028FBD1104B114C1149E41A1F
:100F4400E408240444F00100FFF7E4FD0E4B1B68A1
:100F5400DB0700D500BE0D4944F00200FFF7DAFDBF
:100F6400BFF34F8F0A490B4BCA6802F4E062134384
:100F7400CB60BFF34F8F00BFFDE700BFA82E00007A
:100F8400D02E00005C300000F0ED00E0683000007E
:100F940000ED00E00400FA05024B4FF43C6043F01E
:100FA400010318478030000038B50C4B0C4C4FF44B
:100FB4000032C3F8802001254FF48033C4F848334D
:100FC400C4F808336560FFF7E7FF064BA56000240B
:100FD4001C60FFF7E1FF044B1C7038BD00E100E02A
:100FE400001001406807002059070020F8B51F4B86
:100FF4001F491B680025C1F84051C1F84451C1F88C
:101004004851C1F84C51C1F80051C1F804514BB3D7
:10101400D1F8044517490968641A24F07F442F461F
:101024001A68A24209D8A41A15441A7CDE691AB1B6
:10103400D3E905201F749047AEB90F4A0F4B1178BE
:101044001B788B4205D10133DBB2022B08BF00238E
:10105400137012780A4B43F822500A4B4FF4801253
:10106400C3F80021F8BD3346DAE700BF6C0700205F
:101074000010014068070020650700206407002075
:101084005C07002000E100E02DE9F04FA24AA349EB
:1010940013780978A24D994285B03CD00133DBB274
:1010A400022B08BF002313709E4912789E4B0F68D1
:1010B40053F822003B1823F07F4300220B602B6877
:1010C40016461446944613B942B12B6006E01968DB
:1010D40081420ED902B12B60091A196001272B68CD
:1010E400DFF84CA201934FF00008BEB9DFF848B214
:1010F40062E0401A0C44D968D3F81CE0C3F800C07D
:1011040031B13A1922F07F42C3E90121DE611E4662
:1011140073460122D7E700263746E0E73446F669EE
:10112400804A63681268DFF814C2A068991A21F033
:101134007F41614500F2A8800144216001222274AC
:101144002A680023C4E90133E361002A40F0A58042
:101154002C60CAE79BF802105A1CD2B291428BF859
:10116400002004BF00228BF80020182202FB03B3E6
:101174002A6819799C68022977D0032900F08180B4
:10118400012919D1207CB8B9D3E90312A2605A69A4
:10119400E2609A69654BA2611B78002B0CBF0B4679
:1011A40003466360BCE78C4200F094808946C969B9
:1011B4000029F8D1002323749BF800309BF8012008
:1011C4009A42C7D12B68B8F1000F04D1019A9A4210
:1011D40001D1002F43D0002B79D0D3F800A0544D77
:1011E400504BD5F804751C68DFF854813E1B98F801
:1011F400003026F07F4603369BB94FF48033C5F8A0
:101204004433C5F804334B4B4FF400324FF001091B
:10121400C3F880211A60C5F80090FFF7BDFE88F876
:101224000090B2452CBF5444A41924F07F44C5F85F
:101234004045D5F80435DB1B23F07F43E41B03331F
:1012440024F07F44A3420AD9D5F80435C5F84035C3
:10125400FFF7A2FE374B4FF40032C3F80021334BA3
:1012640000221A7005B0BDE8F08F114691469FE741
:101274001174D2690123002AFAD1002B9CD02A6070
:101284009AE700231946F6E7D31A23F07F438342F3
:1012940034BFC31A0023236050E7216813689942BE
:1012A40013D8591A1160E26152E7091AD8691A462B
:1012B40038B1034618688842F7D3401A18601846B4
:1012C40013462160E061DC610FE71346F2E7FFF7A4
:1012D4006BFEC4E74C4511D1D3692B6073B9DFF8B9
:1012E40044E00120CDE90212CAF80800CEF800302B
:1012F4000E4B1870FFF750FEDDE902120B68C96946
:10130400C9F81C1011B1086803440B602B689342A0
:1013140018BF4FF001084DE764070020650700205F
:101324006C070020680700205C0700205807002095
:101334000010014000E100E04C060020FEFF7F00A9
:101344005907002072B6024A1368013313607047CC
:1013540070070020034A1368013B136003B962B6A7
:10136400704700BF70070020FFF7ECBFFFF7F2BF24
:1013740010B5034653E8000F0A4643E8002494F0EE
:10138400000FF7D110BD10B5034653E8002F42EA11
:10139400010043E8000494F0000FF6D110BD10B52D
:1013A400034653E8000F00EA010243E8002494F0E6
:1013B400000FF6D110BD10B5034653E8002F02EB21
:1013C400010043E8000494F0000FF6D110BD10B5FD
:1013D400034653E8002FA2EB010043E8000494F015
:1013E400000FF6D110BD0121FFF7CDBF0021FFF79B
:1013F400D6BF10B590B1D0E9012301689B1ADBB2C6
:101404000A60013BDBB2FF2B026802D1002010719D
:1014140010BD11684C1C14600B70F2E70E20F7E746
:1014240038B504460020FFF79FFF226863681168FF
:10143400994213D9481E106011F8015CE368218AAF
:1014440001FB0535A36811791B1ADBB2994200D25E
:1014540013710020FFF78AFF284638BD0025F8E7FE
:1014640038B5054600200C46FFF77EFF2A6813684E
:10147400591C1160E968641A298AB4FBF1F41C70E0
:10148400BDE838400020FFF771BF826810B50446FC
:101494002AB143690168006998470023A36010BD1D
:1014A4000EB403B5039921B104AB01AA019300F072
:1014B4006FF802B05DF804EB03B07047826830B493
:1014C4000468551C8560A154D0E901329A4202D3C4
:1014D40030BCFFF7DABF30BC704700002DE9F84F8D
:1014E4009846DDE90A43154682460F460A464FF000
:1014F4000109AA420FD2C14538BFC14613F0010BFE
:1015040001D16CB900240126B8F1010F1BD908F1EF
:10151400FF386E43F8E709F10109B2FBF5F2E8E799
:101524009B070ED5B8F1000F0CBF30262026A1452D
:10153400E9D2013C31465046FFF7C0FF002CF6D1FA
:10154400E0E72026F3E7B7FBF6F39D42E1D9DFF8A5
:101554003C80B7FBF6F3504618F8031006FB1377EC
:10156400FFF7ACFF3346AB42B6FBF5F6F1D2BBF165
:10157400000F02D00CB1A14501D3BDE8F88F2021A2
:101584005046013CFFF79AFFF4E700BF86300000A5
:101594002DE9F74F054617468846002900F0428199
:1015A40018F8011B49B92B7B002B00F03B8128461E
:1015B40003B0BDE8F04FFFF768BF252940F0B780BE
:1015C400002698F800302D2B424608F1010823D05C
:1015D400302B24D02B2B25D000242A2B02F10101FF
:1015E40023D13B681A1D1B683A601C440A461378D1
:1015F4002E2B26D101324FF0000A104610F8011BA1
:10160400A1F1300CBCF1090F1DD80A2303FB0A1306
:10161400A3F1300A0246F0E746F00106D1E746F0AE
:101624000206CEE746F00406CBE711F8013CA3F12D
:1016340030000928DBD80A2202FB0434303C0A4675
:10164400CBE74FF0000A12F8011B01F0FB006828F9
:101654009046F8D0782909D86F290CD8632962D02C
:1016640022D8252963D0582900F0888098F80030C2
:10167400002B95D197E770390829F7D801A353F8BF
:1016840021F000BF0318000071160000711600005D
:1016940091170000711600006F170000711600000A
:1016A4007116000081170000642901D06929DDD179
:1016B4003A68D2F80090111D89EAE9723960A2EB08
:1016C400E9724FF0010B092A35DCD34538BFD34604
:1016D4002CB1B9F1000F01DB720700D5013CB3074F
:1016E40002D5BAF1000F03D0F00701D44CBB00249B
:1016F400B9F1000F2DDAC9F100092D212846FFF7B1
:10170400DDFE06F00302022A04D1BAF1000F01D172
:101714001CBB0024CDE9004653460A22494628460C
:10172400FFF7DCFEA2E73B681A1D19783A602846E9
:10173400FFF7C4FE9AE70A230BF1010BB2FBF3F2A5
:10174400C1E7A345D4D220212846013CFFF7B6FEC9
:10175400CCE77107D5D52B21D0E7A345DAD23021C8
:101764002846013CFFF7AAFED2E73968CDE90046D6
:101774000A1D3A6053460A220968D0E739680A1DEF
:101784003A60CDE9004653461022F5E73B681A1D3E
:101794003A6016F00106D3F8009028D1B9F1000F91
:1017A40003D0484601F04EFB0646B44200D904BBC0
:1017B40009F1FF3919F8011F00293FF457AF2846F2
:1017C400FFF77CFEF6E728460136FFF777FE19F8A7
:1017D40006100029F7D1A642BFF448AF002C3FF40D
:1017E40045AF20212846013CFFF768FEF3E70026B9
:1017F400EDE720212846013CFFF760FED5E73B6872
:101804001A1D3A60302128461C68FFF757FE7821DC
:101814002846FFF753FE00220823CDE90032214673
:1018240010227CE703B0BDE8F08F00BF2DE9F84F2C
:10183400B0F806A04579D2F800B09DF828900AFBCC
:1018440005F5043D88460BEB0301A94203F10404AA
:1018540088BFA5EB030BB4FBFAF607460AFB164454
:10186400C2F800B04EB9AAEB04055D4528BF5D4639
:10187400BBF1000F04D1BDE8F88F3F68013EF1E7EA
:10188400043408EB06003C442A46B9F1000F0DD09D
:101894002146ABEB050B01F08AFADA452E443F688A
:1018A40055464FF0000428BF5D46E1E70146204657
:1018B400EFE7FFF79EBDF8B546790146721E05466F
:1018C400002393422D6803D30024A64202D8F8BD16
:1018D4000133F6E70F682846FFF7C2FD01343946A5
:1018E400F3E72DE9F843068ACD1C0746FFF798FD78
:1018F400043E35440446B5FBF6F5F0B14FF480736D
:10190400EDB28380C680013D076081464FF0000838
:10191400A84512D23846FFF783FD064648B16379DD
:101924000133637108F10108C9F8000007608146BA
:10193400EEE72046FFF7BFFF34462046BDE8F883B4
:1019440001210430FFF737BD10B5012104460430EE
:10195400FFF73DFD10F0FF0F04D12046BDE8104015
:10196400FFF7A9BF10BD1FB503920022009203AA7E
:10197400FFF75CFF05B05DF804FB1FB5039201227D
:10198400009203AAFFF752FF05B05DF804FB8368D9
:1019940000225A60C3E904229A60DA601A60704730
:1019A4007FB503788DF804304368029383688DF81B
:1019B4000C30C36804930369064A8DF81430064B4F
:1019C40001A853F8213052F82110984707B05DF868
:1019D40004FB00BF7407002084070020F0B505460F
:1019E400174615F804CB124A42F82C70114A42F8F3
:1019F4002C30114B0C460FCB85B06E4686E80F0099
:101A04002368009323798DF8053063798DF80630C7
:101A1400A3680293002FA389084AADF80C3008BFCD
:101A24003A4663463146284600F0FCF905B0F0BD5D
:101A3400840700207407002098300000A5190000D6
:101A44001FB503788DF800304368019383688DF8DF
:101A54000830C368054A0393054B684653F82130A0
:101A640052F82110984705B05DF804FB9407002054
:101A74009C0700201FB503788DF80030436801935C
:101A840083688DF80830C368054A0393054B68469C
:101A940053F8213052F82110984705B05DF804FB43
:101AA400940700209C070020F0B5194B90F800C063
:101AB400DFF86CE043F82C20164B16460A6943F80D
:101AC4002C204B7F0EF80C300C4607460FCC89B007
:101AD4006D460FC594E80F0085E80F001EF80C3022
:101AE400CDF810C04BB1002E0B4A694608BF3246F0
:101AF400381D00F07FFD09B0F0BD002E074A69468D
:101B040008BF324607F10C0000F06AFBF3E700BFA0
:101B14009C07002094070020451A0000791A000051
:101B2400A407002000F1804000F5C040002382B0EB
:101B3400036003680193019B02B0704703681F2B85
:101B440083BF03F01F03036001484FF0A0407047B8
:101B54000003005007B5019001A8FFF7EFFF019BB8
:101B640000EB8300D0F8003723F44033C0F800378B
:101B7400D0F8003743EA0141C0F8001703B05DF81C
:101B840004FB00002DE9F04F002489B0CDE90244A4
:101B9400624D4FF48072012102F1804303F5C0438A
:101BA40090B21B68012B06D1D5F804330B4202D046
:101BB400FFF7B8FF0C430432B2F5907F4FEA4101BE
:101BC400EAD1574B1B68012B0ED14FF4BE70FFF7BF
:101BD400A9FF4FF0A04344F00044D3F8103502931A
:101BE400504BD3F81035039314F0FF0F1AD04E4F17
:101BF40000250126344210D0AB0003F1804303F5E5
:101C0400C043D3F81005D3F8101557F8253023B185
:101C1400C1F30141C0F3052098470135082D4FEA6F
:101C24004606E7D1002C75DA04AF002304937B60E9
:101C34004FF0FF33CDE90633DFF8EC90DFF8EC80AA
:101C44000026354618F9012B531C4AD0C2F3C200B2
:101C54000123D4B202F03F0B02F0070203FA02F2AE
:101C640008AB191811F8083C13423AD009EB0B03DE
:101C7400A40993F9303059F823A0BAF1000F08D120
:101C8400032C2ED117F800C04CEA020C07F800C050
:101C940001E0032CF6D001A8CDF804B0FFF74EFF05
:101CA400019B11F8181C03F5E07C114250F82C003C
:101CB400C0F3014005D0022813D1032C0BD12146D7
:101CC40004E003280DD1032C05D102215846FFF767
:101CD40041FF0135EDB2BAF1000F02D0214658465A
:101CE400D0470136042EADD1A5B14FF0A0430299DF
:101CF400D3F8102503F540739142D3F8103502D17F
:101D04000399994206D002920393049A059B069282
:101D1400079393E709B0BDE8F08F00BF006000406F
:101D24007C61004000030050A80700200808002040
:101D3400014B1B68184700BF1408002038B50B4B33
:101D440098420C4601D0002038BD0020FFF70CFB60
:101D5400074B1D7915B901221C601A710020FFF789
:101D640005FB002DEFD01120EEE700BF002000405E
:101D740014080020034B984201BF034B00221A6051
:101D84001A71704700200040140800201F2886BFE5
:101D9400054A00F01F004FF0A042012303FA00F0AF
:101DA400C2F80805704700BF000300501F2886BF13
:101DB400054A00F01F004FF0A042012303FA00F08F
:101DC400C2F80C05704700BF00030050114BD3F854
:101DD400183107B5D3B1104B104900221A60C87FDF
:101DE4001B680193FF28019B03D08B7F5BB1FFF736
:101DF400DDFF00234B770B72D1E90031084803B0B3
:101E04005DF804EB1847FFF7C1FFF2E703B05DF894
:101E140004FB00BF00300040183100401C080020C3
:101E2400240800202DE9F74F0679734F4FF0240A58
:101E34000AFB06FA07EB0A0B0C469BF81C10CDE9CB
:101E440000328046002940F0D08005686B4928465E
:101E5400FFF774FF8146002840F0CA80019A47F8D2
:101E64000A20009BCBF80430237B2078012B00F25E
:101E7400AA80FFF79BFF23781F2B86BF03F01F0365
:101E84005F4A4FF0A04203F5E073012142F82310AA
:101E94006178FF2900F09A800846FFF787FF1F2921
:101EA4008BBF01F01F030B46554A4FF0A04203F5C8
:101EB400E073032042F82300A378FF2B00F089800D
:101EC4001F2B8BBF03F01F021A464D484FF0A04052
:101ED40002F5E0724FF0040C40F822C09A46242226
:101EE40002FB067282F82030E078D077FF2816D003
:101EF4002379002B70D0FFF759FFE3781F2B86BF9F
:101F040003F01F033E4A4FF0A04203F5E0730320A1
:101F140042F82300242303FB067322799A7723785B
:101F2400C5F80835A368C5F80C15C5F810A5C5F89B
:101F34002435637B227B003B18BF0123022A4ED049
:101F4400032A4FD0012A01D143F00203C5F85435C6
:101F5400A379C5F8C03524237343FB5813B1402239
:101F6400C5F804230722C5F800250BB3D8F80030C0
:101F7400627943F307310029A8BF01F16040C3F33C
:101F84000733BCBF03F00F041E484FEA4212A8BF38
:101F940000F56140D2B2B4BF025580F8002303F0CB
:101FA4001F03012202FA03F34909174A42F82130B8
:101FB400242303FB067600237377012333774846F3
:101FC40003B0BDE8F08FFFF7E1FE54E74FF0FF31B7
:101FD40072E74FF0FF3A82E7FFF7D8FE8DE743F050
:101FE4000403B3E743F00603B0E74FF00809E6E75C
:101FF4004FF01109E3E700BF1C080020D11D0000C9
:102004000003005014ED00E000E100E00023435021
:1020140082B043580193019B02B070470A4610B541
:102024004FF48E71FFF7F2FF136A9168C95C136A6B
:1020340001331362C0F81C1510BD8B690A4610B534
:102044004FF4847123B9FFF7E1FFD0F8183510BDC0
:10205400FFF7DCFF536AD168D0F81805C854536AF7
:1020640001335362F3E700001FB501238DF80030FC
:10207400044BCDE90110D3E900126846904705B03E
:102084005DF804FB4008002030B54B48D0F8043319
:1020940013F4007F85B005464DD0D0F82431002BD1
:1020A40049D04FF49271FFF7B1FF4FF40173C0F8B8
:1020B4000833424B93F829200AB9012242603E4971
:1020C40002228DF80020D1F88024C1F880240392E4
:1020D4009A690292DA6801920022C3E906226846EC
:1020E400D3E9001290473448D0F81C315BB133492E
:1020F4000A6A4B699A420A464AD291F82830002B60
:1021040046D1FFF78BFF2C48D0F844318BB14FF404
:10211400A271FFF77BFF294B93F829200AB1012212
:1021240002609A692AB10022586AD9689A61FFF755
:102134009BFF05B030BDD5F804335B07D3D5D5F884
:102144000831002BCFD01D4C1B482146FFF775FFEB
:10215400636AA2699A422346C5D1E269E1684AB139
:102164002369E3600023606AA261E3616362FFF7AD
:102174007BFFB8E794F829200AB901226A600E4A65
:102184004FF40170C2F808030022586A9A61EEE71E
:102194004FF48E710848FFF739FF51690029B2D016
:1021A4000023029191688DF80030019153616846D3
:1021B400D2E900139847A6E7002000404008002019
:1021C4001F2886BF00F01F00044B4FF0A04300F50A
:1021D400E070022243F82020704700BF0003005043
:1021E4002DE9F843634B057991462C2202FB053215
:1021F400064692F82A200C469846002A40F0B680FB
:102204005D490068FFF79AFD0746002840F0B0805A
:1022140021684A1C10D01F2987BF584A01F01F03A8
:102224000B464FF0A0420120984003F5E073C2F83A
:102234000805032042F823006068431C0DD01F28C2
:102244008BBF00F01F0303464C4A4FF0A04203F536
:10225400E0734FF0000C42F823C03368A269C3F85E
:10226400242594F814C0627DBCF1010F4CEA0202EB
:10227400C3F86C25C3F81405C3F80C152BD1A16859
:10228400481C0DD01F298BBF01F01F020A463B4892
:102294004FF0A04002F5E0724FF0000C40F822C06D
:1022A400E068421C13D01F2887BF344A00F01F0C7B
:1022B40084464FF0A0424FF0010E0EFA0CFE0CF5CE
:1022C400E07CC2F808E54FF0030E42F82CE0C3F8B6
:1022D4000805C3F810152C236B4308EB0302C2F85E
:1022E4000490226948F80320B9F1000F2BD030681C
:1022F400247F4FF48E71FFF789FE30684FF4A2718A
:10230400FFF784FE32681E4BC2F80433110B42F30C
:102314000732002AA8BF02F160404FEA4413BABF53
:10232400184801F00F0400F56140DBB2B4BF035557
:1023340080F8003301F01F01012303FA01F152096F
:10234400114B43F8221033680422C3F800252C23D0
:1023540003FB05830022C3E9062283F829205A617E
:10236400012283F82A203846BDE8F8830827FAE7D3
:102374001127F8E7400800208D20000000030050DA
:102384008000020014ED00E000E100E02DE9F041DE
:1023940003680479244D0022C3F800252C2202FB93
:1023A4000452014652686AB1204AC3F8082343F331
:1023B4000732C3F3043652090120B04020321C4EC8
:1023C40046F82200D3F80C05D3F81485D3F8086531
:1023D400D3F810754FF0FF329042C3F81425C3F8B8
:1023E4000C25C3F80825C3F8102501D0FFF7E8FE33
:1023F400B8F1FF3F02D04046FFF7E2FE7A1C02D05C
:102404003846FFF7DDFE731C02D03046FFF7D8FED6
:102414000868FFF7AFFC2C2303FB0454002384F863
:102424002A306360BDE8F081400800208402020085
:1024340000E100E02DE9F843204B07794FF02C0927
:1024440009FB0734054666699846002E33D10068B7
:102454006261A16026624FF48E7184F82860FFF7F0
:10246400D5FD2868012383602146FFF7D7FD636803
:10247400A14683B92868226A63699A4211D32B68FA
:10248400D3F81C21002AFBD00122DA602C2303FBA1
:10249400078300225A613046BDE8F88394F8283057
:1024A4003BB9D0F81C31002BF8D04946FFF7B6FDF4
:1024B400E1E70F26EAE71126EDE700BF4008002018
:1024C4000023435082B043580193019B02B07047EC
:1024D4001FB501238DF80030044BCDE90110D3E979
:1024E40000126846904705B05DF804FB6C080020B4
:1024F4007FB5364AD2F82461002E46D010464FF4F8
:102504009271FFF7DDFF02238DF80030D2F880349A
:10251400C2F880340393D2F83C3502932C4BDA682A
:1025240001920022C3E906226846D3E900129047CB
:102534002648D0F8443173B14FF4A271FFF7C0FFBD
:10254400234B9A693AB10022C3E90622D968D0F82C
:102554003C05FFF7BDFF1D48D0F820319BB14FF477
:102564009071FFF7ADFF1A4B5A6962B1D0F84C1560
:102574000291002299688DF8002001915A61684601
:10258400D3E90012904704B070BDD2F81031002B8B
:10259400CED04FF488711046FFF792FF0C4BD2F85F
:1025A4003C0599698842C3D1DC69D96864B1D2F821
:1025B400005225F02005C2F800521A699C61DA60C5
:1025C400DE61FFF785FFB3E79C61FAE70020004076
:1025D4006C0800201F2886BF00F01F00044B4FF03A
:1025E400A04300F5E070022243F82020704700BFAA
:1025F400000300502DE9F843674B067991462422E5
:1026040002FB0632044692F820200D469846002A22
:1026140040F0BE8061490068FFF790FB0746002840
:1026240040F0B8802868421C10D01F2887BF5C4A3D
:1026340000F01F0303464FF0A0420121994003F527
:10264400E073C2F80815032142F8231069684B1C93
:102654000DD01F298BBF01F01F030B46504A4FF0CA
:10266400A04203F5E0734FF0000C42F823C0236846
:10267400AA69C3F8242595F814C06A7DBCF1010F3A
:102684004CEA0202C3F86C25C3F80C05C3F8141510
:102694002BD1A968481C0DD01F298BBF01F01F0244
:1026A4000A463F484FF0A04002F5E0724FF0000C9C
:1026B40040F822C0E868421C13D01F2887BF384A5C
:1026C40000F01F0C84464FF0A0424FF0010E0EFAAA
:1026D4000CFE0CF5E07CC2F808E54FF0030E42F85E
:1026E4002CE0C3F80805C3F810152423734308EB42
:1026F4000302C2F804902A6948F80320B9F1000FD4
:1027040035D020682A7F4FF48871FFF7D9FE2068FE
:102714004FF49071FFF7D4FE20684FF49271FFF7E5
:10272400CFFE20684FF4A271FFF7CAFE23681D494B
:10273400C3F80413190B43F30733002BAEBF03F1A3
:10274400604001F00F0518484FEA4212A8BF00F597
:102754006140D2B2B4BF425580F8002301F01F019A
:10276400012202FA01F15B09104A42F8231023689E
:102774000822C3F80025242303FB06830022C3E9AF
:1027840006225A61012283F820203846BDE8F883E6
:102794000827FAE71127F8E76C080020F524000061
:1027A400000300501003020014ED00E000E100E01B
:1027B4002DE9F04103680479244D0022C3F8002573
:1027C400242202FB0452014652686AB1204AC3F82B
:1027D400082343F30732C3F3043652090120B040FF
:1027E40020321C4E46F82200D3F80C05D3F8148589
:1027F400D3F80865D3F810754FF0FF329042C3F850
:102804000C25C3F81425C3F80825C3F8102501D0F6
:10281400FFF7E0FEB8F1FF3F02D04046FFF7DAFED3
:102824007A1C02D03846FFF7D5FE731C02D030461E
:10283400FFF7D0FE0868FFF79DFA242303FB045436
:10284400002384F820306360BDE8F0816C08002028
:102854001003020000E100E001F06043B3F1005F07
:102864002DE9F041064632D11B4B0779242505FB9F
:10287400073598466C6964BB6A610068A9604FF4C7
:102884009071FFF71DFE4FF4AC713068FFF718FE2E
:1028940033686A69A968C3F84415C3F84825012256
:1028A4009A606A6862B9D3F82021D3F8584152B9C2
:1028B400002CF8D00F24242303FB078700237B611B
:1028C4002046BDE8F081002C18BF0F24F3E7102444
:1028D400F6E71124F4E700BF6C08002038B5104B6C
:1028E400104C114D114901221A70114BE41AE408DD
:1028F400240444F003042046FEF70CF92B786BB152
:102904000C492046FEF706F9284600F09BFA2946B2
:1029140082B22046BDE83840FEF700B938BD00BF9A
:1029240094080020D02E000090080020C33000003E
:10293400A82E0000D73000001FB50120FEF7C7FA0B
:102944004FF400410020FDF733FF08B1FEF7DEFA33
:10295400FDF75CFE0D4B0FCB6C4684E80F000C4B6F
:1029640000930C4A0C4800232146FFF737F808B1BE
:10297400FEF7CCFA09480A4B0A49C01AC0080004F9
:1029840040F00300FEF7C6F8FEE700BFF830000091
:1029940029041A1DE128000008310000D02E00008F
:1029A400A82E0000E23000000369C1688B429DBF7D
:1029B4008268D21802F1FF3203F1FF3394BF501A38
:1029C400581A70472DE9F843D0E902940546A9EB5B
:1029D40004084068904520440F46144404D900F08C
:1029E400E6F9EC60BDE8F8834246A4EB090400F084
:1029F400DEF96868224607EB0801F0E72DE9F843A1
:102A0400C5680646894617464FF000083469B3681E
:102A14007068A54228BFE418013C621B5C1BBC42E1
:102A240028BF3C46944228BF1446494628442246BF
:102A340000F0BDF9B3682544AB4208BF00253F1B35
:102A4400A044A144F560E1D14046BDE8F88300000C
:102A540010B5114C114AA2610223C4E90433104B8E
:102A6400E361A2644FF400730E4A0F492362E264E7
:102A740000231022E01DA3626362E362A365636521
:102A8400E365226500F0BCF90849204600F0B8F976
:102A94002023A37110BD00BF980800201831000046
:102AA40020090020100900202131000025310000F8
:102AB400F8B5184C182300FB033503FB00402544EC
:102AC400C46A012C0F4616460FD0022C1AD0F4B952
:102AD4002846FFF769FF864205D83246394628461C
:102AE400FFF770FF34462046F8BD2846FFF75CFF29
:102AF4008642344628BF0446224639462846FFF714
:102B040061FFF0E72846BDE8F840FFF777BF0024EF
:102B1400E9E700BF98080020FFF79ABF054B1B6840
:102B2400082B01BF044B1868B0FA80F0400918BFA5
:102B340000207047300100103401001008B54FF038
:102B440080430022C3F80C21C3F81021C3F83825B0
:102B54004FF0805203F54043D2F80414C3F8201513
:102B6400D2F80814C3F82415D2F80C14C3F82815A5
:102B7400D2F81014C3F82C15D2F81414C3F8301575
:102B8400D2F81814C3F83415D2F81C14C3F840153D
:102B9400D2F82014C3F84415D2F82414C3F8481505
:102BA400D2F82814C3F84C15D2F82C14C3F85015D5
:102BB400D2F83014C3F85415D2F83414C3F860159D
:102BC400D2F83814C3F86415D2F83C14C3F8681565
:102BD400D2F84014C3F86C15D2F84424C3F8702515
:102BE400FFF79CFF10B1384B384A1A60FFF796FF85
:102BF40018B1374BFB22C3F81825FFF78FFF48B1F4
:102C04003449354B0A681B6822F00F0203F00F03A6
:102C140013430B60FFF782FF18B1304B4FF400727F
:102C24001A604FF08043D3F80024D20744BF6FF0FA
:102C34000102C3F800242A4AD2F8883043F470030E
:102C4400C2F88830BFF34F8FBFF36F8F4FF010235C
:102C5400D3F80022002A03DBD3F80432002B2FDA46
:102C6400204B0122C3F80425D3F80024002AFBD00A
:102C74004FF010221221C2F80012D3F80024002AC7
:102C8400FBD04FF010231222C3F80422154B1A462E
:102C9400D3F800140029FBD00021C3F80415D2F89E
:102CA4000034002BFBD0BFF34F8F0D490E4BCA6885
:102CB40002F4E0621343CB60BFF34F8F00BFFDE724
:102CC4000A4B0B4A1A6008BD8C5600404881030029
:102CD40000F00040E40E004058020010409602400C
:102CE40000ED00E000E001400400FA0524000020AB
:102CF4000090D0037F2805D8034B185C034B5B5C22
:102D0400184070470020704738310000B831000087
:102D1400A0F16103192B98BF20387047A0F141033B
:102D2400192B98BF203070477F2805D8034B185CB7
:102D3400034B5B5C1840704700207047383100003B
:102D4400B8310000A0F16103192B98BF20387047F7
:102D5400A0F14103192B98BF203070477F299ABFF7
:102D6400017001206FF02E0070475AB10A787F2A53
:102D74000AD800B10260002119605960501A18BFC6
:102D840001207047002070476FF02E00704700004C
:102D940008B5034B5B689B681B68984708BD00BF78
:102DA4002800002008B50921FFF7F2FF08BD84467A
:102DB40040EA010313F0030F18D18446202A0BD3F1
:102DC4002DE9F007B1E8F807A0E8F807A2F120021E
:102DD400202AF7D2BDE8F007042A07D351F8043BB0
:102DE40040F8043BA2F10402042AF7D2002A05D0D9
:102DF40011F8013B00F8013B013AF9D160467047F4
:102E0400024610F0030F16D111F0030F13D12DE970
:102E1400F0004FF001374FF0803351F8044BA4EB2E
:102E2400070525EA04051D4002D142F8044BF4E7E6
:102E3400A1F10401F0BC11F8013B02F8013B002BA5
:102E4400F9D1704700F1010110F0030F11D010F80F
:102E5400012B002A23D010F0030F0AD010F8012B05
:102E6400002A1CD010F0030F03D010F8012B002A05
:102E740015D02DE970004FF001324FF0803350F837
:102E8400044BA4EB020525EA04051D4000D1F6E736
:102E9400A0F1040070BC10F8012B002AFBD1A0EBB8
:042EA4000100704772
:102EA800A830000000000000AF3000000000000063
:102EB800B330000000000000B8300000000000003F
:102EC800BD30000000000000822F00000000030356
:102ED800182F000000000000612F000014000020DF
:102EE800442F000000000000502F00001C000020AC
:102EF800C00000208801002090010020C8000020A8
:042F080018000000AD
:102F0C00000000000338FDD870470000D903000012
:102F1C0045040000D5030000FFFFFFFFFFFFFFFF8C
:102F2C00FFFFFFFFFFFFFFFF00000000000000009D
:102F3C000000D6010601000079050000DD05000047
:102F4C0019050000756172745F6C6F675F62616375
:102F5C006B656E64007274745F6C6F675F62616343
:102F6C006B656E64004261636B656E647320666CA6
:102F7C00757368656400617070000000B405002012
:102F8C007F000000340600201B5B306D00257300B1
:102F9C001B5B313B33316D0025734C6F67732064C1
:102FAC00726F70706564202825642925730D0A00E2
:102FBC003C25733E2025733A2000202530327800C2
:102FCC00202020007C002563001B5B313B33306DDF
:102FDC00001B5B313B33326D001B5B313B33336D7C
:102FEC00001B5B313B33346D001B5B313B33356D68
:102FFC00001B5B313B33366D001B5B313B33376D54
:10300C00007761726E696E6700696E666F00646549
:10301C0062756700942F0000D52F00009C2F0000D4
:10302C00DD2F0000E52F0000ED2F0000F52F000034
:10303C00FD2F000005300000000000006230000091
:10304C000D300000153000001A3000000D0E0F106E
:10305C00466174616C206572726F7200537973747F
:10306C00656D20726573657400000000000000003F
:10307C00000000000338FDD870473031323334354E
:10308C00363738394142434445460000FFFFFFFFC5
:10309C000006FF0000000040000000004750494FB0
:1030AC00544500505253005350494D005541525411
:1030BC00005541525445005472616E73666572201E
:1030CC00636F6D706C657465642E0020526563656A
:1030DC00697665643A00535049206578616D706C6F
:1030EC006520737461727465642E0000FFFFFFFF2E
:1030FC0006FF00000000004000000000000000007F
:10310C000030004000000000010000005465726DAA
:10311C00696E616C00525454005345474745520048
:10312C0043000000504F534958000000202020203D
:10313C00202020202068282828282020202020201B
:10314C00202020202020202020202020481010107B
:10315C001010101010101010101010108484848493
:10316C008484848484841010101010101081818148
:10317C0081818101010101010101010101010101B3
:10318C000101010101010110101010101082828246
:10319C008282820202020202020202020202020283
:1031AC00020202020202021010101020000703207B
:1031BC000417020108571040800000002C31000059
:1031CC00303200004433000053756E004D6F6E00BA
:1031DC005475650057656400546875004672690043
:1031EC0053617400000000004A616E004665620085
:1031FC004D617200417072004D6179004A756E002C
:10320C004A756C0041756700536570004F6374001C
:10321C004E6F76004465630000000000414D005085
:10322C004D0000006833000064330000643300007C
:10323C006433000064330000643300006433000026
:10324C00643300006433000064330000FFFFFFFFB1
:10325C00FFFFFFFFFFFFFFFFFFFF0000A432000096
:10326C00D4310000E0320000F431000028320000BC
:10327C00883200003833000094320000256D2F2571
:10328C00642F25790000000025612025622025652A
:10329C00202554202559000053756E646179004D2A
:1032AC006F6E64617900547565736461790057655C
:1032BC00646E6573646179005468757273646179C6
:1032CC000046726964617900536174757264617946
:1032DC00000000004A616E75617279004665627289
:1032EC0075617279004D6172636800417072696C2E
:1032FC00004D6179004A756E65004A756C79004124
:10330C0075677573740053657074656D62657200D2
:10331C004F63746F626572004E6F76656D62657295
:10332C0000446563656D62657200000025483A25AE
:10333C004D3A255300000000F92C0000152D00001B
:10334C00212D00002D2D0000492D0000552D0000D1
:0E335C00612D00006F2D0000000000002E000B
:10336C000000000000200040000000000020004091
:10337C000000000000000000FF0000000000000042
:10338C00FF0000000090D003C8310000C8310000DD
:0C339C00C8310000C8310000C83100003A
:040000030000037581
:00000001FF
