:1000000000000120750300005D0300005F03000095
:1000100061030000630300006503000000000000AE
:100020000000000000000000000000006703000066
:1000300069030000000000006B0300006D03000076
:100040006F0300006F030000F91C0000551D000045
:100050006F0300006F030000751B00006F030000BA
:100060006F0300006F0300006F0300006F030000C8
:100070006F0300006F0300006F0300006F030000B8
:100080006F030000051000006F0300006F03000005
:10009000A11000006F0300006F0300006F03000059
:1000A0006F0300006F0300006F0300006F03000088
:1000B0006F0300006F03000000000000000000005C
:1000C0006F0300006F0300006F0300006F03000068
:1000D0006F0300006F0300006F03000000000000CA
:1000E0000000000000000000000000000000000010
:1000F0000000000000000000000000000000000000
:1001000000000000000000000000000000000000EF
:1001100000000000000000000000000000000000DF
:1001200000000000000000000000000000000000CF
:1001300000000000000000000000000000000000BF
:1001400000000000000000000000000000000000AF
:10015000000000000000000000000000000000009F
:10016000000000000000000000000000000000008F
:10017000000000000000000000000000000000007F
:10018000000000000000000000000000000000006F
:10019000000000000000000000000000000000005F
:1001A000000000000000000000000000000000004F
:1001B000000000000000000000000000000000003F
:1001C000000000000000000000000000000000002F
:1001D000000000000000000000000000000000001F
:1001E000000000000000000000000000000000000F
:1001F00000000000000000000000000000000000FF
:10020000354936480A1A02D0072291438D463449AF
:1002100034480A1A06D00722914381F30988022242
:1002200082F3148830483149314A00F044F83148AB
:100230003149324A00F03FF831483249324A00F041
:100240003AF832483249334A00F035F832483349F7
:10025000334A00F030F833483349344A00F02BF881
:1002600033483449344A00F026F8344834490022EF
:1002700000F02CF833483449002200F027F83348C6
:100280003349091A082902DB002202604160314A21
:1002900090471F481F49884205D00268043003B4C4
:1002A000904703BCF7E700208646EC46002000217B
:1002B000294A9047FEE7884207D0521A05D00378B2
:1002C00001300B700131013AF9D17047884202D0F8
:1002D00002700130FAE770470000012000E00020C2
:1002E00000000120000001204C350000000000202B
:1002F00044000020D4030000D40300007E3000003E
:100300004C3500000000002000000020E430000018
:10031000E4300000E4300000E4300000E43000008D
:10032000E4300000E4300000E43000004A35000012
:1003300090350000440000204400002044000020CC
:100340000C0B00200C0B00200C0B00200C0B0020D1
:100350000C2B00209D03000055290000FEE7FEE75E
:10036000FEE7FEE7FEE7FEE7FEE7FEE7FEE7FEE765
:10037000704700BF1048804710484FF0070188437E
:1003800085460F4880470F48016841F470010160BD
:10039000BFF34F8FBFF36F8FFFF732BF0A480B4990
:1003A0000B4A884207D0521A05D0037801300B70EF
:1003B0000131013AF9D170477103000000000120BA
:1003C0000D2C000088ED00E0E4300000000000206B
:0403D0000000002009
:1003D4007047000007B5044B0093044A402300F023
:1003E40032F803B05DF804FBF5030000450000207B
:1003F4002DE9F84388461446B2B10F4B0F4E03253E
:10040400002743F00109224608EB0701002002F00F
:100414008BFB0744241A48B933782BB14FF47A4044
:10042400C847013D02D13570BDE8F883012333701C
:10043400002CE8D1F8E700BFF030000044000020B1
:10044400704702F0A5BBF0B595B01D4616460846A8
:100454000C4601F07FFA1A9B0D93CDE9086500253F
:100464002B46082205A920460A958DF82C500C9598
:1004740001F08DFA079B0293069B03939DF81430B9
:100484008DF8115003F00302012A1DD1BDF8142088
:10049400059DC3F3C203C2F383168DF81030B20076
:1004A40008230EA9204601F072FAC5F3952508AB7E
:1004B4000093324602AB0EA9284600F025FC2046E4
:1004C40001F04CFA15B0F0BD022AF8D1BDF816506F
:1004D400C3F3C203C5F389158DF810300827082D1E
:1004E4002E4628BF08263B4632460EA9204601F078
:1004F4004EFAAD1B08AB02AA31460EA8374400F0F1
:1005040067FC002DEBD1DAE7014B01221A7070472A
:10051400C60000207047000070B5124D06460FCD8E
:1005240088B06C460FC495E80F00002E84E80F00D5
:100534004FF0FF334FF00602CDE90023CDE902333B
:10054400094A0A484FF0EB7308BF00226946069334
:1005540001F0B4FA08B100F0E4FC054B1E7008B0D9
:1005640070BD00BF043100000D0500000000002034
:100574008500002007B5044B0093044A4023FFF78D
:1005840062FF03B05DF804FB9505000086000020BF
:1005940038B50D4B0D4D002018700D4804782D5DB5
:1005A400D2B21C4665B1043002F062F908B100F021
:1005B400B8FC084B1A7812B12378002BFBD038BD55
:1005C4000C3001F05FFFF1E7C60000209C0700201B
:1005D400000000208500002008B50848084A037878
:1005E400D35C3BB1043002F0E1F8BDE808400020E0
:1005F400FFF792BF0C3001F0E3FEF6E700000020A5
:100604009C0700200120FFF787BF000038B50A4D82
:10061400FFF717FF0421284600F0DEFA074B0124F8
:100624005C71FFF7EFFF042105F1100000F0D4FA2C
:10063400034B5C7138BD00BFB030000014000020D3
:100644001C000020037813F0040216D003F0030307
:10065400012B03D0022B09D0012070470A680088BF
:100664000232C0F3831002440A60F5E70B68428843
:10067400023303EB92130B60EEE710467047000061
:100684002DE9F04F044685B0861C00200F46154620
:1006940000F074FE454801683960D0E90132134422
:1006A40001335B1A824600F21C4700F5836900F2AD
:1006B4001448B3421BD30020002D72D004F00F0362
:1006C4009B0143F0050363F30F00DAF80020DAF826
:1006D40008301340033316444AF823000020CAF8B4
:1006E400006000F04DFE012005B0BDE8F08F01214F
:1006F400384600F06AFE484600F07FFE404600F0AF
:100704007CFEDAF80400DAF808B0009000EA0B0086
:1007140003300AEB80006946FFF794FF009B50BB4F
:100724000BEA03020AEB820203F1020CD268019283
:10073400013303EA0B0B0AEB8B0B02F00302012AD1
:10074400DBF80C10CDF800C023D0022A16D0834663
:10075400404600F055FE10B1009BCAF804305946DB
:10076400384600F032FEDAE901231344DAF80020B7
:1007740001339B1A9DE70BEA0300C9E7BDF8063075
:10078400C3F3891303334FEA114B0CEB9303009328
:10079400DEE7BDF80430C3F383134FEA114B63441F
:1007A400F5E7A40544F006008FE700BF9801002098
:1007B4000B4B0C48FF2210B59A600022C3F8182492
:1007C400C3E90022C3F8142483F8202401F07BF841
:1007D400044610B9044801F0E4F8204610BD00BFF7
:1007E40098010020D03000006831000030B50A4C78
:1007F40071B10A4A0A49121BD20800239A4201D154
:10080400002030BD31F82350854202D00133F5E792
:10081400034654F83300F4E780300000B0300000A1
:1008240000000020094B013903EBC000032909D85B
:10083400DFE801F00A0204060420704700797047DB
:1008440040797047002070470220704780300000D4
:10085400034BD3E90030C31A58425841704700BFD4
:10086400980100202DE9F04385B0FFF7F1FF06461B
:10087400002840F0F5807B4DC5F81804BFF34F8F76
:100884006B68AC6800932340033305EB830069462F
:10089400FFF7D8FE009B18B1D5F81824002A5FD0C2
:1008A40004EA0302991C013305EB8202234005EBA1
:1008B4008303D268DB68029302F00303022B0192E4
:1008C400009160D1BDF806306748C3F38917502FF3
:1008D400B84628BF4FF0500868F38F1308F1080199
:1008E400ADF8063001F007F80646002800F0A380B2
:1008F40001F030F80023082201A9304601F03DF848
:10090400009924EA01020132B8EB820F4FEA820314
:1009140032D95FFA88F85BB32140DCB2A8EB040853
:1009240003315FFA88F9A046504C05EB8101082396
:100934004246304601F021F834B108F108034A4632
:100944002146304601F019F8009B033703EB970763
:100954000097D5F81834002B49D1D5F8104459E044
:100964002A689A428FD86A60304605B0BDE8F083A1
:100974003E491C469946DAE70C40E11C08234246EE
:1009840005EB8101DDE7012B55D1BDF80430364874
:10099400C3F38311062928BF062161F389130231A9
:1009A4008900ADF8043000F0A6FF0646002842D0C6
:1009B40000F0D0FF0023082201A9304600F0DDFF3B
:1009C4000027BDF80420C2F38312BB00974203F151
:1009D4000803BED200994A1C21400331009205EB62
:1009E40081010422304600F0C8FF0137E9E73046B0
:1009F40000F0B4FFFFF72CFF80F00100C6B2B3E7AC
:100A0400E3685B7923B1236831461B682046984725
:100A1400E3681C68002CF3D1304600F09FFF2046A9
:100A240000F0ACFCD5F818340BB9009B6B600020C7
:100A340000F0A6FCDEE7D5F8104454B90C4B0D4881
:100A44000D49C01AC008000440F0020000F062F82A
:100A5400D0E7236820469B689847E3681C68ECE766
:100A6400002681E798010020D0300000A401002076
:100A740080300000A8300000513100002DE9F74F0C
:100A8400224D04460F46924601A901221846D5F884
:100A940008909B46FFF7F4FD20B3019E4FF0000839
:100AA400B21CD84508EB020126D11948002100F0F8
:100AB40069FC80F31000000440EA1440E400731C55
:100AC40004F0380403EA090306EA090644F00104C1
:100AD40005EB8303033644EA881444EA8724D86088
:100AE40045F8264095F820341BB1FFF7BBFE0028DB
:100AF400FBD103B0BDE8F08F09EA010105EB8101E8
:100B04005AF82830CB6008F10108CAE798010020A0
:100B1400B405002000231A46FFF7B0BF2DE9F347C0
:100B24002B4D0446D01C8946164601A90022800894
:100B3400AF68FFF7A5FDA8B3DDF80480AB6808F142
:100B440002000190013338401B1AB6EB830F00F109
:100B540003004FEA830A05EB80002DD8324649464C
:100B640002F0DDF91B48002100F00CFC80F31000BA
:100B740008F101033B4007EA0807220C05EB830355
:100B8400033742EA0040E400D86004F0380455F822
:100B9400273044F0020444EA865203F47C131A43D7
:100BA40045F8272095F820341BB1FFF75BFE002899
:100BB400FBD102B0BDE8F0875246494602F0AFF9D6
:100BC400A6EB0A0209EB0A0105F10C00C8E700BF15
:100BD40098010020B405002030B50F49D1F8102445
:100BE40003460020144634B9DC6820714AB9C1F8C0
:100BF4001034226030BDE4682579854206D024682B
:100C0400F1E7D268116821601360F3E701300A2824
:100C1400E8D14FF0FF30EDE798010020094A38B5DC
:100C24000123D2F8104482F820341D4604B938BD9B
:100C3400E3685D71236820465B689847E3681C6835
:100C4400F4E700BF9801002007B503460846197A67
:100C5400052911D05B7A2BB1094A0A49019000F0A9
:100C640029FC01980849019000F024FC019803B084
:100C74005DF804EB00F013BC002AF8D0F2E700BFE3
:100C840074310000793100009931000030B5C38817
:100C940085B004460D4633B1144A00921449154AEE
:100CA400284600F007FC217A05291DD0637A4BB150
:100CB400A088FFF7B7FD104B104953F820202846B1
:100CC40000F0F8FB227A0E4BA08853F822200392FE
:100CD4000021FFF78BFD039A0A490346284605B015
:100CE400BDE8304000F0E6BB05B030BD7431000013
:100CF400843100007C3100000032000079310000B2
:100D0400243200009C3100002DE9F04385B01F46D9
:100D14000C9D002395F80C902B7306460C469046C8
:100D240029463846FFF7B2FFB8F1060F09D8DFE8C5
:100D340008F00412181F283340003146284600F0FA
:100D4400B9FB002229463846FFF77EFF85F80C9050
:100D540005B0BDE8F08322683146284600F0AAFBBE
:100D6400EFE7D4E900233146284600F0A3FBE8E787
:100D7400A36800933146D4E90023284600F09AFB87
:100D8400DFE7E3680193A36800933146D4E90023C5
:100D9400284600F08FFBD4E723690293E3680193AC
:100DA400A36800933146D4E90023284600F082FB6F
:100DB400C7E76369039323690293E3680193A36814
:100DC40000933146D4E90023284600F073FBB8E7CA
:100DD40008292DE9F74F80460E4617461C463CD895
:100DE400002593F80C901D7319461046FFF74EFF2B
:100DF400DFF888A0DFF888B0AE4231D918F80520B2
:100E04005946204600F056FB0135082DF4D1194906
:100E1400194DDFF870A0204600F04CFB4FF0000B9A
:100E24005E4522D918F80B207E2A05D81046019277
:100E340002F070F8019A00B92E225146204600F0C3
:100E440039FB0BF1010BBBF1080FE9D1012221465B
:100E54003846FFF7F9FE84F80C9003B0BDE8F08F34
:100E64005146204600F026FBCEE72946204600F0F6
:100E740021FBE6E7B0310000AE310000AC310000E8
:100E8400A6310000B2310000044B1A5C01239340E8
:100E94004FF0A042C2F80835704700BF3832000056
:100EA40008B50020FFF7F0FF0120FFF7EDFF022057
:100EB400FFF7EAFFBDE808400320FFF7E5BF0000A5
:100EC400074A4FF0A041105CD1F80435012282405A
:100ED40022EA03001340C1F80805C1F80C35704735
:100EE40038320000C20708B501460CD54FF0A043C4
:100EF4000322C3F84427C3F84827C3F84C27C3F890
:100F04005027FFF7CDFF8B070AD54FF0A0430C22E3
:100F1400C3F83427C3F83827C3F83C27C3F840275D
:100F240008BD1FB50021039001AA44F20100CDE9D8
:100F3400011100F003F805B05DF804FB10B572B6BA
:100F4400FFF76CFEFFF78EFC0028FBD1104B114C11
:100F54001149E41AE408240444F00100FFF7DAFD1F
:100F64000E4B1B68DB0700D500BE0D4944F00200A0
:100F7400FFF7D0FDBFF34F8F0A490B4BCA6802F449
:100F8400E0621343CB60BFF34F8F00BFFDE700BFA8
:100F940080300000A83000003C320000F0ED00E09A
:100FA4004832000000ED00E00400FA05024B4FF463
:100FB4003C6043F0010318476032000038B50C4B25
:100FC4000C4C4FF40032C3F8802001254FF48033D9
:100FD400C4F84833C4F808336560FFF7E7FF064BED
:100FE400A56000241C60FFF7E1FF044B1C7038BDB2
:100FF40000E100E0001001407007002061070020BC
:10100400F8B51F4B1F491B680025C1F84051C1F8B2
:101014004451C1F84851C1F84C51C1F80051C1F8CC
:1010240004514BB3D1F8044517490968641A24F0F4
:101034007F442F461A68A24209D8A41A15441A7C80
:10104400DE691AB1D3E905201F749047AEB90F4A7F
:101054000F4B11781B788B4205D10133DBB2022B85
:1010640008BF0023137012780A4B43F822500A4B2E
:101074004FF48012C3F80021F8BD3346DAE700BF0D
:101084007407002000100140700700206D07002045
:101094006C0700206407002000E100E02DE9F04F18
:1010A400A24AA34913780978A24D994285B03CD04D
:1010B4000133DBB2022B08BF002313709E49127860
:1010C4009E4B0F6853F822003B1823F07F43002205
:1010D4000B602B6816461446944613B942B12B6034
:1010E40006E0196881420ED902B12B60091A196011
:1010F40001272B68DFF84CA201934FF00008BEB91A
:10110400DFF848B262E0401A0C44D968D3F81CE016
:10111400C3F800C031B13A1922F07F42C3E901217A
:10112400DE611E4673460122D7E700263746E0E714
:101134003446F669804A63681268DFF814C2A0680E
:10114400991A21F07F41614500F2A8800144216091
:10115400012222742A680023C4E90133E361002ACE
:1011640040F0A5802C60CAE79BF802105A1CD2B24A
:1011740091428BF8002004BF00228BF80020182233
:1011840002FB03B32A6819799C68022977D00329E2
:1011940000F08180012919D1207CB8B9D3E9031268
:1011A400A2605A69E2609A69654BA2611B78002BC0
:1011B4000CBF0B4603466360BCE78C4200F094808E
:1011C4008946C9690029F8D1002323749BF80030AB
:1011D4009BF801209A42C7D12B68B8F1000F04D1C3
:1011E400019A9A4201D1002F43D0002B79D0D3F831
:1011F40000A0544D504BD5F804751C68DFF8548199
:101204003E1B98F8003026F07F4603369BB94FF416
:101214008033C5F84433C5F804334B4B4FF40032E4
:101224004FF00109C3F880211A60C5F80090FFF758
:10123400BDFE88F80090B2452CBF5444A41924F094
:101244007F44C5F84045D5F80435DB1B23F07F43C4
:10125400E41B033324F07F44A3420AD9D5F80435B0
:10126400C5F84035FFF7A2FE374B4FF40032C3F800
:101274000021334B00221A7005B0BDE8F08F1146EF
:1012840091469FE71174D2690123002AFAD1002BF9
:101294009CD02A609AE700231946F6E7D31A23F074
:1012A4007F43834234BFC31A0023236050E721687D
:1012B4001368994213D8591A1160E26152E7091A66
:1012C400D8691A4638B1034618688842F7D3401AD9
:1012D4001860184613462160E061DC610FE713468D
:1012E400F2E7FFF76BFEC4E74C4511D1D3692B60DD
:1012F40073B9DFF844E00120CDE90212CAF808000E
:10130400CEF800300E4B1870FFF750FEDDE90212E4
:101314000B68C969C9F81C1011B1086803440B6053
:101324002B68934218BF4FF001084DE76C0700206B
:101334006D07002074070020700700206407002058
:10134400600700200010014000E100E05406002086
:10135400FEFF7F006107002072B6024A1368013362
:101364001360704778070020034A1368013B136039
:1013740003B962B6704700BF78070020FFF7ECBFDF
:10138400FFF7F2BF10B5034653E8000F0A4643E8DF
:10139400002494F0000FF7D110BD10B5034653E8B4
:1013A400002F42EA010043E8000494F0000FF6D154
:1013B40010BD10B5034653E8000F00EA010243E8EC
:1013C400002494F0000FF6D110BD10B5034653E885
:1013D400002F02EB010043E8000494F0000FF6D163
:1013E40010BD10B5034653E8002FA2EB010043E8FB
:1013F400000494F0000FF6D110BD0121FFF7CDBF1A
:101404000021FFF7D6BF10B590B1D0E901230168E0
:101414009B1ADBB20A60013BDBB2FF2B026802D1EC
:101424000020107110BD11684C1C14600B70F2E7A1
:101434000E20F7E738B504460020FFF79FFF226827
:1014440063681168994213D9481E106011F8015C51
:10145400E368218A01FB0535A36811791B1ADBB205
:10146400994200D213710020FFF78AFF284638BD45
:101474000025F8E738B5054600200C46FFF77EFF47
:101484002A681368591C1160E968641A298AB4FB34
:10149400F1F41C70BDE838400020FFF771BF82688A
:1014A40010B504462AB143690168006998470023CE
:1014B400A36010BD0EB403B5039921B104AB01AA16
:1014C400019300F06FF802B05DF804EB03B07047CD
:1014D400826830B40468551C8560A154D0E9013297
:1014E4009A4202D330BCFFF7DABF30BC7047000029
:1014F4002DE9F84F9846DDE90A43154682460F4622
:101504000A464FF00109AA420FD2C14538BFC1466D
:1015140013F0010B01D16CB900240126B8F1010FBD
:101524001BD908F1FF386E43F8E709F10109B2FB52
:10153400F5F2E8E79B070ED5B8F1000F0CBF302693
:101544002026A145E9D2013C31465046FFF7C0FFB1
:10155400002CF6D1E0E72026F3E7B7FBF6F39D4233
:10156400E1D9DFF83C80B7FBF6F3504618F80310D6
:1015740006FB1377FFF7ACFF3346AB42B6FBF5F639
:10158400F1D2BBF1000F02D00CB1A14501D3BDE8EB
:10159400F88F20215046013CFFF79AFFF4E700BF83
:1015A400663200002DE9F74F0546174688460029A4
:1015B40000F0428118F8011B49B92B7B002B00F085
:1015C4003B81284603B0BDE8F04FFFF768BF2529EB
:1015D40040F0B780002698F800302D2B424608F1E1
:1015E400010823D0302B24D02B2B25D000242A2BE8
:1015F40002F1010123D13B681A1D1B683A601C44A7
:101604000A4613782E2B26D101324FF0000A1046D9
:1016140010F8011BA1F1300CBCF1090F1DD80A23ED
:1016240003FB0A13A3F1300A0246F0E746F0010671
:10163400D1E746F00206CEE746F00406CBE711F800
:10164400013CA3F130000928DBD80A2202FB043450
:10165400303C0A46CBE74FF0000A12F8011B01F0B8
:10166400FB0068289046F8D0782909D86F290CD84F
:10167400632962D022D8252963D0582900F08880B4
:1016840098F80030002B95D197E770390829F7D8DE
:1016940001A353F821F000BF1718000085160000BD
:1016A40085160000A51700008516000083170000AA
:1016B400851600008516000095170000642901D0E6
:1016C4006929DDD13A68D2F80090111D89EAE972DE
:1016D4003960A2EBE9724FF0010B092A35DCD345DE
:1016E40038BFD3462CB1B9F1000F01DB720700D526
:1016F400013CB30702D5BAF1000F03D0F00701D4BF
:101704004CBB0024B9F1000F2DDAC9F100092D21D9
:101714002846FFF7DDFE06F00302022A04D1BAF1DF
:10172400000F01D11CBB0024CDE9004653460A2218
:1017340049462846FFF7DCFEA2E73B681A1D1978E4
:101744003A602846FFF7C4FE9AE70A230BF1010B1F
:10175400B2FBF3F2C1E7A345D4D220212846013CD1
:10176400FFF7B6FECCE77107D5D52B21D0E7A3450B
:10177400DAD230212846013CFFF7AAFED2E73968C5
:10178400CDE900460A1D3A6053460A220968D0E7AB
:1017940039680A1D3A60CDE9004653461022F5E740
:1017A4003B681A1D3A6016F00106D3F8009028D160
:1017B400B9F1000F03D0484601F02FFC0646B442AD
:1017C40000D904BB09F1FF3919F8011F00293FF4BE
:1017D40057AF2846FFF77CFEF6E728460136FFF7A9
:1017E40077FE19F806100029F7D1A642BFF448AFD6
:1017F400002C3FF445AF20212846013CFFF768FE4A
:10180400F3E70026EDE720212846013CFFF760FEC0
:10181400D5E73B681A1D3A60302128461C68FFF75B
:1018240057FE78212846FFF753FE00220823CDE90E
:101834000032214610227CE703B0BDE8F08F00BFE0
:101844002DE9F84FB0F806A04579D2F800B09DF81C
:1018540028900AFB05F5043D88460BEB0301A942D9
:1018640003F1040488BFA5EB030BB4FBFAF60746A7
:101874000AFB1644C2F800B04EB9AAEB04055D4554
:1018840028BF5D46BBF1000F04D1BDE8F88F3F6867
:10189400013EF1E7043408EB06003C442A46B9F162
:1018A400000F0DD02146ABEB050B01F038FBDA45F8
:1018B4002E443F6855464FF0000428BF5D46E1E7DB
:1018C40001462046EFE7FFF79EBDF8B5467901468D
:1018D400721E0546002393422D6803D30024A642BA
:1018E40002D8F8BD0133F6E70F682846FFF7C2FDBA
:1018F40001343946F3E72DE9F843068ACD1C07463F
:10190400FFF798FD043E35440446B5FBF6F5F0B107
:101914004FF48073EDB28380C680013D0760814639
:101924004FF00008A84512D23846FFF783FD06465B
:1019340048B163790133637108F10108C9F8000003
:1019440007608146EEE72046FFF7BFFF3446204696
:10195400BDE8F88301210430FFF737BD10B501213C
:1019640004460430FFF73DFD10F0FF0F04D120467C
:10197400BDE81040FFF7A9BF10BD1FB503920022B8
:10198400009203AAFFF75CFF05B05DF804FB1FB5E6
:1019940003920122009203AAFFF752FF05B05DF8FB
:1019A40004FB836800225A60C3E904229A60DA6067
:1019B4001A6070477FB503788DF80430436802934A
:1019C40083688DF80C30C36804930369064A8DF864
:1019D4001430064B01A853F8213052F821109847CF
:1019E40007B05DF804FB00BF7C07002088070020D7
:1019F400F0B50546174615F804CB124A42F82C7088
:101A0400114A42F82C30114B0C460FCB85B06E4670
:101A140086E80F002368009323798DF805306379F5
:101A24008DF80630A3680293002FA389084AADF805
:101A34000C3008BF3A4663463146284600F0B4F9F4
:101A440005B0F0BD880700207C0700207832000034
:101A5400B91900001FB503788DF80030436801936D
:101A640083688DF80830C368054A0393054B6846BC
:101A740053F8213052F82110984705B05DF804FB63
:101A840094070020980700201FB503788DF80030D4
:101A94004368019383688DF80830C368054A03934B
:101AA400054B684653F8213052F82110984705B089
:101AB4005DF804FB9407002098070020F0B5194B4B
:101AC40090F800C091F81DE043F82C20164B164600
:101AD4000A6943F82C20154B03F80CE00C46074622
:101AE4000FCC89B06D460FC594E80F0085E80F0050
:101AF400CDF810C0BEF1000F09D0002E0C4A694683
:101B040008BF3246381D00F08DFD09B0F0BD002E2F
:101B1400084A694608BF324607F10C0000F094FBFE
:101B2400F3E700BF98070020940700209C070020DB
:101B3400591A00008D1A000000F1804000F5C040E1
:101B4400002382B0036003680193019B02B07047D5
:101B5400800000F1A040D0F8002722F44032C0F801
:101B64000027D0F8003743EA0141C0F80017704756
:101B74002DE9F04F87B000245A4D03944FF480723E
:101B8400012102F1804303F5C04390B21B68012B8D
:101B940006D1D5F804330B4202D0FFF7CDFF0C4336
:101BA4000432B2F5907F4FEA4101EAD14E4B1B68F3
:101BB400012B0AD14FF4BE70FFF7BEFF4FF0A043D4
:101BC40044F00044D3F81035039314F0FF0F1AD0F7
:101BD400464F00250126344210D0AB0003F1804368
:101BE40003F5C043D3F81005D3F8101557F8253082
:101BF40023B1C1F30141C0F3042098470135082DF6
:101C04004FEA4606E7D1002C65DA00214FF0FF3396
:101C1400CDE90413354D01274FF0000A344ED14667
:101C24004FF0A04816F9013B5A1C45D0C3F3C2013A
:101C340006AA5018DCB210F8042C03F03F0B03F092
:101C4400070307FA03F31A4236D005EB0B02A40983
:101C540092F9302055F8222052B9032C2CD10DF1E1
:101C6400100E1EF801C04CEA030C0EF801C001E08E
:101C7400032CF4D00BF5E07110F80C0C58F821107B
:101C84001842C1F3014105D0022915D1032C0FD10B
:101C9400214604E003290FD1032C09D1022158461F
:101CA400019209F10109FFF753FF019A5FFA89F9DB
:101CB40012B12146584690470AF1010ABAF1040FBD
:101CC400B0D1B9F1000F06D04FF0A043039AD3F876
:101CD4001035934202D107B0BDE8F08F0393049B03
:101CE400059399E7006000407C610040A007002054
:101CF400F0070020014B1B68184700BFFC070020B9
:101D040038B50B4B98420C4601D0002038BD00205A
:101D1400FFF734FB074B1D7915B901221C601A71BA
:101D24000020FFF72DFB002DEFD01120EEE700BFC0
:101D340000200040FC070020034B984201BF034BE6
:101D440000221A601A71704700200040FC0700202E
:101D5400114BD3F8183182B0E3B1104B00221A6052
:101D64001B680193019B0E4BD97FFF2907D0987FF5
:101D740001228A404FF0A04148B1C1F80C2500224D
:101D84005A771A72D3E90021064802B01047C1F805
:101D94000825F4E702B070470030004018310040D5
:101DA400040800200C0800202DE9F74F0679009064
:101DB40090464FF0240A694A01930AFB06FA02EBA3
:101DC4000A0B0C469BF81C109146002940F0C28077
:101DD400056863492846FFF793FF002840F0BC805C
:101DE40049F80A80019BCBF8043094F800C0227BA8
:101DF4004FF0A041012303FA0CF3012A94BFC1F868
:101E04000C35C1F808350CF5E0734FF0010E41F8BC
:101E140023E06378FF2B1FBF0EFA03FEC1F80CE525
:101E240003F5E07E4FF0030A18BF41F82EA0A17815
:101E340008BF4FF0FF33FF291FBF01F5E07E4FF0CD
:101E4400A04A4FF0040B4AF82EB04FF0240E0EFBBC
:101E5400069918BF0F4689F82010E17889F81F10F9
:101E640008BF4FF0FF37FF29DFF8F09017D094F840
:101E740004A04FF0010B0BFA01FB4FF0A04EBAF196
:101E8400000F5ED0CEF80CB501F5E0714FF0030BF6
:101E94004EF821B0242101FB069181F81EA0C5F85B
:101EA40008C5C5F80C35A368C5F81075C5F8243500
:101EB400637B003B18BF0123022A45D0032A46D086
:101EC400012A01D143F00203C5F85435A379C5F8BA
:101ED400C035B8F1000F02D04023C5F804330723FE
:101EE400C5F80035B8F1000F21D0009B62791B685A
:101EF40043F307310029A8BF01F16044C3F307335A
:101F0400BCBF03F00F05174C4FEA4212A8BF04F5FB
:101F14006144D2B2B4BF625584F8002303F01F03B6
:101F2400012202FA03F349090F4A42F8213024231B
:101F340003FB0696002373770123337703B0BDE8D0
:101F4400F08FCEF808B59FE743F00403BCE743F0F5
:101F54000603B9E70820F1E71120EFE704080020A1
:101F6400551D000014ED00E000E100E02DE9F3410F
:101F74000679474F242373431446FA180D46517FBC
:101F84008646002940F08180FB5823B114F0140FD9
:101F940004BF0123537795E80F004FF0240C0CFB8A
:101FA400067C0CF10C0888E80F009CF81F20FF2A1F
:101FB40008D09CF81E10012393404FF0A042C1B1F9
:101FC400C2F80835296821B101F06043B3F1005F1C
:101FD40006D1AA6882B102F06043B3F1005F0BD06E
:101FE400242303FB067600237377102002B0BDE898
:101FF400F081C2F80C35E5E7DEF800306868C3F814
:102004004415C3F84805E968C3F834250022C3F829
:102014003815C3F81821D3F818210192019A14F045
:10202400010218BF0122C3F8502514F0020218BFA0
:102034000122C3F8402522075CBF01221A61242231
:102044007243BA58B2B9D3F81821002AFBD024231A
:1020540003FB0676F27FFF2A07D0B07F012393406B
:102064004FF0A04218B1C2F80C350020BEE7C2F808
:102074000835BBE714F004004FF0400202D0C3F867
:102084000823F2E7C3F80423B0E71120AEE700BF4A
:10209400040800200023435082B043580193019B5D
:1020A40002B070470A4610B54FF48E71FFF7F2FF85
:1020B400136A9168C95C136A01331362C0F81C1572
:1020C40010BD8B690A4610B54FF4847123B9FFF72C
:1020D400E1FFD0F8183510BDFFF7DCFF536AD16873
:1020E400D0F81805C854536A01335362F3E700006B
:1020F4001FB501238DF80030044BCDE90110D3E95D
:1021040000126846904705B05DF804FB28080020DB
:1021140030B54B48D0F8043313F4007F85B005463E
:102124004DD0D0F82431002B49D04FF49271FFF7F1
:10213400B1FF4FF40173C0F80833424B93F82920E0
:102144000AB9012242603E4902228DF80020D1F8EA
:102154008024C1F8802403929A690292DA68019279
:102164000022C3E906226846D3E9001290473448A6
:10217400D0F81C315BB133490A6A4B699A420A466A
:102184004AD291F82830002B46D1FFF78BFF2C4818
:10219400D0F844318BB14FF4A271FFF77BFF294B88
:1021A40093F829200AB1012202609A692AB1002217
:1021B400586AD9689A61FFF79BFF05B030BDD5F81E
:1021C40004335B07D3D5D5F80831002BCFD01D4C91
:1021D4001B482146FFF775FF636AA2699A422346AA
:1021E400C5D1E269E1684AB12369E3600023606A0A
:1021F400A261E3616362FFF77BFFB8E794F82920EB
:102204000AB901226A600E4A4FF40170C2F8080349
:102214000022586A9A61EEE74FF48E710848FFF77E
:1022240039FF51690029B2D00023029191688DF8D9
:102234000030019153616846D2E900139847A6E73C
:1022440000200040280800202DE9F843574B057969
:1022540091462C2202FB0532064692F82A200C46AF
:102264009846002A40F09D8051490068FFF748FDD8
:102274000746002840F0978021683368481C0BD03B
:102284004FF0A04001228A40C0F8082501F5E07211
:102294004FF0030C40F822C06068421C1FBF00F5D9
:1022A400E0724FF0A04C4FF0000E4CF822E0A2690F
:1022B400C3F8242594F814C0627DBCF1010F4CEAE4
:1022C4000202C3F86C25C3F81405C3F80C151DD11C
:1022D400A1684A1C1FBF01F5E0724FF0A0404FF007
:1022E400000C40F822C0E268501C0BD04FF0A04C08
:1022F40001209040CCF8080502F5E0704FF0030E81
:102304004CF820E0C3F80825C3F810152C236B43C0
:1023140008EB0302C2F80490226948F80320B9F1DB
:10232400000F2BD03068247F4FF48E71FFF7B2FE7C
:1023340030684FF4A271FFF7ADFE32681D4BC2F84E
:102344000433110B42F30732002AA8BF02F16040A4
:102354004FEA4413BABF184801F00F0400F5614076
:10236400DBB2B4BF035580F8003301F01F01012331
:1023740003FA01F15209114B43F822103368042285
:10238400C3F800252C2303FB05830022C3E906229E
:1023940083F829205A61012283F82A203846BDE8AF
:1023A400F8830827FAE71127F8E700BF2808002078
:1023B400152100008000020014ED00E000E100E0BF
:1023C400F8B5047900682C4D0023C0F800352C239F
:1023D40003FB04535B686BB1284BC0F8083340F32C
:1023E4000733C0F304315B0901228A4020332449B6
:1023F40041F82320D0F80C65D0F81415D0F808352E
:10240400D0F810254FF0FF37BE42C0F8147518BF3E
:1024140006F5E076C0F80C75C0F80875C0F81075BC
:102424001EBF4FF0A0474FF0020C47F826C04E1CC9
:102434001FBF4FF0A04601F5E071022746F8217056
:10244400511C1FBF4FF0A04102F5E072022641F873
:1024540022605A1C1FBF03F5E0734FF0A042022113
:1024640042F82310FFF768FC2C2303FB04540023D9
:1024740084F82A306360F8BD280800208402020032
:1024840000E100E02DE9F843204B07794FF02C09D7
:1024940009FB0734054666699846002E33D1006867
:1024A4006261A16026624FF48E7184F82860FFF7A0
:1024B400F1FD2868012383602146FFF7F3FD63687B
:1024C400A14683B92868226A63699A4211D32B68AA
:1024D400D3F81C21002AFBD00122DA602C2303FB51
:1024E400078300225A613046BDE8F88394F8283007
:1024F4003BB9D0F81C31002BF8D04946FFF7D2FD88
:10250400E1E70F26EAE71126EDE700BF28080020DF
:102514000023435082B043580193019B02B070479B
:102524001FB501238DF80030044BCDE90110D3E928
:1025340000126846904705B05DF804FB540800207B
:102544007FB5364AD2F82461002E46D010464FF4A7
:102554009271FFF7DDFF02238DF80030D2F880344A
:10256400C2F880340393D2F83C3502932C4BDA68DA
:1025740001920022C3E906226846D3E9001290477B
:102584002648D0F8443173B14FF4A271FFF7C0FF6D
:10259400234B9A693AB10022C3E90622D968D0F8DC
:1025A4003C05FFF7BDFF1D48D0F820319BB14FF427
:1025B4009071FFF7ADFF1A4B5A6962B1D0F84C1510
:1025C4000291002299688DF8002001915A616846B1
:1025D400D3E90012904704B070BDD2F81031002B3B
:1025E400CED04FF488711046FFF792FF0C4BD2F80F
:1025F4003C0599698842C3D1DC69D96864B1D2F8D1
:10260400005225F02005C2F800521A699C61DA6074
:10261400DE61FFF785FFB3E79C61FAE70020004025
:10262400540800202DE9F8435B4B06799146242297
:1026340002FB0632044692F820200D469846002AF2
:1026440040F0A58055490068FFF75AFB074600286B
:1026540040F09F8029682368481C0BD04FF0A040AD
:1026640001228A40C0F8082501F5E0724FF0030CFE
:1026740040F822C06868421C1FBF00F5E0724FF0AA
:10268400A04C4FF0000E4CF822E0AA69C3F82425B0
:1026940095F814C06A7DBCF1010F4CEA0202C3F83C
:1026A4006C25C3F80C15C3F814051DD1A9684A1C80
:1026B4001FBF01F5E0724FF0A0404FF0000C40F84E
:1026C40022C0EA68501C0BD04FF0A04C012090406F
:1026D400CCF8080502F5E0704FF0030E4CF820E04A
:1026E400C3F80825C3F810152423734308EB030229
:1026F400C2F804902A6948F80320B9F1000F35D0D4
:1027040020682A7F4FF48871FFF702FF20684FF496
:102714009071FFF7FDFE20684FF49271FFF7F8FE09
:1027240020684FF4A271FFF7F3FE23681C49C3F835
:102734000413190B43F30733002BAEBF03F16040BE
:1027440001F00F0517484FEA4212A8BF00F5614097
:10275400D2B2B4BF425580F8002301F01F01012218
:1027640002FA01F15B09104A42F823102368082297
:10277400C3F80025242303FB06830022C3E90622B1
:102784005A61012283F820203846BDE8F8830827DF
:10279400FAE71127F8E700BF540800204525000098
:1027A4001003020014ED00E000E100E0F8B5047944
:1027B40000682C4D0023C0F80035242303FB045388
:1027C4005B686BB1284BC0F8083340F30733C0F3A0
:1027D40004315B0901228A402033244941F8232033
:1027E400D0F80C65D0F81415D0F80835D0F81025B9
:1027F4004FF0FF37BE42C0F80C7518BF06F5E076FF
:10280400C0F81475C0F80875C0F810751EBF4FF0F5
:10281400A0474FF0020C47F826C04E1C1FBF4FF0D4
:10282400A04601F5E071022746F82170511C1FBF34
:102834004FF0A04102F5E072022641F822605A1CD2
:102844001FBF03F5E0734FF0A042022142F82310AA
:10285400FFF772FA242303FB0454002384F8203086
:102864006360F8BD540800201003020000E100E09A
:1028740001F06043B3F1005F2DE9F041064632D127
:102884001B4B0779242505FB073598466C6964BB07
:102894006A610068A9604FF49071FFF739FE4FF444
:1028A400AC713068FFF734FE33686A69A968C3F80D
:1028B4004415C3F8482501229A606A6862B9D3F8BE
:1028C4002021D3F8584152B9002CF8D00F242423E6
:1028D40003FB078700237B612046BDE8F081002CC1
:1028E40018BF0F24F3E71024F6E71124F4E700BF20
:1028F4005408002038B5104B104C114D11490122D9
:102904001A70114BE41AE408240444F0030420462A
:10291400FEF700F92B786BB10C492046FEF7FAF864
:10292400284600F07AFB294682B22046BDE83840AA
:10293400FEF7F4B838BD00BF80080020A8300000BE
:1029440078080020A332000080300000B732000075
:1029540070B5012088B0FEF7C5FA4FF4004100209D
:10296400FDF726FF08B1FEF7DCFAFDF74FFE214B19
:102974000FCB6C4684E80F001F4B009306238DF8A1
:1029840004304FF0805302931C4A1D480023214613
:10299400FFF72EF808B1FEF7C4FA1A4B1A481B4980
:1029A4001B4C1C4DC01AC008000440F00300FEF785
:1029B400B1F8264607220021164800F0D9FA164B32
:1029C4000493002207231548227004A9CDE9053594
:1029D4000793FFF7CBFA08B1FEF7A3FA337833B1C4
:1029E400FDF740FF0028FBD1FEF76AFAE2E720BFBB
:1029F400F4E700BFD83200001C04031EF9280000CD
:102A0400E832000080300000A8300000C23200002C
:102A1400800800207808002024000020EC32000008
:102A24000369C1688B429DBF8268D21802F1FF32EC
:102A340003F1FF3394BF501A581A70472DE9F84335
:102A4400D0E902940546A9EB040840689045204467
:102A54000F46144404D900F062FAEC60BDE8F88330
:102A64004246A4EB090400F05AFA6868224607EBD0
:102A74000801F0E72DE9F843C5680646894617467C
:102A84004FF000083469B3687068A54228BFE418A1
:102A9400013C621B5C1BBC4228BF3C46944228BFDD
:102AA400144649462844224600F039FAB3682544BE
:102AB400AB4208BF00253F1BA044A144F560E1D10F
:102AC4004046BDE8F883000010B5114C114AA261DC
:102AD4000223C4E90433104BE361A2644FF400738E
:102AE4000E4A0F492362E26400231022E01DA36210
:102AF4006362E362A3656365E365226500F06BFAD4
:102B04000849204600F067FA2023A37110BD00BFD6
:102B140084080020F83200000C090020FC08002082
:102B24000133000005330000F8B5184C182300FBEE
:102B3400033503FB00402544C46A012C0F461646A6
:102B44000FD0022C1AD0F4B92846FFF769FF864249
:102B540005D8324639462846FFF770FF34462046EA
:102B6400F8BD2846FFF75CFF8642344628BF04467A
:102B7400224639462846FFF761FFF0E72846BDE8BC
:102B8400F840FFF777BF0024E9E700BF840800207E
:102B9400FFF79ABF0C4B1B78062B10D10B4B1B680D
:102BA4001A070CD10A4B186800F0F003302B08D038
:102BB40000F0E000A0F14003584258417047002063
:102BC40070470120704700BFE00F00F0E40F00F0F1
:102BD400E80F00F0094B1B78062B0CD1084B1B683F
:102BE4001A0708D1074B186800F0F000A0F1300371
:102BF4005842584170470020704700BFE00F00F072
:102C0400E40F00F0E80F00F008B5FFF7C3FF28B1A8
:102C14007D4B7E4A1B68C3F304231360FFF7DAFF7E
:102C240010B17B4B7B4A1A60FFF7B4FF28B17A4B93
:102C34007A4A1B68C3F342331360FFF7CBFF20B11A
:102C4400774AD36823F08073D360FFF7A3FF40B1C2
:102C54004FF080430022C3F80C21C3F81021C3F8BD
:102C64003825FFF7B7FF10B16E4B03221A60FFF748
:102C7400B1FF40B16C4B05221A6001229A67002211
:102C84009A603F225A60694B1B78062B50D1684BDF
:102C94001B6819074CD1674B1B6803F0F003502BDA
:102CA40046D14FF08052644BD2F80414C3F8201577
:102CB400D2F80814C3F82415D2F80C14C3F8281554
:102CC400D2F81014C3F82C15D2F81414C3F8301524
:102CD400D2F81814C3F83415D2F81C14C3F84015EC
:102CE400D2F82014C3F84415D2F82414C3F84815B4
:102CF400D2F82814C3F84C15D2F82C14C3F8501584
:102D0400D2F83014C3F85415D2F83414C3F860154B
:102D1400D2F83814C3F86415D2F83C14C3F8681513
:102D2400D2F84014C3F86C15D2F84424C3F87025C3
:102D3400FFF730FF28B1414B414A1B6803F04F03B2
:102D44001360FFF727FF48B14FF08043D3F8002406
:102D5400D20744BF6FF00102C3F80024394B1B684B
:102D6400062B08D1384B1B68062B01BF374A136862
:102D740043F480631360364AD2F8883043F4700316
:102D8400C2F88830BFF34F8FBFF36F8F4FF010231B
:102D9400D3F80022002A03DBD3F80432002B2FDA05
:102DA4002C4B0122C3F80425D3F80024002AFBD0BD
:102DB4004FF010221521C2F80012D3F80024002A83
:102DC400FBD04FF010231522C3F80422214B1A46DE
:102DD400D3F800140029FBD00021C3F80415D2F85D
:102DE4000034002BFBD0BFF34F8F19491A4BCA682C
:102DF40002F4E0621343CB60BFF34F8F00BFFDE7E3
:102E0400164B174A1A6008BD2403001040350140D0
:102E140074C007400DF0ADBA440200103C050040F8
:102E2400F0ED00E0A005004010560040E00F00F077
:102E3400E40F00F0E80F00F000C00040580200105A
:102E4400E40E004030010010340100103C17004033
:102E540000ED00E000E001400400FA052C00002031
:102E64000090D0037F2805D8034B185C034B5B5CB0
:102E74001840704700207047183300009833000052
:102E8400A0F16103192B98BF20387047A0F14103CA
:102E9400192B98BF203070477F2805D8034B185C46
:102EA400034B5B5C184070470020704718330000E8
:102EB40098330000A0F16103192B98BF20387047A4
:102EC400A0F14103192B98BF203070477F299ABF86
:102ED400017001206FF02E0070475AB10A787F2AE2
:102EE4000AD800B10260002119605960501A18BF55
:102EF40001207047002070476FF02E0070470000DB
:102F040008B5034B5B689B681B68984708BD00BF06
:102F14003000002008B50921FFF7F2FF08BD844600
:102F240040EA010313F0030F18D18446202A0BD37F
:102F34002DE9F007B1E8F807A0E8F807A2F12002AC
:102F4400202AF7D2BDE8F007042A07D351F8043B3E
:102F540040F8043BA2F10402042AF7D2002A05D067
:102F640011F8013B00F8013B013AF9D16046704782
:102F74008446002A2DD010F0030F04D000F8011B62
:102F8400013A26D0F7E7C9B241EA012141EA0141F9
:102F9400202A12D3A2F120022DE9F0030B460C469D
:102FA4000D460E460F4688468946A0E8FA03203AA5
:102FB400FBD2BDE8F00320320BD0042A05D340F83D
:102FC400041B043A05D0042AF9D200F8011B013A83
:102FD400FBD160467047024610F0030F16D111F082
:102FE400030F13D12DE9F0004FF001374FF0803378
:102FF40051F8044BA4EB070525EA04051D4002D152
:1030040042F8044BF4E7A1F10401F0BC11F8013BD0
:1030140002F8013B002BF9D1704700F1010110F0D7
:10302400030F11D010F8012B002A23D010F0030F46
:103034000AD010F8012B002A1CD010F0030F03D083
:1030440010F8012B002A15D02DE970004FF0013241
:103054004FF0803350F8044BA4EB020525EA040535
:103064001D4000D1F6E7A0F1040070BC10F8012B5C
:0A307400002AFBD1A0EB0100704719
:1030800088320000000000008F32000000000000C5
:1030900093320000000000009832000000000000A1
:1030A0009D320000000000006231000000000303B8
:1030B000F830000000000000413100001400002042
:1030C0002431000000000000303100001C0000200E
:1030D000C80000209001002098010020D0000020AE
:0430E00018000000D4
:1030E4000000000000000000000000000338FDD8CC
:1030F40070470000D903000045040000D503000018
:10310400FFFFFFFFFFFFFFFFFFFFFFFFFFFFFFFFCB
:1031140000000000000000000000D60106010000CD
:1031240079050000DD050000190500007561727461
:103134005F6C6F675F6261636B656E640072747469
:103144005F6C6F675F6261636B656E6400426163AD
:103154006B656E647320666C75736865640061707A
:1031640070000000BC0500207F0000003C06002029
:103174001B5B306D002573001B5B313B33316D00ED
:1031840025734C6F67732064726F707065642028B8
:1031940025642925730D0A003C25733E2025733AC6
:1031A4002000202530327800202020007C00256378
:1031B400001B5B313B33306D001B5B313B33326DA5
:1031C400001B5B313B33336D001B5B313B33346D90
:1031D400001B5B313B33356D001B5B313B33366D7C
:1031E400001B5B313B33376D007761726E696E672C
:1031F40000696E666F006465627567007431000073
:10320400B53100007C310000BD310000C531000043
:10321400CD310000D5310000DD310000E531000082
:103224000000000042320000ED310000F5310000E2
:10323400FA31000011121314466174616C20657236
:10324400726F720053797374656D2072657365745F
:103254000000000000000000000000000338FDD85A
:10326400704730313233343536373839414243448C
:1032740045460000FFFFFFFF0006FF00000000407E
:10328400000000004750494F54450050525300532A
:1032940050494D0055415254005541525445005433
:1032A40072616E7366657220636F6D706C657465B0
:1032B400642E002052656365697665643A00535054
:1032C40049206578616D706C6520737461727465F2
:1032D400642E0000FFFFFFFF06FF00000000004017
:1032E400000000000000000000300040000000006A
:1032F400010000005465726D696E616C0052545493
:10330400005345474745520043000000504F53497E
:103314005800000020202020202020202068282879
:103324002828202020202020202020202020202089
:103334002020202048101010101010101010101011
:1033440010101010848484848484848484841010F1
:10335400101010101081818181818101010101010E
:10336400010101010101010101010101010101103A
:1033740010101010108282828282820202020202E3
:10338400020202020202020202020202020202100B
:1033940010101020000703200417020108571040E2
:1033A400800000000C3300001034000024350000BD
:1033B40053756E004D6F6E0054756500576564005B
:1033C400546875004672690053617400000000007F
:1033D4004A616E00466562004D6172004170720080
:1033E4004D6179004A756E004A756C00417567003D
:1033F400536570004F6374004E6F7600446563003C
:1034040000000000414D00504D0000004835000010
:1034140044350000443500004435000044350000C4
:1034240044350000443500004435000044350000B4
:1034340044350000FFFFFFFFFFFFFFFFFFFFFFFF1B
:10344400FFFF000084340000B4330000C0340000E7
:10345400D43300000834000068340000183500003C
:1034640074340000256D2F25642F25790000000099
:10347400256120256220256520255420255900003A
:1034840053756E646179004D6F6E64617900547593
:103494006573646179005765646E6573646179006E
:1034A4005468757273646179004672696461790065
:1034B4005361747572646179000000004A616E752D
:1034C400617279004665627275617279004D61724C
:1034D400636800417072696C004D6179004A756ED1
:1034E40065004A756C79004175677573740053659E
:1034F4007074656D626572004F63746F626572000B
:103504004E6F76656D62657200446563656D6265D4
:103514007200000025483A254D3A2553000000006A
:10352400692E0000852E0000912E00009D2E0000C3
:10353400B92E0000C52E0000D12E0000DF2E0000A1
:06354400000000002E0053
:10354C0000000000002000400000000000200040AF
:10355C000000000000000000FF0000000000000060
:10356C00FF0000004E6F7264696300000090D0038E
:10357C00A8330000A8330000A8330000A8330000D3
:04358C00A833000060
:040000030000037581
:00000001FF
