:040FF80000000E00E7
:040FFC0000E00F0002
:02000002E0001C
:10000000000004205D030E0045030E0047030E00B0
:1000100049030E004B030E004D030E0000000000CC
:100020000000000000000000000000004F030E0070
:1000300051030E000000000053030E0055030E0094
:10004000F15B0E0057030E00015C0E0057030E001B
:1000500057030E0057030E0057030E0057030E0000
:1000600057030E0057030E0057030E0057030E00F0
:1000700057030E0057030E0057030E0057030E00E0
:10008000DD850E00A1440E0057030E0057030E003D
:1000900057030E0057030E0057030E0057030E00C0
:1000A00057030E0057030E0057030E0057030E00B0
:1000B00057030E0057030E00000000000000000070
:1000C00057030E0057030E0057030E0057030E0090
:1000D000897F0E0057030E0057030E004D6F0E0070
:1000E00057030E0057030E00F1BD0E000000000084
:1000F0000000000057030E000000000057030E0030
:1001000000000000000000000000000000000000EF
:1001100000000000000000000000000000000000DF
:1001200000000000000000000000000000000000CF
:1001300000000000000000000000000000000000BF
:1001400000000000000000000000000000000000AF
:10015000000000000000000000000000000000009F
:10016000000000000000000000000000000000008F
:10017000000000000000000000000000000000007F
:10018000000000000000000000000000000000006F
:10019000000000000000000000000000000000005F
:1001A000000000000000000000000000000000004F
:1001B000000000000000000000000000000000003F
:1001C000000000000000000000000000000000002F
:1001D000000000000000000000000000000000001F
:1001E000000000000000000000000000000000000F
:1001F00000000000000000000000000000000000FF
:10020000314932480A1A02D0072291438D463049BB
:1002100030480A1A06D00722914381F30988022246
:1002200082F314882C482D492D4A00F03CF82D48C3
:100230002D492E4A00F037F82D482E492E4A00F05D
:1002400032F82E482E492F4A00F02DF82E482F491B
:100250002F4A00F028F82F482F49304A00F023F8A1
:100260002F483049304A00F01EF83048304900220B
:1002700000F024F82F483049002200F01FF82F4AE0
:1002800090471F481F49884205D00268043003B4D4
:10029000904703BCF7E700208646EC46002000218B
:1002A000274A9047FEE7884207D0521A05D00378C4
:1002B00001300B700131013AF9D17047884202D008
:1002C00002700130FAE770470000042000F80320B4
:1002D000000004200000042018080F001C0000206B
:1002E00080000020BC030E00BC030E0078C70E0087
:1002F00018080F001C0000201C00002084C80E00FD
:1003000084C80E0084C80E0084C80E0084C80E0085
:1003100084C80E0084C80E0084C80E0017080F00A1
:100320007C080F008000002080000020800000205A
:10033000E8930020E8930020E893002085030E0056
:100340005D770E00FEE7FEE7FEE7FEE7FEE7FEE76D
:10035000FEE7FEE7FEE7FEE7704700BF1048804774
:1003600010484FF00701884385460F4880470F48E3
:10037000016841F470010160BFF34F8FBFF36F8FCD
:10038000FFF73EBF0A480B490B4A884207D0521A72
:1003900005D0037801300B700131013AF9D1704773
:1003A00059030E0000000420C1860E0088ED00E015
:0C03B00070C80E00080000201C00002097
:1003BC000020704738B504462B482C4D04F03EFB0A
:1003CC002B4B29481C6004F077FB2A4BED1AED08E7
:1003DC002D0438B9284945F0010000F0A7FC03248E
:1003EC00204638BD254B002140F603020330C3E9FB
:1003FC00021258601970224B22495960224945F06B
:10040C000405C3E90212214A1A612149214A5A61A1
:10041C00284600F08BFC05F083F98528044601D0B2
:10042C000028DDD1002005F0F3F904460028D7D1CF
:10043C0003F0FCFD184802F0C9F804460028CFD19F
:10044C00164802F085F904460028C9D114492846FB
:10045C0000F06CFC02F02AF904460028C0D11149C6
:10046C00284600F063FCBBE748C80E0018C80E0015
:10047C000801002098C70E0084C80E00AC1900209B
:10048C0094190020C1040E00B5040E003C19002084
:10049C00A5C80E0080C70E004CCA0E0028CA0E005C
:1004AC00BBC80E00C8C80E00011F014804F02CBBCD
:1004BC0048C80E0037B50D46044618B90A499320B2
:1004CC0004F0C7F91DB90849942004F0C2F901AB36
:1004DC002A462146054805F08FF8019A034904483D
:1004EC0003F098F903B030BDE2C80E0023190020C8
:1004FC0028CA0E0002F0DCBA083810B506283ED81F
:10050C00DFE800F0081E2F3D3D3D0400BDE8104023
:10051C0002F0E6B81A4B1B481B49C01AC00800046D
:10052C0040F0030000F002FC05F0B6FF08B902F041
:10053C00D5F8164B1B6813B30120BDE810401847C3
:10054C000F4B10481249C01AC008000440F00300B9
:10055C0000F0ECFB02F0F2F80C4B1B687BB10220B4
:10056C00EBE7074B07480B49C01AC008000440F0E2
:10057C00030000F0DBFBBDE8104002F0C1B810BD79
:10058C0098C70E0018C80E0072C90E000801002092
:10059C0085C90E0097C90E0008B503781BB9BDE8D4
:1005AC00084002F085BA094A042101F053FC58B105
:1005BC00074B08480849C01AC0080004BDE80840A9
:1005CC0040F0010000F0B2BB08BD00BF01050E00F9
:1005DC0098C70E0018C80E00A1C90E002DE9F047EF
:1005EC0099B1022939D123492348012203F032F968
:1005FC00224B2349024623481B1ADB081B04BDE887
:10060C00F04743F0020000F095BB1C481D4B194FFE
:10061C001D4EDFF88490C01AC008000440F0040896
:10062C0040F001043978184805F01AF8824668B988
:10063C00D6E9011248460AF01BF9144804F03CFABA
:10064C00054660B91249204600F070FB0A480122A9
:10065C00394603F0FFF80028E4D0BDE8F0870246E5
:10066C000C494046033500F065FBC6E9015A86F893
:10067C0000A0EBE75419002028CA0E0018C80E0081
:10068C00BFC90E0098C70E00AC19002048C80E0058
:10069C00E5C90E0000CA0E00941900207047000036
:1006AC0007B5044B0093044A402300F032F803B022
:1006BC005DF804FBC9060E00BD1900202DE9F843B6
:1006CC0088461446B2B10F4B0F4E0325002743F05A
:1006DC000109224608EB0701002007F009F907443D
:1006EC00241A48B933782BB14FF47A40C847013DEE
:1006FC0002D13570BDE8F88301233370002CE8D1AA
:10070C00F8E700BF60CA0E00BC190020704707F064
:10071C0023B9F0B595B01D46164608460C4604F0B4
:10072C009EFE1A9B0D93CDE9086500252B460822E9
:10073C0005A920460A958DF82C500C9504F0B6FEB0
:10074C00079B0293069B03939DF814308DF8115070
:10075C0003F00302012A1DD1BDF81420059DC3F33B
:10076C00C203C2F383168DF81030B20008230EA911
:10077C00204604F09BFEC5F3952508AB009332464A
:10078C0002AB0EA9284600F00DFC204604F06BFECF
:10079C0015B0F0BD022AF8D1BDF81650C3F3C20350
:1007AC00C5F389158DF810300827082D2E4628BF63
:1007BC0008263B4632460EA9204604F077FEAD1BB8
:1007CC0008AB02AA31460EA8374400F04FFC002DAE
:1007DC00EBD1DAE708B5FFF79AFF0748042100F0E0
:1007EC0045FB002803DA0549412004F032F8044B9C
:1007FC0001225A7108BD00BF88C70E0074CA0E00D2
:10080C0020000020037813F0040216D003F0030339
:10081C00012B03D0022B09D0012070470A680088F5
:10082C000232C0F3831002440A60F5E70B68428879
:10083C00023303EB92130B60EEE710467047000097
:10084C002DE9F04F044687B0861C00200F46154654
:10085C0003F072FC484801683960D0E90132474F17
:10086C00134401335B1A8246A7F10409A7F1080867
:10087C00B3421BD30020002D7AD004F00F039B0150
:10088C0043F0050363F30F00DAF80020DAF80830C0
:10089C001340033316444AF823000020CAF80060C2
:1008AC0003F05AFC012007B0BDE8F08F0121384657
:1008BC0004F09FF8484604F0B7F8404604F0B4F84A
:1008CC00DAF80400DAF808B0029000EA0B00033002
:1008DC000AEB800002A9FFF795FF029B0246F8B9CC
:1008EC000BEA03010AEB810103F1020CC8680390C7
:1008FC00013303EA0B0B0AEB8B0B00F0030001280E
:10090C00DBF80C10CDF808C02AD002280BD01C49FB
:10091C0001924FF4BF7003F09CFF019A93460CE0D8
:10092C000BEA0300D3E7BDF80E30C3F3891303338E
:10093C004FEA114B0CEB93030293404604F077F80B
:10094C0010B1029BCAF804305946384604F051F8ED
:10095C00DAE901231344DAF8002001339B1A87E704
:10096C00BDF80C30C3F383134FEA114B6344E3E738
:10097C00A40544F0060087E7D01A0020EC5A0020AA
:10098C000CCB0E000D4B0E4840F6FF7244F21801D2
:10099C0010B59A6000225A5044F21401C3E90022A7
:1009AC005A5044F220015A5404F012FD044610B976
:1009BC00044804F08FFD204610BD00BFD01A002063
:1009CC005CC80E00A4CB0E0030B50A4C71B10A4ABB
:1009DC000A49121BD20800239A4201D1002030BDD3
:1009EC0031F82350854202D00133F5E7034654F821
:1009FC003300F4E798C70E0048C80E001C00002016
:100A0C00094B013903EBC000032909D8DFE801F0D9
:100A1C000A02040604207047007970474079704739
:100A2C00002070470220704798C70E00034BD3E993
:100A3C000030C31A58425841704700BFD01A0020EA
:100A4C002DE9F04385B0FFF7F1FF0646002840F092
:100A5C00FF80804D44F21803E850BFF34F8F6B6852
:100A6C00AC680093234003337B4F05EB830069464E
:100A7C00FFF7C8FE009B10B13A68002A61D004EA67
:100A8C000302991C013305EB8202234005EB83031F
:100A9C00D268DB68029302F00303022B01920091EF
:100AAC0067D1BDF806306D48C3F38917502FB8468F
:100ABC0028BF4FF0500868F38F1308F10801ADF808
:100ACC00063004F09DFC0646002800F0AB8004F0D4
:100ADC00C6FC0023082201A9304604F0D3FC00997F
:100AEC0024EA01020132B8EB820F4FEA820339D9B2
:100AFC005FFA88F893B32140DCB2A8EB0408033109
:100B0C005FFA88F9A046564C05EB81010823424652
:100B1C00304604F0B7FC34B108F108034A462146CC
:100B2C00304604F0AFFC009B033703EB97070097AC
:100B3C0044F21803EB58002B4FD144F21003EC583D
:100B4C005EE02A689A4204D86A60304605B0BDE877
:100B5C00F0832340033305EB830088E740491C46B0
:100B6C009946D3E70C40E11C0823424605EB810172
:100B7C00D6E7012B56D1BDF804303848C3F38311A6
:100B8C00062928BF062161F3891302318900ADF8CB
:100B9C00043004F035FC0646002843D004F05FFC1A
:100BAC000023082201A9304604F06CFC0027BDF894
:100BBC000420C2F38312BB00974203F10803B7D29F
:100BCC0000994A1C21400331009205EB810104225B
:100BDC00304604F057FC0137E9E7304604F043FC9B
:100BEC00FFF724FF80F00100C6B2AEE7E3685B7943
:100BFC0023B1236831461B6820469847E3681C687C
:100C0C00002CF3D1304604F02EFC204603F094FA6D
:100C1C0044F21803EB580BB9009B6B60002003F0F7
:100C2C009BFADDE744F21003EC5854B90D4B0E4817
:100C3C000E49C01AC008000440F0020000F076F81B
:100C4C00CEE7236820469B689847E3681C68ECE76E
:100C5C0000267AE7D01A0020E85A00205CC80E0063
:100C6C00DC1A002098C70E00C0C70E008CCB0E00FB
:100C7C002DE9F74F284D04460F46914601A9012254
:100C8C001846D5F808A09846FFF7DAFD78B3019E10
:100C9C000023B01C434503EB000133D11F48002156
:100CAC0003F06CFE80F3100B1D4B1E4A4FEA1449E7
:100CBC009B1AB9EBD30F04D31B4940F2A31003F0DA
:100CCC00C8FD731C03EA0A03E40005EB830304F07C
:100CDC00380449EA0B4006EA0A0644F00104D860DD
:100CEC00033644EA881343EA872345F8263044F256
:100CFC002003EB5C1BB1FFF7A3FE0028FBD103B074
:100D0C00BDE8F08F0AEA010105EB810159F82320B7
:100D1C00CA600133BEE700BFD01A0020EC5A002095
:100D2C0048C80E0098C70E000CCB0E0000231A46C4
:100D3C00FFF79EBF07B50123019201AAFFF798FFA9
:100D4C0003B05DF804FB07B5CDE9002302236A4626
:100D5C00FFF78EFF03B05DF804FB1FB5CDE901234F
:100D6C00069B039301AA0323FFF782FF05B05DF8EE
:100D7C0004FB1FB5CDE90023069B0293079B03934D
:100D8C006A460423FFF774FF05B05DF804FB7FB5DA
:100D9C00CDE90123089B0393099B04930A9B0593BC
:100DAC0001AA0523FFF764FF07B05DF804FB000000
:100DBC002DE9F3472B4D0446D01C8946164601A954
:100DCC0000228008AF68FFF73BFDA8B3DDF8048074
:100DDC00AB6808F102000190013338401B1AB6EBE6
:100DEC00830F00F103004FEA830A05EB80002ED835
:100DFC00324649460BF0F1F81B48002103F0BEFDCA
:100E0C0080F3100008F101033B4007EA0807220CAD
:100E1C0005EB8303033742EA0040E400D86004F09A
:100E2C00380455F8273044F0020444EA865203F49F
:100E3C007C131A4345F8272044F22003EB5C1BB1CA
:100E4C00FFF7FEFD0028FBD102B0BDE8F08752464B
:100E5C0049460BF0C2F8A6EB0A0209EB0A0105F1B0
:100E6C000C00C7E7D01A0020EC5A002030B510490E
:100E7C0044F2100203468A58002014463CB9DC6840
:100E8C00207152B944F210054B51226030BDE46818
:100E9C002579854206D02468F0E7D2681168216074
:100EAC001360F3E701300A28E7D14FF0FF30EDE78C
:100EBC00D01A002038B50A4A44F2100344F220013B
:100ECC00D458012353541D4604B938BDE3685D71F1
:100EDC00236820465B689847E3681C68F4E700BF0A
:100EEC00D01A002007B503460846197A052911D0F7
:100EFC005B7A2BB1094A0A49019003F03BFE019839
:100F0C000849019003F036FE019803B05DF804EB3C
:100F1C0003F01EBE002AF8D0F2E700BFB0CB0E00E3
:100F2C0078000F00D2CB0E0030B5C38885B00446D4
:100F3C000D4633B1144A00921449154A284603F061
:100F4C0019FE217A05291DD0637A4BB1A088FFF7D1
:100F5C0057FD104B104953F82020284603F00AFE89
:100F6C00227A0E4BA08853F8222003920021FFF71F
:100F7C002BFD039A0A490346284605B0BDE83040CC
:100F8C0003F0F8BD05B030BDB0CB0E00BDCB0E00EC
:100F9C00B5CB0E0040CC0E0078000F0064CC0E00D8
:100FAC00D5CB0E002DE9F04385B01F460C9D0023D8
:100FBC0095F80C902B7306460C46904629463846FD
:100FCC00FFF7B2FFB8F1060F09D8DFE808F00412FA
:100FDC00181F283340003146284603F0CBFD002271
:100FEC0029463846FFF77EFF85F80C9005B0BDE822
:100FFC00F08322683146284603F0BCFDEFE7D4E9C4
:10100C0000233146284603F0B5FDE8E7A3680093BA
:10101C003146D4E90023284603F0ACFDDFE7E36852
:10102C000193A36800933146D4E90023284603F0CA
:10103C00A1FDD4E723690293E3680193A3680093AD
:10104C003146D4E90023284603F094FDC7E76369D1
:10105C00039323690293E3680193A36800933146D9
:10106C00D4E90023284603F085FDB8E708292DE9CB
:10107C00F74F80460E4617461C463CD8002593F881
:10108C000C901D7319461046FFF74EFFDFF888A031
:10109C00DFF888B0AE4231D918F805205946204601
:1010AC0003F068FD0135082DF4D11949194DDFF80D
:1010BC0070A0204603F05EFD4FF0000B5E4522D978
:1010CC0018F80B207E2A05D8104601920AF028FF4A
:1010DC00019A00B92E225146204603F04BFD0BF12C
:1010EC00010BBBF1080FE9D1012221463846FFF76D
:1010FC00F9FE84F80C9003B0BDE8F08F5146204601
:10110C0003F038FDCEE72946204603F033FDE6E731
:10111C00E9CB0E00E7CB0E00E5CB0E00DFCB0E00CB
:10112C00EBCB0E0003682F2B10B5044604D90749EE
:10113C004FF4F37003F08DFB23681F2B83BF03F078
:10114C001F03034823604FF0A04010BD78CC0E0065
:10115C0000030050032813B5044603D9084947205F
:10116C0003F077FB074B01A81B5D0193FFF7DAFF38
:10117C00019A01239340C0F8083502B010BD00BF9E
:10118C00A3CC0E0012CD0E0008B50020FFF7E2FF35
:10119C000120FFF7DFFF0220FFF7DCFFBDE808406E
:1011AC000320FFF7D7BF0000032813B5044603D96B
:1011BC000B495F2003F04DFB0A4B01A81B5D01930B
:1011CC00FFF7B0FF0199D0F8043501228A4022EADA
:1011DC0003011340C0F80815C0F80C3502B010BD5F
:1011EC00A3CC0E0012CD0E00F7B5C207044612D5E3
:1011FC00134E0025032716F8013B019301A8FFF7B6
:10120C0091FF019B013503F5E073042D40F8237029
:10121C00F1D1FFF7B9FFA30710D50A4D00240C2616
:10122C0015F8013B019301A8FFF77CFF019B0134EA
:10123C0003F5E073042C40F82360F1D103B0F0BD4A
:10124C0012CD0E000ECD0E000023C0E902328B88A9
:10125C001A44B1F9063002611A44C0E90011426126
:10126C000888003818BF012070474268118838B5CB
:10127C000346002937D0148A02F1100141602CB9C1
:10128C00C2680168FFF7E0FF204638BD90781189ED
:10129C0000F03005302D14D1947C04F03004302C47
:1012AC001BD190881969091A19610021908AB2F929
:1012BC00162008441969014419611144596101202F
:1012CC00E3E700F0F004202C07D150894143002DB6
:1012DC00ECD1986801309860E8E700F0C0008028F5
:1012EC0008BF0421F3E70846CFE770B5466804460B
:1012FC000D4663681A88AA4204D19B7803F00F0349
:10130C00082B07D12046FFF7B0FF6368B342F0D13A
:10131C00002070BD0120FCE743681A44426011B103
:10132C0001399A4201D10120704713F8010B01F8E1
:10133C00010FF6E783682DE9F3410446884623B98B
:10134C000026304602B0BDE8F081036801220DF1A1
:10135C000701984706460028F2D0A3689DF807506D
:10136C00013BA3609DF90730002B1ADA05F07F05CD
:10137C000727A368002BE3D0236801220DF1070196
:10138C00204698470028DBD0A3689DF80720013B36
:10139C00A36002F07F03BB401D43130607F1070750
:1013AC0002D4C8F80050CCE7232FE2D1C8E770B5BF
:1013BC004568AA7802F00F06082E86B003461FD1A6
:1013CC0003691C6800260CB906B070BD23686268FE
:1013DC009D68267329466846FFF736FF63680493B9
:1013EC0004F10C030593AB7803F0C003802B08BF0A
:1013FC00231D684608BF0493FFF7D9FFA468E2E7F2
:10140C0012F0C0011CD102F0300010280AD15A6928
:10141C001170072EEC68186909D10146204600F0BE
:10142C0017F8D1E79006F4D55B691980CCE72A89C7
:10143C00214614B10AF0D1FDC6E70AF0F7FDC3E767
:10144C008029C1D10069002192060160BCD5EBE76F
:10145C007FB50A4601466846FFF7F6FE30B168468E
:10146C00FFF7A5FF6846FFF700FFF7E707B05DF849
:10147C0004FB000030B5044685B01546A9B90268D6
:10148C00114B9A4211D0102D06D82A466946204697
:10149C00FFF7F0FF05B030BD102269462046FFF77C
:1014AC00E9FF0028F6D0103DEDE7A368AB4201D26E
:1014BC000020EFE723682A46204698470028F7D0FB
:1014CC00A268521BA260E5E725130E00F7B50E4685
:1014DC0001A907461546FFF72DFFA8B1019A012374
:1014EC00D3184FF0000404D2B17801F0C001802968
:1014FC0001D1204608E031899942FAD32946384671
:10150C00FFF7B8FF019BEC5403B0F0BD73B50D466B
:10151C0001A906461446FFF70DFF98B1019AB2F5E2
:10152C00803F11D2AB7803F0C003802B02F1020193
:10153C000AD02B898B4207D32146304621F8022B47
:10154C00FFF798FF02B070BD0020FBE710B5034C0D
:10155C0082600022C0E90041C26010BD25130E005C
:10156C002DE9F341002604460F46B0463546A368E4
:10157C002BB3236801220DF1070120469847F0B1E7
:10158C00A3689DF807C0013B0CF07F02C5F1200158
:10159C00A360A5F1200302FA03F322FA01F10B4335
:1015AC00AA401CF0800F46EA020643EA080805F13F
:1015BC00070502D1C7E9006802E0462DD7D100200B
:1015CC0002B0BDE8F08173B50C4669461646FFF7CC
:1015DC00C7FF68B12389082B0CD1DDE90045C6E9AA
:1015EC000045DDE90023AB4206BFA24201200020EA
:1015FC0002B070BD042B04D1009B33601C46002547
:10160C00EFE7022B4FF0000004D1009B33809CB21B
:10161C000546E6E7012BEBD1009B337003F0FF048A
:10162C00F6E737B50D4669461446FFF799FF30B11A
:10163C002A89082ADDE9003103D1C4E9003103B05D
:10164C0030BD042A18464FEAE37108D123601A46CC
:10165C000B468B4206BF824201200020EFE7022A94
:10166C0004D11BB223801AB2D317F2E7012A03D19B
:10167C005BB223705AB2F7E70020E0E7F7B51F46DC
:10168C0000233B700D460B70136001A904461646EF
:10169C00FFF750FE30B9A36813B901233B7000204B
:1016AC0003B0F0BD019C002CF7D0E30804F0070454
:1016BC0033602C70F4E713B5044605291FD8DFE816
:1016CC0001F0030F151E1E1C012201A92046FFF775
:1016DC00D1FE18B19DF90430002BF5DB02B010BD22
:1016EC00082200212046FFF7C5FEF7E701A9FFF706
:1016FC0021FE0028F2D0019AF3E70422F1E7002042
:10170C00ECE773B50D4601A90446FFF713FE064638
:10171C0018B90026304602B070BD94E80F0085E879
:10172C000F0001998A42F4D3A960A3685B1AA360E5
:10173C00F0E700002DE9F0435668B37813F0C004CD
:10174C0089B007468C46154603D0402C67D0002440
:10175C000CE003F00F025D4903F03003202B51F82D
:10176C00228023D006D8E3B1102B17D0204609B025
:10177C00BDE8F083302BF9D16B6931881980072AC9
:10178C0009D12146328928690AF050FC6B68296915
:10179C00D868FFF75DFE2A6969683EE06B69012233
:1017AC001A702A693146C0470446DFE7BCF1020FC4
:1017BC00D5F8149024D1042A22D804A9FFF7A1FF4C
:1017CC0004460028C3D0069B2BB16968B9F80030D9
:1017DC004A899A4205D8059B7B60069B002BC5D095
:1017EC00B5E708892A6903FB002204A8C04728B181
:1017FC00B9F800300133A9F80030E4E70446EAE711
:10180C00B9F8003072899A42A1D931892A69581CD9
:10181C0003FB0122A9F8000031463846C3E7D2F891
:10182C001080464656F8043B13B9FFF744FFBBE75C
:10183C00022914D104A9FFF764FF002887D0D8F837
:10184C0000306968324604A89847044600283FF4E3
:10185C007EAF069B002BF2D1059B7B6086E70129AE
:10186C0025D005292BD000297FF471AF0C460DF142
:10187C00040901340B2C3FF46AAF01224946384667
:10188C00FFF7F8FD00283FF462AF19F9013B002B7C
:10189C00EFDB0F4B049301ABCDE905340023079329
:1018AC006968D8F80030324604A898477CE70822CB
:1018BC0001A9FFF7DFFD08240028EAD147E704223D
:1018CC000DEB0201FFF7D6FD0424F5E718CD0E0051
:1018DC0025130E002DE9F04F91B00446002604A804
:1018EC00CDE90266FFF7B0FCA3683BBBDDE905342C
:1018FC0004A89D78FFF7B9FC0028F7D115F0300F3C
:10190C0003D1059B1B8803B10134002C00F0A98086
:10191C006309002202A9934240F09C8010AA02EBBA
:10192C00830304F01F0453F8383CC4F120044FF037
:10193C00FF30E040C31A584258410DE00DF103034B
:10194C0001AA0DF102012046FFF798FE38B99DF867
:10195C000330002BCAD1002011B0BDE8F08F0199E3
:10196C0004A8FFF7C2FC002850D1019BB3427DD3E1
:10197C00059D059A937803F00F03082B7FD004A8DC
:10198C00FFF773FC059B9D42F3D14FF0FF36019F8F
:10199C00B7426BD3089B9DF802A0D4F808801D6851
:1019AC004FF00109A368002D5DD098459CD12B68A0
:1019BC00D3F800B0BBF1000F08D053463A46294685
:1019CC002046D8470028C6D0AD68EBE7D3F808B05E
:1019DC00BBF800309F42F7D16A6859460AA8FFF756
:1019EC0033FC6B680E9305F10C030F939BF80230DC
:1019FC0003F0C003802B04BF2B1D0E930AAA85F89D
:101A0C000C9051462046FFF795FEDBE7059B9B7833
:101A1C0013F0300F0FD1069A3F2A0CD8510910AB96
:101A2C0003EB810102F01F020123934051F8382C83
:101A3C00134341F8383CE5682DB19DF8022001991B
:101A4C0004AB2046A8479DF8021004AA2046FFF7D5
:101A5C0071FE10E051F8225001357FF47DAF013258
:101A6C0059E7012078E798457FF43EAF9DF80210C6
:101A7C002046FFF720FE00287FF436AF6BE7168870
:101A8C0085E737B50C460546114620460192FFF70F
:101A9C00DFFC019A2146284603B0BDE83040FFF731
:101AAC0019BF70B586B0CE6801920C4602A90546E6
:101ABC00FFF727FE68B1E06858B1A378019A03F0EC
:101ACC003003202B314602A805D1FFF7DAFF039B28
:101ADC006B6006B070BDFFF7FDFEF8E7D3B50C46A2
:101AEC006946FFF73DFD80B1DDE9001300274A0888
:101AFC0001F0010642EAC37256EA07014FEA5303AA
:101B0C001CBFD243DB43C4E9002302B0D0BD37B5C0
:101B1C000D4669461446FFF7E1FF68B12B89082B87
:101B2C000CD1DDE90001C4E90001DDE900238B42A1
:101B3C0006BF82420120002003B030BD042B03D12C
:101B4C0000982060C117F0E7022B04D1BDF900000A
:101B5C00208000B2F6E7012B04D19DF90000207023
:101B6C0040B2EFE70020E7E713B504220C460DEB7B
:101B7C000201FFF77FFC08B1019B236002B010BD8E
:101B8C001146FFF7F1BF13B508220C466946FFF763
:101B9C0071FC18B1DDE90023C4E9002302B010BDCB
:101BAC001146FFF7F0BF38B52022044608300D4629
:101BBC000AF013FA2022A91804F128000AF00DFAF1
:101BCC00002038BD2DE9F3411B4D98461B4B03609B
:101BDC0004460E4628460121174602F0CFFEBFF3FD
:101BEC005F8F30BB00F0F6F83B46089ACDF80080CA
:101BFC0006F10801204608F0A3FF044600F0F8F8AF
:101C0C002B68012B03D00E49932002F022FEBFF368
:101C1C005F8F00232B6044B10A4948F2165248F2F8
:101C2C0042538C4214BF14461C46204602B0BDE8F9
:101C3C00F08148F20454F8E78C6B0020DD55AABB08
:101C4C0048CD0E008408F0000E4B984214D00AD8F0
:101C5C00B8B10D4948F2165248F20153884214BFEC
:101C6C00104618467047094B984208D0084948F26C
:101C7C00165248F20353F1E748F20350704748F20A
:101C8C00025070470102F0000002F0000202F00066
:101C9C000F02F00008B5083008F0BCFFBDE80840A2
:101CAC00FFF7D2BF10B5064C2268012A03D00549B4
:101CBC00932002F0CEFDBFF35F8F0023236010BD95
:101CCC008C6B002048CD0E0013681F2B73B5054696
:101CDC000E4614461AD901210F4802F04FFEBFF3ED
:101CEC005F8FB0B900F076F8314605F1080009F0C5
:101CFC0003F8019000F07CF8FFF7D4FF0198FFF790
:101D0C00A3FF08B92023236002B070BD48F2145021
:101D1C00FAE748F20450F7E78C6B00202DE9F0410C
:101D2C0005460E4618480121144602F027FEBFF363
:101D3C005F8F20BB00F04EF8DFF850800835B4F50B
:101D4C00805F274628BF4FF4805731463A464046BD
:101D5C000AF043F93A464146284608F075FFE41B61
:101D6C003E4450B9002CEAD100F042F8FFF79AFF3C
:101D7C002046BDE8F041FFF767BF0446F4E748F2A0
:101D8C000450BDE8F08100BF8C6B00208C5B002000
:101D9C00024B0020C3F80005704700BF00A00250A2
:101DAC0038B50A4B00251D60BFF35F8F084C01232B
:101DBC00C4F8003508F0D0FFC4F8005520B1052850
:101DCC0048F2035018BF032038BD00BF8C6B0020B5
:101DDC0000A00250044B0122C3F80025034B4FF422
:101DEC0080625A60704700BF00A0025000E100E022
:101DFC00044B0022C3F80025034B4FF48062C3F858
:101E0C008420704700A0025000E100E04B1C30B56C
:101E1C00DB00044612F003009BB20DD1074D2A6083
:101E2C001A44074B1A60074B1870074B1870074B76
:101E3C001C80074B198030BD0720FCE7986B0020F5
:101E4C00946B0020906B0020A06B00209C6B0020FA
:101E5C009E6B00202DE9F047274F3B888B420646AE
:101E6C000D46904644D3002002F066F9234B2448DB
:101E7C001978244B00881C78E2B2844238BF0132B6
:101E8C00C9B234BFD2B2002291422BD01C781A783E
:101E9C00D1B2904286BF0131C9B200211970002025
:101EAC0002F05AF94FF6FF739C4223D0DFF85C9096
:101EBC00D9F800204FEAC40A42F8348002EBC4037C
:101ECC009EB195B1104B38881B682A4604FB003034
:101EDC0031460AF082F8D9F80030534400209D8036
:101EEC00BDE8F0874FF6FF74D9E700209880F7E73C
:101EFC000920F5E70420F3E79C6B0020A06B002081
:101F0C009E6B0020906B0020946B0020986B00203F
:101F1C00F8B5114C114D264622782B789A4200D1F7
:101F2C00F8BD0F480F4A2378126807880E4802EB59
:101F3C00C301006852F83320898803FB07009047DF
:101F4C000A4922780988D3B2914286BF0133DBB2A9
:101F5C0000233370E0E700BFA06B0020906B0020E3
:101F6C009C6B0020986B0020946B00209E6B0020D3
:101F7C0040684B6898428CBF0020012070470000DD
:101F8C0037B505460C460A4801A902F082FC60B13F
:101F9C000570446001A9064802F0A5FC18B105487B
:101FAC0002F068FA002003B030BD0420FBE700BF4C
:101FBC00046C00202800002038B5C36804461BB907
:101FCC001149872002F045FC104B1B7813B90025F2
:101FDC00284638BD237D002BF9D0A36803B923759F
:101FEC00D4E903309847A368002BF0D0227D02F08F
:101FFC00FF05002AEBD06268054813446360214654
:10200C0003F072FAE4E700BF94CD0E00A86B002039
:10201C0028CE0E002DE9F743054602F01DFA0028E4
:10202C0057D10021284602F01BFAB8B1614C236845
:10203C00A3B1284602F019FA23685B68C01A20F095
:10204C007F40B0F5960F04D35B4940F20F1002F0BD
:10205C0000FC2068FFF7B0FF002323605748554F62
:10206C00574EDFF8648101A902F04DFC0446002CA8
:10207C004ED1534E4F4C534F304603F061FA00286B
:10208C0000F08D80426823685B68216851B121683B
:10209C00E1B19A421AD223681B7D1BB121683046EC
:1020AC0003F022FA304603F03BFA4FF496034268F1
:1020BC0080460021384602F05BF9002864D1236881
:1020CC0013B9284602F038F9C4F8008003B0BDE813
:1020DC00F083384A13682BB113685B68126823F0DD
:1020EC007F435360364803F02BFA0446002898D0FF
:1020FC006368B3F1807F06D22046FFF75DFF204670
:10210C0003F02AFAF1E7636823F07F436360F6E794
:10211C002378012B2DD0022B07D10024304603F05D
:10212C00FFF9002842D00475F8E7C3B963681A7D3B
:10213C00AAB901221A752846D3F8049002F095F931
:10214C00A9EB0000B0F5350F28BF6268616822BFAB
:10215C00536823F07F435360304603F0C5F901A95F
:10216C00164802F0FBFB154801A902F0CCFB044613
:10217C007DE73B686168994208BF0023304608BF81
:10218C003B6003F0F5F9EAE70D2803D14046FFF771
:10219C0013FF71E70849C22002F05BFB6CE7236870
:1021AC00002B93D1284602F0D5F88FE7012388F84D
:1021BC000030D4E7146C002094CD0E00046C002089
:1021CC0028CE0E0028000020A86B002013B50E4B63
:1021DC000E491868019008230D48582202F046FB5E
:1021EC00044668B90B4A0C4801A902F025F80446CC
:1021FC0030B90948012102F02BF9084B01221A7061
:10220C00204602B010BD00BF24CE0E00AC6B0020E7
:10221C00046C002021200E0028000020A86B002058
:10222C0070B50C461546064620B90A4940F2EF1027
:10223C0002F00FFB35B94FF4F870064902F009FBB8
:10224C00072070BD621E336854425441DD609C60AF
:10225C000020F6E794CD0E0070B50D4616460446E8
:10226C0020B90E4940F2FF1002F0F3FAB5F5350F24
:10227C0010D2237D83B90A48266102F0F6F8A368D0
:10228C002844606003B1A56021460020BDE8704081
:10229C00FFF776BE072070BD0020FCE794CD0E0042
:1022AC002800002010B5044620B9064940F21A2037
:1022BC0002F0CFFA0023237521460120BDE810401F
:1022CC00FFF75EBE94CD0E00014802F0CEB800BF01
:1022DC0028000020024B5B6803B11847704700BF11
:1022EC00186C0020024B0146D3E90002104700BFD6
:1022FC006C6C00200378052B0CD1084AD2F884347E
:10230C00D2F8802412F0FF0F04D1054ADBB2052B62
:10231C0008BF1046034B1B68184700BF00700240F3
:10232C00C0CF0E00186C0020FFF7E4BF38B50D4687
:10233C00044620B9064940F2431002F08AFA637849
:10234C00AB4283BFA07840190019002038BD00BFF4
:10235C0034CE0E0038B50D46044620B906494FF46C
:10236C00887002F076FA237AAB4283BF093405EB0E
:10237C0045056019002038BD34CE0E0070B50D46F1
:10238C00044620B90D4940F20F1002F062FA63685E
:10239C0023B90A494FF4887002F05BFA63681B6832
:1023AC0023B9064940F2111002F053FA636829462A
:1023BC0020461B68BDE87040184700BFB4CE0E0025
:1023CC0008B520B1044940F27B2002F042FABDE886
:1023DC0008400248FFF78EBFB4CE0E00C4CF0E00EB
:1023EC0010B5044620B9044940F2432002F031FAFA
:1023FC002368186810BD00BF29CF0E0000F00F0332
:10240C0010F0800F10B51C460AD0082B04D90949CE
:10241C004FF4CC7002F01DFA074800EBC40010BD5D
:10242C00082B04D903494FF4CF7002F012FA034879
:10243C00F3E700BFB4CE0E00246C00206C6C0020BF
:10244C0070B50D460646FFF7D9FF044605604DB939
:10245C00730604D105494FF4E17002F0FAF9002338
:10246C00636070BD6B681B68FAE700BFB4CE0E00EA
:10247C00012805D0022805D030B90648FFF73ABF2D
:10248C000548FBE70548F9E7054940F2622002F0F0
:10249C00E0B900BFB4CF0E00B8CF0E00BCCF0E0019
:1024AC00B4CE0E0038B5831EDBB2062B98BF1A4A89
:1024BC001A4D98BFD25C2B78A3F10203DBB288BF14
:1024CC000022062B9ABF1449CB5C0023934204468E
:1024DC0003D0B2B1124803F03BF9022C14D0A4F192
:1024EC000800424242412B78022B0FD0A3F1080185
:1024FC004B424B41934202D052B104F01BF82C706A
:10250C0038BD03F061F9E8E70122ECE70123F1E7BC
:10251C0004F006F8F3E700BFA7CF0E00BD6C002057
:10252C00300000202DE9F04F87B000260546884684
:10253C0091461F4602966B6800225C68294601236F
:10254C0002A8A047044638B98DF8060004908246CC
:10255C00564503D8052028E00136ECE76B680DF1F1
:10256C000602D3F804B02946012304A8D8476B68A7
:10257C000DF10702D3F804B02946012304A8D8476B
:10258C009DF8073043459DF8063013D14C450FD1CB
:10259C00109A13603B7087F801806A68023B54689C
:1025AC002946BA1C04A8A047002007B0BDE8F08F4C
:1025BC000134E4B26A68023BD2F804B02946002226
:1025CC0004A8D8479DF806309A44C1E7F7B50546EC
:1025DC0003F0A0F820B92B4940F2313002F039F960
:1025EC00294803F0E1FF044690BB284B1870284B98
:1025FC001860284B014618604822274809F016FD40
:10260C0026484822214609F011FD254B1DBB254AC1
:10261C001D72C3E90025002003F0FAF818B18528D3
:10262C0001D005F009F8204F002529463846FFF760
:10263C0091FE0135EDB2044610BB0B231A488DF800
:10264C00043001A9FFF79AFE044608B103F024FEFA
:10265C00204603B0F0BD95E8070083E8070000288A
:10266C00D9D1104A1A60D6E700783946FFF7E8FE50
:10267C00F1B22046FFF75AFE01360028F4D1D4E718
:10268C000026F5E7B4CE0E0035230E00BD6C0020FD
:10269C00B46C0020B86C0020246C00206C6C002002
:1026AC00186C0020BD2A0E0038D10E0010B503F0B6
:1026BC00EBFE10B90823184610BD03F0EDFE0446DE
:1026CC000028F7D1044803F0BEF803460028F2D0E6
:1026DC0004F0B2FF2346EEE7B0CF0E0003F0F2BDDC
:1026EC0008B503F0E3FE20B1044940F2D13002F00A
:1026FC00B0F8BDE8084004F02FBD00BFB4CE0E000A
:10270C0008B503F0C9FE20B90A494FF4767002F0FF
:10271C00A0F84FF08043D3F83824920704D5BDE8D5
:10272C0008400548FFF7E6BDD3F83824D107F2D4AA
:10273C0008BD00BFB4CE0E00C5CF0E0007B5822376
:10274C0001A88DF80430FFF7D5FD03B05DF804FB4C
:10275C00F7B5044620B9384940F26A5002F079F8CE
:10276C00636823B9344940F26B5002F072F8636825
:10277C001B6823B9304940F26C5002F06AF82368A8
:10278C001B6823B12C4940F26D5002F062F803F043
:10279C0083FE30B1284940F2715002F05AF80026FD
:1027AC0013E003F071FE0028F9D1F3E70078FFF78E
:1027BC0025FE0368013713B1112023E00027F9B27D
:1027CC002846FFF7B3FD0028F0D131462046FFF72D
:1027DC00C1FD0136F6B205460028EFD12946204648
:1027EC00FFF7B8FD0135EDB20646C8B9134D124ED0
:1027FC002B68BBB92C600B2301A920468DF8043043
:10280C00FFF7BCFD03B0F0BD00782146FFF718FEC2
:10281C00F9B23046FFF78AFD01370028F4D1DDE725
:10282C000027F5E7A34204D1314640F2975002F05D
:10283C0010F82B681D68DBE7B4CE0E00B46C0020DA
:10284C00024B1878003818BF01207047BC6C002070
:10285C00030710B5044604D404F0B4F9204604F080
:10286C004DFD2046BDE8104004F0F4BC04F0BCBCA7
:10287C00014B1868704700BFB46C00202DE9F84379
:10288C000F4B1C6806460D46BCB194F808904FF0EF
:10289C0000085FFA88F7B94504D82046FFF7A0FD79
:1028AC000446F1E739462046FFF754FD0378B3425E
:1028BC0008F10108EDD105B12F702046BDE8F88371
:1028CC00B46C00201146FFF759BD07B500F00F039B
:1028DC00082B019109D8FFF791FD006828B10199E7
:1028EC0003B05DF804EBFFF749BD102003B05DF8B1
:1028FC0004FB000038B5074B1C68054604B938BD0D
:10290C0029462046FFF73AFD2046FFF769FD0446AD
:10291C00F4E700BFB46C002038B5084B1C680546C2
:10292C000CB9062038BD29462046FFF727FD06289E
:10293C00F8D12046FFF754FD0446F1E7B46C0020B3
:10294C0013B50446019103F07CFE50B1064B1B7885
:10295C00022B06D10199204602B0BDE8104003F0CD
:10296C007DBE082002B010BDBD6C002013B504461E
:10297C00019103F066FE50B1064B1B78022B06D179
:10298C000199204602B0BDE8104003F0EFBE0820CC
:10299C0002B010BDBD6C002043689B6870B5054645
:1029AC000E4614469BB92B7AB34204D20F4940F21F
:1029BC00F92001F04EFFB4B931462846FFF7CAFCA6
:1029CC0046780546E1B2B14205D3002002E09847B3
:1029DC000628E8D070BD2846FFF7A8FC0078FFF762
:1029EC0037FF0134EEE70720F4E700BFB4CE0E004A
:1029FC004368DB6870B504460D4603B19847237AEB
:102A0C00AB4204D20B494FF4467001F022FF294629
:102A1C002046FFF79FFC467804460025E9B28E421B
:102A2C0000D870BD2046FFF781FC007804F0DCFB79
:102A3C000135F3E7B4CE0E0043681B6903B11847A8
:102A4C0018467047F8B50D4B0D4E1C6804B9F8BD0F
:102A5C00277A0025E9B28F4204D82046FFF7C0FC44
:102A6C000446F3E700222046FFF796FF20B13146DB
:102A7C0040F26A7001F0EDFE0135EBE7B46C00201A
:102A8C00B4CE0E00094B70B51C6804B970BD267A23
:102A9C000025E9B28E42204603D8FFF7A1FC04467C
:102AAC00F3E7FFF7A5FF0135F3E700BFB46C002097
:102ABC0038B5974B1B68044623B9964940F225401C
:102ACC0001F0C7FE01F058FB052804D8914940F2EB
:102ADC002C4001F0BEFE23780F2B13D9A3F18002FA
:102AEC0083F08003052B06D9BDE83840894940F2B4
:102AFC00265001F0AEBE052AF6D8DFE802F06429B4
:102B0C00467079D80F2BEFD801A252F823F000BFF2
:102B1C001B2C0E00492C0E00A92C0E006D2C0E0047
:102B2C008B2C0E00BB2C0E00CD2C0E00F52A0E00AB
:102B3C000F2D0E00132D0E00172D0E00F52A0E0072
:102B4C00F52A0E00F52A0E00F52A0E00C52C0E00F3
:102B5C007148FFF7C7FB7048FFF7CCFE0D20FFF75D
:102B6C00B9FBFFF78FFF00F08AFF6C4B1B6853B962
:102B7C006B4B187A00F0010003F04EFC0120BDE80D
:102B8C003840FFF78FBC0120F4E7FFF77BFF04F020
:102B9C00B9FA0020FFF786FC6248FFF7ABFE6148EC
:102BAC00FFF7A0FB0E20FFF795FB5F4B1B78023B5A
:102BBC00DBB2062B3AD85D4AD35C002B36D0BDE88D
:102BCC00384002F001BE584B1B78062B05D003F0A1
:102BDC00FD03052B2AD10220D1E70820CFE7524B69
:102BEC001B78032B22D104F0D9FAF8B10420C6E7E4
:102BFC004D4B1B78032B05D104F0D0FA10B10420F7
:102C0C00FFF750FC03F060FC80B10620B7E7464BA1
:102C1C001B78032B01D0082B02D14548FFF748FF46
:102C2C000020FFF757FB3D4B1D6805B938BD284602
:102C3C002146FFF7A3FB2B685D68F6E7FFF722FF41
:102C4C0000F014FF0220FFF72DFC0120FFF742FBE0
:102C5C002046FFF747FB2046BDE83840FFF74ABE49
:102C6C00314B1B78082B06D10220FFF71BFC03F01D
:102C7C006BFC0320EAE70520FFF714FCF9E70320BF
:102C8C00FFF728FB2B48FFF72DFB2A48FFF732FEF6
:102C9C00254B1B78062B9ED1072070E70320FFF7EE
:102CAC0001FC0220FFF716FB2046FFF723FE20460F
:102CBC00BDE83840FFF716BB0F20FFF70BFBCAE748
:102CCC00A078FFF79BFB0368054623B9114940F236
:102CDC00025001F0BEFD6B6823B90E4940F203505F
:102CEC0001F0B7FD6B6828682146984700289DD0F5
:102CFC00A07802079AD0030798D4BDE8384003F0B7
:102D0C0023BF0820D9E70920D7E70A20D5E700BF61
:102D1C00B46C0020B4CE0E00C6CF0E00B86C0020F0
:102D2C00186C0020C7CF0E00BD6C0020A7CF0E0082
:102D3C00C8CF0E00C9CF0E00CA699A4210B54360C5
:102D4C000CD38C690460086F18440867D01A1C44B3
:102D5C00C86100388C6118BF012010BD01F1280238
:102D6C0002608B670020F8E738B50D46044620B9A1
:102D7C0006494FF4887001F06CFD237AAB4283BF97
:102D8C00093405EB45056019002038BDCACF0E008B
:102D9C0038B50D46044620B9064940F2431001F0FF
:102DAC0058FD6378AB4283BFA0784019001900200E
:102DBC0038BD00BFCACF0E0008B50121FFF7D4FF04
:102DCC000121FFF7E5FF007808BD00002DE9F8436D
:102DDC0017468E4A99460B7A13700E460546904656
:102DEC0020B98B4940F20F3001F033FD2B68002BDA
:102DFC0000F08780A3F212337C2B00F23C837C2BF7
:102E0C0000F23983DFE813F088009300A100AD00D5
:102E1C00B900C500D100DD00370337033703370392
:102E2C0037033703F500080137033703370337033C
:102E3C001B012701350137033703370348015401C0
:102E4C00820137033703370337036A0176018201A6
:102E5C00370337033703370337033703940137033B
:102E6C00370337033703A801B401C001CC01D901E2
:102E7C0037033703E501F101FD01090215023703A0
:102E8C00370321022D02390245023703370358025A
:102E9C00640270027C02880237033703370337035E
:102EAC003703370337033703370337033703370346
:102EBC003703370337033703370337033703B002BE
:102ECC00BC02370337033703CE023703370337030C
:102EDC003703EB023703370337033703EB023703B0
:102EEC0037033703370337033703FD02090337036F
:102EFC003703370337032703370337033703370306
:102F0C00270308232B71B9F1000F05D140F21233BE
:102F1C002B600120BDE8F8830FB12B793B700B239C
:102F2C00B9F1010F2B710ED840F21333F0E70024E6
:102F3C000FB12B793B550134337D2B714C4505D3A7
:102F4C004FF44573E4E70124F2E700240FB12B7929
:102F5C003B55013402234C452B7103D340F21533FE
:102F6C00D6E700240FB12B793B55013402234C4595
:102F7C002B7103D340F21633CAE700240FB12B791F
:102F8C003B55013402234C452B7103D340F21733CC
:102F9C00BEE700240FB12B793B550134737E2B71A6
:102FAC004C4503D34FF44673B2E700240FB12B7991
:102FBC003B55013400234C452B7103D340F219339C
:102FCC00A6E700240FB12B793B55124B002201349C
:102FDC001A70104B1A7898F800309A4202D340F2CB
:102FEC00993395E70923A1452B7103D84FF4487306
:102FFC008EE700240FB12B793B55013404234C454B
:10300C002B710AD340F2213382E700BFC06C002041
:10301C0009D00E00BF6C002000240FB12B793B555A
:10302C00A24B30461978FFF79FFEA14B0134186074
:10303C004C4503782B7103D340F2263368E7002408
:10304C000FB12B793B55013400234C452B7103D325
:10305C0040F227335CE700240FB12B793B55944B9E
:10306C001B6801345B782B714C4503D34FF44A73C6
:10307C004EE700240FB12B793B558D4B327D1B68ED
:10308C001B789A4204F101041ED102234C452B718A
:10309C0003D34FF44B733BE700240FB12B793B5513
:1030AC00013402234C452B7103D340F22D332FE70F
:1030BC0000240FB12B793B550134737E2B714C4599
:1030CC0025D340F22E3323E7B27D9A422AD10A232C
:1030DC004C452B7103D340F2333319E700240FB165
:1030EC002B793B55013400234C452B7103D34FF402
:1030FC004D730DE700240FB12B793B5501340023A0
:10310C004C452B7103D340F2353301E700240FB14A
:10311C002B793B5501340023A1452B7109D84FF471
:10312C004F73F5E6634940F2393001F092FBF2E758
:10313C0000240FB12B793B555D4B327D1B681B78FE
:10314C009A4204F1010440F0FF8005234C452B7199
:10315C0003D340F24133DBE600240FB12B793B550E
:10316C00013424234C452B7103D340F24233CFE678
:10317C0000240FB12B793B55013400234C452B71A6
:10318C0003D340F24333C3E600240FB12B793B55F4
:10319C00013410234C452B7103D34FF45173B7E614
:1031AC0000240FB12B793B55013401204C4528717B
:1031BC0004D340F245332B60ACE600240FB12B79DD
:1031CC003B55013405234C452B7103D34FF45273FB
:1031DC009EE600240FB12B793B55013424234C453A
:1031EC002B7103D340F2493392E600240FB12B79B3
:1031FC003B55013401204C45287103D340F24A332E
:10320C00D9E700240FB12B793B55013403234C45EE
:10321C002B7103D340F24B337AE600240FB12B7998
:10322C003B550134B37D2B714C4503D34FF4537391
:10323C006EE600240FB12B793B55013404234C4529
:10324C002B7103D340F24F3362E600240FB12B797C
:10325C003B55013424234C452B7103D34FF4547349
:10326C0056E600240FB12B793B55013402234C4513
:10327C002B7103D340F251334AE600240FB12B7962
:10328C003B55013402234C452B7103D340F252338E
:10329C003EE600240FB12B793B55013405234C45F8
:1032AC002B710AD340F2553332E600BFBF6C0020BD
:1032BC00C46C002009D00E0000240FB12B793B55B3
:1032CC00013424234C452B7103D340F256331FE6B3
:1032DC0000240FB12B793B55013406234C452B713F
:1032EC0003D340F2573313E600240FB12B793B552F
:1032FC000134337D2B714C4503D34FF4567307E6E1
:10330C0000240FB12B793B550134B37D2B714C4507
:10331C0003D340F25933FBE500240FB12B793B5515
:10332C000134564B1B685A78554B1A70554B00227A
:10333C001A70544B1A78524B1B789A420DD3524A3E
:10334C0013780133137044E6B27D9A42E9D04F49A9
:10335C0040F2623001F07DFAE3E70723A1452B71BF
:10336C0003D840F26D33D3E500240FB12B793B55D4
:10337C00013405234C452B7103D340F26E33C7E562
:10338C0000240FB12B793B553E4B19783B4B1868F9
:10339C00FFF7FEFC013403782B714C4503D340F24C
:1033AC007233B5E500240FB12B793B55334B327D8D
:1033BC001B681B789A4204F1010406D103234C4587
:1033CC002B710DD340F27733A2E5B27D9A4212D124
:1033DC0002234C452B7103D34FF45F7398E5002403
:1033EC000FB12B793B5501344023A1452B7109D8E2
:1033FC0040F283338CE525494FF4607001F029FAD3
:10340C00F2E700240FB12B793B55013400234C45D6
:10341C002B7103D34FF461737AE500240FB12B7930
:10342C003B55164B327D1B681B789A4204F1010404
:10343C0007D1336A4C451B782B710DD340F289337D
:10344C0066E5B27D9A4210D100234C452B7103D313
:10345C0040F28E335CE500240FB12B793B550134DF
:10346C00084A13780133137063E7084940F292302D
:10347C0001F0EFF9F4E7002028604BE5C46C002064
:10348C00BE6C0020C16C0020BF6C002009D00E0067
:10349C0010B5044618B906495F2001F0DAF9236823
:1034AC001BB90349602001F0D4F920680C3010BD21
:1034BC0009D00E000149522001F0CBB909D00E0001
:1034CC0013B5044618B90191FFF7F4FF0199E369AC
:1034DC0023B1204602B0BDE81040184702B010BD21
:1034EC0010B5044608B9FFF7E5FF2046FFF7D0FFFB
:1034FC000023C0E91B33C0E91D338382836103625F
:10350C0000F12803836610BD2DE9F0430E4689B007
:10351C00054620B9A94940F2DD2001F09AF926B9F7
:10352C00A64940F2DE2001F094F933780E2B21D815
:10353C00DFE803F00B080B0B2010BC202008200B3D
:10354C000B0B0B002846FFF7CBFF0024204609B0DD
:10355C00BDE8F08325B999494FF4E47001F079F98D
:10356C007278D1094FEA52133AD013F0030303D007
:10357C00012B25D00624E9E702F01F02012AF9D11C
:10358C00B478062CF6D105A8039300F047FD03ABE5
:10359C000093F2783179034607462846FEF7C2FFBE
:1035AC000528D3D0039B3F2B03D98449C92001F0B4
:1035BC0050F9039A3946701C00F07CFA0446C5E7B2
:1035CC000DB9FFF777FF2846FFF762FFB378212B81
:1035DC00D0D1B6F80720072ACCD100F10C01EAE7CC
:1035EC00012BC7D10DB9FFF765FF2846FFF750FF38
:1035FC00B378202B074631D0222BBBD1B6F807303D
:10360C00002BB7D1027DB6F80330838202F00102A1
:10361C0003F001018A4298D08CB2C1F10301C9B206
:10362C002846FFF74DFF002C8FD101212846FFF7CC
:10363C009BFB2146FFF7ACFB007803F043FC2846CC
:10364C00FFF7BAFB03F03EFC07F12803C7E91B4464
:10365C00C7E91D44BC613C62BB6677E7B6F807302E
:10366C00072B87D10DB9FFF725FF2846FFF710FF71
:10367C00B3780370B6F80730DBB243700230CDE993
:10368C0005030020079000F057FD05A90020FFF767
:10369C0057F9044630B94A4B03A9CDE9033500F07C
:1036AC00F7F90446002000F057FD4FE700212846AB
:1036BC00FFF75AFB0021FFF76BFBB37802789A42B5
:1036CC003FF443AF1B06F4780AD524B1032C3FF426
:1036DC003CAF03243AE701212846FFF7F1FE35E71A
:1036EC0004F0FD03012B3FF430AF002CF1D10DB9E8
:1036FC00FFF7E0FE2846FFF7CBFE06462846FFF70D
:10370C005BFB304BF469CDE905368046ACB9336FC1
:10371C00F466C6E91C43336A63B1D6E9080106F1C5
:10372C00180383E80300346205A94046FFF71EF92D
:10373C00044600E0B4610021CEE7D6F87890B06979
:10374C004C4528BF4C4606F128072246394608F05E
:10375C0044FC336F23447367A9EB0403F366336AA9
:10376C0000223C443267B466002B3CD006F12009A1
:10377C0099E8030006F1180787E803001446326243
:10378C00F36EB0695BB3F269B16E9A421CD808F063
:10379C0024FCF369F26E7367D21AF266B26E1A44A5
:1037AC00B26600212846FFF78BFE336ADBB199E83D
:1037BC00030087E803003462E2E700BF09D00E0083
:1037CC00F9370E00452D0E001A4608F006FCF26E75
:1037DC00F36932679B1AF361B3691344B361B3693C
:1037EC00002BA1D100E0B3610024A4E710B504467E
:1037FC0060B90846FFF74CFE0378202B08D1811CDA
:10380C0007220C3008F0E9FB204610BD0320FCE732
:10381C000620FAE77FB5144606460D46FFF738FE3C
:10382C00838ADA0713D501213046FFF79DFA002170
:10383C00FFF7AEFAA30600780CBF0123002301A901
:10384C00CDE901540393FFF77BF804B070BD082059
:10385C00FBE700002DE9F341804616460F4621B9DF
:10386C00284940F2D63000F0F4FF4046FFF710FE36
:10387C00838ADB07044643D5002000F05DFCA56974
:10388C00002D35D1E36EB34212D3A16E32463846C9
:10389C0008F0A3FBE36E66679B1BE366A36E3344E1
:1038AC00A366002000F058FC284602B0BDE8F08169
:1038BC00C4E906764046FFF77FFA134BE26ECDE97A
:1038CC000034064662B1A16EA06908F086FBE36E77
:1038DC00E269D21AE261A269C4E91B531A44A261DB
:1038EC0069463046FFF742F8051E08BF9225D8E717
:1038FC00236A1BB9C4E908769225D2E71125D0E7D3
:10390C000825D1E709D00E00452D0E000020704788
:10391C0010B5044620B9044940F2432000F099FF49
:10392C002368186810BD00BF29CF0E002DE9F04F99
:10393C002DED028B4B6885B007460C4691466BB952
:10394C000868FFF7E5FF48B9A5683DB9C7E9005518
:10395C00284605B0BDEC028BBDE8F08FB9F1400FE5
:10396C0004D935494FF4CB7000F073FF02F048FFD7
:10397C00E36801904B4528BF4B46984604F1100371
:10398C004FF0000A08EE103A56460125B8F1000F28
:10399C002DD0A368616843459B4628BFC34651B3ED
:1039AC00019B5A46981908F018FB00236360A36822
:1039BC00E268A3EB0B03A2EB0B02A360E260A8EBA3
:1039CC000B085E4433B9BAF1000F03D02068FFF73F
:1039DC009FFF2060E368002B2CD0A368002BD5D16F
:1039EC002268BAB9626016B1B14588BF0025019B47
:1039FC00C7E90036ACE7002BD9D02168019A4B6897
:103A0C0018EE100AD3F804A032445B46D0474FF0AE
:103A1C00010ACCE7029321684B680022D3F804B06A
:103A2C0002A80123D84708B92061AFE7A368013386
:103A3C00A360F0E71D46A9E7B0D00E00084B1A783A
:103A4C0082420CD0052818BF064A187018BF13788C
:103A5C0005481CBF23F002031370FFF729B8704709
:103A6C00D46C0020F06C002048D10E0008B500206A
:103A7C00FEF7EEFEBDE808408020FEF7E9BE08B573
:103A8C000020FEF7F3FEBDE808408020FEF7EEBEF6
:103A9C0038B505460C4603F023F9A84205BFD4E916
:103AAC000001034B1020C3E9000108BF002038BD02
:103ABC00F46C00207FB5C38893421E4628BF16467F
:103ACC0093420D46144620D9802002F0B5FDB4FB7C
:103ADC00F0F202FB1040B0FA80F040090390002095
:103AEC00CDE9015600F028FB01A98020FEF728FF44
:103AFC00044620B906498020FFF7CAFF044600207F
:103B0C0000F02AFB204604B070BD0020E6E700BFA1
:103B1C007CD10E002DE9F04F0B780E2B89B00446AA
:103B2C000D4613D8A3B1013B0D2B11D8DFE813F0D0
:103B3C00120024001600100035003B02100010008B
:103B4C001000100010021B0228023002852B1ED020
:103B5C00062418E00320FFF771FFF9E7AB4800F0EB
:103B6C0066FF30B1AA4B01221A60BFF36F8FBFF30F
:103B7C004F8FA84B1C780CB1002404E0A64940F2EE
:103B8C00374000F066FE204609B0BDE8F08FA14B2F
:103B9C001B78032BDCD10420DDE705230DF1150088
:103BAC008DF8143003F032F89DF815709B4D0023FE
:103BBC0007F01F072B60032F00F28881DFE817F056
:103BCC0004001C017D01D80024B9934940F25D30FA
:103BDC0000F03FFE9DF8153013F0600FC3F3411059
:103BEC0040F0C680DB099DF8161000F0B280062963
:103BFC0018D0082900F0A080002940F0B980884C2A
:103C0C000222204608F012FA237843F001022270B7
:103C1C00844A1278910744BF43F0030323700222B5
:103C2C007F490FE09DF81830022B11D0032B75D073
:103C3C00012B40F09D80BDF81B30002B00F0AC80B8
:103C4C00794912220DF11500FFF734FF04463BE0D1
:103C5C00BDF81B30002B00F09F80092B28BF0923D7
:103C6C009846FEF705FEDFF8B0A106464FF00909AD
:103C7C007EBB6B4C6D494246204608F0AEF927716D
:103C8C00A4F80290FEF7DCFD18B1E37943F02003B1
:103C9C00E371FEF7EDFD664BC3E90004C3F8088041
:103CAC00BDF81B20DA60002000F046FA6149802044
:103CBC00FEF75CFE044620B95F498020FFF7E8FE62
:103CCC000446002000F048FA062C51D0002C63D09A
:103CDC005AE0736823B9514640F2C62000F0B9FD92
:103CEC0073685B6823B9514640F2C72000F0B1FD00
:103CFC000024039473680022D3F804B031460123E6
:103D0C0003A8D84740B9337A30461F44FFF700FE6A
:103D1C00A144FFB20646ABE70134EBE7BDF81B301C
:103D2C00002B39D0BDF819109DF8170000F0D0F910
:103D3C000146E8B1027885E7364A1278052A03D1A4
:103D4C00374A137001226BE7042A11D1344B1870D7
:103D5C00F8E7013908290BD8DFE801F02B0A0E0A25
:103D6C00050A0A0A38002C4940F2813000F071FD36
:103D7C0005A8FEF7D1FD9EE0BDF81730012BF7D159
:103D8C00FEF75EFD18B90F2402F0A7FFFBE6254AEB
:103D9C00137843F0020313702C68002C00F02C8174
:103DAC0002F09EFF044600287FF4E6AE02F054FFBA
:103DBC00E9E6BDF81730012BDAD1FEF741FD0028FA
:103DCC00E1D0184A137823F00203E4E7114B1B7877
:103DDC00043B012B01D90824D6E79DF817302BB9E9
:103DEC00FEF750FE0420FFF729FED5E7012B5BD12F
:103DFC00FEF728FE0520F6E79DF8190003A9FEF74B
:103E0C003DFD0746D0B91024BEE700BFFC6C002076
:103E1C005C700240D46C0020B0D00E00F46C00201A
:103E2C00006D0020F06C002068D10E0049D10E000E
:103E3C00D86C002084D10E007CD10E009DF80C10A3
:103E4C0005AAFEF73FFD062804467FF43FAF9DF818
:103E5C00152012F0600F97D16A4B9DF80C101E784C
:103E6C009DF81630D20916D07BB10A2B8CD1052EB9
:103E7C00B1D138460192FEF7DFFD6349019A087013
:103E8C000DF11500FFF716FE15E0052EA3D15E49C6
:103E9C000B800222F4E70B2B7FF476AF052E9AD120
:103EAC00BDF81730FF2B01D907246DE79DF81720BB
:103EBC003846FEF771FD044608E79DF81900020725
:103ECC0006D19DF8153013F0600F09D006245BE77E
:103EDC0005A9FEF7FAFC062804467FF4F7AEF0E7D6
:103EEC009DF81620474B9DF819401B78012A1DD0D0
:103EFC00032A0CD0002AE9D1052B02D023077FF42A
:103F0C006AAF204602F03EFE3F490880C1E7270712
:103F1C00DCD4BDF81720002AD8D1052B02D02607F7
:103F2C007FF459AF204602F00FFE35E72007CDD4C1
:103F3C00BDF81720002AC9D1052B02D021077FF428
:103F4C004AAF204602F03EFE204603F0D7F923E7A5
:103F5C002C4B1B78002B3FF40FAE2C4940F24B40FE
:103F6C0000F077FC08E6274B1B78012B04D027497F
:103F7C0040F2514000F06DFC0020FFF75FFDFBE5C7
:103F8C004FF08043D3F83834DA070AD50220F4E72F
:103F9C001C4B1B78012B04D81C4940F2654000F0E7
:103FAC0058FC0120E9E7CB78032B3FF4D1AD8B789B
:103FBC005B0604D0154940F2734000F04AFC144EE5
:103FCC003368E3B100227168E878326098470446A0
:103FDC0000287FF4D9AE336823B1AB78002B7FF483
:103FEC00CBADE3E60B4B1B68082B7FF4C5AD0A4B3E
:103FFC001B68002B3FF4C0AD02F06CFEC3E50E2431
:10400C00C2E600BFD46C0020006D0020B0D00E00C2
:10401C00F46C0020300100103401001008B1402372
:10402C0003600148704700BF006D002070B54FF071
:10403C00805286B0D2F8A830D2F8A42000926FEA51
:10404C0083436FEA93430B4A0B4E9BB20D2102A89C
:10405C0007F09EFF02AD002402A808F03CF8844251
:10406C0001D306B070BD15F8013B06F8013B0134D5
:10407C00F2E700BF8CD10E00406D0020F8B5124B5A
:10408C0053F820502B7813B9AE1C3046F8BD0020E5
:10409C00FFF7C4FF0D4F0646013D002315F8012F15
:1040AC005C1C2AB96400E4B244F440743480ECE73C
:1040BC001E2B03D93946E62000F0CBFBE3B22A785D
:1040CC0026F81320EAE700BF64D20E0095D10E004B
:1040DC0008B9FFF7D3BF052807D8054A105C20B1F3
:1040EC00044B53F82030002BF3D10020704700BF55
:1040FC007CD20E0064D20E0072B6024A13680133F1
:10410C0013607047506D0020034A1368013B136025
:10411C0003B962B6704700BF506D0020EFF3058302
:10412C00C3F308032BB9EFF31480C04300F0010074
:10413C00704701207047000008B5FFF7EFFF01281A
:10414C0003D00449432000F084FBBDE80840FFF78E
:10415C00D3BF00BF82D20E0008B5FFF7DFFF0128E6
:10416C0003D00449512000F074FBBDE80840FFF770
:10417C00CBBF00BF82D20E00EFF30583C3F308035D
:10418C008BB1103B5AB2002AADBF02F16043074A13
:10419C0003F00F0303F56143B4BFD05C93F8000345
:1041AC004009C0B270470F20704700BF14ED00E00B
:1041BC0030B53AB11368DB430A4D0144814204D156
:1041CC00D84330BD4FF0FF33F6E710F8012B5340C6
:1041DC00082213F0010418BF2C46013A84EA530359
:1041EC00F7D1EBE72083B8ED70B50C4616460546C3
:1041FC0018B90549DF2000F02CFB2B68C3F84443A9
:10420C000EB1C3F8044370BD00D30E0037B50C4695
:10421C00054618B90749F02000F01BFB2B6818590C
:10422C0028B100221A511B590193019B012003B0A4
:10423C0030BD00BF00D30E002DE9F8430F461546E4
:10424C00044618B93149552000F003FB1FB92F491A
:10425C00562000F0FEFA1DB92C49572000F0F9FA4F
:10426C0063792B4A2B4E42F823502B4AB61A2B4A11
:10427C0002EBC303F6081B79360490463BB146F0BB
:10428C0002002749FCF752FD0820BDE8F8833D8861
:10429C00D4F80090B5F5805F04D322494FF4BA707E
:1042AC0000F0D7FAC9F80855BF7894F90450072FD5
:1042BC0003D91D496B2000F0CCFA002DB8BF1B4B65
:1042CC001B49ACBF05F1604505F00F054FEA4717D8
:1042DC00FFB2AABF05F561455F5585F8007394F9E7
:1042EC0004300122580903F01F0302FA03F341F8CA
:1042FC002030637908EBC30146F003000A7148F8DB
:10430C0033400C49FCF712FD0020BEE700D30E0031
:10431C005C6D0020C8C70E0098C70E00546D0020BD
:10432C0082D30E00A4D30E00CED30E0014ED00E009
:10433C0000E100E0FAD30E0010B5044618B90449A8
:10434C00872000F086FA236801221A6010BD00BF96
:10435C0000D30E0010B5044618B904498D2000F0A6
:10436C0078FA236801225A6010BD00BF00D30E00FA
:10437C002DE9F3410C4615461E46804618B92E49C8
:10438C00AC2000F066FA04F150029200D8F800302C
:10439C0092B24FF48037A7400021C3F80873C3F8DA
:1043AC004873995003EB84049A58019225F07F4589
:1043BC00019AD4F84025C4F84055D3F80435D31AE3
:1043CC0023F07F43012B0FD11C481D4B1D491B1A99
:1043DC00DB081B0443F00400FCF7A8FC1A4B4FF459
:1043EC00046043F001039847D8F80010C1F84473F7
:1043FC00D1F80435E81A20F07F4226F07F460002FF
:10440C0048BF42F07F427642964210DA022A0EDC16
:10441C000A4A0B480D49801AC008000440F00400F9
:10442C002A46FCF790FC0D2002B0BDE8F081C1F8E3
:10443C0004730020F8E700BF00D30E0098C70E00ED
:10444C00C8C70E000CD40E0080D40E003DD40E0054
:10445C000A460221FFF7C8BE4FF48271FFF7D6BEA1
:10446C005031890089B2FFF7D1BE0368D3F8040537
:10447C007047000090F9043001215A0903F01F0322
:10448C0001FA03F34032024941F82230704700BF71
:10449C0000E100E0024B034A1B681068184700BF9C
:1044AC005C6D0020546D002038B51B4CA3781BB9F3
:1044BC001A49502000F0CDF9194A1368002B114607
:1044CC0025DC6078A388E27BB0B1607B851A9D42C5
:1044DC000FDC002363706369A08003B105330B60AC
:1044EC002179104800F0AEF9A0B1BDE8384003F0D6
:1044FC00A3B81344A380F3E7A07B85189D4204DB8B
:10450C0001236370A0802369E7E79B1AF2E7FF3B66
:10451C001360E5E738BD00BF606D002086D40E0047
:10452C00CC6D0020906D002038B5254DAB7804463D
:10453C001BB12449812000F08CF91CB9214982203F
:10454C0000F087F96378002B38D0A2789A4235D2E4
:10455C00E378002B32D0E368002B2FD054220021BB
:10456C00174807F063FD14222146174807F035FD64
:10457C00E278A37815491344AB804FF480732B80F9
:10458C00E368AB60AB6223692A7B6B62FF2385F81F
:10459C00202085F821300E4A0E4BEB6201F1100001
:1045AC0000F0B4F858B90123AB70A178E3780A484D
:1045BC001944C9B2BDE8384000F044B9072038BDF1
:1045CC00606D002086D40E006C6D0020806D002084
:1045DC00B5440E000CD50E00906D002010B5074BA5
:1045EC009B78012B044603D00549B12000F031F92A
:1045FC0021460448BDE8104000F0E8B8606D00208A
:10460C0086D40E00906D0020014800F003B900BF65
:10461C00906D002038B5054CA27805461AB90449AE
:10462C00C52000F016F9256138BD00BF606D002073
:10463C0086D40E0038B5054CA27805461AB9044943
:10464C00CD2000F006F9656138BD00BF606D00201B
:10465C0086D40E000178036AC26821B1C3F80C2518
:10466C00002343707047C3F80825F9E738B5037D7C
:10467C000446002B3FD18369DBB9E378A2789A42D8
:10468C001FD12078236AE168C0B1C3F80815012353
:10469C000532637022612379022B0ED1E369216903
:1046AC0018682246FDF7D8FD38B1BDE8384002F055
:1046BC00C3BF98472379022BDFD038BDC3F80C1544
:1046CC00E5E733B92046FFF7C5FFA378053323612F
:1046DC00E1E72578216AE06855B1C1F8080513FBBC
:1046EC0002F31B1201210533617023612175D2E79E
:1046FC00C1F80C05F3E7FFF7ADFF0023C278037593
:10470C0083789A1A53431B12E0E700002DE9F84313
:10471C00037904460D4616461BB128499D2000F02E
:10472C0098F8AB681BB925499E2000F092F86B688D
:10473C001BB922499F2000F08CF86B781BB91F49DC
:10474C00A02000F086F8A661AE682B782370C4E92F
:10475C0002666B6823626B78A370E868184AE061A4
:10476C000021FDF75DFD054658B9DFF85880DFF8EC
:10477C005890032746B92046FFF76CFF012323719D
:10478C0035462846BDE8F883F3070DD52F2D0ED9F5
:10479C0049464FF4F37000F05CF805F01F034246F5
:1047AC0003F5E07342F8237001357608E2E71F2D1C
:1047BC00F3D82B464FF0A042F2E700BF10D50E0005
:1047CC0079460E000003005078CC0E0070B50379CA
:1047DC0004460D461BB90E49CD2000F03AF8A368EB
:1047EC001D4203D10A49CE2000F033F802232046A3
:1047FC002371E560FFF72EFFA168A6692943002508
:10480C00A1602575A561FFF731FFA661284670BD33
:10481C0010D50E0038B50379022B044603D0084995
:10482C00E32000F016F8E3691868FDF73BFD054638
:10483C002046FFF70FFF0DB901232371284638BD21
:10484C0010D50E0083788B4226BFC1700020072044
:10485C00704707B5ADF8000001916A46002144F29B
:10486C00020002F0D3FE03B05DF804FB10B561B199
:10487C00B2FBF3F403FB1424A4B244B9C0E9001452
:10488C0084608281C381204610BD0E20FCE7092084
:10489C00FAE737B550E8013F9DB2C48925448489B5
:1048AC00A54228BF2D1B0489A54202BFBFF32F8F41
:1048BC00002207E0C5EA030540E80154002CE9D1C9
:1048CC004FF001028DF803200193019B9DF803200A
:1048DC000B6002F0FF0322B10B880068184403B090
:1048EC0030BD1846FBE70A884B889A4209D150E83C
:1048FC00012FC2EA024240E80123002BF7D101202C
:10490C0070470020704737B550E8023F1FFAA3F5F7
:10491C00C488A54202BFBFF32F8F00220DE0C489CB
:10492C0025448489A54228BF2D1BC3EA054540E8D0
:10493C000254002CE8D14FF001028DF803200193B2
:10494C00019B9DF803200B6002F0FF0322B14B8802
:10495C000068184403B030BD1846FBE70A884B8842
:10496C009A4209D150E8022FC2EA224240E80223BF
:10497C00002BF7D1012070470020704710B503467B
:10498C0053E8000F0A4643E8002494F0000FF7D1D7
:10499C0010BD10B5034653E8000F40EA010243E88E
:1049AC00002494F0000FF6D110BD10B5034653E867
:1049BC00002F42EA010043E8000494F0000FF6D106
:1049CC0010BD10B5034653E8000F00EA010243E89E
:1049DC00002494F0000FF6D110BD10B5034653E837
:1049EC00002F02EA010043E8000494F0000FF6D116
:1049FC0010BD10B5034653E8002F02EB010043E84D
:104A0C00000494F0000FF6D110BD10B5034653E826
:104A1C00002FA2EB010043E8000494F0000FF6D144
:104A2C0010BD0121FFF7B5BF0121FFF7BEBF00216B
:104A3C00FFF7C7BF0021FFF7D0BF000010B5044639
:104A4C00002834D003681BB91A49FF20FFF701FF77
:104A5C00636823B917494FF48070FFF7FAFEA36817
:104A6C0023B9144940F20110FFF7F3FEE36823B9B0
:104A7C0010494FF48170FFF7ECFE238A23B90D49DE
:104A8C0040F20310FFF7E5FED4E9012321689B1ADD
:104A9C00DBB20A60013BDBB2FF2B226802D10020A3
:104AAC00107110BD1168481C10600B70F2E70E20DD
:104ABC00F7E700BF9CD50E0038B5044620B9114964
:104ACC004FF49270FFF7C5FE0020FFF735FB22680C
:104ADC0063681168994213D9481E106011F8015C83
:104AEC00E368218A01FB0535A36811791B1ADBB237
:104AFC00994200D213710020FFF72EFB284638BDD7
:104B0C000025F8E79CD50E0038B50C46054620B9B3
:104B1C000E4940F24710FFF79CFE24B90B494FF4A5
:104B2C00A470FFF796FE0020FFF706FB2A681368B7
:104B3C00591C1160E968641A298AB4FBF1F41C70E1
:104B4C00BDE838400020FFF707BB00BF9CD50E0026
:104B5C0010B5044618B906493120FFF77AFEA26851
:104B6C002AB163692168206998470023A36010BDAE
:104B7C0015D60E000EB433B5059D044618B911496F
:104B8C004220FFF766FE63691BB90E494320FFF70D
:104B9C0060FE23681BB90B494420FFF75AFE63687B
:104BAC001BB908494520FFF754FE35B106AB01AAE5
:104BBC0029462046019300F079F802B0BDE8304058
:104BCC0003B0704715D60E000A2938B504460D46B9
:104BDC0002D10D21FFF7F8FFA3682268591CA160D0
:104BEC00D554D4E901329A4204D32046BDE838406A
:104BFC00FFF7AEBF38BD00002DE9F84F9846DDE950
:104C0C000A43154682460F460A464FF00109AA424E
:104C1C000FD2C14538BFC14613F0010B01D16CB99D
:104C2C0000240126B8F1010F1BD908F1FF386E439F
:104C3C00F8E709F10109B2FBF5F2E8E79B070ED59D
:104C4C00B8F1000F0CBF30262026A145E9D2013C5B
:104C5C0031465046FFF7B8FF002CF6D1E0E720268E
:104C6C00F3E7B7FBF6F39D42E1D9DFF83C80B7FBE5
:104C7C00F6F3504618F8031006FB1377FFF7A4FF62
:104C8C003346AB42B6FBF5F6F1D2BBF1000F02D0C6
:104C9C000CB1A14501D3BDE8F88F20215046013C51
:104CAC00FFF792FFF4E700BFFAD60E002DE9F74F9D
:104CBC0088461746054620B9B1494FF4A270FFF754
:104CCC00C8FD6B6923B9AE494FF4A370FFF7C1FD62
:104CDC002B6823B9AA4940F24710FFF7BAFD6B685D
:104CEC0023B9A7494FF4A470FFF7B3FDB8F1000F37
:104CFC0000F0428118F8011B49B92B7B002B00F006
:104D0C003B81284603B0BDE8F04FFFF721BF2529B2
:104D1C0040F0B780002698F800302D2B424608F161
:104D2C00010823D0302B24D02B2B25D000242A2B68
:104D3C0002F1010123D13B681A1D1B683A601C4427
:104D4C000A4613782E2B26D101324FF0000A10465A
:104D5C0010F8011BA1F1300CBCF1090F1DD80A236E
:104D6C0003FB0A13A3F1300A0246F0E746F00106F2
:104D7C00D1E746F00206CEE746F00406CBE711F881
:104D8C00013CA3F130000928DBD80A2202FB0434D1
:104D9C00303C0A46CBE74FF0000A12F8011B01F039
:104DAC00FB0068289046F8D0782909D86F290CD8D0
:104DBC00632962D022D8252963D0582900F0888035
:104DCC0098F80030002B95D197E770390829F7D85F
:104DDC0001A353F821F000BF5F4F0E00CD4D0E0024
:104DEC00CD4D0E00ED4E0E00CD4D0E00CB4E0E00F7
:104DFC00CD4D0E00CD4D0E00DD4E0E00642901D0C0
:104E0C006929DDD13A68D2F80090111D89EAE9725E
:104E1C003960A2EBE9724FF0010B092A35DCD3455E
:104E2C0038BFD3462CB1B9F1000F01DB720700D5A6
:104E3C00013CB30702D5BAF1000F03D0F00701D43F
:104E4C004CBB0024B9F1000F2DDAC9F100092D215A
:104E5C002846FFF7B9FE06F00302022A04D1BAF184
:104E6C00000F01D11CBB0024CDE9004653460A2299
:104E7C0049462846FFF7C0FEA2E73B681A1D197881
:104E8C003A602846FFF7A0FE9AE70A230BF1010BC4
:104E9C00B2FBF3F2C1E7A345D4D220212846013C52
:104EAC00FFF792FECCE77107D5D52B21D0E7A345B0
:104EBC00DAD230212846013CFFF786FED2E739686A
:104ECC00CDE900460A1D3A6053460A220968D0E72C
:104EDC0039680A1D3A60CDE9004653461022F5E7C1
:104EEC003B681A1D3A6016F00106D3F8009028D1E1
:104EFC00B9F1000F03D0484607F0EDF80646B4426E
:104F0C0000D904BB09F1FF3919F8011F00293FF43E
:104F1C0057AF2846FFF758FEF6E728460136FFF74D
:104F2C0053FE19F806100029F7D1A642BFF448AF7A
:104F3C00002C3FF445AF20212846013CFFF744FEEE
:104F4C00F3E70026EDE720212846013CFFF73CFE65
:104F5C00D5E73B681A1D3A60302128461C68FFF7DC
:104F6C0033FE78212846FFF72FFE00220823CDE9D7
:104F7C000032214610227CE703B0BDE8F08F00BF61
:104F8C0084D60E0013B50B46114680B9104B114850
:104F9C00114AC01A0E23C0080093104B000410498C
:104FAC0040F00100FBF7D9FE0E2002B010BD4BB94A
:104FBC00074B08480B4AC01AC0080E230093000484
:104FCC00064BECE703601B6802B0BDE810401847C5
:104FDC0098C70E0038C80E000AD70E00A0D80E00D5
:104FEC000FD70E003ED70E002DE9F34188B93D4B8B
:104FFC003D483E4AC01AC0080E243D4B00940004A4
:10500C003C4940F00100FBF7A8FE204602B0BDE889
:10501C00F0814AB9334B3448374AC01AC0080E24C1
:10502C00334B00940004EBE7D0F800E0BEF1000F26
:10503C0009D12C4B2C48314AC01AC00808242C4BDF
:10504C0000940004DCE74BB9264B27482C4AC01AC5
:10505C00C0080924264B00940004D1E74568D5F814
:10506C000480B3FBF8F508FB15354DB11D4B1E48FC
:10507C00244AC01AC00809241D4B00940004BFE741
:10508C008D0709D0174B18481F4AC01AC0081024A6
:10509C00174B00940004B3E712F0030F09D0114B27
:1050AC0011481A4AC01AC0081024114B009400046D
:1050BC00A6E7C568A9420BD34D1EEC180569AC4296
:1050CC0006D8DEF80C40A44602B0BDE8F0416047BB
:1050DC00044B05480E4AC01AC0081024044B009417
:1050EC0000048DE798C70E0038C80E000AD70E00D2
:1050FC00B2D80E000FD70E008CD70E0038D70E008A
:10510C004BD70E0092D70E00BCD70E00D4D70E0092
:10511C00F7D70E00F7B580B92A4B2B482B4AC01A8B
:10512C00C0080E242A4B009400042A4940F00100C8
:10513C00FBF713FE204603B0F0BDD0F800C0BCF165
:10514C00000F09D11F4B2048234AC01AC00808245D
:10515C001F4B00940004E8E74AB91A4B1A481F4A3F
:10516C00C01AC00809241A4B00940004DDE74768F4
:10517C00D7F800E00EF1FF370F4209D0114B12485F
:10518C00174AC01AC0081024114B00940004CCE735
:10519C00C768B9420CD304694D1E0EFB0255A542DB
:1051AC0006D8DCF81040A44603B0BDE8F0406047D8
:1051BC00044B05480B4AC01AC0081024044B009439
:1051CC000004B2E798C70E0038C80E000AD70E00CC
:1051DC00C5D80E000FD70E0038D70E004BD70E00D7
:1051EC001ED80E0044D80E0070B550B90E4D0F4CA1
:1051FC000026641B1423B4FBF3F4B44208D1002042
:10520C0010E00368002BF1D0BDE87040DB69184753
:10521C002B6813B901361435EFE7DB69284698473C
:10522C000028F7D070BD00BF080000201C00002033
:10523C00014B436000207047D8D80E0008467047D9
:10524C0000207047024B1868003818BF01207047C7
:10525C00D06D002008B50248FFF7ECFB002008BD1C
:10526C00D06D002008B510461A4606F0B6FE002098
:10527C0008BD00002DE9F043814687B014480E4666
:10528C0015469846FFF7CDFB0446F0B90746BD42DC
:10529C0015D10F48FFF7CEFBD9F808305BB10222CD
:1052AC008DF800200022CDE90126CDE90325CDF8AB
:1052BC00148068469847204607B0BDE8F08306EB9B
:1052CC00073000F0D5FA0137E1E71124F3E700BF0E
:1052DC00D06D00202DE9F041804686B011480F4674
:1052EC0016461D46FFF79DFB0446C8B9AA08314671
:1052FC00384600F0D5FA0B48FFF79CFBD8F808307D
:10530C0053B101228DF800200C9A0592CDE901478A
:10531C00CDE9036568469847204606B0BDE8F081A4
:10532C001124F9E7D06D00202DE9F74F99469DF82F
:10533C003030009388469346064618B92349B62068
:10534C00FFF787FAF18872794A43043A4A4505D83F
:10535C001E490192C420FFF77CFA019ADBF8007019
:10536C00B6F806A007EB0901914209F1040488BFC5
:10537C00A2EB0907B4FBFAF5CBF800700AFB154455
:10538C0045B9AAEB040BBB4528BFBB462FB903B0EC
:10539C00BDE8F08F3668013DF2E7009B043408EB62
:1053AC00050034445A466BB12146A7EB0B0706F0B7
:1053BC0014FEBA455D443668D3464FF0000428BF4E
:1053CC00BB46E3E701462046EFE700BF04D90E00D9
:1053DC00FFF734BBF8B546790146721E054600232B
:1053EC0093422D6803D30024A64202D8F8BD0133A2
:1053FC00F6E70F682846FFF787FB01343946F3E7D9
:10540C002DE9F843068ACD1C0746FFF755FB043EF1
:10541C0035440446B5FBF6F5F0B14FF48073EDB2AC
:10542C008380C680013D076081464FF00008A84587
:10543C0012D23846FFF740FB064648B16379013378
:10544C00637108F10108C9F8000007608146EEE7B6
:10545C002046FFF7BFFF34462046BDE8F883012104
:10546C000430FFF7C6BA10B5012104460430FFF72B
:10547C00CCFA10F0FF0F04D12046BDE81040FFF726
:10548C00A9BF10BD1FB5144603920022009203AAB7
:10549C00FFF74AFF039BA34203D00349F620FFF713
:1054AC00D8F904B010BD00BF04D90E001FB51446C6
:1054BC0003920122009203AAFFF736FF039BA3423B
:1054CC0004D003494FF48070FFF7C3F904B010BD4A
:1054DC0004D90E00836800225A60C3E904229A6042
:1054EC00DA601A607047000070B50C46064618B9B1
:1054FC000A493A20FFF7ADF91CB908493B20FFF7E0
:10550C00A8F97568286818B1B3682146984718B986
:10551C002B6823602C6070BD2D68F3E77DD90E00DD
:10552C0010B5044618B905495120FFF792F9636884
:10553C00186808B102681A6010BD00BF7DD90E0052
:10554C0010B5044618B903495D20FFF782F963686A
:10555C00186810BD7DD90E0010B5044618B9034962
:10556C006320FFF776F9206810BD00BF7DD90E00CF
:10557C0038B50C46054618B90A496920FFF769F990
:10558C001CB908496A20FFF764F96B68186820B1E8
:10559C00A04203D102681A60012038BD034600689E
:1055AC00F5E700BF7DD90E0010B50D49A1F58C7241
:1055BC00914201D800200FE08C1AE30F03EBE403B7
:1055CC005B1002EBC30452F83330834205D802D28D
:1055DC0004F10802ECE7606810BD2146E8E700BF63
:1055EC00C0DE0E0008B5FFF7DFFF024B002808BF36
:1055FC00184608BD94DD0E00F0B578B371B36BB3EB
:10560C0000241C600A44DB274FF0DC0C4FF0DD0E4D
:10561C001C688A4204F1010500EB040604D11D60EC
:10562C00C02333700020F0BD0E78C02E05D0DB2EC9
:10563C000CD01D600D78055506E01D6007551C68E3
:10564C00651C1D6000F804C00131E1E71D600655C2
:10565C001C68651C1D6000F804E0F5E70E20E2E70D
:10566C0010B580B3D0E902239A422ED00378012BD7
:10567C000FD0022B21D053B9C02928D0DB2902D15D
:10568C000123037003E04368541C84609954112077
:10569C0006E0DC2905D0DD290AD0022303700B209B
:1056AC0010BD511C43688160C02199540023E8E768
:1056BC00511C81604368DB21F7E7C029E7D1002347
:1056CC0003708360E3E70E20EAE70420E8E718465E
:1056DC00E6E7000038B5074C051E04F1080318BFB7
:1056EC001C4623682BB11A6822605B6828469847D1
:1056FC00F7E738BDDC6D002020B9054B01225A704C
:10570C00FFF7E8BF012802D1014A9070F8E7704713
:10571C00D46D0020014B1878704700BFD46D002069
:10572C0038B5094C23786BB908486360A3602361D2
:10573C00E36000F0E1F8054600F0F2F80123237075
:10574C00284638BD8525FBE7D46D002005570E0093
:10575C0038B51B4C2378054623B91A494FF493707E
:10576C00FFF777F8637803F0FF00ABB115B16B6806
:10577C00002098470020FEF7DFFC6368002001330F
:10578C006360FEF7E9FC6368C3B9BDE838400D49B6
:10579C004FF4A170FFF75DB8FEF7CEFC25B1A268FF
:1057AC0013463BB92A60A5606368002BE5D100F075
:1057BC00D9F8E2E79D42F7D01B68F2E738BD00BF8D
:1057CC00D46D0020C0DE0E0038B50F4C237823B901
:1057DC000E4940F24710FFF73CF8636823B90B49B8
:1057EC004FF4A470FFF735F80020FEF7A5FC6368B2
:1057FC00013B6360656815B900F0D2F86570BDE8CF
:10580C0038400020FEF7A8BCD46D0020C0DE0E008E
:10581C0010B5074C23784BB9064B002808BF184627
:10582C0000F01EF908B90123237010BD8520FCE798
:10583C00E86D00203EDF0E0008B500F04AF9BDE827
:10584C00084000F04DB907B50190FFF7F5FF01983E
:10585C0000F032F900F036F9002003B05DF804FBDB
:10586C00024AD2F80034002BFBD0704700E0014014
:10587C000A4908B50223C1F80435BFF36F8FBFF393
:10588C004F8FC1F80805FFF7EBFF0023C1F8043573
:10589C00BFF36F8FBFF34F8F08BD00BF00E0014017
:1058AC000E4B10B50124C3F80445BFF36F8FBFF343
:1058BC004F8F01EB8204401AA14208D1074B002202
:1058CC00C3F80425BFF36F8FBFF34F8F10BD431880
:1058DC0051F8042B1A60FFF7C3FFEDE700E001401D
:1058EC0010B5034653E8000F00EA010243E8002418
:1058FC0094F0000FF6D110BD10B5044618B9064946
:10590C00A020FEF7A6FF054A107918B901211460F2
:10591C00918010BD8520FCE73FDF0E00EC6D002070
:10592C0008B50C4B1B791BB90B49B920FEF791FF3D
:10593C000A4B1A68D2075FBFC02283F800230122EA
:10594C001A604FF080420123C2F81835044A1370D4
:10595C0008BD00BFEC6D00203FDF0E0000E100E051
:10596C00F46D00200B4B1B7907B51BB90A49FB20C2
:10597C00FEF76FFF094B00221A601B680193019B15
:10598C004FF080430122C3F804231A6003B05DF882
:10599C0004FB00BFEC6D00203FDF0E000001004057
:1059AC0010B50B4C227922B90A4940F20310FEF7CC
:1059BC0050FF094B01221A604FF08042D2F80C3490
:1059CC0003F00113B3F1011FF8D00023637110BD74
:1059DC00EC6D00203FDF0E0004000040154B07B5B6
:1059EC001A687AB100221A601B680093009B4FF072
:1059FC0080430122C3F808230F4B587910B95A7110
:105A0C001B6898470D4B1A6882B100221A601B68FC
:105A1C000193019B4FF080430222C3F80823064BED
:105A2C001B68012003B05DF804EB184703B05DF868
:105A3C0004FB00BF00010040EC6D0020040100409D
:105A4C0000F1804382B01A68002A14BF01200020A4
:105A5C0004D000221A601B680193019B02B07047AE
:105A6C0010B5044618B911497020FEF7F2FE104B20
:105A7C001A78C2B922784FF08041C2F34002C1F8C3
:105A8C008025227802F00102C1F87825094A1168B4
:105A9C00C9075FBFC02182F80013012111600122E8
:105AAC001A70002010BD8520FCE700BFBBDF0E0084
:105ABC00046E002000E100E0014B02681A607047A0
